:020000040800F2
:100000008049022485130008011400080114000827
:10001000011400080114000801140008011400086C
:10002000011400080114000801140008011400085C
:10003000011400080114000801140008C11D000883
:10004000C11D0008C11D0008C11D0008C11D000818
:10005000C11D0008C11D0008C11D0008C11D000808
:10006000C11D0008C11D0008C11D0008C11D0008F8
:10007000C11D0008C11D0008C11D0008C11D0008E8
:10029000C11D0008C11D000882B0BFF34F8FBFF31E
:1002A0006F8F0B4B1B680193019B23F0010301939C
:1002B000074A019B136005230193064A019B1360C3
:1002C000BFF34F8FBFF36F8F00BF02B0704700BF07
:1002D00090EF00E094EF00E000B583B0224B009374
:1002E00004E0009B1A1D009200221A60009B1F4A26
:1002F0009342F6D31E4B01931E4B009307E0019AE5
:10030000131D0193009B191D009112681A60009B38
:10031000194A9342F3D300F091FA01F049F800F042
:10032000ADFA412000F094FAFFF7B6FF02F09EF913
:10033000422000F08DFA00F0A1FF00F0BDFF432045
:1003400000F086FA00F0AAFE442000F081FA452071
:1003500000F07EFA0D2000F07BFA0A2000F078FA17
:1003600003F022FB00BFFDE7D006002480450224F5
:10037000A4BF0A0800000024C806002482B0184B5D
:100380001B680193019B43F001030193144A019BF5
:100390001360144B01221A60134B00221A60104B99
:1003A0001B680193019A114B13400193019B43F089
:1003B000100301930A4A019B13600D4B0D4A1A600A
:1003C000074B1B680193019B23F480230193044A8C
:1003D000019B1360084B00221A6000BF02B07047F7
:1003E00000440258088100511044025867EFFEEAA9
:1003F0002C4402580000FF016044025882B0044BB4
:100400001B680193024A019B136000BF02B0704752
:10041000D844025882B0044B1B680193024A019BE6
:10042000136000BF02B07047DC44025882B0044B36
:100430001B680193024A019B136000BF02B0704722
:10044000D444025882B0064B1B680193019B43F0D1
:10045000FF030193024A019B136000BF02B0704783
:10046000E044025882B00B4B1B680193019B43F49C
:1004700080430193074A019B1360074B1B6801935C
:10048000019B43F480730193034A019B136000BFF7
:1004900002B07047E8440258EC44025882B0044B62
:1004A0001B680193024A019B136000BF02B07047B2
:1004B000F044025882B0044B1B680193024A019B2E
:1004C000136000BF02B07047E444025882B0064B8C
:1004D0001B680193019B43F002030193024A019BB5
:1004E000136000BF02B07047F444025808B5FFF72C
:1004F00085FFFFF78FFFFFF799FFFFF7A3FFFFF7D8
:10050000B1FFFFF7CBFFFFF7D5FFFFF7DFFF00BF1E
:1005100008BD000082B00F4B1B680193019B23F4C0
:1005200080230193019B43F480330193094A019B8B
:100530001360094B009308E0064B1B6803F400337B
:10054000002B0BD1009B013B0093009B002BF3DCA5
:1005500005E000BF004402581CC5410000BF009BDD
:10056000002B40F36681934B1B680193019A924BD9
:1005700013400193019B43F0080301938D4A019BB3
:1005800013608E4B1B680193019B23F4E06301937E
:10059000019B43F040030193884A019B1360874B02
:1005A0001B680193019B23F4E0630193019B43F4D7
:1005B00080630193814A019B13607E4B1B6801930A
:1005C000019B23F070030193019B43F040030193CF
:1005D000784A019B13607A4B1B680193019B23F0BF
:1005E00070030193019B43F040030193744A019B04
:1005F0001360744B0193744A019B1360734B019316
:10060000734A019B1360734B0193734A019B136000
:10061000724B0193724A019B1360724B0193724AB1
:10062000019B1360714B1B680193019B43F0807326
:100630000193019B43F080630193019B43F080533E
:1006400001936A4A019B136000BF684B1B6803F06B
:100650000073002BF9D000BF644B1B6803F00063EC
:10066000002BF9D000BF614B1B6803F00053002B37
:10067000F9D05F4B1B680193019B43F00603019384
:100680005B4A019B13605B4B1B680193019B23F446
:1006900040430193019B43F440430193554A019B1E
:1006A000136000BF534B1B6803F40053002BF9D0B9
:1006B00000BF514B1B6803F40053002BF9D02423D7
:1006C00001934E4A019B13604D4B1B680193019BA4
:1006D00023F007030193019B43F003030193484A6E
:1006E000019B136000BF464B1B6803F03803182BB7
:1006F000F9D1444B1B680193019B23F48033019390
:10070000404A019B1360404B1B680193019B23F4FB
:1007100040530193019B43F4005301933A4A019BD8
:1007200013603A4B1B680193019B23F440730193C0
:10073000019B43F400730193344A019B1360344BD3
:100740001B680193019B23F4E0430193304A019B12
:1007500013602F4B1B680193019B23F4E02301934B
:10076000019B43F480330193294A019B1360274B7B
:100770001B680193019B23F0E0430193234A019BF3
:100780001360214B1B680193019B23F440130193D9
:10079000019B43F4401301931B4A019B13601B4BC5
:1007A0001B680193019B23F440330193174A019B7B
:1007B00030E000BF18440258F0F0FFFF1C4402581C
:1007C00020440258121020002844025863020303F8
:1007D000304402584A0E17023844025863020F0987
:1007E000404402588804FF012C4402580044025837
:1007F0000C48025818480258044802580020005279
:10080000104402584C440258544402585844025868
:10081000504402581360084B1B680193019B23F05E
:1008200040530193019B43F000530193024A019B03
:10083000136000BF02B070475044025808B5FFF77C
:100840009DFDFFF767FEFFF751FE00BF08BD0000EA
:1008500082B003468DF8073000BF064B1B6803F0DB
:100860008003002BF9D0044A9DF80730136000BFC5
:1008700002B070471C4800402848004000B583B0D3
:100880004FF4802200211D4800F0CBFC1C4800F0F2
:1008900025FE1C4800F022FE1B4B1B680193019AA9
:1008A00048F28F0313400193174A019B1360174BC3
:1008B0001B680193019A164B13400193134A019B45
:1008C0001360144B1B680193019A134B134001935F
:1008D000104A019B1360114B4FF459721A600B4B75
:1008E0001B680193019B43F00D030193074A019B91
:1008F000136000BF03B05DF804FB00BFE84402587A
:10090000387C0900397C0900044800400048004058
:1009100003000030084800400000F1FF0C48004090
:1009200082B0EFF311830193019BDBB2184602B052
:10093000704782B00190019B83F3118800BF02B021
:10094000704700B583B0FFF7EBFF03468DF8073023
:100950008020FFF7EEFF9DF80730184603B05DF8E2
:1009600004FB00B583B003468DF807309DF80730CF
:100970001846FFF7DEFF00BF03B05DF804FB82B04E
:1009800001900091019BD3F8A820009B13441B68A1
:10099000184602B0704784B0039002910192039B05
:1009A000D3F8A820029B13441A46019B136000BF92
:1009B00004B0704700B585B001900B46ADF8023029
:1009C000019BBDF80220A3F8902000210198FFF7B9
:1009D000D6FF0390039B23F4D8730393BDF8023032
:1009E00003F4D873039A13430393039A00210198E5
:1009F000FFF7D1FF08210198FFF7C1FF0390039B88
:100A000023F001030393BDF8023003F00103039ABE
:100A100013430393039A08210198FFF7BCFF00BF1B
:100A200005B05DF804FB00B585B001900B46ADF84C
:100A30000230FFF786FF03468DF80F30BDF8023015
:100A400019460198FFF7B6FF9DF80F301846FFF7DB
:100A500088FF00BF05B05DF804FB00B587B00190CA
:100A60000091FFF76EFF03468DF81730009B002BB7
:100A700017D000210198FFF782FF04900821019808
:100A8000FFF77DFF0390049B9BB203F4D8739AB2E7
:100A9000039B9BB203F001039BB213439AB2009BEA
:100AA0001A8000210198FFF785FF9DF8173018463E
:100AB000FFF757FF00BF07B05DF804FB00B58BB030
:100AC0000190019BDB6F0693FFF73BFF03468DF818
:100AD000173000210698FFF752FF0890089B03F09B
:100AE00001030493089B23F001030893089A002153
:100AF0000698FFF750FF069BD3F8A4305A00069BD8
:100B0000D3F89C305B081A44069BD3F89C30B2FBA8
:100B1000F3F30393039B642B08D9039B01335B0816
:100B20000793089B23F4004308930DE0039A4FF6C4
:100B3000F0731340039A520802F00702134307931D
:100B4000089B43F400430893089A00210698FFF796
:100B500022FF079A0C210698FFF71DFF089A394BD0
:100B600013400893069B93F89630012B04D1089B01
:100B700043F4C063089308E0069B93F89630022B79
:100B800003D1089B43F480630893069B93F8973046
:100B9000092B09D0069B93F89730082B09D1069BA7
:100BA00093F89630002B04D0089B43F480530893AD
:100BB0000DE0069B93F89730072B08D1069B93F81E
:100BC0009630002B03D1089B43F080530893089A7A
:100BD00000210698FFF7DFFE04210698FFF7CFFEFD
:100BE0000990099B23F440530993069B93F898308E
:100BF000002B03D0099B43F400530993099A042165
:100C00000698FFF7C8FE08210698FFF7B8FE09907E
:100C1000099B23F440730993099A08210698FFF76A
:100C2000BAFE089A049B13431A4600210698FFF760
:100C3000B2FE9DF817301846FFF793FE00BF0BB0C9
:100C40005DF804FBFFE9FFEF00B587B001900B46AC
:100C50008DF80330019BDB6F0593059BD3F8A8301B
:100C60000E4A934215D14FF4802304930C4B039307
:100C700000BF9DF80330002B05D0049A0021039893
:100C800000F0CFFA06E000220499039800F0C9FAB8
:100C900000E000BF07B05DF804FB00BF0048004063
:100CA000E844025800B585B00190019BDB6F0293C8
:100CB000002200210298FFF76EFE01210198FFF744
:100CC000C3FF029BD3F8AC30184600F007FC029B30
:100CD000D3F8B030184600F001FC04210298FFF769
:100CE0004EFE0390039B23F47D530393029B93F8E2
:100CF0009830002B03D0039B43F400530393039AD3
:100D000004210298FFF747FE00210298FFF737FE03
:100D10000390039A1F4B13400393039A00210298F8
:100D2000FFF739FE08210298FFF729FE0390039A86
:100D3000194B13400393029B93F895305B06039A7B
:100D400013430393039A08210298FFF724FE0198A6
:100D5000FFF7B4FE00210298FFF711FE0390039BFA
:100D600043F00D030393039B43F000530393039A53
:100D700000210298FFF70FFE029B0022A3F89020AB
:100D8000029B012283F894200023184605B05DF8E9
:100D900004FB00BF03BEFF33FEF8FFFF00B585B0C4
:100DA0000190019BDB6F0393039B002283F8942047
:100DB00000210398FFF751FE00210198FFF744FF3F
:100DC00000210398FFF7DBFD0290029B23F00D0347
:100DD0000293029A00210398FFF7DDFD039BD3F8ED
:100DE000AC30184600F016FD039BD3F8B03018461F
:100DF00000F010FD00BF05B05DF804FB00B585B044
:100E00000190019BDB6F0393039B93F8A030039A3F
:100E10000949184602F000FF0290029B002B05D101
:100E2000039B93F8A030184600F03CFF029B184645
:100E300005B05DF804FB00BF6D0E000800B585B07D
:100E40000190019BDB6F0393039B93F8A03018463E
:100E500000F004FF039B93F8A03000220021184605
:100E600002F0DAFE00BF05B05DF804FB00B587B004
:100E7000039002910192019B05931C210598FFF7B5
:100E80007EFD03469AB2059BA3F89220059BB3F81A
:100E9000923003F02003002B0BD0059BB3F8903069
:100EA00003F02003002B04D0059B18460BF0A8F993
:100EB0000BE0059BB3F8923003F00E03002B04D037
:100EC0000E2220210598FFF766FD059BB3F89230AE
:100ED00003F08003002B0AD0059BB3F8903003F099
:100EE0008003002B03D0059B18460BF0E2F800238B
:100EF000184607B05DF804FB86B00390029101929A
:100F0000002305936FF01803059300BF059B184657
:100F100006B0704700B585B001900091019BDB6F72
:100F2000039324210398FFF72AFD0290039BB3F853
:100F300092301A04029B1A43009B1A60039B002202
:100F4000A3F89220029BDBB2184605B05DF804FBC3
:100F500000B587B001900B468DF80330019BDB6F25
:100F60000493FFF7EEFC03468DF80F30049BB3F8B3
:100F70009030ADF816309DF80330002B06D0BDF848
:100F8000163043F02003ADF8163007E0BDF81630F8
:100F900023F4907323F00103ADF81630BDF816303A
:100FA00019460498FFF73FFD9DF80F301846FFF7EC
:100FB000D8FC00BF07B05DF804FB00B585B0019018
:100FC000019BDB6F03931C210398FFF7D8FC0346BA
:100FD00003F02003002B14BF01230023DBB21846CB
:100FE00005B05DF804FB00B585B001900091019B50
:100FF000DB6F0393009B1A4628210398FFF7CBFC75
:1010000000BF05B05DF804FB00B585B001900B464C
:101010008DF80330019BDB6F0393FFF792FC0346CF
:101020008DF80B309DF80330002B0DD0039BB3F8E7
:10103000903043F08003ADF80830BDF80830194611
:101040000398FFF7F0FC09E0039BB3F8903023F01E
:1010500080039BB219460398FFF7E5FC9DF80B301F
:101060001846FFF77EFC00BF05B05DF804FB00B535
:1010700085B00190019BDB6F03931C210398FFF760
:101080007EFC034603F08003002B14BF01230023E2
:10109000DBB2184605B05DF804FB000000B583B074
:1010A0000023019310E00E4A019B52F82330002BDD
:1010B00007D00B4A019B52F8233000211846FFF756
:1010C000CCFC019B01330193019B072BEBD9054B12
:1010D0001846FFF7E7FD00BF03B05DF804FB00BF53
:1010E0007C8A08080000002400B587B00023049320
:1010F000214B194621480AF055FF1F4B194620483D
:101100000AF050FF012304936B4610221D49184634
:101110000FF0D2F90023059325E01B4A059B52F8F6
:101120002330002B19D0184A059B52F823309B78A6
:10113000002B14D1049B5A1C0492DBB23033DBB277
:101140008DF80930104A059B52F823301A466B4639
:10115000114618460AF026FF02E000BF00E000BF7B
:10116000059B01330593059B072BD6D900BF00BF14
:1011700007B05DF804FB00BF000000249C8A08084B
:10118000AC8A0808B88A08087C8A080800B585B0C7
:1011900001900B4B03930DF10A0319460398FFF7D7
:1011A0005CFC019BDBB21846FFF752FBBDF80A302E
:1011B00019460398FFF737FC00BF05B05DF804FB44
:1011C0000000002482B0EFF311830193019BDBB296
:1011D000184602B0704782B00190019B83F31188DA
:1011E00000BF02B0704700B583B0FFF7EBFF0346C6
:1011F0008DF807308020FFF7EEFF9DF80730184686
:1012000003B05DF804FB00B583B003468DF80730EA
:101210009DF807301846FFF7DEFF00BF03B05DF80A
:1012200004FB00B587B0039002910192FFF7DBFF4A
:1012300003468DF81730039B1B680493029BDB4326
:10124000049A13400493049A019B13430493039B51
:10125000049A1A609DF817301846FFF7D4FF00BFB4
:1012600007B05DF804FB84B00190019BB3FA83F3EF
:101270000393039B184604B07047000082B0BFF38D
:101280004F8FBFF36F8F0A4B00221A60094B1B6808
:101290000193019B43F400330193064A019B1360C1
:1012A000BFF34F8FBFF36F8F00BF02B0704700BF17
:1012B00050EF00E014ED00E000B589B02D4B1B6845
:1012C0000593059B03F48033002B4FD12A4B1B68F9
:1012D0000493049B5B0BC3F30E030793049B03F07F
:1012E000070304330393049BDB08C3F3090302934E
:1012F0000298FFF7B8FF034603F01F030193BFF303
:101300004F8F029B0693069A019B02FA03F319463C
:10131000079A039B02FA03F30B430093174A009BBF
:101320001360069B5A1E0692002BECD1079B5A1E97
:101330000792002BE5D1BFF34F8F114B1B6805932C
:10134000059B43F0040305930D4A059B1360094B6D
:101350001B680593059B43F480330593054A059B61
:101360001360BFF34F8FBFF36F8F00E000BF09B072
:101370005DF804FB14ED00E080ED00E060EF00E0BC
:101380009CEF00E04FF0000EFEF7A6BF00BF7047D5
:1013900082B0EFF314830193019B184602B07047AB
:1013A00082B00190019B83F3148800BF02B07047A4
:1013B00000B583B0FFF7ECFF0190019B43F00403FD
:1013C00001930198FFF7ECFF0B4B1B680193019B06
:1013D00023F040430193084A019B1360074B1B68AD
:1013E0000193019B43F470030193044A019B136032
:1013F00000BF03B05DF804FB34EF00E088ED00E0CF
:10140000EFF30580EFF3148C1EF0040F02D0EFF31E
:10141000098107E0EFF30881A1F1700282F30888E7
:10142000BFF36F8F0A4602F16802EFF311831EF0DB
:10143000100F0CBF21ED108A403921E9FC5F1EF02E
:10144000080F04D0A1F1D80222F0070295468B467E
:1014500000F0D6FCB0E8FC5F1EF0100F0CBFB0EC43
:10146000108A40301EF0040F0CBF80F3088880F310
:10147000098883F311888CF31488704782B0EFF3E6
:1014800011830193019BDBB2184602B0704782B012
:101490000190019B83F3118800BF02B0704700B533
:1014A00083B0FFF7EBFF03468DF807308020FFF78E
:1014B000EEFF9DF80730184603B05DF804FB00B559
:1014C00083B003468DF807309DF807301846FFF7C4
:1014D000DEFF00BF03B05DF804FB000000B58FB075
:1014E0000190019B1B0903F00F030793079B072B38
:1014F00002D96FF0150386E18A4A079B52F8233020
:101500000693069B002B02D16FF015037BE1019B34
:1015100003F00F030593019B03F44023B3F5402F21
:101520001DD0B3F5402F05D8B3F5802F05D0B3F506
:10153000002F11D00023089314E0019B03F4807363
:10154000002B14BF01230023DBB21946019800F0E1
:101550006FF90123089305E00223089302E00323B7
:10156000089300BFFFF79BFF03468DF81330089BDD
:10157000022B05D1019B1B0B03F00F030C9301E021
:1015800000230C93089B022B05D1019B1B0B03F03E
:101590000F030B9301E000230B930B9B002B29D02F
:1015A000059B072B04D820230A93059B099304E08D
:1015B00024230A93059B083B0993069A0A9B13442C
:1015C0001B680D93099B9B000F2202FA03F3DB4378
:1015D0001A460D9B13400D93099B9B000B9A02FA30
:1015E00003F30D9A13430D93069A0A9B13441A466C
:1015F0000D9B1360069B1B680D93059B5B000322EC
:1016000002FA03F3DB431A460D9B13400D93059B2F
:101610005B00089A02FA03F30D9A13430D93069B9D
:101620000D9A1A6000230C93089B032B0FD0019B8B
:1016300003F44033B3F5803F03D0B3F5003F03D04C
:1016400005E001230C9302E002230C9300BF069BEC
:101650000C331B680D93059B5B00032202FA03F316
:10166000DB431A460D9B13400D93059B5B000C9AC0
:1016700002FA03F30D9A13430D93069B0C331A469B
:101680000D9B13600B9B002B29D1059B072B04D8C6
:1016900020230A93059B099304E024230A93059BC6
:1016A000083B0993069A0A9B13441B680D93099BF8
:1016B0009B000F2202FA03F3DB431A460D9B1340F3
:1016C0000D93099B9B000B9A02FA03F30D9A1343A7
:1016D0000D93069A0A9B13441A460D9B1360089BB0
:1016E000012B02D0089B022B1ED1019B03F4406307
:1016F000B3F5406F11D0B3F5406F05D8B3F5806FE7
:1017000005D0B3F5006F05D000230C9308E001234A
:101710000C9305E002230C9302E003230C9300BF1B
:1017200004E000BFC48A080800230C93069B08331A
:101730001B680D93059B5B00032202FA03F3DB4356
:101740001A460D9B13400D93059B5B000C9A02FA01
:1017500003F30D9A13430D93069B08331A460D9B12
:101760001360069B04331B680D930122059B02FA4C
:1017700003F30C93089B012B02D0089B022B09D189
:10178000019B03F40073002B04D00D9A0C9B1343B0
:101790000D9304E00C9BDB430D9A13400D93069BC5
:1017A00004331A460D9B1360089B012B25D0019B27
:1017B00003F48073002B20D0059B03F00C02144B24
:1017C00013440393039B1B680D93059B9B0003F03D
:1017D0000C0302930F22029B02FA03F3DB431A4627
:1017E0000D9B13400D93079A029B02FA03F30D9A87
:1017F00013430D93039B0D9A1A609DF813301846FE
:10180000FFF75DFE002318460FB05DF804FB00BF34
:101810000804005800B583B00190019BDBB201932E
:101820000198FFF75BFE0346184603B05DF804FB22
:1018300086B001900B468DF80330019B1B0903F025
:101840000F030493049B072B20D8124A049B52F8E1
:1018500023300393039B002B18D0019B03F00F034D
:1018600002939DF80330002B05D00122029B02FA5F
:1018700003F3059305E0029B1033012202FA03F300
:101880000593039B18331A46059B136000BF06B0EF
:10189000704700BFC48A080886B00190019B1B09ED
:1018A00003F00F030593059B072B19D80E4A059BE0
:1018B00052F823300493049B002B11D0019B03F0BA
:1018C0000F030393049B10331B680121039A01FA51
:1018D00002F21340002B14BF01230023DBB200E00F
:1018E0000023184606B07047C48A080882B0EFF398
:1018F00011830193019BDBB2184602B0704782B09E
:101900000190019B83F3118800BF02B0704700B5BE
:1019100083B0FFF7EBFF03468DF807308020FFF719
:10192000EEFF9DF80730184603B05DF804FB08B5DC
:101930000020FFF7E4FF62B600BF08BD00B585B028
:10194000039002910192FFF7E2FF054A0549032047
:101950000EF05AFF044A002100200CF092FC00BF58
:101960004C8B0808E48A0808008B080800B585B08D
:10197000039002910192FFF7CAFF054A054903202F
:101980000EF042FF044A002100200CF07AFC00BF58
:10199000588B0808088B0808008B080800B585B02C
:1019A000039002910192FFF7B2FF054A0549032017
:1019B0000EF02AFF044A002100200CF062FC00BF58
:1019C000688B0808288B0808008B080884B00190F1
:1019D000084B1B680393039B23F07F430393019BF6
:1019E0001B06039A13430393024A039B136000BF31
:1019F00004B070471CED00E086B0039002910192A4
:101A00000093039B103B0593039B0F2B56DD059B17
:101A10001F2B0CD8009A3F4B1344029A13600122EB
:101A2000059B02FA03F31A46019B1A606EE0059BC0
:101A30003F2B0DD8009A384B1344029A1360059B34
:101A4000203B012202FA03F31A46019B1A605DE073
:101A5000059B5F2B0DD8009A304B1344029A1360FC
:101A6000059B403B012202FA03F31A46019B1A60D0
:101A70004CE0059B7F2B0DD8009A294B1344029A0A
:101A80001360059B603B012202FA03F31A46019B97
:101A90001A603BE0059B952B0DD8009A214B13440F
:101AA000029A1360059B803B012202FA03F31A4657
:101AB000019B1A602AE04FF0FF3328E0029B1A4A8C
:101AC0001A60039B042B04D1019B4FF480321A60EF
:101AD0001CE0039B052B04D1019B4FF400321A60DC
:101AE00014E0039B062B04D1019B4FF480221A6063
:101AF0000CE0039B0F2B06D1029B0C4A1A60019B42
:101B000001221A6002E04FF0FF3300E00023184684
:101B100006B0704700E100E004E100E008E100E009
:101B20000CE100E010E100E024ED00E010E000E056
:101B300000B585B0384B1B6803F00F0301330193E8
:101B4000019B0293354B039309E0039B4FF0FF3257
:101B50001A60029B013B0293039B04330393029B95
:101B6000002BF2DC2E4B2F4A1A602F4B4FF08032A5
:101B70001A602E4B4FF080321A602D4B4FF080329E
:101B80001A60019BDB0002932A4B039309E0039B3D
:101B90004FF080321A60029B013B0293039B043397
:101BA0000393029B002BF2DC002223490B2002F05E
:101BB00033F800222149032002F02EF87020FFF7AD
:101BC00005FF00221E49022002F026F800221D49CE
:101BD000042002F021F800221B49052002F01CF825
:101BE00000221A49062002F017F8002218490E2098
:101BF00002F012F800F0F4FC002216490C2002F06A
:101C00000BF800221449002002F006F8FFF78FFEBF
:101C100000BF05B05DF804FB04E000E080E100E0F7
:101C200008ED00E00000000818ED00E01CED00E009
:101C300020ED00E000E400E049210008D51E000886
:101C40003D1900085D1F0008391D00082D220008FD
:101C50006D190008192600089D19000800B587B005
:101C6000019003AA04A980230198FFF7C5FE03464B
:101C7000002B13D1019B0F2B04DD049B1A46039B01
:101C800013600BE0049B1B680593039BDB43059AE1
:101C900013400593049B1A46059B136000BF07B0D1
:101CA0005DF804FB00B587B0019003AA04A90023E6
:101CB0000198FFF7A1FE0346002B12D1019B0F2BC9
:101CC00004DD049B1A46039B13600AE0049B1B6817
:101CD0000593039B059A13430593049B1A46059BA2
:101CE000136000BF07B05DF804FB82B0019000BF35
:101CF00002B0704782B0EFF311830193019BDBB216
:101D0000184602B0704782B00190019B83F311889E
:101D100000BF02B0704700B583B0FFF7EBFF03468A
:101D20008DF807308020FFF7EEFF9DF8073018464A
:101D300003B05DF804FB000000B587B0039002918A
:101D40000192084B1B680593FFF7E5FF029B064ACB
:101D50000021002002F06AFA0023184607B05DF85F
:101D600004FB00BF28ED00E0788B080882B0EFF399
:101D700011830193019BDBB2184602B0704782B019
:101D80000190019B83F3118800BF02B0704700B53A
:101D900083B0FFF7EBFF03468DF807308020FFF795
:101DA000EEFF9DF80730184603B05DF804FB82B0E3
:101DB000EFF305830193019B184602B070470000C2
:101DC00000B583B0FFF7F3FF034601930198FFF7D7
:101DD0008CFF0021019801F05BFF074B1A68074B4D
:101DE0001B689A4203D000210E2000F0C5F900BF05
:101DF00003B05DF804FB00BF980A0024900A002499
:101E000000B585B0019000911F4B0393039B1B68A5
:101E10000293019B0B2B04D1009B70331B68012B99
:101E200003D0029B009AC3F8A4200198FFF75DFF3E
:101E3000019B0E2B0AD1029BD3F8A830002B02D0B5
:101E4000029800F0B9F8FFF7A2FF03E000990198AB
:101E500001F01EFF0D4B1B680293039B1B68029948
:101E6000184602F061FE039B029A1A60029BD3F8A7
:101E7000A4300093039B1B680022C3F8A420009B9E
:101E8000184605B05DF804FB980A0024900A002467
:101E900082B0EFF311830193019BDBB2184602B0CD
:101EA000704782B00190019B83F3118800BF02B09C
:101EB000704700B583B0FFF7EBFF03468DF807309E
:101EC0008020FFF7EEFF9DF80730184603B05DF85D
:101ED00004FB000000B587B00390029101920B4B08
:101EE0001B6805930A4B1B680493059B03F00203D0
:101EF000002BFFF7DEFF029B064A0021002002F0C4
:101F000095F90023184607B05DF804FB2CED00E0BE
:101F100028ED00E0808B080882B0EFF31183019375
:101F2000019BDBB2184602B0704782B00190019B62
:101F300083F3118800BF02B0704700B583B0FFF78C
:101F4000EBFF03468DF807308020FFF7EEFF9DF88A
:101F50000730184603B05DF804FB000000B587B0F9
:101F6000039002910192084B1B680593FFF7E5FF70
:101F7000029B064A0021002002F058F9002318466F
:101F800007B05DF804FB00BF28ED00E0888B08086F
:101F900082B0EFF305830193019B184602B07047AE
:101FA00008B5FFF7F5FF0346002B14BF01230023FC
:101FB000DBB2184608BD000000B585B00190FFF700
:101FC000EFFF0346002B02D02F4B1B6801E02F4B85
:101FD0001B680393FFF7DCFF0290019A039B9A4270
:101FE0000CD1029B002B09D1019BD3F8A83001989A
:101FF0009847019B0022C3F8A82040E0019A039B68
:102000009A4207D1029B0E2B04D000210E2000F033
:10201000B3F834E0019BD3F8A420019BC3F8A020BF
:10202000019BD3F8A430D83B1A46019BC3F8A420E7
:10203000019BD3F8A400019BD3F8A030D822194605
:102040000EF089FA019BD3F8A4301A46019BD3F80D
:10205000A430D8321A60019BD3F8A43088330C4ADC
:102060001A60019BD3F8A430043380221A60019BCC
:10207000D3F8A4308C334FF080721A6000BF00BFD9
:1020800005B05DF804FB00BF980A0024900A002404
:10209000E520000882B0EFF311830193019BDBB2CE
:1020A000184602B0704782B00190019B83F31188FB
:1020B00000BF02B0704700B583B0FFF7EBFF0346E7
:1020C0008DF807308020FFF7EEFF9DF807301846A7
:1020D00003B05DF804FB08B50020FFF7E4FF62B62B
:1020E00000BF08BD00B583B0164B1B680193019B70
:1020F000D3F8A030009300BFFFF7EDFF019BD3F8AA
:10210000A83001989847FFF7D6FF019BD3F8843099
:10211000002B06D0019B5B6C03F04003002B00D129
:10212000EAE7019B0022C3F8A820019BD3F8A02076
:10213000019BC3F8A420012000DF00BF03B05DF8BD
:1021400004FB00BF900A002488B003900291019222
:10215000029B0793079B1B6F0693069B013B012B7A
:1021600003D8044B1B68059300E000BF002318460A
:1021700008B07047900A002400B585B00190009126
:1021800000230393019B0F2B05DD019BA3F110029C
:10219000134B1A6020E0019B0F2B10D0019B0F2BDB
:1021A00011DC019B022B06D0019B0E2B0BD14FF0B3
:1021B0008053039308E04FF00043039304E04FF093
:1021C0008063039300E000BF039B002B04D0039ABD
:1021D00000210448FFF725F800BF05B05DF804FBB7
:1021E00000EF00E004ED00E082B0EFF31183019313
:1021F000019BDBB2184602B0704782B00190019B90
:1022000083F3118800BF02B0704700B583B0FFF7B9
:10221000EBFF03468DF807308020FFF7EEFF9DF8B7
:102220000730184603B05DF804FB000000B587B026
:10223000039002910192084B1B680593FFF7E5FF9D
:10224000029B064A0021002001F0F0FF00231846FF
:1022500007B05DF804FB00BF28ED00E0908B080894
:1022600000B583B0134B1B681B0B1B0103F030023E
:10227000104B1B681B0903F00F031343009300234B
:10228000019309E0019A0C4B13449B001A4600236A
:102290001360019B01330193019A009B9A42F1D391
:1022A000032200210348FEF7BCFF00BF03B05DF826
:1022B00004FB00BF002000E00208003882B0144B8D
:1022C0001B681B0F03F00F0300930023019317E01B
:1022D000019A104B13441B011A4600231360019B03
:1022E0001A010D4B13441A4600231360019B1A0177
:1022F0000A4B13441A4600231360019B01330193D8
:10230000019A009B9A42E3D300BF00BF02B070471E
:10231000001000E00201000E241000E0281000E090
:1023200070B586B04E4B1B681B0F03F00F03029372
:102330000023059300230393002304932EE0049BC2
:102340001A01484B13441B680193019B03F08073EF
:10235000002B20D0019B03F00F030093049A424B03
:1023600013441B011B680593009B072B0FD0009B98
:10237000072B0FD8009B052B03D0009B062B03D007
:1023800008E00123039306E00223039303E0032301
:10239000039300E000BF049B01330493049A029B63
:1023A0009A42CCD30023049353E03049049A134655
:1023B0009B0013449B000B4404331A68059B9A420C
:1023C00044D12A49049A13469B0013449B000B44B2
:1023D0001B68039A9A4239D12449049A13469B00F8
:1023E00013449B000B440C331B68002B2ED01F4959
:1023F000049A13469B0013449B000B440C331C6847
:102400001A49049A13469B0013449B000B44186816
:102410001649049A13469B0013449B000B44043353
:102420001968124D049A13469B0013449B002B44D9
:1024300008331D680D4E049A13469B0013449B00FD
:10244000334410331B682A46A04706E0049B01333F
:102450000493049B082BA8D900BF00BF06B070BD31
:10246000001000E0281000E00201000EC80800245F
:1024700070B584B001900023039352E02C49039A75
:1024800013469B0013449B000B441B68042B45D14F
:102490002749039A13469B0013449B000B440433C3
:1024A0001A68019B9A4239D12149039A13469B002D
:1024B00013449B000B440C331B68002B2ED01C498B
:1024C000039A13469B0013449B000B440C331C6877
:1024D0001749039A13469B0013449B000B4418684A
:1024E0001349039A13469B0013449B000B44043387
:1024F00019680F4D039A13469B0013449B002B440D
:1025000008331D680A4E039A13469B0013449B0030
:10251000334410331B682A46A04706E0039B01336F
:102520000393039B082BA9D900BF00BF04B070BD63
:10253000C808002470B582B00023019346E0274903
:10254000019A13469B0013449B000B441B68052B08
:1025500039D12249019A13469B0013449B000B4436
:102560000C331B68002B2ED01C49019A13469B008C
:1025700013449B000B440C331C681849019A134602
:102580009B0013449B000B4418681449019A13469E
:102590009B0013449B000B44043319680F4D019AB0
:1025A00013469B0013449B002B4408331D680B4EBD
:1025B000019A13469B0013449B00334410331B685D
:1025C0002A46A04706E0019B01330193019B082B9B
:1025D000B5D900BF00BF02B070BD00BFC80800245D
:1025E00008B50A4B1B6803F00103002B01D0002340
:1025F00009E0FFF735FEFFF761FE054A00210548B7
:10260000FEF70FFE0023184608BD00BFF0ED00E006
:1026100000000101FCED00E000B587B003900291DD
:102620000192114B1B680593029B0493059B03F0D9
:102630000103002B01D0FFF77DFF059B03F0020390
:10264000002B05D0049B88331B681846FFF710FF4A
:10265000059B03F00403002B01D0FFF761FE00236C
:10266000184607B05DF804FB30ED00E008B5AFF3A5
:10267000008000BF08BD08B500F072F900BF08BDBA
:1026800000B583B0002301930A4808F0E5FA0190F1
:10269000019B002B05DA019A074903200EF0B4F8DC
:1026A00003E0064906200EF0AFF8019B184603B080
:1026B0005DF804FB988B0808A88B0808E48B0808D1
:1026C00000B585B0002303930023009300230F4A35
:1026D0000F4900201FF04EFE0290029B002B0ADAE9
:1026E000029A0C4903200EF08FF8039B002B07D1B0
:1026F000029B039304E0064A074906200EF084F883
:10270000039B184605B05DF804FB00BF208C080849
:10271000288C0808308C0808548C080882B00023E4
:102720000193019B184602B0704782B000230193C9
:10273000019B184602B0704700B585B00023039393
:10274000002010F08DFE0290029B002B0ADA029A04
:102750001E4903200EF058F8039B002B31D1029B39
:1027600003932EE01A4906200EF04EF81948FEF7A2
:10277000B5FE1948FEF7B2FE184B1B680193184BC3
:102780001B680093019B1B0C03F00303022B05D174
:10279000019B9B0C03F00303022B03D01149032080
:1027A0000EF032F8009B03F00F03092B05D1009BBC
:1027B0001B0903F00F03092B03D00B4903200EF074
:1027C00023F8039B184605B05DF804FB6C8C0808E1
:1027D000988C080818900800199008000004025806
:1027E00024040258C48C0808EC8C080800B583B097
:1027F0000023019300F032FB03460093009B002B63
:102800000BDA009B1A46124903200DF0FDFF019BD5
:10281000002B06D1009B019303E00E4906200DF02A
:10282000F3FF00F0EFFB03460093009B002B06DA5A
:10283000009B1A46084903200DF0E6FF03E0074914
:1028400006200DF0E1FF019B184603B05DF804FB84
:10285000148D08083C8D0808548D0808848D0808DC
:1028600000B583B0002301930A4807F0FDFD0190F5
:10287000019B002B05DA019A074903200DF0C4FFE4
:1028800003E0064906200DF0BFFF019B184603B088
:102890005DF804FBA88D0808B88D0808E48D0808C9
:1028A00082B000230193019B184602B0704782B0AA
:1028B00000230193019B184602B0704782B00023A9
:1028C0000193019B184602B07047000000B583B029
:1028D00000230193002000F047FE0090009B002B96
:1028E0000ADA009A0E4903200DF08EFF019B002B9F
:1028F00010D1009B01930DE000F072FE0090009B50
:10290000002B04DA009A074903200DF07DFF012017
:1029100000F098FE019B184603B05DF804FB00BF71
:10292000108E08083C8E080882B000230193019B9A
:10293000184602B0704782B000230193019B1846ED
:1029400002B0704782B000230193019B184602B089
:10295000704782B000230193019B184602B0704774
:1029600000B583B000230193FFF78AFE0090009B1F
:10297000002B04D0019B002B01D1009B0193FFF79A
:102980009FFE0090009B002B04D0019B002B01D1E7
:10299000009B0193FFF7C2FE0090009B002B04D028
:1029A000019B002B01D1009B0193FFF7BEFE00901D
:1029B000009B002B04D0019B002B01D1009B0193B5
:1029C000FFF714FF0090009B002B04D0019B002B0D
:1029D00001D1009B0193FFF7AFFE0090009B002BFD
:1029E00004D0019B002B01D1009B0193FFF738FF1E
:1029F0000090009B002B04D0019B002B01D1009B79
:102A00000193FFF74DFF0090009B002B04D0019B2A
:102A1000002B01D1009B0193FFF749FF0090009B21
:102A2000002B04D0019B002B01D1009B0193FFF7E9
:102A30004DFF0090009B002B04D0019B002B01D187
:102A4000009B0193FFF73AFF0090009B002B04D0FE
:102A5000019B002B01D1009B0193FFF765FF0090C4
:102A6000009B002B04D0019B002B01D1009B019304
:102A7000FFF761FF0090009B002B04D0019B002B0F
:102A800001D1009B0193FFF75DFF0090009B002B9D
:102A900004D0019B002B01D1009B0193FFF759FF4C
:102AA0000090009B002B04D0019B002B01D1009BC8
:102AB0000193019B002B04D1094906200DF0A4FECF
:102AC00008E0019A074904200DF09EFE0649062001
:102AD0000DF09AFE019B184603B05DF804FB00BFA1
:102AE000688E0808B48E0808088F080800B58BB0F7
:102AF00001900091009B00221A60019B002B08D1DD
:102B0000009B6FF015021A600023E8E0019B01337F
:102B10000193019B1B78202BF8D0019B1B78092B7C
:102B2000F4D001980DF019FE0790079B022B02D9F3
:102B3000079B042B05D9009B6FF015021A60002338
:102B4000CDE0019B1B78502B05D0009B6FF0150248
:102B50001A600023C3E0019B01331B788DF81B3002
:102B60009DF81B30402B03D99DF81B30482B05D90D
:102B7000009B6FF015021A600023B0E0019B023346
:102B8000059303AB0A22194605980CF095F80490BA
:102B9000039B1B78002B05D1049B002B02DB049BBD
:102BA0000F2B05DD009B6FF015021A60002396E0E5
:102BB0009DF81B30413B072B2AD801A252F823F085
:102BC000E12B0008E72B0008ED2B0008F32B000891
:102BD000F92B0008FF2B0008052C00080B2C00081F
:102BE000002309931AE01023099317E02023099387
:102BF00014E03023099311E0402309930EE05023A1
:102C000009930BE06023099308E07023099305E022
:102C1000009B6FF015021A60002360E0049B0F2BED
:102C200052D801A252F823F0692C00086F2C00083A
:102C3000752C00087B2C0008812C0008872C0008CC
:102C40008D2C0008932C0008992C00089F2C00085C
:102C5000A52C0008AB2C0008B12C0008B72C0008EC
:102C6000BD2C0008C32C00080023089332E0012388
:102C700008932FE0022308932CE00323089329E014
:102C80000423089326E00523089323E006230893F2
:102C900020E0072308931DE0082308931AE0092386
:102CA000089317E00A23089314E00B23089311E01C
:102CB0000C2308930EE00D2308930BE00E230893DA
:102CC00008E00F23089305E0009B6FF015021A60DF
:102CD000002304E0099A089B1A43034B1343184648
:102CE0000BB05DF804FB00BF0009040082B0019046
:102CF000019B022B01D1034B00E00023184602B0D8
:102D0000704700BF7C09002482B00190019B022B18
:102D100001D1034B00E00023184602B0704700BF0A
:102D2000FC09002400B589B00390029113468DF888
:102D30000730029B06930398FFF7D8FF0590059B89
:102D4000002B40D0029BB3F5803F03D3029B9BB284
:102D5000069308E0029B0F2B05D9059B5B79002B9E
:102D600033D000230693069BDB00059A134404939B
:102D7000049B5B7983F00103DBB2002B27D1049B1A
:102D80001B79002B12D09DF80730002B14BF0123B4
:102D90000023DBB283F00103DBB28DF81F309DF816
:102DA0001F3003F001038DF81F3003E09DF807305A
:102DB0008DF81F30049B1B689DF81F201146184694
:102DC000FEF736FD04E000BF02E000BF00E000BFF8
:102DD00009B05DF804FB00B589B003900291134679
:102DE0008DF80730029B07930398FFF78DFF06903D
:102DF000069B002B2AD0029BB3F5803F03D3029B96
:102E00009BB2079302E0029B0F2B21D8079BDB00AC
:102E1000069A13440593059B1B7983F00103DBB2EB
:102E2000002B17D1059B1A689DF80730002B14BFA3
:102E300001230023DBB283F00103DBB203F00103C3
:102E4000DBB219461046FEF7F3FC04E000BF02E0D7
:102E500000BF00E000BF09B05DF804FB08B58022A8
:102E6000002105480DF012FB8022002103480DF0DF
:102E70000DFB0023184608BD7C090024FC09002432
:102E800000B58BB00390029101928DF80330039846
:102E9000FFF72CFF0990099B002B02D16FF015035F
:102EA00036E0029B0F2B02D96FF0150330E0029B36
:102EB000DB00099A13440893089B5B79002B02D02E
:102EC0006FF00F0324E005AB19460198FFF70EFEE3
:102ED0000790059B002B01D0059B19E00798FEF792
:102EE000FDFA0690069B002B01DA069B10E09DF888
:102EF000033019460798FEF79BFC089B079A1A6057
:102F0000089B9DF803201A71089B01225A71002327
:102F100018460BB05DF804FB00B58BB0039002912E
:102F200001920398FFF7F0FE0990099B002B02D154
:102F30006FF0150330E0029B0F2B02D96FF01503E1
:102F40002AE0029BDB00099A13440893089B1B7933
:102F5000002B02D06FF00F031EE005AB194601985D
:102F6000FFF7C4FD0790059B002B01D0059B13E0E4
:102F70000798FEF7B3FA0690069B002B01DA069B32
:102F80000AE001210798FEF753FC089B079A1A6094
:102F9000089B01221A71002318460BB05DF804FB50
:102FA00000B585B0019000910198FFF79FFE039056
:102FB000039B002B02D16FF015031EE0009B0F2B2B
:102FC00002D96FF0150318E0009BDB00039A13444D
:102FD0000293029B5B7983F00103DBB2002B02D0EA
:102FE0006FF0010309E0029B00221A60029B00229D
:102FF0001A71029B00225A710023184605B05DF831
:1030000004FB000000B583B000230193022011F0FF
:103010003BF90090009B002B11D00221009809F091
:10302000DBFA0190019B002B05DA019A0649032087
:103030000DF0EAFB03E0054906200DF0E5FB019BDE
:10304000184603B05DF804FB548F0808788F080811
:1030500000B585B00390029113468DF807309DF8B6
:1030600007301A4602990220FFF75CFE00BF05B048
:103070005DF804FB82B0019000910123184602B074
:10308000704700B585B00390029113468DF8073064
:103090009DF807301A4602990220FFF79CFE002394
:1030A000184605B05DF804FB00B585B001900091AD
:1030B000019800F0FFF90390039B002B01DA039BBA
:1030C00010E00099019800F03DFA0290029B002B5D
:1030D00002D16FF0150305E0029A009901980AF0F9
:1030E000D1F90346184605B05DF804FB00B58BB076
:1030F00001900091009B00221A60019B002B08D1D7
:10310000009B6FF015021A600023E8E0019B013379
:103110000193019B1B78202BF8D0019B1B78092B76
:10312000F4D001980DF019FB0790079B022B02D9F0
:10313000079B042B05D9009B6FF015021A60002332
:10314000CDE0019B1B78502B05D0009B6FF0150242
:103150001A600023C3E0019B01331B788DF81B30FC
:103160009DF81B30402B03D99DF81B304B2B05D904
:10317000009B6FF015021A600023B0E0019B023340
:10318000059303AB0A22194605980BF095FD0490B0
:10319000039B1B78002B05D1049B002B02DB049BB7
:1031A0000F2B05DD009B6FF015021A60002396E0DF
:1031B0009DF81B30413B072B2AD801A252F823F07F
:1031C000E1310008E7310008ED310008F331000873
:1031D000F9310008FF310008053200080B32000801
:1031E000002309931AE01023099317E02023099381
:1031F00014E03023099311E0402309930EE050239B
:1032000009930BE06023099308E07023099305E01C
:10321000009B6FF015021A60002360E0049B0F2BE7
:1032200052D801A252F823F0693200086F32000828
:10323000753200087B3200088132000887320008AE
:103240008D32000893320008993200089F3200083E
:10325000A5320008AB320008B1320008B7320008CE
:10326000BD320008C33200080023089332E0012376
:1032700008932FE0022308932CE00323089329E00E
:103280000423089326E00523089323E006230893EC
:1032900020E0072308931DE0082308931AE0092380
:1032A000089317E00A23089314E00B23089311E016
:1032B0000C2308930EE00D2308930BE00E230893D4
:1032C00008E00F23089305E0009B6FF015021A60D9
:1032D000002304E0099A089B1A43034B1343184642
:1032E0000BB05DF804FB00BF0009040000B583B01B
:1032F0006B4619462A48FFF7F9FE0346294A136030
:10330000009B002B07D0009B254A274903200DF086
:103310007BFA009B3FE0234B1B681846FEF7DEF864
:103320000190019B002B06DA019A204903200DF041
:103330006BFA019B2FE06B4619461D48FFF7D6FE3E
:1033400003461C4A1360009B002B07D0009B184AC1
:10335000194903200DF058FA009B1CE0154B1B681F
:103360001846FEF7BBF80190019B002B06DA019A84
:10337000124903200DF048FA019B0CE0094B1B6831
:1033800001211846FEF754FA0A4B1B680021184623
:10339000FEF74EFA0023184603B05DF804FB00BFA9
:1033A000988F08087C0A00249C8F0808C08F0808A2
:1033B000EC8F0808800A0024F08F08081490080891
:1033C00008B50F4B1B6801211846FEF731FA42F28F
:1033D000107001F00BFD0A4B1B6800211846FEF728
:1033E00027FA42F2107001F001FD054B1B68012124
:1033F0001846FEF71DFA034801F0F8FC00BF08BDAF
:103400007C0A0024C0D4010000B583B0FFF7D8FFC8
:103410000123214A00210220FFF732FD0190019B88
:10342000002B06DA019A1D4903200DF0EDF9019BEE
:103430002DE01B4A00210220FFF76EFD0190019B49
:10344000002B0ADA019A174903200DF0DDF900215B
:103450000220FFF7A5FD019B19E0022010F014FFE8
:103460000346114A1360104B1B68002B0BD102223C
:103470000E4903200DF0C8F900210220FFF790FD4E
:103480006FF0120303E00A4B01221A700023184662
:1034900003B05DF804FB00BF3C90080840900808AA
:1034A0006490080868900808880A00248C9008082E
:1034B000840A002400B583B001901B4B1B7883F075
:1034C0000103DBB2002B03D1184B1B68002B06D184
:1034D000174903200DF098F96FF012031FE0019BCC
:1034E000002B07D0019A134903200DF08DF96FF0DE
:1034F000150314E00D4B1B680F49184607F00CFB31
:1035000003460E4A13600D4B1B68002B06D10C4975
:1035100003200DF079F96FF0120300E00023184644
:1035200003B05DF804FB00BF840A0024880A00246D
:10353000B0900808D0900808B80000248C0A002435
:10354000EC90080882B001900091019B002B02D101
:10355000009B002B01D0002301E0024B1B681846A2
:1035600002B070478C0A002400B585B00190FFF7C7
:10357000BDFE0390039B002B06DA039A1549032036
:103580000DF042F9039B20E0FFF73EFF0390039B01
:10359000002B06DA039A104903200DF035F9039B3E
:1035A00013E000210020FFF77FFD0390039B002B19
:1035B0000ADA039A094903200DF026F900210220B6
:1035C000FFF7EEFC039B00E00023184605B05DF812
:1035D00004FB00BF149108083491080850910808B2
:1035E00000B583B0154B1B68002B04D0134B1B6830
:1035F0001B69002B06D1124903200DF005F96FF06D
:10360000120316E00023ADF800300023ADF80230BD
:103610004FF4F073ADF804304FF4A073ADF80630FA
:10362000064B1B681B69054A126869461046984795
:103630000346184603B05DF804FB00BF8C0A002463
:103640007491080800B583B003468DF80730064B27
:103650001B689DF8072011461846FEF7E9F800BFE1
:1036600003B05DF804FB00BF800A002482B0254B44
:103670000193019B00221A60019B00221A71019B99
:103680000833214A1A60019B083301221A71019BF9
:1036900010331E4A1A60019B103305221A71019BD8
:1036A00018331A4A1A60019B183305221A71019BBC
:1036B0002033174A1A60019B203300221A71019BA4
:1036C000283308221A60019B283309221A71019BB2
:1036D0003033104A1A60019B303300221A71019B6B
:1036E000383300221A60019B383309221A71019B7A
:1036F000403308221A60019B403309221A7100BF2F
:1037000002B07047C00A00249C0A0024900A0024DA
:10371000AC0A0024A40A002400B585B0AC22002124
:103720007A480CF0B3FE00230393E5E0039BAC2240
:1037300002FB03F3754A13440293029B039A1A6334
:10374000029B032283F84020029B0122A3F8482019
:10375000029B6F4A9A63029B6D4ADA63029B0222C4
:103760005A64029B0193019B00225A60029B93F8CA
:103770004030684ADB0013441B7903F00803002B38
:103780000AD0029B1B6F029A92F840201146614AB0
:1037900052F83120134406E0029B93F840301A4659
:1037A0005C4B53F832301A68019B1A60029B93F805
:1037B0004030584ADB0013441B7903F00803002B08
:1037C0000AD0029B1B6F029A92F840201146514A80
:1037D00052F83120134406E0029B93F840301A4619
:1037E0004C4B53F832301B68002B3ED1029B93F8B0
:1037F0004030484ADB0013441B7903F00803002BD8
:103800000AD0029B1B6F029A92F840201146414A4F
:1038100052F83120134406E0029B93F840301A46D8
:103820003C4B53F83230019A1A60029B93F84030B7
:10383000384ADB0013441B7903F00803002B0AD03D
:10384000029B1B6F029A92F840201146314A52F8AF
:103850003120134406E0029B93F840301A462D4B6A
:1038600053F83230019A5A603EE0029B93F84030A0
:10387000284ADB0013441B7903F00803002B0AD00D
:10388000029B1B6F029A92F840201146214A52F87F
:103890003120134406E0029B93F840301A461D4B3A
:1038A00053F832301B68019A5A60029B93F84030FB
:1038B000184ADB0013441B7903F00803002B0AD0DD
:1038C000029B1B6F029A92F840201146114A52F84F
:1038D0003120134406E0029B93F840301A460D4B0A
:1038E00053F83230019A1A600B49039B029A41F84F
:1038F0002320039B01330393039B002B7FF716AF19
:1039000000BF00BF05B05DF804FB00BF0C0B002436
:10391000A9390008C00A0024980A002400B585B01F
:103920000023039331E0039BAC2202FB03F31B4A09
:10393000134402931A4B1B68013B039A13400193F3
:10394000184B1A68019B9B001344029A1A60029B51
:103950005B6CDBB21946029803F066F8029801F03E
:103960005FFF029B002283F89C20029810F06AFE01
:10397000029802F04FFA029803F0B4F8029B9B6899
:1039800003221A72039B01330393039B002BCADDAE
:1039900000BF00BF05B05DF804FB00BF0C0B0024A6
:1039A000BC0A0024B80A002400B585B03A4B0122B5
:1039B0001A70FFF75BFEFFF7AFFE374B02221A705B
:1039C00006F06CFC01AA02AB114618460EF076FB1D
:1039D000029B019A114618460DF088F90DF0FAF98C
:1039E0001023039302E0039B5B000393039B012BD3
:1039F000F9DD039B9B0018460DF0D2F90346274AD8
:103A00001360274A039B1360FFF788FF254B0022B2
:103A10001A60214B03221A7000F0B2F81BF0CCF9A7
:103A200000F0B0F802F0E4FC02F022F801F088F9AE
:103A300000F00EFE19F05AFF21F08AFE10F0BCFCD7
:103A400006F02EFC144B04221A700023039313E09B
:103A5000039B002B0BDD039BAC2202FB03F3124AFA
:103A6000134401220021184603F0AAF901E003F0F3
:103A700085F9039B01330393039B002BE8DD064B81
:103A800005221A7000F06AF8034B06221A7000F043
:103A900069FF10F0CDFDFCE7080B0024B80A0024F4
:103AA000BC0A0024B40A00240C0B002408B502F060
:103AB000FBFB00BF08BD000000B58BB000230893DE
:103AC000FEF7D9FD03AB18460BF07EF864238DF8A2
:103AD0000D304FF40063069303AA0023019308AB53
:103AE0000093134600220649064801F047FF09905B
:103AF00003AB18460BF0A1F800BF0BB05DF804FB58
:103B000011470108C091080800B583B001900091E9
:103B1000FFF7D2FF0023184603B05DF804FB000056
:103B200000B587B002F01AFD034603930023029309
:103B3000084B01934FF4006300930023F02202210D
:103B4000054801F0DDF90346059300BF07B05DF8B5
:103B500004FB00BF093B0008CC91080808B501220E
:103B60000549064802F006FEFFF7A0FFFFF7D8FF61
:103B70000023184608BD00BFD8910808DC9108084A
:103B800000BF704700B583B00023019307E0084AE7
:103B9000019B084942F83310019B01330193019BBB
:103BA000A52BF4DDFDF7C4FF00BF03B05DF804FBF7
:103BB000B80B00242D3D000882B0EFF31183019370
:103BC000019BDBB2184602B0704782B00190019BA6
:103BD00083F3118800BF02B0704700B583B0FFF7D0
:103BE000EBFF03468DF807308020FFF7EEFF9DF8CE
:103BF0000730184603B05DF804FB00B583B00346F8
:103C00008DF807309DF807301846FFF7DEFF00BF3C
:103C100003B05DF804FB000000B589B00390029189
:103C200001926FF015030793039BA52B27D8039BE5
:103C30000693069B002B01DA069B21E0FFF7CDFFE0
:103C400003468DF81730029B002B06D10398FEF730
:103C500005F80D4B0293002301930C49069B029A31
:103C600041F83320094A069BDB001344019A5A604D
:103C70009DF817301846FFF7C0FF00230793079BF6
:103C8000184609B05DF804FB2D3D0008B80B002470
:103C900000B587B001900091114B05930023049368
:103CA000019B0393019BA52B10D8039B0D4A52F84F
:103CB0003330002B0AD0039B0A4A52F83330059365
:103CC000039B084ADB0013445B680493059B049A3A
:103CD00000990198984700BF07B05DF804FB00BF4A
:103CE0002D3D0008B80B002482B0EFF3118301933F
:103CF000019BDBB2184602B0704782B00190019B75
:103D000083F3118800BF02B0704700B583B0FFF79E
:103D1000EBFF03468DF807308020FFF7EEFF9DF89C
:103D20000730184603B05DF804FB000000B585B00D
:103D3000039002910192FFF7E8FF039B044A0549B3
:103D400003200CF061FD044A002100200AF099FADA
:103D5000FC910808E0910808F491080882B0EFF39C
:103D600011830193019BDBB2184602B0704782B009
:103D70000190019B83F3118800BF02B0704700B52A
:103D800083B0FFF7EBFF03468DF807308020FFF785
:103D9000EEFF9DF80730184603B05DF804FB00B550
:103DA00083B003468DF807309DF807301846FFF7BB
:103DB000DEFF00BF03B05DF804FB82B0EFF30583C4
:103DC0000193019B184602B0704784B00190019B9B
:103DD0000393039B1B68184604B0704708B5FFF7B0
:103DE000ECFF0346002B14BF01230023DBB218466F
:103DF00008BD0000F0B58FB00B900A910B9B0D939E
:103E000062E00D9B0C930D9B09930C9B0A9A9A42BE
:103E100002D90C9B1B6800E000230C9A0432114667
:103E20000A9A8A4202D90C9A526800E000220C9940
:103E3000083108460A99814202D90C99896800E044
:103E400000210C980C3004460A98A04202D90C9824
:103E5000C06800E000200C9C103425460A9CAC424F
:103E600002D90C9C246900E000240C9D14352E46D8
:103E70000A9DB54202D90C9D6D6900E000250C9E9B
:103E8000183637460A9EBE4202D90C9EB66900E03B
:103E900000260C9F1C37BC460A9F674502D90C9F21
:103EA000FF6900E0002707970696059504940390A4
:103EB000029101920093099B074A084901200CF0E6
:103EC000A3FC0D9B20330D930D9A0A9B9A4298D91F
:103ED00000BF00BF0FB0F0BD589408084892080812
:103EE00000B587B00390029101920093019A009B64
:103EF00013440593039B194A194901200CF084FCD3
:103F0000019B164A174901200CF07EFC009B134AC6
:103F1000154901200CF078FC029B002B12D0029B6B
:103F20000E4A124901200CF06FFC029B203B019AC3
:103F30009A4202D8029B203B029305990298FFF710
:103F400059FF06E0019A009B134419460198FFF7B8
:103F500051FF00BF07B05DF804FB00BF6494080880
:103F60007C9208088C9208089C920808B092080875
:103F700000B58BB00390029100230493039BDB6E8A
:103F80000793039B5B6E0693079A069B1344059366
:103F90000023099300238DF82330029A079B9A424D
:103FA00006D3029A059B9A4202D2029B099308E02B
:103FB00001238DF82330029B0B4A0C4901200CF0A1
:103FC00023FC099B002B03D19DF82330002B07D045
:103FD00000230093069B079A09990548FFF780FF85
:103FE00000BF0BB05DF804FB74940808C092080889
:103FF000F4920808F0B5ADB0119010911BAB4022BF
:10400000002118460CF042FA1BAB402219461198C9
:1040100000F016FF13AB20221946119800F042FD64
:1040200013AB2C2118460CF0F8FA2B902B9B002B8D
:1040300002D02B9B20221A70119B1B6B0D93119B9E
:104040009B68002B03D0119B9B681B6801E04FF01D
:10405000FF33119A92F834200E92119A526CD208C2
:1040600002F003021A4951F822200F921199496C6B
:1040700001F00301174850F821101198406C00F42A
:104080008070002801D0502000E02D20119CA46FEA
:10409000119D6D6F119EF66E119F7F6E1BAA0B9284
:1040A0000D4A0A92099708960795069413AC059451
:1040B000049003910F9A02920E9A019200930D9B25
:1040C000064A074901200CF09FFB00BF2DB0F0BD50
:1040D000389408084894080844930808809408080D
:1040E000FC92080808B5054A054901200CF08CFB34
:1040F0000021044800F08AFB00BF08BD8C9408082A
:1041000050930808F53F000800B583B00190009176
:10411000009810F0A3F90098FFF757FE03461946E0
:104120000198FFF725FF00BF03B05DF804FB000016
:1041300000B5B1B0099008910792069300232F9320
:10414000099B9B68002B0CD0099B5B6C03F003035D
:10415000022B06D0099B9B681B68184600F0E8FA02
:104160002F900AAB18460AF085F90AAA0AAB7D33EC
:1041700003930AAB4A3302930AAB353301930AAB7C
:10418000153300931346184A184901200CF03CFBE4
:10419000069B002B01D0069A00E0154A089B002BD5
:1041A00001D0089B00E0124B2F99002901D0114942
:1041B00000E011490998C06B049003910D490291E8
:1041C0000799019100931346074A0C4901200CF00E
:1041D0001BFB32990998FFF797FF08F037FA00BFE9
:1041E00031B05DF804FB00BF98940808C09308083C
:1041F000E893080844930808EC930808F493080827
:1042000000B585B00390029101920093FFF76AFF19
:1042100008F01CFA08F01AFA00BF05B05DF804FBBC
:1042200008B5FA2002F081F9FBE7000000B58FB075
:104230000590049103920293464B1B78DBB2042B4A
:104240008CBF012300238DF83630FFF7C7FD0346EE
:10425000002B02D0404B1B6801E0404B1B680C93C5
:104260003C4B1B78DBB2062B01D9FFF7D9FF0023AB
:104270008DF837309DF83630002B06D0FFF77FFDE4
:1042800003468DF8373000F00DFBFFF7A7FD03461E
:10429000002B05D10C9B5B6C03F00303022B02D1B6
:1042A0002C4B07221A70029B002B05D12C480DF0D5
:1042B000E3FE2B4B029304E0D822029928480CF02D
:1042C0004AF90C9B0793029B0893059B0A93049B56
:1042D0000B93039B09931F4B1B78DBB2062B94BFF8
:1042E00001230023DBB21A4607AB1946104600F043
:1042F00069F808F0ABF9029B0093039B049A0599B7
:104300000C98FFF715FF134B1B78DBB2062B12D965
:10431000029B0093039B049A05990C98FFF770FF8A
:1043200007AB1946022000F04DF80021022000F0F2
:10433000F3F8FFF775FF9DF83630002B06D09DF897
:1043400037301846FFF72BFD00F00CFB00BF0FB015
:104350005DF804FB080B0024980A0024900A00244E
:10436000F010002482B0EFF311830193019BDBB2C4
:10437000184602B0704782B00190019B83F3118808
:1043800000BF02B0704700B583B0FFF7EBFF0346F4
:104390008DF807308020FFF7EEFF9DF807301846B4
:1043A00003B05DF804FB00B583B003468DF8073019
:1043B0009DF807301846FFF7DEFF00BF03B05DF839
:1043C00004FB000000B589B0019000911A4B0593E1
:1043D000FFF7D9FF03468DF813304FF0FF330693F4
:1043E00000230393059B1B68079315E0079B5B68FD
:1043F0000293079B1B68009A019907989847039BB3
:10440000002B04D0039B1B685A1C039B1A60029B61
:104410000793069B013B0693079B002B02D0069B4C
:10442000002BE3D19DF813301846FFF7BCFF00BF07
:1044300009B05DF804FB00BFC811002482B0EFF39F
:1044400011830193019BDBB2184602B0704782B022
:104450000190019B83F3118800BF02B0704700B543
:1044600083B0FFF7EBFF03468DF807308020FFF79E
:10447000EEFF9DF80730184603B05DF804FB00B569
:1044800083B003468DF807309DF807301846FFF7D4
:10449000DEFF00BF03B05DF804FB000000B589B08B
:1044A00001901C4B0593FFF7DAFF03468DF813309C
:1044B000059B0793019B03930023069313E0079B3F
:1044C0001B68039A9A4203D16FF0100306930EE023
:1044D000039B9A68079B1B689B689A4207DC079BB3
:1044E0001B6804330793079B1B68002BE7D1069BCF
:1044F000002B06D1079B1A68039B5A60079B039AFF
:104500001A609DF813301846FFF7B9FF00BF09B0D5
:104510005DF804FBCC11002400B589B00190009136
:104520001A4B0593FFF79BFF03468DF813304FF0AE
:10453000FF33069300230393059B1B68079315E045
:10454000079B5B680293079B1B68009A0199079879
:104550009847039B002B04D0039B1B685A1C039BAA
:104560001A60029B0793069B013B0693079B002B57
:1045700002D0069B002BE3D19DF813301846FFF7BD
:104580007EFF00BF09B05DF804FB00BFCC11002422
:1045900088B00390029111461A460B46ADF80630DA
:1045A00013468DF80530002307931DE0029B069308
:1045B000069B9DF805201A72039B0593069B0493A6
:1045C000059B1A68049B1A60049B059A5A60059B18
:1045D0001B68049A5A60059B049A1A60029B2C334C
:1045E0000293079B01330793BDF80630079A9A425E
:1045F000DCDB029B184608B0704788B0039002913C
:104600001346ADF806300023079317E0039B06938B
:10461000029B0593069B1A68059B1A60059B069AE8
:104620005A60069B1B68059A5A60069B059A1A6099
:10463000029B30330293079B01330793BDF806308A
:10464000079A9A42E2DB029B184608B070470000C6
:1046500000B585B01A4B03931A4B0293029B029A42
:104660005A60029B5A68029B1A6000230822039931
:104670001448FFF78DFF0390134B0193019B019AA0
:104680005A60019B5A68019B1A6002230822039911
:104690000D48FFF77DFF03900C4B0093009B009AA1
:1046A0005A60009B5A68009B1A60082203990748C9
:1046B000FFF7A3FF039000BF05B05DF804FB00BF48
:1046C000E0110024D0110024D81100242016002469
:1046D00082B0EFF311830193019BDBB2184602B065
:1046E000704782B00190019B83F3118800BF02B034
:1046F000704700B583B0FFF7EBFF03468DF8073036
:104700008020FFF7EEFF9DF80730184603B05DF8F4
:1047100004FB00B583B003468DF807309DF80730E1
:104720001846FFF7DEFF00BF03B05DF804FB000092
:1047300000B587B0019000230593FFF7DAFF034629
:104740008DF81330174B1B68002B21D0019B002BD9
:104750001EDB154B1B68013B019A13400393114B61
:104760001A68039B9B0013441B68002B10D00D4B51
:104770001A68039B9B0013441B681B6B019A9A42A7
:1047800006D1084B1A68039B9B0013441B680593D2
:104790009DF813301846FFF7BCFF059B184607B07D
:1047A0005DF804FBB80A0024BC0A002482B0EFF3D1
:1047B00011830193019BDBB2184602B0704782B0AF
:1047C0000190019B83F3118800BF02B0704700B5D0
:1047D00083B0FFF7EBFF03468DF807308020FFF72B
:1047E000EEFF9DF80730184603B05DF804FB00B5F6
:1047F00083B003468DF807309DF807301846FFF761
:10480000DEFF00BF03B05DF804FB000000B585B01B
:1048100001900091FFF7DBFF03468DF80B3000F0AD
:1048200041F80023039314E0124B1A68039B9B008A
:1048300013441B68002B09D00E4B1A68039B9B0086
:1048400013441A68019B009910469847039B013353
:104850000393094B1B68039A9A42E5DB00F082F848
:104860009DF80B301846FFF7C2FF00BF05B05DF89A
:1048700004FB00BFB80A0024BC0A002482B0EFF396
:1048800005830193019B184602B0704708B5FFF7F6
:10489000F5FF0346002B14BF01230023DBB21846AB
:1048A00008BD000000B583B0FFF7F0FF034683F0BA
:1048B0000103DBB2002B0CD0084B1B680193019B5A
:1048C000B3F948309BB201339BB21AB2019BA3F8F3
:1048D000482000BF03B05DF804FB00BF900A00242D
:1048E00082B0EFF311830193019BDBB2184602B053
:1048F000704782B00190019B83F3118800BF02B022
:10490000704700B583B0FFF7EBFF03468DF8073023
:104910008020FFF7EEFF9DF80730184603B05DF8E2
:1049200004FB00B583B003468DF807309DF80730CF
:104930001846FFF7DEFF00BF03B05DF804FB82B04E
:10494000EFF305830193019B184602B0704708B549
:10495000FFF7F5FF0346002B14BF01230023DBB252
:10496000184608BD00B585B0FFF7F1FF034683F098
:104970000103DBB2002B46D0254B1B680193019B42
:10498000B3F94830012B35D1FFF7BBFF03468DF853
:104990000F30019B0022A3F848201E4B1B68029396
:1049A000029B002B0ED000F0C5F80346002B09D067
:1049B000FFF7CDFF034683F00103DBB2002B01D0EC
:1049C000022000DF019B5B6C03F01803082B0BD166
:1049D000019BDB6C002B07D10D4B1A68019B9A429F
:1049E00002D0019B1422DA649DF80F301846FFF7BD
:1049F00098FF08E0019BB3F9482092B2013A92B2C5
:104A000012B2A3F8482000BF05B05DF804FB00BF58
:104A1000900A00249C0A002484B00190019B1B682A
:104A200023F000430393039A054B1340044A934237
:104A300001D0039B01E04FF0FF33184604B07047EC
:104A4000FEFFFF7F82B0EFF311830193019BDBB286
:104A5000184602B0704782B00190019B83F3118821
:104A600000BF02B0704700B583B0FFF7EBFF03460D
:104A70008DF807308020FFF7EEFF9DF807301846CD
:104A800003B05DF804FB00B583B003468DF8073032
:104A90009DF807301846FFF7DEFF00BF03B05DF852
:104AA00004FB000000B587B0039002910192FFF76C
:104AB000DAFF03468DF81730039B93F84030052B3F
:104AC00018D1039B1B6F1B7903F00403002B11D03B
:104AD000039B1B6F1846FFF79FFF04909DF817304C
:104AE0001846FFF7D0FF049B0D4A019902980AF07F
:104AF000AAF811E09DF817301846FFF7C4FF039B92
:104B000093F840301A46074B53F82230019A194661
:104B100002980BF0D1FC00BF00BF07B05DF804FBAA
:104B2000289508083C95080882B00190009100BFC4
:104B300002B0704786B000238DF80F302E4B1B68F3
:104B40000493049BB3F94830002B50DC2B4B1B68BB
:104B5000059343E0059B1B68029302E0049B1B68DE
:104B60000493049B002B07D0059B93F83420049BEF
:104B700093F834309A42F1D9049B5B680193019B0E
:104B8000002B17D1059B049A1A60059B00225A60DE
:104B9000049B059A5A60184A059B1360049B0222E5
:104BA00083F84020059B032283F8402001238DF8E1
:104BB0000F300FE0059B049A1A60059B019A5A601A
:104BC000019B059A1A60049B059A5A60059B022274
:104BD00083F84020059B0493029B0593059B002BC3
:104BE000B8D1064B00221A60044B00225A609DF88F
:104BF0000F30184606B07047900A00249C0A002423
:104C000086B0039002911346ADF806300023059359
:104C10001CE0029B03F11C0202920493049B0022FD
:104C20001A60039B1B68002B06D1039B049A1A6031
:104C3000039B049A5A6006E0039B5B68049A1A601F
:104C4000039B049A5A60059B01330593BDF8063017
:104C5000059A9A42DDDB00BF00BF06B0704786B000
:104C60000390029111461A460B46ADF806301346E2
:104C70008DF805300023059320E0029B9DF8052068
:104C80001A77029B03F1200202920493049B0022F4
:104C90001A60039B1B68002B06D1039B049A1A60C1
:104CA000039B049A5A6006E0039B5B68049A1A60AF
:104CB000039B049A5A60059B01330593BDF80630A7
:104CC000059A9A42D9DB029B184606B0704786B017
:104CD0000390029111461A460B46ADF80630134672
:104CE0008DF805300023059320E0029B9DF80520F8
:104CF0001A75029B03F1180202920493049B00228E
:104D00001A60039B1B68002B06D1039B049A1A6050
:104D1000039B049A5A6006E0039B5B68049A1A603E
:104D2000039B049A5A60059B01330593BDF8063036
:104D3000059A9A42D9DB029B184606B070470000DC
:104D400000B583B0224B0193224B00221A60214B05
:104D500000225A60204B00221A601F4B00225A602A
:104D60001E4B00221A601D4B00225A601C4B002271
:104D70001A601B4B00225A601A4B00221A60194B12
:104D800000225A60042218491248FFF739FF002315
:104D9000042201991048FFF762FF019002230822C4
:104DA00001990E48FFF75BFF01900023042201994F
:104DB0000B48FFF78CFF0190022308220199094854
:104DC000FFF785FF019000BF03B05DF804FB00BF53
:104DD000C016002498160024A0160024A81600244B
:104DE000B0160024B81600242816002400B587B099
:104DF000019000230593019B002B18D0019B0E4AC4
:104E0000A2FB03239B0C0493049B0293049B0B4A79
:104E100002FB03F3019AD31A4FF47A7202FB03F3F5
:104E2000039302AB0021184602F003FF0590059B97
:104E3000184607B05DF804FB83DE1B4340420F00B9
:104E400000B58BB005900491039200230993059B54
:104E5000002B06D0039B002B03D0059B1B6B002B64
:104E600004DC049B00221A70002340E0059B5B6C6D
:104E700003F00303012B13D1059BAC330793059B70
:104E8000DA6B079B5B68009313461B4A03990498EF
:104E900009F0D9FE03461A46099B1344099320E002
:104EA000059802F064FC03460433089311E0049A69
:104EB000099BD018039A099BD11A089B1A1D0892C6
:104EC0001B680E4A09F0BFFE03461A46099B1344AD
:104ED0000993089B1B68002B03D0099A039B9A42F5
:104EE000E5D3039B5A1E099B934228BF13461846DD
:104EF0000BB05DF804FB00BF6095080868950808D2
:104F000000B58FB00990079206930B468DF82330B9
:104F1000AC200BF045FF0D900D9B002B02D16FF0E4
:104F20000B0326E09DF8233043F400431A460D9B03
:104F30005A64109B00220492139A0392129A0292CE
:104F4000119A01920093069B079A09990D9800F017
:104F500087F80C900C9B002B04DA0D980BF0DAFE0E
:104F60000C9B06E00D9B1B6B0B930D9800F0A2FBB6
:104F70000B9B18460FB05DF804FB00B589B0079095
:104F80000691059204930C9B002B03D101F0E6FAE5
:104F9000034600E00C9B03930B9B02930A9B019337
:104FA000049B0093059B069A00210798FFF7A8FF32
:104FB0000346184609B05DF804FB00B58BB00790B6
:104FC000069105920493002302930D9B01930C9B81
:104FD0000093049B059A06990798FFF7CEFF099066
:104FE000099B002B08DA09F067F90246099B5B422E
:104FF00013604FF0FF330993099B18460BB05DF81F
:1050000004FB00B587B00590049103920293089BBE
:105010000193029B0093039B002204990598FFF7DC
:10502000CCFF0346184607B05DF804FB00B589B015
:105030000790069105920493002303930B9B029320
:105040000A9B0193049B0093059B069A02210798F3
:10505000FFF756FF0346184609B05DF804FB000051
:1050600000B589B00590049103920293059B5B6C97
:10507000DBB203F003038DF81B30059B5B6CDBB2E6
:105080001946059801F0D0FC0790079B002B01DA28
:10509000079B6FE0059800F0C3FB059B002283F897
:1050A0009C20059B9B680D99184601F094FA079087
:1050B000079B002B3FDB01220E99059801F080FE33
:1050C0000790079B002B38DB029B002B06D00A9A27
:1050D000029905980FF07BFA079007E09DF81B30C6
:1050E0001A460A9905980FF007F90790079B002BBD
:1050F00025DB9DF81B3000930B9B204A03990598F4
:1051000000F082FA0790079B002B1ADB059800F04D
:1051100081FE0790079B002B15DB0C9A04990598DC
:1051200000F0CEF90790079B002B0EDB059801F0ED
:10513000D9FC079B1EE000BF08E000BF06E000BFEF
:1051400004E000BF02E000BF00E000BF029B002BB4
:1051500009D1059B9B6E002B05D09DF81B3019468D
:1051600005980FF04BF9059800F04EFB059801F0FB
:105170009AFD079B184609B05DF804FB0957000823
:1051800000B587B00190019B0593059B5B68049374
:10519000059B1B680393049B002B03D1124A039BBE
:1051A000136002E0049B039A1A60039B002B03D157
:1051B0000D4A049B536002E0039B049A5A60059BCE
:1051C00000221A60059B00225A60019B5B6CDBB2D7
:1051D00003F00303DBB21946019802F001FA00BFA5
:1051E00007B05DF804FB00BFAC0A002482B0EFF307
:1051F00011830193019BDBB2184602B0704782B065
:105200000190019B83F3118800BF02B0704700B585
:1052100083B0FFF7EBFF03468DF807308020FFF7E0
:10522000EEFF9DF80730184603B05DF804FB00B5AB
:1052300083B003468DF807309DF807301846FFF716
:10524000DEFF00BF03B05DF804FB000000B589B0CD
:105250000190FFF7DCFF03468DF81730534B1B68B6
:1052600001330793002306932CE0079B002B01DCFE
:10527000012307934E4B1B68013B079A134002938F
:105280004C4B1A68029B9B0013441B68002B13D1E4
:10529000484B1A68029B9B001344019A1A60019BB9
:1052A000079A1A63414A079B13609DF81730184606
:1052B000FFF7BDFF002374E0079B01330793069BB4
:1052C000013306933A4B1B68069A9A42CDDB394B61
:1052D0001B6804939DF817301846FFF7A8FF344B5E
:1052E0001B68DB0018460BF05BFD0390039B002B53
:1052F00002D16FF00B0354E0FFF789FF03468DF8EE
:1053000017302C4B1B68049A9A4208D09DF817302E
:105310001846FFF78CFF03980BF0FCFC99E7244B31
:105320001B685B00224A13600023069323E0214B95
:105330001A68069B9B0013441B68002B17D01D4B5B
:105340001A68069B9B0013441B681A6B184B1B685A
:10535000013B13400293174B1A68069B9B001A44AB
:10536000029B9B0003990B4412681A6000E000BF87
:10537000069B013306930E4B1B68002B00DA0133AA
:105380005B101A46069B9342D1DB0A4A039B1360CB
:105390009DF817301846FFF74AFF04980BF0BAFC47
:1053A00057E7184609B05DF804FB00BFB40A0024B3
:1053B000BC0A0024B80A002400B589B00390029109
:1053C000019200933C4B1B6807930398FFF73EFF45
:1053D0000690069B002B69D1029BDAB2039B83F8EF
:1053E0003420029BDAB2039B83F83520039B019A99
:1053F0009A63009A039BDA639DF8283003F0030355
:105400008DF82830039B5B6C23F00302039B5A64E6
:10541000039B5A6C9DF828301A43039B5A64039BE4
:105420005B6C23F01802039B5A64039B5B6C43F094
:105430000802039B5A64039B1422DA64039B079AB5
:105440007433743292E8030083E80300039B002264
:1054500083F8402003980FF0F5F8FFF7D8FE0346D5
:105460008DF81730039B0493049B00225A60134B62
:105470001A68049B1A60114B1B68002B06D10F4A57
:10548000049B13600D4A049B536006E00B4B1B68A2
:10549000049A5A60094A049B1360039B042283F810
:1054A00040209DF817301846FFF7C1FE069B1846AE
:1054B00009B05DF804FB00BF900A0024AC0A002488
:1054C00000B58DB0039002910192029B002B01D197
:1054D0004C4B029302980BF040F9034601330A93B8
:1054E00000230993019B002B26D01EE0099B9B0003
:1054F000019A13441B6818460BF02FF902460A9BC9
:10550000134401330A93039B5B6E0A9A9A4202D3B7
:105510006FF0230372E0099B01330993099BB3F5F4
:10552000807F02DD6FF0060368E0099B9B00019A13
:1055300013441B68002BD9D1099B02339B000793AE
:10554000079A0A9B1344194603980FF013F8069024
:10555000069B002B02D16FF00B034FE0069A079BCE
:1055600013440B93069B0B9A1A6002980BF0F5F804
:105570000346013305930A9A02990B980AF09CFF9F
:10558000059B0B9A13440B93059B0A9AD31A0A9313
:105590000023089326E0089B01339B00069A1344DE
:1055A0000B9A1A60089B9B00019A13441B681846CB
:1055B0000BF0D3F8034601330593089B9B00019A37
:1055C00013441B680A9A19460B980AF075FF059B4D
:1055D0000B9A13440B93059B0A9AD31A0A93089BC0
:1055E00001330893089A099B9A42D4DB099B013343
:1055F0009B00069A134400221A60002318460DB03F
:105600005DF804FB6C95080800B587B0059004911F
:10561000039202939DF820300093029B039A049911
:105620000598FFF7C9FE0346184607B05DF804FB6E
:1056300082B0EFF311830193019BDBB2184602B0F5
:10564000704782B00190019B83F3118800BF02B0C4
:10565000704700B583B0FFF7EBFF03468DF80730C6
:105660008020FFF7EEFF9DF80730184603B05DF885
:1056700004FB00B583B003468DF807309DF8073072
:105680001846FFF7DEFF00BF03B05DF804FB82B0F1
:10569000EFF305830193019B184602B0704708B5EC
:1056A000FFF7F5FF0346002B14BF01230023DBB2F5
:1056B000184608BD00B585B00190FFF7CAFF034644
:1056C0008DF80F300F4B1B680293019801F0C8FE54
:1056D000019801F081FE0346002B09D0FFF7DFFFA0
:1056E000034683F00103DBB2002B01D0022000DF70
:1056F0009DF80F301846FFF7BCFF00BF05B05DF8FE
:1057000004FB00BF900A002400B587B01A4B1B6849
:105710000393039B5B6CDBB203F003038DF80B3048
:1057200001230593039802F022F8019000230493CB
:1057300002E0049B01330493019B002B06D0049BE1
:105740009B00019A13441B68002BF2D19DF80B308B
:10575000022B06D1039BDB6B0199049898470590B7
:1057600006E0039BDB6B019A0499184608F0FCFFE6
:10577000059800F025F800BF900A002482B0EFF3EE
:1057800011830193019BDBB2184602B0704782B0CF
:105790000190019B83F3118800BF02B0704700B5F0
:1057A00083B0FFF7EBFF03468DF807308020FFF74B
:1057B000EEFF9DF80730184603B05DF804FB0000CB
:1057C00000B585B001900F4B1B680393019BDBB2C2
:1057D0000193039B5B6C03F00303022B02D003983D
:1057E00001F086FBFFF7DBFF039B5B6C43F48072E9
:1057F000039B5A640199039802F0DBFA01980EF0BA
:10580000C5FD00BF900A002400B583B00190019B44
:105810001C33184601F0BAFF00BF03B05DF804FB6B
:1058200000B583B00190019B00221A61019B002208
:105830005A61019B1C3300220021184608F0A3FF87
:1058400000BF03B05DF804FB00B58FB0099008916C
:1058500007920693AC200BF0A3FA0D900D9B002B42
:1058600002D16FF00B0334E00D9B4FF400425A64F9
:10587000069B139A0492129A0392119A0292109A1A
:1058800001920093079B089A09990D98FFF7E8FB8E
:105890000C900C9B002B04DA0D980BF03BFA0C9B40
:1058A00017E00D9B1B6B0B93149B002B07D01499D7
:1058B0000B9802F00DFB0C900C9B002B04DB0D9859
:1058C000FFF7F8FE0B9B04E000BF0D98FFF758FCB4
:1058D0000C9B18460FB05DF804FB10B590B0099012
:1058E00008910792069300230F9300230C93129BB9
:1058F000002B09D0129B5B780D93129BDB680E93F3
:10590000129B1B690F930FE00AAB1946002001F0B0
:10591000CDFE0C900C9B002B01DA0C9B2BE00A9B1C
:105920000D934FF400630E930E9C149B002B03D138
:1059300000F014FE034600E0149B129A0492069AAB
:1059400003920293139B0193079B009323460F9AA4
:105950000D990898FFF778FF0B900B9B002B03DA4B
:105960000B9B0C930C9B06E00B9B002B02D0099B1E
:105970000B9A1A600C9B184610B010BD00B58BB086
:1059800007900691059204934FF0FF330893059B0F
:10599000002B02D0059B1B6800E0002308A80D9A8D
:1059A00002920C9A0192049A0092069A0799FFF7C4
:1059B00094FF0990099B002B01DB089B00E0099BE9
:1059C00018460BB05DF804FB82B0EFF3118301932E
:1059D000019BDBB2184602B0704782B00190019B78
:1059E00083F3118800BF02B0704700B583B0FFF7A2
:1059F000EBFF03468DF807308020FFF7EEFF9DF8A0
:105A00000730184603B05DF804FB00B583B00346C9
:105A10008DF807309DF807301846FFF7DEFF00BF0E
:105A200003B05DF804FB84B001900091019B1B68FA
:105A30000393009B1B68002B15D0039B002B12D0F7
:105A4000009B5B68039A9A4206D1009B019A5A60B8
:105A5000019B00221A6003E0039B1A68019B1A60F5
:105A6000039B00221A60039B184604B07047000095
:105A700082B01F4B00221A601D4B00225A60002387
:105A8000019329E01B49019A13461B019B1A9B00B5
:105A90000B44083301221A70019A13461B019B1A0A
:105AA0009B00144A13440093009B00221A60104B81
:105AB0001B68002B06D10E4A009B13600C4A009B0A
:105AC000536006E00A4B5B68009A1A60084A009B24
:105AD0005360019B01330193019B032BD2DD064BE5
:105AE00000221A60044B00225A6000BF02B07047C7
:105AF000501A002460190024581A002400B58DB0F3
:105B000001900023029300230393FFF76EFF0346E7
:105B10008DF823304C4B1B680B934DE00B9B1B689F
:105B200007930B9BDB68019A9A4243D10B9B059329
:105B3000454B1B68002B2BD0059B002B28D0424BDC
:105B40001B68059A9A4210D13F4A059B1B68136057
:105B50003D4B5B68059A9A4203D13B4B00225A6049
:105B600016E0059B00221A6012E0374B1B680A936F
:105B70000BE00A9B1B68059A9A4203D132490A98A6
:105B8000FFF751FF0A9B1B680A930A9B002BF0D179
:105B90000B9B0493049B00221A60029B002B04D1F0
:105BA000049B0293049B039304E0039B049A1A60F2
:105BB000049B0393079B0B930B9B002BAED19DF88B
:105BC00023301846FFF721FF029B0B9334E00B9B19
:105BD0001B6807930B9B0693029B002B27D0069B09
:105BE000002B24D0029B069A9A420DD1069B1B687B
:105BF0000293039B069A9A4202D10023039316E074
:105C0000069B00221A6012E0029B09930CE0099B9C
:105C10001B68069A9A4204D102AB19460998FFF70D
:105C200002FF099B1B680993099B002BEFD10B987E
:105C300000F0CEF8079B0B930B9B002BC7D100BF46
:105C400000BF0DB05DF804FB581A002482B0EFF3DA
:105C500011830193019BDBB2184602B0704782B0FA
:105C60000190019B83F3118800BF02B0704700B51B
:105C700083B0FFF7EBFF03468DF807308020FFF776
:105C8000EEFF9DF80730184603B05DF804FB00B541
:105C900083B003468DF807309DF807301846FFF7AC
:105CA000DEFF00BF03B05DF804FB84B001900091FB
:105CB000019B1B680393009B1B68002B15D0039B63
:105CC000002B12D0009B5B68039A9A4206D1009B7E
:105CD000019A5A60019B00221A6003E0039B1A6834
:105CE000019B1A60039B00221A60039B184604B0B4
