:020000040800F2
:10000000E41F00248D130008F1130008F113000809
:10001000F1130008F1130008F1130008F1130008B0
:10002000F1130008F1130008F1130008F1130008A0
:10003000F1130008F1130008F1130008211D000856
:10004000211D0008211D0008211D0008211D000898
:10005000211D0008211D0008211D0008211D000888
:10006000211D0008211D0008211D0008211D000878
:10007000211D0008211D0008211D0008211D000868
:10029000211D0008211D000882B0BFF34F8FBFF35E
:1002A0006F8F0B4B1B680193019B23F0010301939C
:1002B000074A019B136005230193064A019B1360C3
:1002C000BFF34F8FBFF36F8F00BF02B0704700BF07
:1002D00090EF00E094EF00E000B583B0224B009374
:1002E00004E0009B1A1D009200221A60009B1F4A26
:1002F0009342F6D31E4B01931E4B009307E0019AE5
:10030000131D0193009B191D009112681A60009B38
:10031000194A9342F3D300F05DFA01F03DF800F082
:1003200079FA412000F060FAFFF7B6FF02F018F901
:10033000422000F059FA00F0A5FF00F0C1FF432071
:1003400000F052FA00F0CCFE442000F04DFA4520B7
:1003500000F04AFA0D2000F047FA0A2000F044FAB3
:1003600003F078FB00BFFDE7A0030024E41B00249A
:10037000DC430408000000249803002482B0184BDA
:100380001B680193019B43F001030193144A019BF5
:100390001360144B01221A60134B00221A60104B99
:1003A0001B680193019A114B13400193019B43F089
:1003B000100301930A4A019B13600D4B0D4A1A600A
:1003C000074B1B680193019B23F480230193044A8C
:1003D000019B1360084B00221A6000BF02B07047F7
:1003E00000440258088100511044025867EFFEEAA9
:1003F0002C4402580000FF016044025882B0044BB4
:100400001B680193024A019B136000BF02B0704752
:10041000D844025882B0044B1B680193024A019BE6
:10042000136000BF02B07047DC44025882B0044B36
:100430001B680193024A019B136000BF02B0704722
:10044000D444025882B0064B1B680193019B43F0D1
:10045000FF030193024A019B136000BF02B0704783
:10046000E044025882B0074B1B680193054A019B88
:100470001360054B1B680193034A019B136000BF87
:1004800002B07047E8440258EC44025882B0064B70
:100490001B680193019B43F480530193024A019B23
:1004A000136000BF02B07047F044025882B0044BA2
:1004B0001B680193024A019B136000BF02B07047A2
:1004C000E444025882B0064B1B680193019B43F041
:1004D00002030193024A019B136000BF02B0704700
:1004E000F444025808B5FFF789FFFFF793FFFFF7C1
:1004F0009DFFFFF7A7FFFFF7B5FFFFF7C7FFFFF768
:10050000D5FFFFF7DFFF00BF08BD000082B00F4B33
:100510001B680193019B43F480230193019B43F4E7
:1005200080330193094A019B1360094B009308E053
:10053000064B1B6803F40033002B0BD1009B013BDF
:100540000093009B002BF3DC05E000BF0044025841
:100550001CC5410000BF009B002B40F30F81894B5D
:100560001B680193019A884B13400193019B43F050
:1005700008030193834A019B1360844B1B6801931A
:10058000019B23F4E0630193019B43F0500301932B
:100590007E4A019B13607D4B1B680193019B23F4F2
:1005A000E0630193019B43F4A0630193774A019BAD
:1005B0001360744B1B680193019B23F0700301933C
:1005C000019B43F0500301936E4A019B1360704BF3
:1005D0001B680193019B23F070030193019B43F07F
:1005E000500301936A4A019B136042F22203019374
:1005F000684A019B1360684B0193684A019B136032
:1006000044F6C7630193664A019B1360002301937C
:10061000644A019B1360644B0193644A019B13601D
:10062000634B1B680193019B43F080730193019B13
:1006300043F0806301935E4A019B136000BF5C4BF3
:100640001B6803F00073002BF9D000BF584B1B68E8
:1006500003F00063002BF9D0564B1B680193019BFC
:1006600043F006030193534A019B1360524B1B68EE
:100670000193019B23F440430193019B43F44043C6
:1006800001934D4A019B136000BF4B4B1B6803F461
:100690000053002BF9D000BF484B1B6803F40053F4
:1006A000002BF9D024230193454A019B1360454B4D
:1006B0001B680193019B23F007030193019B43F007
:1006C000030301933F4A019B136000BF3D4B1B682E
:1006D00003F03803182BF9D13B4B1B680193019BA6
:1006E00023F440530193019B43F400530193364A92
:1006F000019B1360354B1B680193019B23F44073EE
:100700000193019B43F400730193304A019B1360F2
:100710002F4B1B680193019B23F4E04301932C4A68
:10072000019B13602A4B1B680193019B23F4E02378
:100730000193274A019B1360244B1B680193019B83
:1007400023F0E0430193214A019B13601E4B1B6879
:100750000193019B23F440130193019B43F4401345
:100760000193194A019B1360184B1B680193019B6D
:1007700023F440330193154A019B136000BF02B07C
:10078000704700BF18440258F0F0FFFF1C440258A5
:100790002044025828440258C70203073044025834
:1007A000384402584044025888000F002C44025834
:1007B000004402580C48025818480258044802588D
:1007C0000020005210440258544402585844025821
:1007D0005044025808B5FFF7D1FDFFF797FEFFF729
:1007E00081FE00BF08BD000082B003468DF80730CF
:1007F00000BF064B1B6803F08003002BF9D0044AAE
:100800009DF80730136000BF02B070471C480040DD
:100810002848004000B583B04FF4802200211D48D5
:1008200000F0F2FC1C4800F021FE1C4800F01EFE07
:100830001B4B1B680193019A48F28F0313400193ED
:10084000174A019B1360174B1B680193019A164BC3
:1008500013400193134A019B1360144B1B680193CF
:10086000019A134B13400193104A019B1360114BE3
:100870004FF4D9721A600B4B1B680193019B43F034
:100880000D030193074A019B136000BF03B05DF89D
:1008900004FB00BFE8440258387C0900397C090099
:1008A0000448004000480040030000300848004071
:1008B0000000F1FF0C48004082B001900091019BC4
:1008C000D3F8A820009B13441B68184602B0704759
:1008D00084B0039002910192039BD3F8A820029B5D
:1008E00013441A46019B136000BF04B0704700B563
:1008F00085B001900B46ADF80230019BBDF8022097
:10090000A3F8902000210198FFF7D6FF0390039BE6
:1009100023F4D8730393BDF8023003F4D873039A19
:1009200013430393039A00210198FFF7D1FF082195
:100930000198FFF7C1FF0390039B23F0010303938A
:10094000BDF8023003F00103039A13430393039AA3
:1009500008210198FFF7BCFF00BF05B05DF804FB5C
:1009600000B589B001900B46ADF80230EFF311836A
:100970000593059BDBB28DF8133080230393039B13
:1009800083F3118800BF9DF813308DF81F30BDF838
:10099000023019460198FFF7AAFF9DF81F308DF825
:1009A0001E309DF81E300693069B83F3118800BF0E
:1009B00000BF00BF09B05DF804FB00B58BB001902B
:1009C0000091EFF311830693069BDBB28DF817308D
:1009D00080230493049B83F3118800BF9DF8173094
:1009E0008DF82730009B002B17D000210198FFF7CE
:1009F00063FF089008210198FFF75EFF0790089BAE
:100A00009BB203F4D8739AB2079B9BB203F0010325
:100A10009BB213439AB2009B1A8000210198FFF702
:100A200066FF9DF827308DF80F309DF80F30029348
:100A3000029B83F3118800BF00BF00BF0BB05DF8BD
:100A400004FB000000B58FB00190019BDB6F0A939F
:100A5000EFF311830693069BDBB28DF817308023EA
:100A60000493049B83F3118800BF9DF817308DF821
:100A7000273000210A98FFF71FFF0C900C9B03F012
:100A8000010308930C9B23F001030C930C9A0021A3
:100A90000A98FFF71DFF0A9BD3F8A4305A000A9B5F
:100AA000D3F89C305B081A440A9BD3F89C30B2FB05
:100AB000F3F30793079B642B08D9079B01335B086B
:100AC0000B930C9B23F400430C931BE0079B072B19
:100AD00094BF01230023DBB2002B05D04C4A40F227
:100AE000BF614C480DF053FD079A4FF6F073134069
:100AF000079A520802F0070213430B930C9B43F42E
:100B000000430C930C9A00210A98FFF7E1FE0B9A20
:100B10000C210A98FFF7DCFE0C9A3F4B13400C9314
:100B20000A9B93F89630012B04D10C9B43F4C063CD
:100B30000C9308E00A9B93F89630022B03D10C9B90
:100B400043F480630C930A9B93F89730092B09D0E8
:100B50000A9B93F89730082B09D10A9B93F896309B
:100B6000002B04D00C9B43F480530C930DE00A9BA4
:100B700093F89730072B08D10A9B93F89630002BF7
:100B800003D10C9B43F080530C930C9A00210A98DC
:100B9000FFF79EFE04210A98FFF78EFE0D900D9B35
:100BA00023F440530D930A9B93F89830002B03D005
:100BB0000D9B43F400530D930D9A04210A98FFF7FF
:100BC00087FE08210A98FFF777FE0D900D9B23F40E
:100BD00040730D930D9A08210A98FFF779FE0C9A3D
:100BE000089B13431A4600210A98FFF771FE9DF8EF
:100BF00027308DF80F309DF80F300293029B83F35E
:100C0000118800BF00BF00BF0FB05DF804FB00BF3C
:100C1000EC720208FC720208FFE9FFEF00B587B032
:100C200001900B468DF80330019BDB6F0593059B0C
:100C3000D3F8A8300E4A934215D14FF48023049381
:100C40000C4B039300BF9DF80330002B05D0049A92
:100C50000021039800F0D8FA06E0002204990398D6
:100C600000F0D2FA00E000BF07B05DF804FB00BF5F
:100C700000480040E844025800B585B00190019B4F
:100C8000DB6F0293002200210298FFF721FE012171
:100C90000198FFF7C3FF029BD3F8AC30184600F071
:100CA000E5FB029BD3F8B030184600F0DFFB0421CF
:100CB0000298FFF701FE0390039B23F47D530393F7
:100CC000029B93F89830002B03D0039B43F400530E
:100CD0000393039A04210298FFF7FAFD002102987A
:100CE000FFF7EAFD0390039A1F4B13400393039A07
:100CF00000210298FFF7ECFD08210298FFF7DCFDC8
:100D00000390039A194B13400393029B93F8953079
:100D10005B06039A13430393039A08210298FFF793
:100D2000D7FD0198FFF78EFE00210298FFF7C4FD62
:100D30000390039B43F00D030393039B43F0005385
:100D40000393039A00210298FFF7C2FD029B002241
:100D5000A3F89020029B012283F8942000231846D8
:100D600005B05DF804FB00BF03BEFF33FEF8FFFFD4
:100D700000B585B00190019BDB6F0393039B0022BC
:100D800083F8942000210398FFF717FE00210198B3
:100D9000FFF744FF00210398FFF78EFD0290029BAE
:100DA00023F00D030293029A00210398FFF790FDB0
:100DB000039BD3F8AC30184600F006FD039BD3F834
:100DC000B030184600F000FD00BF05B05DF804FB30
:100DD00000B585B00190019BDB6F0393039B93F8F3
:100DE000A030039A0949184602F08EFF0290029B38
:100DF000002B05D1039B93F8A030184600F044FF68
:100E0000029B184605B05DF804FB00BF410E0008C8
:100E100000B585B00190019BDB6F0393039B93F8B2
:100E2000A030184600F00CFF039B93F8A03000227E
:100E30000021184602F068FF00BF05B05DF804FB12
:100E400000B587B0039002910192019B0593059B29
:100E5000002B0CBF01230023DBB2002B05D0224A5C
:100E600040F69B1121480DF092FB1C210598FFF7DD
:100E700023FD03469AB2059BA3F89220059BB3F885
:100E8000923003F02003002B0BD0059BB3F8903079
:100E900003F02003002B04D0059B18460AF004FE43
:100EA0000BE0059BB3F8923003F00E03002B04D047
:100EB0000E2220210598FFF70BFD059BB3F8923019
:100EC00003F08003002B0AD0059BB3F8903003F0A9
:100ED0008003002B03D0059B18460AF03EFD00233B
:100EE000184607B05DF804FB10730208FC72020894
:100EF00086B0039002910192002305936FF01803CE
:100F0000059300BF059B184606B0704700B585B035
:100F100001900091019BDB6F039324210398FFF75D
:100F2000CBFC0290039BB3F892301A04029B1A4345
:100F3000009B1A60039B0022A3F89220029BDBB265
:100F4000184605B05DF804FB00B58BB001900B4668
:100F50008DF80330019BDB6F0893EFF31183069349
:100F6000069BDBB28DF8173080230493049B83F338
:100F7000118800BF9DF817308DF81F30089BB3F81B
:100F80009030ADF826309DF80330002B06D0BDF828
:100F9000263043F02003ADF8263007E0BDF82630B8
:100FA00023F4907323F00103ADF82630BDF826300A
:100FB00019460898FFF7D4FC9DF81F308DF80F30C4
:100FC0009DF80F300293029B83F3118800BF00BF8E
:100FD00000BF0BB05DF804FB00B585B00190019B2C
:100FE000DB6F03931C210398FFF766FC034603F0B5
:100FF0002003002B14BF01230023DBB2184605B0E9
:101000005DF804FB00B585B001900091019BDB6F9A
:101010000393009B1A4628210398FFF759FC00BF51
:1010200005B05DF804FB00B58BB001900B468DF860
:101030000330019BDB6F0993EFF311830793079B49
:10104000DBB28DF81B3080230593059B83F3118859
:1010500000BF9DF81B308DF823309DF80330002B26
:101060000DD0099BB3F8903043F08003ADF82030E9
:10107000BDF8203019460998FFF772FC09E0099B7A
:10108000B3F8903023F080039BB219460998FFF71C
:1010900067FC9DF823308DF813309DF813300393CF
:1010A000039B83F3118800BF00BF00BF0BB05DF846
:1010B00004FB00B585B00190019BDB6F03931C21FD
:1010C0000398FFF7F9FB034603F08003002B14BFDE
:1010D00001230023DBB2184605B05DF804FB0000D5
:1010E00000B583B00023019310E00E4A019B52F833
:1010F0002330002B07D00B4A019B52F823300021EC
:101100001846FFF75AFC019B01330193019B072B03
:10111000EBD9054B1846FFF7AFFD00BF03B05DF8F4
:1011200004FB00BFCC7202080000002400B587B0A9
:1011300000230493214B194621480AF07FFB1F4BE3
:10114000194620480AF07AFB012304936B461022CB
:101150001D4918460FF0BCFA0023059325E01B4AF1
:10116000059B52F82330002B19D0184A059B52F8E2
:1011700023309B78002B14D1049B5A1C0492DBB2C1
:101180003033DBB28DF80930104A059B52F823301A
:101190001A466B46114618460AF050FB02E000BFA3
:1011A00000E000BF059B01330593059B072BD6D9B3
:1011B00000BF00BF07B05DF804FB00BF00000024C3
:1011C000247302083473020840730208CC720208C8
:1011D00000B585B001900B4B03930DF10A0319463E
:1011E0000398FFF7EAFB019BDBB21846FFF7FCFA16
:1011F000BDF80A3019460398FFF7B2FB00BF05B0EF
:101200005DF804FB000000248CB003900291019271
:10121000EFF311830793079BDBB28DF81B3080231C
:101220000593059B83F3118800BF9DF81B308DF853
:101230002F30039B1B680A93029BDB430A9A1340DF
:101240000A930A9A019B13430A93039B0A9A1A6012
:101250009DF82F308DF827309DF827300893089B94
:1012600083F3118800BF00BF00BF0CB0704784B08B
:101270000190019BB3FA83F30393039B184604B0D8
:101280007047000082B0BFF34F8FBFF36F8F0A4BE0
:1012900000221A60094B1B680193019B43F4003341
:1012A0000193064A019B1360BFF34F8FBFF36F8F0B
:1012B00000BF02B0704700BF50EF00E014ED00E047
:1012C00000B589B02D4B1B680593059B03F4803353
:1012D000002B4FD12A4B1B680493049B5B0BC3F379
:1012E0000E030793049B03F0070304330393049B4B
:1012F000DB08C3F3090302930298FFF7B8FF034624
:1013000003F01F030193BFF34F8F029B0693069ACE
:10131000019B02FA03F31946079A039B02FA03F3AF
:101320000B430093174A009B1360069B5A1E0692BC
:10133000002BECD1079B5A1E0792002BE5D1BFF37F
:101340004F8F114B1B680593059B43F004030593D6
:101350000D4A059B1360094B1B680593059B43F4DD
:1013600080330593054A059B1360BFF34F8FBFF38E
:101370006F8F00E000BF09B05DF804FB14ED00E0E2
:1013800080ED00E060EF00E09CEF00E04FF0000E29
:10139000FEF7A2BF00BF704784B0EFF31483019340
:1013A000019B0393039B43F004030393039B02936A
:1013B000029B83F3148800BF0B4B1B680393039BB2
:1013C00023F040430393084A039B1360074B1B68B9
:1013D0000393039B43F470030393044A039B13603A
:1013E00000BF04B0704700BF34EF00E088ED00E0BC
:1013F000EFF30580EFF3148C1EF0040F02D0EFF32F
:10140000098107E0EFF30881A1F1700282F30888F7
:10141000BFF36F8F0A4602F16802EFF311831EF0EB
:10142000100F0CBF21ED108A403921E9FC5F1EF03E
:10143000080F04D0A1F1D80222F0070295468B468E
:1014400000F08EFCB0E8FC5F1EF0100F0CBFB0EC9B
:10145000108A40301EF0040F0CBF80F3088880F320
:10146000098883F311888CF31488704700B595B010
:101470000190019B1B0903F00F030D930D9B072B9C
:1014800002D96FF0150399E1904A0D9B52F8233071
:101490000C930C9B002B02D16FF015038EE1019B86
:1014A00003F00F030B93019B03F44023B3F5402F8C
:1014B0001DD0B3F5402F05D8B3F5802F05D0B3F577
:1014C000002F11D000230E9314E0019B03F48073CE
:1014D000002B14BF01230023DBB21946019800F052
:1014E00081F901230E9305E002230E9302E003230A
:1014F0000E9300BFEFF311830793079BDBB28DF8C8
:101500001B3080230593059B83F3118800BF9DF852
:101510001B308DF82B300E9B022B05D1019B1B0B32
:1015200003F00F03129301E0002312930E9B022B92
:1015300005D1019B1B0B03F00F03119301E0002366
:101540001193119B002B29D00B9B072B04D8202330
:1015500010930B9B0F9304E0242310930B9B083BE9
:101560000F930C9A109B13441B6813930F9B9B00C3
:101570000F2202FA03F3DB431A46139B1340139323
:101580000F9B9B00119A02FA03F3139A13431393D0
:101590000C9A109B13441A46139B13600C9B1B68F8
:1015A00013930B9B5B00032202FA03F3DB431A46FF
:1015B000139B134013930B9B5B000E9A02FA03F3E9
:1015C000139A134313930C9B139A1A6000231293DC
:1015D0000E9B032B0FD0019B03F44033B3F5803FE8
:1015E00003D0B3F5003F03D005E00123129302E0DE
:1015F0000223129300BF0C9B0C331B6813930B9BAD
:101600005B00032202FA03F3DB431A46139B1340E9
:1016100013930B9B5B00129A02FA03F3139A134382
:1016200013930C9B0C331A46139B1360119B002BD6
:1016300029D10B9B072B04D8202310930B9B0F93CE
:1016400004E0242310930B9B083B0F930C9A109BF0
:1016500013441B6813930F9B9B000F2202FA03F3A2
:10166000DB431A46139B134013930F9B9B00119A65
:1016700002FA03F3139A134313930C9A109B134427
:101680001A46139B13600E9B012B02D00E9B022B5C
:101690001ED1019B03F44063B3F5406F11D0B3F545
:1016A000406F05D8B3F5806F05D0B3F5006F05D056
:1016B0000023129308E00123129305E00223129302
:1016C00002E00323129300BF04E000BF4C73020842
:1016D000002312930C9B08331B6813930B9B5B0036
:1016E000032202FA03F3DB431A46139B13401393BE
:1016F0000B9B5B00129A02FA03F3139A13431393A2
:101700000C9B08331A46139B13600C9B04331B6815
:10171000139301220B9B02FA03F312930E9B012BEE
:1017200002D00E9B022B09D1019B03F40073002B06
:1017300004D0139A129B1343139304E0129BDB43D0
:10174000139A134013930C9B04331A46139B136094
:101750000E9B012B25D0019B03F48073002B20D01E
:101760000B9B03F00C02174B13440993099B1B6856
:1017700013930B9B9B0003F00C0308930F22089B11
:1017800002FA03F3DB431A46139B134013930D9A9B
:10179000089B02FA03F3139A13431393099B139ABA
:1017A0001A609DF82B308DF813309DF81330039399
:1017B000039B83F3118800BF00BF0023184615B0B8
:1017C0005DF804FB0804005800B583B00190019B4C
:1017D000DBB201930198FFF749FE0346184603B0B8
:1017E0005DF804FB86B001900B468DF80330019B39
:1017F0001B0903F00F030493049B072B20D8124A04
:10180000049B52F823300393039B002B18D0019BB9
:1018100003F00F0302939DF80330002B05D0012243
:10182000029B02FA03F3059305E0029B10330122A9
:1018300002FA03F30593039B18331A46059B1360C2
:1018400000BF06B0704700BF4C73020886B001901D
:10185000019B1B0903F00F030593059B072B19D868
:101860000E4A059B52F823300493049B002B11D0A1
:10187000019B03F00F030393049B10331B680121AA
:10188000039A01FA02F21340002B14BF0123002334
:10189000DBB200E00023184606B070474C73020824
:1018A00000B589B0039002910192EFF31183079381
:1018B000079BDBB28DF81B3080230593059B83F3D8
:1018C000118800BF044A054903200EF0B5FF044A01
:1018D000002100200CF05BFE0C7402086C730208FF
:1018E0008873020800B589B0039002910192EFF36A
:1018F00011830793079BDBB28DF81B308023059380
:10190000059B83F3118800BF044A054903200EF0AC
:1019100093FF044A002100200CF039FE18740208DD
:10192000907302088873020800B589B00390029191
:101930000192EFF311830793079BDBB28DF81B3005
:1019400080230593059B83F3118800BF044A054952
:1019500003200EF071FF044A002100200CF017FE56
:1019600028740208B07302088873020884B00190DA
:10197000084B1B680393039B23F07F430393019B56
:101980001B06039A13430393024A039B136000BF91
:1019900004B070471CED00E000B587B003900291E1
:1019A00001920093039B103B0593039B012BD4BF33
:1019B00001230023DBB2002B07D1039BA52BCCBF57
:1019C00001230023DBB2002B04D0464AEA2146481B
:1019D0000CF0DDFD039B0F2B56DD059B1F2B0CD858
:1019E000009A424B1344029A13600122059B02FAAB
:1019F00003F31A46019B1A606EE0059B3F2B0DD83E
:101A0000009A3B4B1344029A1360059B203B012232
:101A100002FA03F31A46019B1A605DE0059B5F2BF7
:101A20000DD8009A334B1344029A1360059B403B38
:101A3000012202FA03F31A46019B1A604CE0059B4F
:101A40007F2B0DD8009A2C4B1344029A1360059BF0
:101A5000603B012202FA03F31A46019B1A603BE045
:101A6000059B952B0DD8009A244B1344029A1360C2
:101A7000059B803B012202FA03F31A46019B1A6080
:101A80002AE04FF0FF3328E0029B1D4A1A60039BB7
:101A9000042B04D1019B4FF480321A601CE0039B9D
:101AA000052B04D1019B4FF400321A6014E0039B14
:101AB000062B04D1019B4FF480221A600CE0039B9B
:101AC0000F2B06D1029B0F4A1A60019B01221A605C
:101AD00002E04FF0FF3300E00023184607B05DF846
:101AE00004FB00BFD4730208F873020800E100E0B1
:101AF00004E100E008E100E00CE100E010E100E0BA
:101B000024ED00E010E000E000B585B03B4B1B6821
:101B100003F00F0301330193019B0293384B0393AE
:101B200009E0039B4FF0FF321A60029B013B0293D6
:101B3000039B04330393029B002BF2DC314B324AAC
:101B40001A60324B4FF080321A60314B4FF08032C6
:101B50001A60304B4FF080321A60019BDB00029319
:101B60002D4B039309E0039B4FF080321A60029BD8
:101B7000013B0293039B04330393029B002BF2DC93
:101B8000002226490B2002F0BFF80022244903203E
:101B900002F0BAF87020FFF7E9FE00222149022086
:101BA00002F0B2F800222049042002F0ADF8002231
:101BB0001E49052002F0A8F800221D49062002F067
:101BC000A3F800221B490E2002F09EF800F082FCD0
:101BD000002219490C2002F097F800221749002032
:101BE00002F092F800230093009B83F3118800BF5A
:101BF00062B600BF00BF05B05DF804FB04E000E082
:101C000080E100E008ED00E00000000818ED00E0D1
:101C10001CED00E020ED00E000E400E039200008C9
:101C2000FD1D0008A1180008591E0008D91C000855
:101C30000D210008E51800080D25000829190008E5
:101C400000B587B0019003AA04A980230198FFF78B
:101C5000A3FE0346002B13D1019B0F2B04DD049B35
:101C60001A46039B13600BE0049B1B680593039BC0
:101C7000DB43059A13400593049B1A46059B1360AA
:101C800000BF07B05DF804FB00B587B0019003AA60
:101C900004A900230198FFF77FFE0346002B12D111
:101CA000019B0F2B04DD049B1A46039B13600AE083
:101CB000049B1B680593039B059A13430593049BA0
:101CC0001A46059B136000BF07B05DF804FB82B0A5
:101CD000019000BF02B0704700B589B00390029137
:101CE00001920D4B1B680793EFF311830693069B3C
:101CF000DBB28DF8173080230493049B83F31188A3
:101D000000BF029B054A0021002002F0BBFA00231D
:101D1000184609B05DF804FB28ED00E038740208AD
:101D200000B583B0EFF305830093009B0193019806
:101D3000FFF7CDFF0021019802F036F8064B1A6834
:101D4000064B1B689A4203D000210E2000F08CF94C
:101D500000BF03B05DF804FB18080024100800243D
:101D600000B589B001900091224B0793079B1B6837
:101D70000693019B0B2B04D1009B70331B68012B36
:101D800003D0069B009AC3F8A0200198FFF79FFF9D
:101D9000019B0E2B15D1069BD3F8A430002B02D04B
:101DA000069800F07DF8EFF311830593059BDBB2F5
:101DB0008DF8133080230393039B83F3118800BFB6
:101DC00003E00099019801F0EFFF0B4B1B680693AD
:101DD000079B069A1A60069BD3F8A0300093079BD6
:101DE0001B680022C3F8A020009B184609B05DF8CC
:101DF00004FB00BF180800241008002400B58BB0B5
:101E0000039002910192114B1B680693104B1B68C3
:101E10000593069B03F00203002BEFF31183099354
:101E2000099BDBB28DF8233080230793079B83F354
:101E3000118800BF029B074A0021002002F022FA0D
:101E4000002318460BB05DF804FB00BF2CED00E04A
:101E500028ED00E04074020800B589B003900291BB
:101E600001920D4B1B680793EFF311830693069BBA
:101E7000DBB28DF8173080230493049B83F3118821
:101E800000BF029B054A0021002002F0FBF900235D
:101E9000184609B05DF804FB28ED00E0487402081C
:101EA00000B587B00190EFF305830393039B002BEC
:101EB00014BF01230023DBB2002B02D0304B1B6880
:101EC00001E0304B1B680593EFF305830293029BFF
:101ED0000493019A059B9A420CD1049B002B09D1D3
:101EE000019BD3F8A43001989847019B0022C3F8C6
:101EF000A42040E0019A059B9A4207D1049B0E2B37
:101F000004D000210E2000F0AFF834E0019BD3F89C
:101F1000A020019BC3F89C20019BD3F8A030D83BA4
:101F20001A46019BC3F8A020019BD3F8A000019B97
:101F3000D3F89C30D82219460EF019FC019BD3F837
:101F4000A0301A46019BD3F8A030D8321A60019B0A
:101F5000D3F8A03088330C4A1A60019BD3F8A03024
:101F6000043380221A60019BD3F8A0308C334FF0E9
:101F700080721A6000BF00BF07B05DF804FB00BFAD
:101F800018080024100800248D1F000800B587B031
:101F9000264B1B680593059BD3F89C300093059B4B
:101FA000D3F8A430002B0CBF01230023DBB2002B9D
:101FB00001D100BF04E01E4A4A211E480CF0E7FA96
:101FC00000230493049B83F3118800BF62B600BF13
:101FD000059BD3F8A43005989847EFF3118303933A
:101FE000039BDBB28DF80B3080230193019B83F3BD
:101FF000118800BF059BD3F88430002B06D0059BC9
:102000005B6C03F04003002B00D1D9E7059B002255
:10201000C3F8A420059BD3F89C20059BC3F8A020FF
:10202000012000DF00BF07B05DF804FB10080024AA
:10203000507402087074020888B0039002910192F3
:10204000029B0793079B1B6F0693069B013B012B8B
:1020500003D8044B1B68059300E000BF002318461B
:1020600008B070471008002400B585B001900091B9
:1020700000230393019B012BD4BF01230023DBB278
:10208000002B07D1019BA52BCCBF01230023DBB282
:10209000002B04D0194A382119480CF078FA019B1A
:1020A0000F2B05DD019BA3F11002164B1A6020E0F7
:1020B000019B0F2B10D0019B0F2B11DC019B022BDE
:1020C00006D0019B0E2B0BD14FF08053039308E0F9
:1020D0004FF00043039304E04FF08063039300E06C
:1020E00000BF039B002B04D0039A00210648FFF792
:1020F0008BF800BF05B05DF804FB00BF8C740208CC
:10210000B074020800EF00E004ED00E000B589B013
:102110000390029101920D4B1B680793EFF311831B
:102120000693069BDBB28DF8173080230493049B43
:1021300083F3118800BF029B054A0021002002F0B2
:10214000A1F80023184609B05DF804FB28ED00E073
:10215000CC74020800B583B0134B1B681B0B1B012A
:1021600003F03002104B1B681B0903F00F031343ED
:1021700000930023019309E0019A0C4B13449B0048
:102180001A4600231360019B01330193019A009BBF
:102190009A42F1D3032200210348FFF735F800BF2C
:1021A00003B05DF804FB00BF002000E00208003827
:1021B00082B0144B1B681B0F03F00F030093002326
:1021C000019317E0019A104B13441B011A46002398
:1021D0001360019B1A010D4B13441A460023136030
:1021E000019B1A010A4B13441A4600231360019BFA
:1021F00001330193019A009B9A42E3D300BF00BFD1
:1022000002B07047001000E00201000E241000E050
:10221000281000E070B586B04E4B1B681B0F03F012
:102220000F030293002305930023039300230493D9
:102230002EE0049B1A01484B13441B680193019B39
:1022400003F08073002B20D0019B03F00F03009359
:10225000049A424B13441B011B680593009B072BF8
:102260000FD0009B072B0FD8009B052B03D0009BA2
:10227000062B03D008E00123039306E00223039317
:1022800003E00323039300E000BF049B01330493A6
:10229000049A029B9A42CCD30023049353E0304922
:1022A000049A13469B0013449B000B4404331A68A2
:1022B000059B9A4244D12A49049A13469B00134431
:1022C0009B000B441B68039A9A4239D12449049A13
:1022D00013469B0013449B000B440C331B68002BDC
:1022E0002ED01F49049A13469B0013449B000B44B5
:1022F0000C331C681A49049A13469B0013449B0034
:102300000B4418681649049A13469B0013449B001B
:102310000B4404331968124D049A13469B0013446E
:102320009B002B4408331D680D4E049A13469B00F6
:1023300013449B00334410331B682A46A04706E031
:10234000049B01330493049B082BA8D900BF00BF52
:1023500006B070BD001000E0281000E00201000E81
:102360009805002470B584B001900023039352E0D7
:102370002C49039A13469B0013449B000B441B6893
:10238000042B45D12749039A13469B0013449B0015
:102390000B4404331A68019B9A4239D12149039AAC
:1023A00013469B0013449B000B440C331B68002B0B
:1023B0002ED01C49039A13469B0013449B000B44E8
:1023C0000C331C681749039A13469B0013449B0067
:1023D0000B4418681349039A13469B0013449B004F
:1023E0000B44043319680F4D039A13469B001344A2
:1023F0009B002B4408331D680A4E039A13469B002A
:1024000013449B00334410331B682A46A04706E060
:10241000039B01330393039B082BA9D900BF00BF83
:1024200004B070BD9805002470B582B000230193FC
:1024300046E02749019A13469B0013449B000B4436
:102440001B68052B39D12249019A13469B0013447E
:102450009B000B440C331B68002B2ED01C49019AA7
:1024600013469B0013449B000B440C331C68184913
:10247000019A13469B0013449B000B4418681449AF
:10248000019A13469B0013449B000B4404331968C4
:102490000F4D019A13469B0013449B002B440833B5
:1024A0001D680B4E019A13469B0013449B00334456
:1024B00010331B682A46A04706E0019B01330193B5
:1024C000019B082BB5D900BF00BF02B070BD00BF93
:1024D0009805002408B50A4B1B6803F00103002B84
:1024E00001D0002309E0FFF735FEFFF761FE054A42
:1024F00000210548FEF788FE0023184608BD00BFEE
:10250000F0ED00E000000101FCED00E000B587B057
:10251000039002910192114B1B680593029B049357
:10252000059B03F00103002B01D0FFF77DFF059B06
:1025300003F00203002B05D0049B88331B68184668
:10254000FFF710FF059B03F00403002B01D0FFF7FA
:1025500061FE0023184607B05DF804FB30ED00E093
:1025600008B5AFF3008000BF08BD08B500F0BEF8A5
:1025700000BF08BD00B583B0002301930A4807F0EF
:1025800079FE0190019B002B05DA019A074903208F
:102590000EF052F903E0064906200EF04DF9019BBA
:1025A000184603B05DF804FBD4740208E474020812
:1025B0001475020882B000230193019B184602B0F3
:1025C000704782B000230193019B184602B0704708
:1025D00000B583B0002301930A4807F011F8019079
:1025E000019B002B05DA019A074903200EF024F91C
:1025F00003E0064906200EF01FF9019B184603B0C0
:102600005DF804FB3C7502084C75020878750208F9
:1026100082B000230193019B184602B0704782B03C
:1026200000230193019B184602B0704700B583B0A8
:102630000023019301F0AAF80190019B002B05DA19
:10264000019A074903200EF0F7F803E00549062038
:102650000EF0F2F8019B184603B05DF804FB00BFD2
:10266000A4750208D475020800B583B00023019355
:102670000D4800F015FC0090009B002B0ADA009A30
:102680000A4903200EF0D8F8019B002B07D1009BCC
:10269000019304E0044A064906200EF0CDF8019BA0
:1026A000184603B05DF804FBF0750208FC750208DB
:1026B0002C76020882B000230193019B184602B0D9
:1026C000704782B000230193019B184602B0704707
:1026D00082B000230193019B184602B0704782B07C
:1026E00000230193019B184602B0704700B583B0E8
:1026F00000230193594906200EF09EF8FFF73AFF98
:102700000090009B002B04D0019B002B01D1009B6B
:102710000193FFF74FFF0090009B002B04D0019B1B
:10272000002B01D1009B0193FFF74BFF0090009B12
:10273000002B04D0019B002B01D1009B0193FFF7DC
:1027400047FF0090009B002B04D0019B002B01D180
:10275000009B0193FFF75CFF0090009B002B04D0CF
:10276000019B002B01D1009B0193FFF7A3FF009079
:10277000009B002B04D0019B002B01D1009B0193F7
:1027800000F046FA0090009B002B04DA009A3449CE
:1027900003200EF051F800F031FB0090009B002B5D
:1027A00004DA009A2F4903200EF046F8FFF737FFAE
:1027B0000090009B002B04D0019B002B01D1009BBB
:1027C0000193FFF733FF0090009B002B04D0019B87
:1027D000002B01D1009B0193FFF746FF0090009B67
:1027E000002B04D0019B002B01D1009B0193FFF72C
:1027F00068FF0090009B002B04D0019B002B01D1AF
:10280000009B0193FFF764FF0090009B002B04D016
:10281000019B002B01D1009B0193FFF760FF00900B
:10282000009B002B04D0019B002B01D1009B019346
:10283000019B002B04D10C4906200DF0FDFF08E0A0
:10284000019A0A4904200DF0F7FF094906200DF00E
:10285000F3FF019B184603B05DF804FB60760208A5
:1028600090760208B8760208E87602082477020813
:102870006477020800B58BB001900091009B0022A4
:102880001A60019B002B08D1009B6FF015021A60A3
:102890000023E8E0019B01330193019B1B78202B6F
:1028A000F8D0019B1B78092BF4D001980DF091FF13
:1028B0000790079B022B02D9079B042B05D9009B8D
:1028C0006FF015021A600023CDE0019B1B78502B9E
:1028D00005D0009B6FF015021A600023C3E0019B36
:1028E00001331B788DF81B309DF81B30402B03D92A
:1028F0009DF81B30482B05D9009B6FF015021A601C
:102900000023B0E0019B0233059303AB0A22194672
:1029100005980CF0A4FA0490039B1B78002B05D1BA
:10292000049B002B02DB049B0F2B05DD009B6FF04B
:1029300015021A60002396E09DF81B30413B072BDF
:102940002AD801A252F823F0692900086F2900084B
:10295000752900087B2900088129000887290008BB
:102960008D29000893290008002309931AE01023F9
:10297000099317E02023099314E03023099311E011
:10298000402309930EE0502309930BE06023099341
:1029900008E07023099305E0009B6FF015021A60B0
:1029A000002360E0049B0F2B52D801A252F823F0C1
:1029B000F1290008F7290008FD290008032A00086A
:1029C000092A00080F2A0008152A00081B2A0008F7
:1029D000212A0008272A00082D2A0008332A000887
:1029E000392A00083F2A0008452A00084B2A000817
:1029F0000023089332E0012308932FE00223089379
:102A00002CE00323089329E00423089326E0052300
:102A1000089323E00623089320E0072308931DE092
:102A2000082308931AE00923089317E00A23089360
:102A300014E00B23089311E00C2308930EE00D2300
:102A400008930BE00E23089308E00F23089305E09A
:102A5000009B6FF015021A60002304E0099A089B9E
:102A60001A43034B134318460BB05DF804FB00BF39
:102A70000009040082B00190019B012B01D1034B9E
:102A800000E00023184602B0704700BF4C06002447
:102A900000B58DB00790069113468DF81730069B50
:102AA0000A930798FFF7E6FF0990099B002B06D1D0
:102AB000079B4B4A4B4903200DF0BEFE8CE0069B62
:102AC000B3F5803F0FD3069B9BB20A93069B1A0C6B
:102AD000079B01930A9B00931346414A42490620F3
:102AE0000DF0AAFE24E0069B0F2B21D9079B019332
:102AF00010230093069B3A4A3C4906200DF09CFEA9
:102B0000099B5B79002B08D000230A93069B344A6B
:102B1000374906200DF090FE0AE0079B0193102331
:102B20000093069B2E4A334903200DF085FE53E0A7
:102B30000A9BDB00099A13440893089B5B7983F096
:102B40000103DBB2002B0AD0079B01930A9B009381
:102B5000069B234A284903200DF06EFE3CE0089BAB
:102B60001B79002B12D09DF81730002B14BF0123C6
:102B70000023DBB283F00103DBB28DF82F309DF828
:102B80002F3003F001038DF82F3003E09DF817304C
:102B90008DF82F30089B1B689DF82F201146184692
:102BA000FEF720FE9DF81730002B01D0134B00E0FC
:102BB000134B9DF82F20002A01D0124A00E0124A40
:102BC000039202930A9B0193069B0093079B044A7E
:102BD0000E4906200DF030FE0DB05DF804FB00BF7D
:102BE000A07B0208A0770208C077020800780208DC
:102BF000507802088C780208D87802081879020800
:102C0000207902082C790208347902083879020800
:102C100008B50B4A0B4906200DF00EFE802200215C
:102C200009480DF03FFD064A084906200DF004FE54
:102C3000034A074906200DF0FFFD0023184608BD92
:102C4000B07B02085C7902084C060024A4790208D3
:102C5000C879020800B58FB00790069105928DF8EB
:102C600013300798FFF706FF0D900D9B002B08D13E
:102C7000079B3A4A3A4903200DF0DEFD6FF0150339
:102C800068E0069B0F2B0AD910230093069B334A5A
:102C9000344903200DF0D0FD6FF015035AE0069B78
:102CA000DB000D9A13440C930C9B5B79002B0AD02C
:102CB000079B0093069B294A2B4903200DF0BCFD7E
:102CC0006FF00F0346E009AB19460598FFF7D2FDF8
:102CD0000B90099B002B09D0099B0093059B1F4A71
:102CE000224903200DF0A8FD099B33E00B98FEF765
:102CF000BDFB0A900A9B002B09DA0A9B0093059BF7
:102D0000164A1B4903200DF097FD0A9B22E09DF80F
:102D1000133019460B98FEF765FD0C9B0B9A1A6051
:102D20000C9B9DF813201A710C9B01225A719DF87F
:102D30001330002B01D00F4B00E00F4B0293059B8B
:102D40000193069B0093079B044A0C4906200DF053
:102D500073FD002318460FB05DF804FBC87B020822
:102D6000A07702080C7A0208347A02086C7A02080A
:102D7000907A0208C07A0208CC7A0208D87A02084F
:102D800000B587B0039002910398FFF773FE05909A
:102D9000059B002B02D16FF0150326E0029B0F2B41
:102DA00002D96FF0150320E0029BDB00059A134463
:102DB0000493049B5B7983F00103DBB2002B02D008
:102DC0006FF0010311E0049B00221A60049B0022B3
:102DD0001A71049B00225A71029B0093039B054ABF
:102DE000054906200DF028FD0023184607B05DF8C0
:102DF00004FB00BFE87B0208087B020800B583B033
:102E000000230193012010F085FA0090009B002B15
:102E100011D00121009809F0B5F80190019B002B19
:102E200005DA019A064903200DF006FD03E0054985
:102E300006200DF001FD019B184603B05DF804FB70
:102E40002C7B0208507B020800B585B003900291EC
:102E500013468DF807309DF80730002B01D0094B41
:102E600000E0094B029A094906200DF0E5FC9DF8A7
:102E700007301A4602990120FFF70AFE00BF05B08D
:102E80005DF804FB1879020820790208707B0208BB
:102E900082B0019000910123184602B070470000F3
:102EA00000B589B00390039B002B01D0039B00E089
:102EB0002C4B0793079B0093002301222A490620ED
:102EC0000DF0BAFC0123294A00210120FFF7C2FEC0
:102ED0000690069B002B06DA069A254903200DF082
:102EE000ABFC069B3AE0234B0193204B009300235D
:102EF0000122214906200DF09FFC012010F00AFA62
:102F00000590059B002B0BD101221C4903200DF0DD
:102F100093FC00210120FFF733FF6FF012031DE047
:102F20000122174906200DF087FC059907980AF041
:102F30005BF90690069B002B0ADA069A11490320DA
:102F40000DF07AFC00210120FFF71AFF069B05E037
:102F5000079A0D4906200DF06FFC0023184609B0B2
:102F60005DF804FB087C0208147C02084C7C020813
:102F7000507C0208C47C0208887C0208D07C0208CD
:102F8000F47C0208187D0208487D020800B589B06B
:102F9000059004910392039B0793079B002B0CBFA2
:102FA00001230023DBB2002B08D1079B1B6C002BF5
:102FB0000CBF01230023DBB2002B04D00F4AF52104
:102FC0000F480BF0E4FA079B93F83C301A46079B36
:102FD0001B6C009313460B4A0B4906200DF02CFC8A
:102FE000079B1B6C0798079A92F83C20114698475C
:102FF0000023184609B05DF804FB00BF287E0208D4
:10300000687E020814850208787E020800B587B041
:1030100003900291039B0593059B002B0CBF01239A
:103020000023DBB2002B05D0254A4FF494712548CC
:103030000BF0ADFA029B002B0CBF01230023DBB287
:10304000002B05D0204A40F229111E480BF09FFAB0
:10305000059B93F83C30002B14BF01230023DBB207
:10306000002B05D0194A4FF4957116480BF08FFAD2
:10307000059B93F83C30164A164906200DF0DCFB00
:1030800040F22D131846FEF7E1FB03461A46029B59
:103090001A70059B93F83C301A46029B1B78002B54
:1030A00001D00D4B00E00D4B00931346084A0C492C
:1030B00006200DF0C1FB0023184607B05DF804FBA5
:1030C000B07E0208687E0208CC7E0208E47E020818
:1030D00034850208FC7E02081C7F0208247F020857
:1030E000287F020800B587B003900291039B0593E7
:1030F000059B002B0CBF01230023DBB2002B05D066
:10310000284A40F25B1128480BF041FA029B002B41
:103110000CBF01230023DBB2002B05D0234A4FF460
:10312000AE7121480BF033FA059B93F83C30022B2B
:103130008CBF01230023DBB2002B05D01C4A40F2D8
:103140005D1119480BF023FA059B93F83C30194A9E
:10315000194906200DF070FB059B93F83C301A4688
:10316000164B53F822301846FEF770FB03461A46FA
:10317000029B1A70059B93F83C301A46029B1B7801
:10318000002B01D00E4B00E00E4B00931346094A72
:103190000D4906200DF050FB0023184607B05DF8DE
:1031A00004FB00BFB07E0208687E0208CC7E0208E5
:1031B000487F020844850208607F02081C7E0208DE
:1031C0001C7F0208247F0208907F020800B587B0A8
:1031D00003900B468DF80B30039B0593059B002B4A
:1031E0000CBF01230023DBB2002B05D0204A40F2A4
:1031F000951120480BF0CBF9059B93F83C30022B3E
:103200008CBF01230023DBB2002B05D01A4A4FF4F8
:10321000CB7118480BF0BBF9059B93F83C301A466C
:103220009DF80B30002B01D0144B00E0144B0093A1
:103230001346144A144906200DF0FEFA059B93F834
:103240003C301A46114B53F822309DF80B201146A2
:103250001846FEF7C7FA059B93F83C30094A0C491B
:1032600006200DF0E9FA0023184607B05DF804FBCC
:10327000B07E0208687E0208487F02081C7F0208B0
:10328000247F020858850208B87F02081C7E0208C5
:10329000DC7F020800B587B003900291039B059381
:1032A000059B002B0CBF01230023DBB2002B05D0B4
:1032B000254A4FF4E87125480BF069F9029B002B71
:1032C0000CBF01230023DBB2002B05D0204A40F2C3
:1032D000D1111E480BF05BF9059B93F83C30002B95
:1032E00014BF01230023DBB2002B05D0194A4FF491
:1032F000E97116480BF04BF9059B93F83C30164AE0
:10330000164906200DF098FA45231846FEF79EFA56
:1033100003461A46029B1A70059B93F83C301A46E6
:10332000029B1B78002B01D00D4B00E00D4B00934E
:103330001346094A0C4906200DF07EFA0023184670
:1033400007B05DF804FB00BF10800208687E020829
:10335000CC7E02082C8002086C850208508002088E
:103360001C7F0208247F02088480020800B587B011
:1033700003900291039B0593059B002B0CBF012337
:103380000023DBB2002B05D01A4A40F20A211A486A
:103390000BF0FDF8059B93F83C300093029B174A15
:1033A000174906200DF048FA452000230193002319
:1033B00000930023002200210FF004FA059B029ADB
:1033C0001A64029B002B08D0059B93F83C300B4AF3
:1033D0000C4906200DF030FA07E0059B93F83C30CD
:1033E000064A094906200DF027FA0023184607B0BF
:1033F0005DF804FB10800208687E020880850208E0
:10340000B4800208E88002082481020800B587B071
:1034100003900B468DF80B30039B0593059B002B07
:103420000CBF01230023DBB2002B05D02D4A40F254
:1034300055212D480BF0ABF89DF80B30002B32D006
:10344000059B1B6C002B0AD1059B93F83C30274A47
:10345000274903200DF0F0F96FF015033EE0059BBE
:1034600093F83C30214A234906200DF0E5F9452028
:10347000059B93F83C301A4613461B0113449B00EE
:103480001D4A134401931D4B009300230022012188
:103490000FF098F9059B93F83C30144A1849062020
:1034A0000DF0CAF919E0059B93F83C300F4A154915
:1034B00006200DF0C1F9452000230193002300935D
:1034C0000023002200210FF07DF9059B93F83C308A
:1034D000064A0D4906200DF0AFF90023184607B043
:1034E0005DF804FB10800208687E020894850208DB
:1034F0005481020898810208CC0700248D2F00080F
:10350000D4810208008202082482020800B587B034
:103510000390002304930123264A274906200DF037
:103520008BF90023059336E0244A059B9B01134445
:1035300000221A70214A059B9B0113443433204A10
:103540001A60059BD9B21D4A059B9B0113443C336D
:103550000A461A70059B9B01184A9818039B1B6822
:10356000591C039A1160194606F082FD40F22D1392
:103570001846FDF77BFF049B01330493039B1B68F4
:10358000013B0093059B0B4A0E4906200DF054F9B0
:10359000059B01330593059B002BC5DD049B054A64
:1035A000094906200DF048F9049B184607B05DF85C
:1035B00004FB00BFA885020854820208CC06002440
:1035C000E07D02087C820208BC82020800B587B058
:1035D00003900023049303232B4A2C4906200DF06B
:1035E0002BF90023059340E0294A059B9B011344D6
:1035F00003221A70264A059B9B0113443433254A43
:103600001A60059BD9B2224A059B9B0113443C33A7
:103610000A461A70059B9B011D4A9818039B1B685C
:10362000591C039A1160194606F022FD1A4A059B9F
:1036300052F8233000211846FEF7D4F8164A059BAD
:1036400052F823301846FDF711FF049B0133049311
:10365000039B1B68013B0093059B0B4A0F49062007
:103660000DF0EAF8059B01330593059B022BBBDDAA
:10367000049B054A0A4906200DF0DEF8049B184613
:1036800007B05DF804FB00BFC4850208F0820208A1
:103690000C070024F47D02081C7E0208188302082F
:1036A0006083020800B587B00390002304930123D0
:1036B000304A314906200DF0BFF8002305934BE056
:1036C0002E49059A13461B0113449B000B44052207
:1036D0001A702A49059A13461B0113449B000B4498
:1036E0003433274A1A60059BD8B22449059A1346F9
:1036F0001B0113449B000B443C3302461A701F49C4
:10370000059A13461B0113449B000B4440330022CF
:103710001A60059A13461B0113449B00174A981818
:10372000039B1B68591C039A1160194606F0A0FC04
:1037300045231846FDF79AFE049B01330493039B2F
:103740001B68013B0093059B0A4A0E4906200DF0B9
:1037500073F8059B01330593059B002BB0DD049B9B
:10376000044A094906200DF067F8049B184607B083
:103770005DF804FBE085020894830208CC0700246E
:10378000087E0208C08302080484020800B583B0E2
:103790000023019300230093194A1A4906200DF0D3
:1037A0004BF86B461846FFF7B1FE0246019B1344E7
:1037B00001936B461846FFF709FF0246019B13442D
:1037C00001936B461846FFF76DFF0246019B1344B9
:1037D00001930B4A0C4906200DF02EF8019B084A74
:1037E0000A4906200DF028F8009B013B044A0849CD
:1037F00006200DF021F80023184603B05DF804FB05
:10380000008602083C84020870840208B084020822
:10381000D884020882B0254B0193019B00221A60D4
:10382000019B00221A71019B0833214A1A60019BF7
:10383000083301221A71019B10331E4A1A60019B42
:10384000103305221A71019B18331A4A1A60019B22
:10385000183305221A71019B2033174A1A60019B05
:10386000203300221A71019B283308221A60019B21
:10387000283309221A71019B3033104A1A60019BC8
:10388000303300221A71019B383300221A60019BE9
:10389000383309221A71019B403308221A60019BB8
:1038A000403309221A7100BF02B07047400800245B
:1038B0001C080024100800242C08002424080024DC
:1038C00000B585B0AC22002134480CF0EBFE00239B
:1038D00003935BE0039BAC2202FB03F32F4A1344E8
:1038E0000293029B039A1A63029B032283F84020EF
:1038F000029B0122A3F84820029B294A9A63029B5B
:10390000274ADA63029B02225A64029B93F84030F2
:10391000244ADB0013441B7903F00803002B0AD070
:10392000029B1B6F029A92F8402011461D4A52F8E2
:103930003120134406E0029B93F840301A46194B9D
:1039400053F832300193029B0093009B00225A608F
:10395000019B1A68009B1A60019B1B68002B06D113
:10396000019B009A1A60019B009A5A6006E0019B35
:103970001B68009A5A60019B009A1A600A49039BCF
:10398000029A41F82320039B01330393039B002BEE
:10399000A0DD00BF00BF05B05DF804FB8C0800246B
:1039A000553A0008400800241808002400B585B0E6
:1039B000002303933CE0039BAC2202FB03F3204A69
:1039C000134402931F4B1B68013B039A134001935E
:1039D0001D4B1A68019B9B001344029A1A60029BBC
:1039E0005B6CDBB21946029802F032FC0346DB0F37
:1039F000DBB2002B05D0154A40F2D11114480AF071
:103A0000C6FD029801F048FE029B002283F8A82020
:103A100002980FF07DFE029802F018F9029802F069
:103A200087FC029B9B6803221A72039B013303935A
:103A3000039B002BBFDD00BF00BF05B05DF804FB9A
:103A40008C0800243C08002438080024188602084A
:103A50005086020800B585B0504B01221A70FFF75E
:103A6000D9FEFFF72DFF4D4B02221A7005F0DAFC4C
:103A700001AA02AB114618460EF02AFD029B019ADC
:103A8000114618460DF0EAF81023039302E0039B59
:103A90005B000393039B012BF9DD039B9B001846FE
:103AA0000DF036F903463E4A13603D4B1B68002B70
:103AB0000CBF01230023DBB2002B05D0394A40F2B2
:103AC000712139480AF063FD384A039B1360FFF700
:103AD0006DFF374B00221A60304B03221A7000F042
:103AE000F7F816F077FE00F0F5F802F041F901F072
:103AF000A9FE01F055F800F0CDFD1AF0B6FA0FF06E
:103B0000BFFC05F091FC254B04221A70002303939F
:103B100028E0039B002B15DD039BAC2202FB03F383
:103B2000244A134401220021184602F07BFD03467B
:103B3000DB0FDBB2002B12D01F4A40F2D6211A480D
:103B40000AF025FD02F04CFD0346DB0FDBB2002B33
:103B500005D01A4A4FF4387113480AF018FD039B38
:103B600001330393039B002BD3DD0C4B05221A700A
:103B700000F09EF80346DB0FDBB2002B05D0104AA5
:103B800040F2F92108480AF002FD044B06221A709F
:103B900000F09CFE0FF0BAFDFCE700BF880800248F
:103BA0003808002460860208508602083C08002479
:103BB000340800248C0800246C860208C0860208A1
:103BC000D886020800B58BB000230893FEF7CDFC21
:103BD00003AB18460BF0BAF864238DF80D304FF4A0
:103BE0000063069303AA0023019308AB00931346D6
:103BF00000220D490D4801F0FFFD099003AB184666
:103C00000BF0EEF8099B002BD4BF01230023DBB29D
:103C1000002B05D0064A4FF4BE7106480AF0B7FCE7
:103C200000BF0BB05DF804FBE1370108E88602082D
:103C3000F4860208FC86020800B583B0019000916A
:103C4000FFF7C0FF0023184603B05DF804FB000037
:103C500000B587B002F0A8F803460393002302934F
:103C60000F4B01934FF4006300930023F0220221D5
:103C70000C4801F043F803460593059B002BD4BF85
:103C800001230023DBB2002B05D0074A40F2B71115
:103C900006480AF07CFC00BF07B05DF804FB00BFDB
:103CA000393C0008108702081C870208FC860208BD
:103CB00008B501220449054802F048F9FFF7C8FF9A
:103CC0000023184608BD00BF248702082887020881
:103CD00000BF704700B583B00023019307E0084A96
:103CE000019B084942F83310019B01330193019B6A
:103CF000A52BF4DDFDF708FF00BF03B05DF804FB62
:103D000038090024013E000800B58DB003900291EF
:103D100001926FF015030B93039BA52B3AD8039BDD
:103D20000A930A9B002B01DA0A9B34E0EFF311831C
:103D30000893089BDBB28DF81F3080230693069B07
:103D400083F3118800BF9DF81F308DF82730029B48
:103D5000002B06D10398FDF773FF114B029300234C
:103D6000019310490A9B029A41F833200D4A0A9B9D
:103D7000DB001344019A5A609DF827308DF8173004
:103D80009DF817300493049B83F3118800BF00BF94
:103D900000230B930B9B18460DB05DF804FB00BF8E
:103DA000013E00083809002400B587B00190009159
:103DB000114B059300230493019B0393019BA52BB7
:103DC00010D8039B0D4A52F83330002B0AD0039BC6
:103DD0000A4A52F833300593039B084ADB00134428
:103DE0005B680493059B049A00990198984700BF6B
:103DF00007B05DF804FB00BF013E0008380900244D
:103E000000B589B0039002910192EFF311830793FB
:103E1000079BDBB28DF81B3080230593059B83F352
:103E2000118800BF039B054A054903200CF004FDDF
:103E3000044A002100200AF0AAFB00BF48870208BC
:103E40002C87020840870208F0B58FB00B900A91CA
:103E50000B9B0D9362E00D9B0C930D9B09930C9BA8
:103E60000A9A9A4202D90C9B1B6800E000230C9A24
:103E7000043211460A9A8A4202D90C9A526800E02A
:103E800000220C99083108460A99814202D90C99FE
:103E9000896800E000210C980C3004460A98A04282
:103EA00002D90C98C06800E000200C9C1034254614
:103EB0000A9CAC4202D90C9C246900E000240C9DB1
:103EC00014352E460A9DB54202D90C9D6D6900E05D
:103ED00000250C9E183637460A9EBE4202D90C9E1B
:103EE000B66900E000260C9F1C37BC460A9F674558
:103EF00002D90C9FFF6900E00027079706960595F9
:103F000004940390029101920093099B074A084987
:103F100001200CF091FC0D9B20330D930D9A0A9B10
:103F20009A4298D900BF00BF0FB0F0BDA489020823
:103F30009487020800B587B0039002910192009324
:103F4000019A009B13440593039B194A19490120C8
:103F50000CF072FC019B164A174901200CF06CFC16
:103F6000009B134A154901200CF066FC029B002BB4
:103F700012D0029B0E4A124901200CF05DFC029BFC
:103F8000203B019A9A4202D8029B203B029305995A
:103F90000298FFF759FF06E0019A009B1344194667
:103FA0000198FFF751FF00BF07B05DF804FB00BFA9
:103FB000B0890208C8870208D8870208E887020883
:103FC000FC87020800B58BB0039002910023049394
:103FD000039BDB6E0793039B5B6E0693079A069B1E
:103FE000134405930023099300238DF82330029A8C
:103FF000079B9A4206D3029A059B9A4202D2029BE1
:10400000099308E001238DF82330029B0B4A0C49E9
:1040100001200CF011FC099B002B03D19DF82330EB
:10402000002B07D000230093069B079A09990548A7
:10403000FFF780FF00BF0BB05DF804FBC0890208EA
:104040000C88020840880208F0B5ADB011901091BC
:104050001BAB4022002118460CF024FB1BAB402276
:104060001946119800F0EAFD13AB20221946119869
:1040700000F0BAFC13AB2C2118460CF092FB2B90ED
:104080002B9B002B02D02B9B20221A70119B1B6BA9
:104090000D93119B9B68002B03D0119B9B681B68A1
:1040A00001E04FF0FF33119A92F834200E92119AEA
:1040B000526CD20802F003021A4951F822200F92E2
:1040C0001199496C01F00301174850F8211011981B
:1040D000406C00F48070002801D0502000E02D20BA
:1040E000119CA46F119D6D6F119EF66E119F7F6ED6
:1040F0001BAA0B920D4A0A920997089607950694F7
:1041000013AC0594049003910F9A02920E9A0192B7
:1041100000930D9B064A074901200CF08DFB00BF60
:104120002DB0F0BD848902089489020890880208A5
:10413000CC8902084888020808B5054A05490120CB
:104140000CF07AFB0021044800F034FB00BF08BDEE
:10415000D88902089C8802084940000800B585B04B
:104160000190009100980FF0D3F9009B0393039BFB
:104170000293029B1B6819460198FFF723FF00BFBB
:1041800005B05DF804FB000000B5B1B009900891DE
:104190000792069300232F93099B9B68002B0CD05A
:1041A000099B5B6C03F00303022B06D0099B9B6801
:1041B0001B68184600F0AEFA2F900AAB18460AF0BA
:1041C00013FA0AAA0AAB7D3303930AAB4A3302936C
:1041D0000AAB353301930AAB153300931346184AE3
:1041E000184901200CF028FB069B002B01D0069AF1
:1041F00000E0154A089B002B01D0089B00E0124B01
:104200002F99002901D0114900E011490998C06B8C
:10421000049003910D49029107990191009313466F
:10422000074A0C4901200CF007FB32990998FFF767
:1042300095FF07F0FFFE00BF31B05DF804FB00BF43
:10424000E48902080C89020834890208908802086F
:10425000388902084089020800B585B003900291B0
:1042600001920093FFF768FF07F0E4FE07F0E2FE1B
:1042700000BF05B05DF804FB08B5FA200FF02BFA7B
:10428000FBE7000000B595B00590049103920293FE
:10429000564B1B78DBB2042B8CBF012300238DF817
:1042A0004E30EFF305831193119B002B14BF0123B4
:1042B0000023DBB2002B02D04D4B1B6801E04D4BBD
:1042C0001B681293494B1B78DBB2072B01D1FFF718
:1042D000D3FF00238DF84F309DF84E30002B12D0C5
:1042E000EFF311831093109BDBB28DF83F308023E6
:1042F0000E930E9B83F3118800BF9DF83F308DF81D
:104300004F3000F0A1FAEFF305830D930D9B002BC6
:1043100014BF01230023DBB2002B05D1129B5B6C81
:1043200003F00303022B02D1304B07221A70029BC9
:10433000002B05D130480EF0A9F82F4B029304E072
:10434000D82202992C480CF012FA129B0693029B79
:104350000793059B0993049B0A93039B0893234BA4
:104360001B78DBB2072B14BF01230023DBB21A46F4
:1043700006AB1946104600F041F807F05BFE029BC1
:104380000093039B049A05991298FFF7FDFE174BC3
:104390001B78DBB2072B12D1029B0093039B049A7C
:1043A00005991298FFF758FF06AB1946022000F056
:1043B00025F80021022000F0BFF8FFF75DFF9DF80F
:1043C0004E30002B0DD09DF84F308DF833309DF8D6
:1043D00033300B930B9B83F3118800BF00BF00F0B9
:1043E00075FA00BF15B05DF804FB00BF8808002413
:1043F0001808002410080024700E002400B58FB0A7
:1044000001900091234B0B93EFF311830793079BCC
:10441000DBB28DF81B3080230593059B83F3118855
:1044200000BF9DF81B308DF82B304FF0FF330C93FD
:10443000002309930B9B1B680D9315E00D9B5B6894
:1044400008930D9B1B68009A01990D989847099B4A
:10445000002B04D0099B1B685A1C099B1A60089BFF
:104460000D930C9B013B0C930D9B002B02D00C9BDE
:10447000002BE3D19DF82B308DF813309DF81330CD
:104480000393039B83F3118800BF00BF00BF0FB0ED
:104490005DF804FB480F00248CB00190254B099374
:1044A000EFF311830693069BDBB28DF81730802360
:1044B0000493049B83F3118800BF9DF817308DF897
:1044C0002330099B0B93019B079300230A9313E06E
:1044D0000B9B1B68079A9A4203D16FF010030A9353
:1044E0000EE0079B9A680B9B1B689B689A4207DC4F
:1044F0000B9B1B6804330B930B9B1B68002BE7D1B2
:104500000A9B002B06D10B9B1A68079B5A600B9BDA
:10451000079A1A609DF823308DF80F309DF80F3000
:104520000293029B83F3118800BF00BF00BF0CB051
:10453000704700BF4C0F002400B58FB00190009170
:10454000234B0B93EFF311830793079BDBB28DF89B
:104550001B3080230593059B83F3118800BF9DF8D2
:104560001B308DF82B304FF0FF330C930023099351
:104570000B9B1B680D9315E00D9B5B6808930D9BCF
:104580001B68009A01990D989847099B002B04D04D
:10459000099B1B685A1C099B1A60089B0D930C9B76
:1045A000013B0C930D9B002B02D00C9B002BE3D105
:1045B0009DF82B308DF813309DF813300393039B37
:1045C00083F3118800BF00BF00BF0FB05DF804FB8C
:1045D0004C0F002488B00390029111461A460B46F6
:1045E000ADF8063013468DF80530002307931DE023
:1045F000029B0693069B9DF805201A72039B059368
:10460000069B0493059B1A68049B1A60049B059AF9
:104610005A60059B1B68049A5A60059B049A1A60AD
:10462000029B2C330293079B01330793BDF806309E
:10463000079A9A42DCDB029B184608B0704788B0A4
:10464000039002911346ADF806300023079317E05C
:10465000039B0693029B0593069B1A68059B1A60B1
:10466000059B069A5A60069B1B68059A5A60069B32
:10467000059A1A60029B30330293079B013307931C
:10468000BDF80630079A9A42E2DB029B184608B052
:104690007047000000B585B01A4B03931A4B029384
:1046A000029B029A5A60029B5A68029B1A6000237E
:1046B000082203991448FFF78DFF0390134B0193D1
:1046C000019B019A5A60019B5A68019B1A60022360
:1046D000082203990D48FFF77DFF03900C4B0093D0
:1046E000009B009A5A60009B5A68009B1A6008223F
:1046F00003990748FFF7A3FF039000BF05B05DF8DB
:1047000004FB00BF600F0024500F0024580F00244A
:10471000A01300248AB0019000230993EFF31183C2
:104720000693069BDBB28DF8173080230493049B1D
:1047300083F3118800BF9DF817308DF823301B4B91
:104740001B68002B21D0019B002B1EDB184B1B6824
:10475000013B019A13400793144B1A68079B9B0077
:1047600013441B68002B10D0104B1A68079B9B004A
:1047700013441B681B6B019A9A4206D10B4B1A68B3
:10478000079B9B0013441B6809939DF823308DF809
:104790000F309DF80F300293029B83F3118800BF06
:1047A00000BF099B18460AB0704700BF38080024B4
:1047B0003C08002400B58BB001900091EFF3118309
:1047C0000793079BDBB28DF81B3080230593059B75
:1047D00083F3118800BF9DF81B308DF8233000F063
:1047E00033F80023099314E0154B1A68099B9B00CA
:1047F00013441B68002B09D0114B1A68099B9B00BE
:1048000013441A68019B009910469847099B01338D
:1048100009930C4B1B68099A9A42E5DB00F056F8A5
:104820009DF823308DF813309DF813300393039BCC
:1048300083F3118800BF00BF00BF0BB05DF804FB1D
:10484000380800243C08002400B583B0EFF305834A
:104850000093009B002B14BF01230023DBB283F0E5
:104860000103DBB2002B26D0154B1B680193019B83
:10487000002B14BF01230023DBB2002B0ED0019BC1
:10488000B3F948307E2BCCBF01230023DBB2002BD1
:1048900004D00C4A4F210C4809F079FE019B002BF3
:1048A00009D0019BB3F948309BB201339BB21AB2D5
:1048B000019BA3F8482000BF03B05DF804FB00BFD4
:1048C00010080024F8890208248A020800B58BB079
:1048D000EFF305830893089B002B14BF01230023EB
:1048E000DBB283F00103DBB2002B71D03A4B1B68C3
:1048F0000193019B002B14BF01230023DBB2002B8B
:104900000ED0019BB3F94830002BD4BF0123002304
:10491000DBB2002B04D0314A4221314809F037FE86
:10492000019B002B54D0019BB3F9482092B2013A6D
:1049300092B212B2A3F84820B3F94830002B47D105
:10494000EFF311830793079BDBB28DF81B308023B5
:104950000593059B83F3118800BF9DF81B308DF8EC
:104960002730204B1B68002B14D002F033FA03468B
:10497000002B0FD0EFF305830493049B002B14BF8F
:1049800001230023DBB283F00103DBB2002B01D053
:10499000022000DF019B5B6C03F01803082B0BD196
:1049A000019BDB6C002B07D10B4B1A68019B9A42D1
:1049B00002D0019B1422DA649DF827308DF80F3065
:1049C0009DF80F300293029B83F3118800BF00BF54
:1049D00000BF0BB05DF804FB10080024388A020801
:1049E000648A02081C08002400B591B0039002916B
:1049F0000192EFF311830D930D9BDBB28DF83330F1
:104A000080230B930B9B83F3118800BF9DF83330F9
:104A10008DF83F30039B93F84030052B2CD1039B3E
:104A20001B6F1B7903F00403002B25D0039B1B6F26
:104A30000893089B1B6823F000430793079A1D4BBC
:104A400013401C4A934201D0079B01E04FF0FF3313
:104A50000E939DF83F308DF82B309DF82B30099345
:104A6000099B83F3118800BF00BF0E9B124A019976
:104A700002980AF0BBF918E09DF83F308DF81B3022
:104A80009DF81B300593059B83F3118800BF00BF81
:104A9000039B93F840301A46084B53F82230019A92
:104AA000194602980BF014FE00BF00BF11B05DF86C
:104AB00004FB00BFFEFFFF7FF88A02080C8B020890
:104AC00086B00390029111461A460B46ADF80630A7
:104AD00013468DF805300023059320E0029B9DF8D6
:104AE00005201A77029B03F1200202920493049B93
:104AF00000221A60039B1B68002B06D1039B049ABB
:104B00001A60039B049A5A6006E0039B5B68049A50
:104B10001A60039B049A5A60059B01330593BDF804
:104B20000630059A9A42D9DB029B184606B07047B8
:104B300086B00390029111461A460B46ADF8063036
:104B400013468DF805300023059320E0029B9DF865
:104B500005201A75029B03F1180202920493049B2C
:104B600000221A60039B1B68002B06D1039B049A4A
:104B70001A60039B049A5A6006E0039B5B68049AE0
:104B80001A60039B049A5A60059B01330593BDF894
:104B90000630059A9A42D9DB029B184606B0704748
:104BA00000B583B01F4B01931F4B00221A601E4BB0
:104BB00000225A601D4B00221A601C4B00225A60D2
:104BC0001B4B00221A601A4B00225A60194B00221C
:104BD0001A60184B00225A60174B00221A60164BBD
:104BE00000225A600023042201991048FFF768FF51
:104BF00001900223082201990D48FFF761FF0190FF
:104C00000023042201990B48FFF792FF0190022331
:104C1000082201990848FFF78BFF019000BF03B0FD
:104C20005DF804FBD0130024A8130024B013002463
:104C3000B8130024C0130024C813002400B58BB09F
:104C400005900491039200230993059B002B06D045
:104C5000039B002B03D0059B1B6B002B04DC049BE8
:104C600000221A70002340E0059B5B6C03F00303F5
:104C7000012B13D1059B0793079BDA6B079BD3F896
:104C8000B030009313461B4A039904980AF0AEF81B
:104C900003461A46099B1344099320E0059802F045
:104CA000B4FA03460433089311E0049A099BD01820
:104CB000039A099BD11A089B1A1D08921B680E4A79
:104CC0000AF094F803461A46099B13440993089B7B
:104CD0001B68002B03D0099A039B9A42E5D3039BE0
:104CE0005A1E099B934228BF134618460BB05DF825
:104CF00004FB00BF308B0208388B020800B58FB070
:104D00000990079206930B468DF823309DF82330C7
:104D1000022B01D1AC2301E04FF4567318460BF07F
:104D2000F7FF0D900D9B002B02D16FF00B0326E0D7
:104D30009DF8233043F400431A460D9B5A64109BA0
:104D400000220492139A0392129A0292119A0192EB
:104D50000093069B079A09990D9800F06DF80C9046
:104D60000C9B002B04DA0D980BF08CFF0C9B06E0DB
:104D70000D9B1B6B0B930D9800F0C6FB0B9B18460D
:104D80000FB05DF804FB00B589B00790069105925D
:104D900004930C9B002B03D101F006F8034600E0BE
:104DA0000C9B03930B9B02930A9B0193049B009320
:104DB000059B069A00210798FFF7A0FF03461846B7
:104DC00009B05DF804FB00B58BB007900691059221
:104DD0000493002302930D9B01930C9B0093049B6F
:104DE000059A06990798FFF7CEFF0990099B002BBB
:104DF00008DA09F0E7FB0246099B5B4213604FF0BB
:104E0000FF330993099B18460BB05DF804FB00B50E
:104E100087B00590049103920293089B0193029B33
:104E20000093039B002204990598FFF7CCFF0346EB
:104E3000184607B05DF804FB00B589B005900491F1
:104E400003920293059B5B6CDBB203F003038DF8C6
:104E50001B30059B002B0CBF01230023DBB2002B72
:104E600008D19DF81B30012B0CBF01230023DBB2BE
:104E7000002B04D0454A6621454809F088FB059B74
:104E80005B6CDBB21946059801F0E2F90790079BCD
:104E9000002B01DA079B75E0059B184600F0FCFB30
:104EA000059B002283F8A820059B9B680D99184656
:104EB00000F088FF0790079B002B41DB01220E9931
:104EC000059801F0AFFB0790079B002B3ADB029B94
:104ED000002B07D0059B0A9A029918460EF0D3FBC7
:104EE000079007E0059B9DF81B200A9918460EF0D5
:104EF00067FA0790079B002B26DB9DF81B30009379
:104F00000B9B244A0399059800F0EAFA0790079B47
:104F1000002B1BDB059B184600F098FE0790079BB3
:104F2000002B15DB0C9A0499059800F0FFF9079007
:104F3000079B002B0EDB059801F0FAF9079B21E097
:104F400000BF08E000BF06E000BF04E000BF02E0D1
:104F500000BF00E000BF029B002B0AD1059B9B6EA7
:104F6000002B06D0059B9DF81B20114618460EF01D
:104F7000A7FA059B184600F083FB059B184601F035
:104F800073FA079B184609B05DF804FB3C8B0208D6
:104F9000588B02088D55000800B587B00190019B21
:104FA0000593059B5B680493059B1B680393049B17
:104FB000002B03D1124A039B136002E0049B039A67
:104FC0001A60039B002B03D10D4A049B536002E03F
:104FD000039B049A5A60059B00221A60059B0022DD
:104FE0005A60019B5B6CDBB203F00303DBB2194632
:104FF000019802F027F800BF07B05DF804FB00BF7E
:105000002C08002400B597B00190EFF311830F93A3
:105010000F9BDBB28DF83B3080230D930D9B83F308
:10502000118800BF9DF83B308DF84F306F4B1B68E7
:10503000013315930023149333E0159B002B01DCFF
:10504000012315936A4B1B68013B159A134010937B
:10505000684B1A68109B9B0013441B68002B1AD1E5
:10506000644B1A68109B9B001344019A1A60019BC1
:10507000159A1A635D4A159B13609DF84F308DF8A1
:1050800033309DF833300B930B9B83F3118800BFB3
:1050900000BF0023A6E0159B01331593149B013339
:1050A0001493534B1B68149A9A42C6DB514B1B68EE
:1050B00012939DF84F308DF82B309DF82B300993CB
:1050C000099B83F3118800BF00BF494B1B68DB00BD
:1050D00018460BF01DFE1190119B002B02D16FF0B2
:1050E0000B037FE0EFF311830893089BDBB28DF88D
:1050F0001F3080230693069B83F3118800BF9DF821
:105100001F308DF84F303B4B1B68129A9A420FD0DC
:105110009DF84F308DF817309DF817300493049B9D
:1051200083F3118800BF00BF11980BF0ABFD6CE753
:105130002F4B1B685B002E4A13600023149334E04E
:105140002C4B1A68149B9B0013441B68002B28D01F
:10515000284B1A68149B9B0013441B681A6B244B42
:105160001B68013B13401093109B9B00119A134442
:105170001B68002B14BF01230023DBB2002B04D0DB
:105180001D4ABD211D4809F002FA1A4B1A68149BEA
:105190009B001A44109B9B0011990B4412681A60E3
:1051A00000E000BF149B01331493114B1B68002BCC
:1051B00000DA01335B101A46149B9342C0DB0D4AA0
:1051C000119B13609DF84F308DF80F309DF80F3014
:1051D0000293029B83F3118800BF00BF12980BF06B
:1051E00051FD12E7184617B05DF804FB340800249F
:1051F0003C08002438080024788B0208988B0208A9
:1052000000B58FB00390029101920093454B1B684B
:105210000D930398FFF7F6FE0C900C9B002B7CD1AE
:10522000029BDAB2039B83F83420029BDAB2039B21
:1052300083F83520039B019A9A63009A039BDA63F3
:105240009DF8403003F003038DF84030039B5B6C06
:1052500023F00302039B5A64039B5A6C9DF8403071
:105260001A43039B5A64039B5B6C23F01802039B55
:105270005A64039B5B6C43F00802039B5A64039BD4
:105280001422DA64039B0D9A7433743292E803009B
:1052900083E80300039B002283F8402003980EF06C
:1052A00037FAEFF311830993099BDBB28DF82330B2
:1052B00080230793079B83F3118800BF9DF8233059
:1052C0008DF82F30039B0A930A9B00225A60164BDD
:1052D0001A680A9B1A60144B1B68002B06D1124AED
:1052E0000A9B1360104A0A9B536006E00E4B1B6832
:1052F0000A9A5A600C4A0A9B1360039B042283F8A3
:1053000040209DF82F308DF81B309DF81B30059301
:10531000059B83F3118800BF00BF0C9B18460FB09C
:105320005DF804FB100800242C08002400B58DB0A3
:10533000039002910192029B002B01D1634B0293D7
:1053400002980BF046FA034601330A9300230993AF
:10535000019B002B45D03DE0099B9B00019A134423
:105360001B6818460BF035FA02460A9B13440133BA
:105370000A93039B5B6E0A9A9A422CBF0123002377
:10538000DBB2002B05D0524A4FF40C71514809F0A2
:10539000FEF8039B5B6E0A9A9A4202D36FF02303D6
:1053A0008FE0099BB3F5807FCCBF01230023DBB2E4
:1053B000002B05D0484A4FF40F71464809F0E7F832
:1053C000099B01330993099BB3F5807F02DD6FF0E0
:1053D000060376E0099B9B00019A13441B68002B8F
:1053E000BAD1099B02339B0007930398079A0A9B43
:1053F000134419460EF01AF90690069B002B0CBFB9
:1054000001230023DBB2002B05D0344A4FF4137183
:10541000304809F0BCF8069B002B02D16FF00B035B
:105420004FE0069A079B13440B93069B0B9A1A6056
:1054300002980BF0CEF90346013305930A9A0299BC
:105440000B980BF045F9059B0B9A13440B93059BA6
:105450000A9AD31A0A930023089326E0089B013383
:105460009B00069A13440B9A1A60089B9B00019AB2
:1054700013441B6818460BF0ACF90346013305933F
:10548000089B9B00019A13441B680A9A19460B98C3
:105490000BF01EF9059B0B9A13440B93059B0A9A7C
:1054A000D31A0A93089B01330893089A099B9A42DE
:1054B000D4DB099B01339B00069A134400221A6037
:1054C000002318460DB05DF804FB00BF6C8B02088A
:1054D000AC8B0208988B0208D08B0208DC8B020888
:1054E00000B587B005900491039202939DF8203097
:1054F0000093029B039A04990598FFF781FE0346E7
:10550000184607B05DF804FB00B58BB00190EFF3CF
:1055100011830893089BDBB28DF81F30802306931C
:10552000069B83F3118800BF9DF81F308DF827304C
:10553000154B1B680293019801F0C6FC019801F01D
:1055400001FB0346002B0FD0EFF305830593059B6A
:10555000002B14BF01230023DBB283F00103DBB275
:10556000002B01D0022000DF9DF827308DF813308A
:105570009DF813300393039B83F3118800BF00BF92
:1055800000BF0BB05DF804FB1008002400B587B025
:10559000214B1B680393039B5B6CDBB203F003039B
:1055A0008DF80B30012305939DF80B30012B0CBFB8
:1055B00001230023DBB2002B04D0184A4C211848E9
:1055C00008F0E5FF039801F020FE0190002304930A
:1055D00002E0049B01330493019B002B06D0049B43
:1055E0009B00019A13441B68002BF2D19DF80B30ED
:1055F000022B06D1039BDB6B019904989847059019
:1056000006E0039BDB6B019A0499184609F02CF91C
:10561000059800F007F800BF10080024F48B02087A
:10562000088C020800B587B00190144B1B680593E5
:10563000019BDBB20193059B5B6C03F00303022B20
:1056400002D0059801F08CF8EFF311830493049BCA
:10565000DBB28DF80F3080230293029B83F3118815
:1056600000BF059B5B6C43F48072059B5A640199F3
:10567000059801F079FF01980DF0ECFE1008002468
:1056800000B583B00190019B1C33184601F0CCFD9E
:1056900000BF03B05DF804FB00B583B00190019B2F
:1056A00000221A61019B00225A61019B1C330022D7
:1056B0000021184609F0F8F800BF03B05DF804FBBC
:1056C00000B58FB009900891079206934FF4567079
:1056D0000BF01EFB0D900D9B002B02D16FF00B0306
:1056E00035E00D9B4FF400425A64069B139A0492D6
:1056F000129A0392119A0292109A01920093079BB8
:10570000089A09990D98FFF797FB0C900C9B002BBA
:1057100004DA0D980BF0B6FA0C9B18E00D9B1B6B8E
:105720000B93149B002B07D014990B9801F0BEFF2C
:105730000C900C9B002B05DB0D9B1846FFF7E4FE3D
:105740000B9B04E000BF0D98FFF726FC0C9B18464E
:105750000FB05DF804FB10B590B009900891079266
:10576000069300230F9300230C93129B002B09D068
:10577000129B5B780D93129BDB680E93129B1B6947
:105780000F930FE00AAB1946002001F0C9FC0C9002
:105790000C9B002B01DA0C9B2BE00A9B0D934FF422
:1057A00000630E930E9C149B002B03D100F0FCFAB7
:1057B000034600E0149B129A0492069A0392029305
:1057C000139B0193079B009323460F9A0D9908980A
:1057D000FFF776FF0B900B9B002B03DA0B9B0C93D0
:1057E0000C9B06E00B9B002B02D0099B0B9A1A60C6
:1057F0000C9B184610B010BD00B58BB007900691F9
:10580000059204934FF0FF330893059B002B02D0C1
:10581000059B1B6800E0002308A80D9A02920C9AD1
:105820000192049A0092069A0799FFF794FF099053
:10583000099B002B01DB089B00E0099B18460BB07D
:105840005DF804FB82B01F4B00221A601D4B002242
:105850005A600023019329E01B49019A13461B015A
:105860009B1A9B000B44083301221A70019A1346BD
:105870001B019B1A9B00144A13440093009B0022B7
:105880001A60104B1B68002B06D10E4A009B136058
:105890000C4A009B536006E00A4B5B68009A1A6052
:1058A000084A009B5360019B01330193019B032B2A
:1058B000D2DD064B00221A60044B00225A6000BF62
:1058C00002B0704760170024701600246817002487
:1058D00000B599B001900023039300230493EFF3E4
:1058E00011830F930F9BDBB28DF83B3080230D9318
:1058F0000D9B83F3118800BF9DF83B308DF853302A
:105900006D4B1B6817936BE0179B1B681393179BDA
:10591000DB68019A9A4261D1179B1193664B1B6811
:10592000002B49D0119B002B46D0634B1B68119A6A
:105930009A4210D1604A119B1B6813605E4B5B68F2
:10594000119A9A4203D15C4B00225A6034E0119BB9
:1059500000221A6030E0584B1B68169329E0169B12
:105960001B68119A9A4221D1169B0C93524B0B93B0
:105970000C9B1B680A930B9B1B68002B15D00A9B82
:10598000002B12D00B9B5B680A9A9A4206D10B9BA4
:105990000C9A5A600C9B00221A6003E00A9B1A685A
:1059A0000C9B1A600A9B00221A6000BF169B1B68A2
:1059B0001693169B002BD2D1179B1093109B00229D
:1059C0001A60039B002B04D1109B0393109B04933C
:1059D00004E0049B109A1A60109B0493139B179386
:1059E000179B002B90D19DF853308DF827309DF8F0
:1059F00027300893089B83F3118800BF00BF039BE7
:105A0000179351E0179B1B681393179B1293039BEB
:105A1000002B44D0129B002B41D0039B129A9A4238
:105A20000DD1129B1B680393049B129A9A4202D1D8
:105A30000023049333E0129B00221A602FE0039BA3
:105A4000159329E0159B1B68129A9A4221D1159B48
:105A5000079303AB0693079B1B680593069B1B6884
:105A6000002B15D0059B002B12D0069B5B68059A76
:105A70009A4206D1069B079A5A60079B00221A6039
:105A800003E0059B1A68079B1A60059B00221A60B9
:105A900000BF159B1B681593159B002BD2D117983F
:105AA00000F0B2F8139B1793179B002BAAD100BFED
:105AB00000BF19B05DF804FB6817002400B591B071
:105AC0000190EFF311830B930B9BDBB28DF82B301E
:105AD00080230993099B83F3118800BF9DF82B3025
:105AE0008DF83B30019B0D93454B1B68002B49D033
:105AF0000D9B002B46D0424B1B680D9A9A4210D149
:105B00003F4A0D9B1B6813603D4B5B680D9A9A42A0
:105B100003D13B4B00225A6034E00D9B00221A60F7
:105B200030E0374B1B680F9329E00F9B1B680D9AE1
:105B30009A4221D10F9B0893314B0793089B1B6816
:105B40000693079B1B68002B15D0069B002B12D0D9
:105B5000079B5B68069A9A4206D1079B089A5A608F
:105B6000089B00221A6003E0069B1A68089B1A60D3
:105B7000069B00221A6000BF0F9B1B680F930F9BB0
:105B8000002BD2D1019B1B7A03F00103002B22D002
:105B9000019B0C930C9B00221A601A4B1B68002B74
:105BA00006D1184A0C9B1360164A0C9B536006E002
:105BB000144B5B680C9A1A60124A0C9B53609DF858
:105BC0003B308DF817309DF817300493049B83F316
:105BD000118800BF0FE09DF83B308DF80F309DF825
:105BE0000F300293029B83F3118800BF00BF01981E
:105BF0000BF048F800BF00BF11B05DF804FB00BF18
:105C0000681700246017002400B583B00190019B41
:105C1000002B02D16FF0150314E0019B5B7A012B7E
:105C200007D9019B5B7A013BDAB2019B5A720123CF
:105C300008E0019B1C33184600F040F80198FFF77C
:105C40003DFF0023184603B05DF804FB00B585B0A6
:105C50000190102101980DF0E9FC0390039B002BAB
:105C600002D16FF00B0321E0019B9B6E039A9A42D5
:105C700014BF01230023DBB2002B04D00D4A3E21C8
:105C80000D4808F084FC019BDA6E019B9B6ED31AD1
:105C90009AB2039BDA80019B9B68D3F80422039B92
:105CA0001A60019B1A6B039BDA600023184605B04B
:105CB0005DF804FB1C8C02083C8C02088CB001903F
:105CC000EFF311830993099BDBB28DF82330802316
:105CD0000793079B83F3118800BF9DF823308DF84D
:105CE0002F30019B002B03D0019BDB68002B0ED1D2
