:020000040800F2
:10000000B05600248D1300080914000809140008D4
:10001000091400080914000809140008091400084C
:10002000091400080914000809140008091400083C
:10003000091400080914000809140008C91D000863
:10004000C91D0008C91D0008C91D0008C91D0008F8
:10005000C91D0008C91D0008C91D0008C91D0008E8
:10006000C91D0008C91D0008C91D0008C91D0008D8
:10007000C91D0008C91D0008C91D0008C91D0008C8
:10029000C91D0008C91D000882B0BFF34F8FBFF30E
:1002A0006F8F0B4B1B680193019B23F0010301939C
:1002B000074A019B136005230193064A019B1360C3
:1002C000BFF34F8FBFF36F8F00BF02B0704700BF07
:1002D00090EF00E094EF00E000B583B0224B009374
:1002E00004E0009B1A1D009200221A60009B1F4A26
:1002F0009342F6D31E4B01931E4B009307E0019AE5
:10030000131D0193009B191D009112681A60009B38
:10031000194A9342F3D300F095FA01F04DF800F03A
:10032000B1FA412000F098FAFFF7B6FF02F0A2F907
:10033000422000F091FA00F0A5FF00F0C1FF432039
:1003400000F08AFA00F0AEFE442000F085FA452065
:1003500000F082FA0D2000F07FFA0A2000F07CFA0B
:1003600003F0DEFE00BFFDE7B0060024B05200241B
:10037000783B050800000024B006002482B0184B2A
:100380001B680193019B43F001030193144A019BF5
:100390001360144B01221A60134B00221A60104B99
:1003A0001B680193019A114B13400193019B43F089
:1003B000100301930A4A019B13600D4B0D4A1A600A
:1003C000074B1B680193019B23F480230193044A8C
:1003D000019B1360084B00221A6000BF02B07047F7
:1003E00000440258088100511044025867EFFEEAA9
:1003F0002C4402580000FF016044025882B0044BB4
:100400001B680193024A019B136000BF02B0704752
:10041000D844025882B0044B1B680193024A019BE6
:10042000136000BF02B07047DC44025882B0044B36
:100430001B680193024A019B136000BF02B0704722
:10044000D444025882B0064B1B680193019B43F0D1
:10045000FF030193024A019B136000BF02B0704783
:10046000E044025882B00B4B1B680193019B43F49C
:1004700080430193074A019B1360074B1B6801935C
:10048000019B43F480730193034A019B136000BFF7
:1004900002B07047E8440258EC44025882B0064B60
:1004A0001B680193019B43F480530193024A019B13
:1004B000136000BF02B07047F044025882B0044B92
:1004C0001B680193024A019B136000BF02B0704792
:1004D000E444025882B0064B1B680193019B43F031
:1004E00002030193024A019B136000BF02B07047F0
:1004F000F444025808B5FFF781FFFFF78BFFFFF7C1
:1005000095FFFFF79FFFFFF7ADFFFFF7C7FFFFF76F
:10051000D5FFFFF7DFFF00BF08BD000082B00F4B23
:100520001B680193019B23F480230193019B43F4F7
:1005300080330193094A019B1360094B009308E043
:10054000064B1B6803F40033002B0BD1009B013BCF
:100550000093009B002BF3DC05E000BF0044025831
:100560001CC5410000BF009B002B40F36681934BEC
:100570001B680193019A924B13400193019B43F036
:10058000080301938D4A019B13608E4B1B680193F6
:10059000019B23F4E0630193019B43F0400301932B
:1005A000884A019B1360874B1B680193019B23F4CE
:1005B000E0630193019B43F480630193814A019BB3
:1005C00013607E4B1B680193019B23F07003019322
:1005D000019B43F040030193784A019B13607A4BDF
:1005E0001B680193019B23F070030193019B43F06F
:1005F00040030193744A019B1360744B0193744A46
:10060000019B1360734B0193734A019B1360734BFF
:100610000193734A019B1360724B0193724A019BD1
:100620001360724B0193724A019B1360714B1B68FC
:100630000193019B43F080730193019B43F080631E
:100640000193019B43F0805301936A4A019B13601D
:1006500000BF684B1B6803F00073002BF9D000BF8C
:10066000644B1B6803F00063002BF9D000BF614BA3
:100670001B6803F00053002BF9D05F4B1B680193FC
:10068000019B43F0060301935B4A019B13605B4BA4
:100690001B680193019B23F440430193019B43F4A6
:1006A00040430193554A019B136000BF534B1B68A5
:1006B00003F40053002BF9D000BF514B1B6803F427
:1006C0000053002BF9D0242301934E4A019B136061
:1006D0004D4B1B680193019B23F007030193019B82
:1006E00043F003030193484A019B136000BF464B4C
:1006F0001B6803F03803182BF9D1444B1B68019396
:10070000019B23F480330193404A019B1360404BCB
:100710001B680193019B23F440530193019B43F415
:10072000005301933A4A019B13603A4B1B680193B3
:10073000019B23F440730193019B43F400730193E5
:10074000344A019B1360344B1B680193019B23F4D3
:10075000E0430193304A019B13602F4B1B680193C8
:10076000019B23F4E0230193019B43F48033019325
:10077000294A019B1360274B1B680193019B23F0BF
:10078000E0430193234A019B1360214B1B680193B3
:10079000019B23F440130193019B43F44013019305
:1007A0001B4A019B13601B4B1B680193019B23F4A5
:1007B00040330193174A019B30E000BF18440258B0
:1007C000F0F0FFFF1C440258204402581210200091
:1007D0002844025863020303304402584A0E1702A9
:1007E0003844025863020F09404402588804FF014C
:1007F0002C440258004402580C4802581848025829
:100800000448025800200052104402584C44025838
:100810005444025858440258504402581360084B3C
:100820001B680193019B23F040530193019B43F00C
:1008300000530193024A019B136000BF02B070474E
:100840005044025808B5FFF799FDFFF767FEFFF720
:1008500051FE00BF08BD000082B003468DF807308E
:1008600000BF064B1B6803F08003002BF9D0044A3D
:100870009DF80730136000BF02B070471C4800406D
:100880002848004000B583B04FF4802200211D4865
:1008900000F0CBFC1C4800F025FE1C4800F022FEB6
:1008A0001B4B1B680193019A48F28F03134001937D
:1008B000174A019B1360174B1B680193019A164B53
:1008C00013400193134A019B1360144B1B6801935F
:1008D000019A134B13400193104A019B1360114B73
:1008E0004FF459721A600B4B1B680193019B43F044
:1008F0000D030193074A019B136000BF03B05DF82D
:1009000004FB00BFE8440258387C0900397C090028
:100910000448004000480040030000300848004000
:100920000000F1FF0C48004082B0EFF31183019307
:10093000019BDBB2184602B0704782B00190019B68
:1009400083F3118800BF02B0704700B583B0FFF792
:10095000EBFF03468DF807308020FFF7EEFF9DF890
:100960000730184603B05DF804FB00B583B00346BA
:100970008DF807309DF807301846FFF7DEFF00BFFF
:1009800003B05DF804FB82B001900091019BD3F8A5
:10099000A820009B13441B68184602B0704784B01F
:1009A000039002910192039BD3F8A820029B134469
:1009B0001A46019B136000BF04B0704700B585B0B4
:1009C00001900B46ADF80230019BBDF80220A3F860
:1009D000902000210198FFF7D6FF0390039B23F49A
:1009E000D8730393BDF8023003F4D873039A13430A
:1009F0000393039A00210198FFF7D1FF0821019882
:100A0000FFF7C1FF0390039B23F001030393BDF89D
:100A1000023003F00103039A13430393039A08215E
:100A20000198FFF7BCFF00BF05B05DF804FB00B5FF
:100A300085B001900B46ADF80230FFF786FF034604
:100A40008DF80F30BDF8023019460198FFF7B6FF58
:100A50009DF80F301846FFF788FF00BF05B05DF81E
:100A600004FB00B587B001900091FFF76EFF0346CD
:100A70008DF81730009B002B17D000210198FFF74D
:100A800082FF049008210198FFF77DFF0390049BEB
:100A90009BB203F4D8739AB2039B9BB203F0010399
:100AA0009BB213439AB2009B1A8000210198FFF772
:100AB00085FF9DF817301846FFF757FF00BF07B0B6
:100AC0005DF804FB00B58BB00190019BDB6F0693D2
:100AD000FFF73BFF03468DF8173000210698FFF71C
:100AE00052FF0890089B03F001030493089B23F036
:100AF00001030893089A00210698FFF750FF069B10
:100B0000D3F8A4305A00069BD3F89C305B081A44F3
:100B1000069BD3F89C30B2FBF3F30393039B642B47
:100B200008D9039B01335B080793089B23F4004318
:100B300008930DE0039A4FF6F0731340039A52089E
:100B400002F0070213430793089B43F40043089302
:100B5000089A00210698FFF722FF079A0C210698B1
:100B6000FFF71DFF089A394B13400893069B93F833
:100B70009630012B04D1089B43F4C063089308E02E
:100B8000069B93F89630022B03D1089B43F48063B5
:100B90000893069B93F89730092B09D0069B93F88E
:100BA0009730082B09D1069B93F89630002B04D080
:100BB000089B43F4805308930DE0069B93F897300D
:100BC000072B08D1069B93F89630002B03D1089B86
:100BD00043F080530893089A00210698FFF7DFFE40
:100BE00004210698FFF7CFFE0990099B23F4405398
:100BF0000993069B93F89830002B03D0099B43F48C
:100C000000530993099A04210698FFF7C8FE0821AA
:100C10000698FFF7B8FE0990099B23F440730993E7
:100C2000099A08210698FFF7BAFE089A049B134315
:100C30001A4600210698FFF7B2FE9DF817301846B5
:100C4000FFF793FE00BF0BB05DF804FBFFE9FFEF79
:100C500000B587B001900B468DF80330019BDB6F28
:100C60000593059BD3F8A8300E4A934215D14FF453
:100C7000802304930C4B039300BF9DF80330002B9B
:100C800005D0049A0021039800F0CFFA06E0002274
:100C90000499039800F0C9FA00E000BF07B05DF8BE
:100CA00004FB00BF00480040E844025800B585B08E
:100CB0000190019BDB6F0293002200210298FFF755
:100CC0006EFE01210198FFF7C3FF029BD3F8AC3001
:100CD000184600F007FC029BD3F8B030184600F02D
:100CE00001FC04210298FFF74EFE0390039B23F4BE
:100CF0007D530393029B93F89830002B03D0039B02
:100D000043F400530393039A04210298FFF747FE2C
:100D100000210298FFF737FE0390039A1F4B134000
:100D20000393039A00210298FFF739FE08210298E5
:100D3000FFF729FE0390039A194B13400393029B7C
:100D400093F895305B06039A13430393039A0821A3
:100D50000298FFF724FE0198FFF7B4FE00210298E5
:100D6000FFF711FE0390039B43F00D030393039BD6
:100D700043F000530393039A00210298FFF70FFEFC
:100D8000029B0022A3F89020029B012283F894206A
:100D90000023184605B05DF804FB00BF03BEFF3317
:100DA000FEF8FFFF00B585B00190019BDB6F039358
:100DB000039B002283F8942000210398FFF751FE43
:100DC00000210198FFF744FF00210398FFF7DBFDA6
:100DD0000290029B23F00D030293029A00210398D4
:100DE000FFF7DDFD039BD3F8AC30184600F016FD8D
:100DF000039BD3F8B030184600F010FD00BF05B0DB
:100E00005DF804FB00B585B00190019BDB6F039397
:100E1000039B93F8A030039A0949184603F0B8FAE7
:100E20000290029B002B05D1039B93F8A03018463B
:100E300000F03CFF029B184605B05DF804FB00BFC4
:100E4000750E000800B585B00190019BDB6F039320
:100E5000039B93F8A030184600F004FF039B93F81F
:100E6000A03000220021184603F092FA00BF05B01E
:100E70005DF804FB00B587B0039002910192019BDD
:100E800005931C210598FFF77EFD03469AB2059B4A
:100E9000A3F89220059BB3F8923003F02003002BB7
:100EA0000BD0059BB3F8903003F02003002B04D047
:100EB000059B18460BF032FF0BE0059BB3F8923010
:100EC00003F00E03002B04D00E2220210598FFF71B
:100ED00066FD059BB3F8923003F08003002B0AD027
:100EE000059BB3F8903003F08003002B03D0059BE3
:100EF00018460BF06CFE0023184607B05DF804FBA3
:100F000086B0039002910192002305936FF01803BD
:100F1000059300BF059B184606B0704700B585B025
:100F200001900091019BDB6F039324210398FFF74D
:100F30002AFD0290039BB3F892301A04029B1A43D5
:100F4000009B1A60039B0022A3F89220029BDBB255
:100F5000184605B05DF804FB00B587B001900B465C
:100F60008DF80330019BDB6F0493FFF7EEFC034623
:100F70008DF80F30049BB3F89030ADF816309DF823
:100F80000330002B06D0BDF8163043F02003ADF837
:100F9000163007E0BDF8163023F4907323F00103F8
:100FA000ADF81630BDF8163019460498FFF73FFD2E
:100FB0009DF80F301846FFF7D8FC00BF07B05DF86A
:100FC00004FB00B585B00190019BDB6F03931C21EE
:100FD0000398FFF7D8FC034603F02003002B14BF4F
:100FE00001230023DBB2184605B05DF804FB00B511
:100FF00085B001900091019BDB6F0393009B1A4623
:1010000028210398FFF7CBFC00BF05B05DF804FB77
:1010100000B585B001900B468DF80330019BDB6F66
:101020000393FFF792FC03468DF80B309DF80330D5
:10103000002B0DD0039BB3F8903043F08003ADF844
:101040000830BDF8083019460398FFF7F0FC09E0B6
:10105000039BB3F8903023F080039BB219460398AA
:10106000FFF7E5FC9DF80B301846FFF77EFC00BF4C
:1010700005B05DF804FB00B585B00190019BDB6F06
:1010800003931C210398FFF77EFC034603F08003C3
:10109000002B14BF01230023DBB2184605B05DF816
:1010A00004FB000000B583B00023019310E00E4A5A
:1010B000019B52F82330002B07D00B4A019B52F8BA
:1010C000233000211846FFF7CCFC019B013301932C
:1010D000019B072BEBD9054B1846FFF7E7FD00BF37
:1010E00003B05DF804FB00BF38860408000000244C
:1010F00000B587B000230493214B194621480BF01B
:10110000DFFC1F4B194620480BF0DAFC0123049347
:101110006B4610221D49184611F016F8002305935E
:1011200025E01B4A059B52F82330002B19D0184AA2
:10113000059B52F823309B78002B14D1049B5A1C3A
:101140000492DBB23033DBB28DF80930104A059BD4
:1011500052F823301A466B46114618460BF0B0FC85
:1011600002E000BF00E000BF059B01330593059B33
:10117000072BD6D900BF00BF07B05DF804FB00BF46
:101180000000002458860408688604087486040851
:101190003886040800B585B001900B4B03930DF120
:1011A0000A0319460398FFF75CFC019BDBB2184663
:1011B000FFF752FBBDF80A3019460398FFF737FCDA
:1011C00000BF05B05DF804FB0000002482B0EFF31F
:1011D00011830193019BDBB2184602B0704782B0C5
:1011E0000190019B83F3118800BF02B0704700B5E6
:1011F00083B0FFF7EBFF03468DF807308020FFF741
:10120000EEFF9DF80730184603B05DF804FB00B50B
:1012100083B003468DF807309DF807301846FFF776
:10122000DEFF00BF03B05DF804FB00B587B003909C
:1012300002910192FFF7DBFF03468DF81730039B05
:101240001B680493029BDB43049A13400493049AA3
:10125000019B13430493039B049A1A609DF8173073
:101260001846FFF7D4FF00BF07B05DF804FB84B059
:101270000190019BB3FA83F30393039B184604B0D8
:101280007047000082B0BFF34F8FBFF36F8F0A4BE0
:1012900000221A60094B1B680193019B43F4003341
:1012A0000193064A019B1360BFF34F8FBFF36F8F0B
:1012B00000BF02B0704700BF50EF00E014ED00E047
:1012C00000B589B02D4B1B680593059B03F4803353
:1012D000002B4FD12A4B1B680493049B5B0BC3F379
:1012E0000E030793049B03F0070304330393049B4B
:1012F000DB08C3F3090302930298FFF7B8FF034624
:1013000003F01F030193BFF34F8F029B0693069ACE
:10131000019B02FA03F31946079A039B02FA03F3AF
:101320000B430093174A009B1360069B5A1E0692BC
:10133000002BECD1079B5A1E0792002BE5D1BFF37F
:101340004F8F114B1B680593059B43F004030593D6
:101350000D4A059B1360094B1B680593059B43F4DD
:1013600080330593054A059B1360BFF34F8FBFF38E
:101370006F8F00E000BF09B05DF804FB14ED00E0E2
:1013800080ED00E060EF00E09CEF00E04FF0000E29
:10139000FEF7A2BF00BF704782B0EFF31483019342
:1013A000019B184602B0704782B00190019B83F305
:1013B000148800BF02B0704700B583B0FFF7ECFFA0
:1013C0000190019B43F0040301930198FFF7ECFFA8
:1013D0000B4B1B680193019B23F040430193084A88
:1013E000019B1360074B1B680193019B43F470033F
:1013F0000193044A019B136000BF03B05DF804FB36
:1014000034EF00E088ED00E0EFF30580EFF3148C9B
:101410001EF0040F02D0EFF3098107E0EFF308811B
:10142000A1F1700282F30888BFF36F8F0A4602F1C0
:101430006802EFF311831EF0100F0CBF21ED108A2C
:10144000403921E9FC5F1EF0080F04D0A1F1D80259
:1014500022F0070295468B4600F0D6FCB0E8FC5F10
:101460001EF0100F0CBFB0EC108A40301EF0040FBD
:101470000CBF80F3088880F3098883F311888CF30C
:101480001488704782B0EFF311830193019BDBB2A4
:10149000184602B0704782B00190019B83F3118817
:1014A00000BF02B0704700B583B0FFF7EBFF034603
:1014B0008DF807308020FFF7EEFF9DF807301846C3
:1014C00003B05DF804FB00B583B003468DF8073028
:1014D0009DF807301846FFF7DEFF00BF03B05DF848
:1014E00004FB000000B58FB00190019B1B0903F0C5
:1014F0000F030793079B072B02D96FF0150386E1B3
:101500008A4A079B52F823300693069B002B02D190
:101510006FF015037BE1019B03F00F030593019B23
:1015200003F44023B3F5402F1DD0B3F5402F05D869
:10153000B3F5802F05D0B3F5002F11D00023089309
:1015400014E0019B03F48073002B14BF01230023DC
:10155000DBB21946019800F06FF90123089305E00A
:101560000223089302E00323089300BFFFF79BFFC9
:1015700003468DF81330089B022B05D1019B1B0BF2
:1015800003F00F030C9301E000230C93089B022B44
:1015900005D1019B1B0B03F00F030B9301E000230C
:1015A0000B930B9B002B29D0059B072B04D82023E2
:1015B0000A93059B099304E024230A93059B083BA7
:1015C0000993069A0A9B13441B680D93099B9B0081
:1015D0000F2202FA03F3DB431A460D9B13400D93CF
:1015E000099B9B000B9A02FA03F30D9A13430D9388
:1015F000069A0A9B13441A460D9B1360069B1B68B0
:101600000D93059B5B00032202FA03F3DB431A46AA
:101610000D9B13400D93059B5B00089A02FA03F3A0
:101620000D9A13430D93069B0D9A1A6000230C9399
:10163000089B032B0FD0019B03F44033B3F5803F8D
:1016400003D0B3F5003F03D005E001230C9302E083
:1016500002230C9300BF069B0C331B680D93059B64
:101660005B00032202FA03F3DB431A460D9B13408F
:101670000D93059B5B000C9A02FA03F30D9A13433A
:101680000D93069B0C331A460D9B13600B9B002B8E
:1016900029D1059B072B04D820230A93059B099386
:1016A00004E024230A93059B083B0993069A0A9BAE
:1016B00013441B680D93099B9B000F2202FA03F34E
:1016C000DB431A460D9B13400D93099B9B000B9A1D
:1016D00002FA03F30D9A13430D93069A0A9B1344DF
:1016E0001A460D9B1360089B012B02D0089B022B0E
:1016F0001ED1019B03F44063B3F5406F11D0B3F5E5
:10170000406F05D8B3F5806F05D0B3F5006F05D0F5
:1017100000230C9308E001230C9305E002230C93B3
:1017200002E003230C9300BF04E000BF808604089E
:1017300000230C93069B08331B680D93059B5B00ED
:10174000032202FA03F3DB431A460D9B13400D9369
:10175000059B5B000C9A02FA03F30D9A13430D9359
:10176000069B08331A460D9B1360069B04331B68C7
:101770000D930122059B02FA03F30C93089B012BA6
:1017800002D0089B022B09D1019B03F40073002BAC
:1017900004D00D9A0C9B13430D9304E00C9BDB4388
:1017A0000D9A13400D93069B04331A460D9B13604C
:1017B000089B012B25D0019B03F48073002B20D0C4
:1017C000059B03F00C02144B13440393039B1B680B
:1017D0000D93059B9B0003F00C0302930F22029BC9
:1017E00002FA03F3DB431A460D9B13400D93079A4D
:1017F000029B02FA03F30D9A13430D93039B0D9A78
:101800001A609DF813301846FFF75DFE0023184656
:101810000FB05DF804FB00BF0804005800B583B0AA
:101820000190019BDBB201930198FFF75BFE034639
:10183000184603B05DF804FB86B001900B468DF8A6
:101840000330019B1B0903F00F030493049B072B38
:1018500020D8124A049B52F823300393039B002B99
:1018600018D0019B03F00F0302939DF80330002B67
:1018700005D00122029B02FA03F3059305E0029BC7
:101880001033012202FA03F30593039B18331A461F
:10189000059B136000BF06B0704700BF8086040838
:1018A00086B00190019B1B0903F00F030593059B74
:1018B000072B19D80E4A059B52F823300493049B3A
:1018C000002B11D0019B03F00F030393049B1033F3
:1018D0001B680121039A01FA02F21340002B14BF86
:1018E00001230023DBB200E00023184606B0704756
:1018F0008086040882B0EFF311830193019BDBB271
:10190000184602B0704782B00190019B83F31188A2
:1019100000BF02B0704700B583B0FFF7EBFF03468E
:101920008DF807308020FFF7EEFF9DF8073018464E
:1019300003B05DF804FB08B50020FFF7E4FF62B6D2
:1019400000BF08BD00B585B0039002910192FFF77A
:10195000E2FF054A0549032010F09EFD044A0021DC
:1019600000200EF0ACFA00BF08870408A086040827
:10197000BC86040800B585B0039002910192FFF780
:10198000CAFF054A0549032010F086FD044A0021DC
:1019900000200EF094FA00BF14870408C4860408DF
:1019A000BC86040800B585B0039002910192FFF750
:1019B000B2FF054A0549032010F06EFD044A0021DC
:1019C00000200EF07CFA00BF24870408E486040897
:1019D000BC86040884B00190084B1B680393039BEA
:1019E00023F07F430393019B1B06039A1343039346
:1019F000024A039B136000BF04B070471CED00E077
:101A000086B00390029101920093039B103B0593D3
:101A1000039B0F2B56DD059B1F2B0CD8009A3F4BC9
:101A20001344029A13600122059B02FA03F31A463B
:101A3000019B1A606EE0059B3F2B0DD8009A384B36
:101A40001344029A1360059B203B012202FA03F320
:101A50001A46019B1A605DE0059B5F2B0DD8009A2A
:101A6000304B1344029A1360059B403B012202FA5B
:101A700003F31A46019B1A604CE0059B7F2B0DD89F
:101A8000009A294B1344029A1360059B603B012284
:101A900002FA03F31A46019B1A603BE0059B952B63
:101AA0000DD8009A214B1344029A1360059B803B8A
:101AB000012202FA03F31A46019B1A602AE04FF052
:101AC000FF3328E0029B1A4A1A60039B042B04D1BF
:101AD000019B4FF480321A601CE0039B052B04D15C
:101AE000019B4FF400321A6014E0039B062B04D1D3
:101AF000019B4FF480221A600CE0039B0F2B06D150
:101B0000029B0C4A1A60019B01221A6002E04FF00E
:101B1000FF3300E00023184606B0704700E100E004
:101B200004E100E008E100E00CE100E010E100E089
:101B300024ED00E010E000E000B585B0384B1B68F4
:101B400003F00F0301330193019B0293354B039381
:101B500009E0039B4FF0FF321A60029B013B0293A6
:101B6000039B04330393029B002BF2DC2E4B2F4A82
:101B70001A602F4B4FF080321A602E4B4FF080329C
:101B80001A602D4B4FF080321A60019BDB000293EC
:101B90002A4B039309E0039B4FF080321A60029BAB
:101BA000013B0293039B04330393029B002BF2DC63
:101BB000002223490B2002F0EBFB002221490320E5
:101BC00002F0E6FB7020FFF705FF00221E4902200D
:101BD00002F0DEFB00221D49042002F0D9FB0022A6
:101BE0001B49052002F0D4FB00221A49062002F00E
:101BF000CFFB002218490E2002F0CAFB00F0F4FCD3
:101C0000002216490C2002F0C3FB002214490020D8
:101C100002F0BEFBFFF78FFE00BF05B05DF804FBCE
:101C200004E000E080E100E008ED00E000000008D2
:101C300018ED00E01CED00E020ED00E000E400E025
:101C400051210008DD1E000845190008651F000825
:101C5000411D0008352200087519000821260008DA
:101C6000A519000800B587B0019003AA04A9802334
:101C70000198FFF7C5FE0346002B13D1019B0F2BE4
:101C800004DD049B1A46039B13600BE0049B1B6856
:101C90000593039BDB43059A13400593049B1A4667
:101CA000059B136000BF07B05DF804FB00B587B06B
:101CB000019003AA04A900230198FFF7A1FE03469F
:101CC000002B12D1019B0F2B04DD049B1A46039BB2
:101CD00013600AE0049B1B680593039B059A13435A
:101CE0000593049B1A46059B136000BF07B05DF87F
:101CF00004FB82B0019000BF02B0704782B0EFF3E6
:101D000011830193019BDBB2184602B0704782B089
:101D10000190019B83F3118800BF02B0704700B5AA
:101D200083B0FFF7EBFF03468DF807308020FFF705
:101D3000EEFF9DF80730184603B05DF804FB000085
:101D400000B587B0039002910192084B1B68059380
:101D5000FFF7E5FF029B064A0021002002F022FE69
:101D60000023184607B05DF804FB00BF28ED00E033
:101D70003487040882B0EFF311830193019BDBB237
:101D8000184602B0704782B00190019B83F311881E
:101D900000BF02B0704700B583B0FFF7EBFF03460A
:101DA0008DF807308020FFF7EEFF9DF807301846CA
:101DB00003B05DF804FB82B0EFF305830193019B50
:101DC000184602B07047000000B583B0FFF7F3FF7C
:101DD000034601930198FFF78CFF0021019802F060
:101DE00013FB074B1A68074B1B689A4203D000216C
:101DF0000E2000F0C5F900BF03B05DF804FB00BF82
:101E0000B00C0024A80C002400B585B0019000910E
:101E10001F4B0393039B1B680293019B0B2B04D165
:101E2000009B70331B68012B03D0029B009AC3F800
:101E3000A0200198FFF75DFF019B0E2B0AD1029BAA
:101E4000D3F8A430002B02D0029800F0B9F8FFF7C5
:101E5000A2FF03E00099019802F0D6FA0D4B1B682F
:101E60000293039B1B680299184603F01FFA039B19
:101E7000029A1A60029BD3F8A0300093039B1B6860
:101E80000022C3F8A020009B184605B05DF804FBB3
:101E9000B00C0024A80C002482B0EFF3118301934E
:101EA000019BDBB2184602B0704782B00190019BE3
:101EB00083F3118800BF02B0704700B583B0FFF70D
:101EC000EBFF03468DF807308020FFF7EEFF9DF80B
:101ED0000730184603B05DF804FB000000B587B07A
:101EE0000390029101920B4B1B6805930A4B1B68F0
:101EF0000493059B03F00203002BFFF7DEFF029B18
:101F0000064A0021002002F04DFD0023184607B0CC
:101F10005DF804FB2CED00E028ED00E03C870408B0
:101F200082B0EFF311830193019BDBB2184602B03C
:101F3000704782B00190019B83F3118800BF02B00B
:101F4000704700B583B0FFF7EBFF03468DF807300D
:101F50008020FFF7EEFF9DF80730184603B05DF8CC
:101F600004FB000000B587B0039002910192084B7A
:101F70001B680593FFF7E5FF029B064A002100203E
:101F800002F010FD0023184607B05DF804FB00BF07
:101F900028ED00E04487040882B0EFF30583019345
:101FA000019B184602B0704708B5FFF7F5FF0346DE
:101FB000002B14BF01230023DBB2184608BD00002C
:101FC00000B585B00190FFF7EFFF0346002B02D06C
:101FD0002F4B1B6801E02F4B1B680393FFF7DCFFBF
:101FE0000290019A039B9A420CD1029B002B09D1CB
:101FF000019BD3F8A43001989847019B0022C3F8B5
:10200000A42040E0019A039B9A4207D1029B0E2B29
:1020100004D000210E2000F0B3F834E0019BD3F887
:10202000A020019BC3F89C20019BD3F8A030D83B93
:102030001A46019BC3F8A020019BD3F8A000019B86
:10204000D3F89C30D822194610F0CDF8019BD3F874
:10205000A0301A46019BD3F8A030D8321A60019BF9
:10206000D3F8A03088330C4A1A60019BD3F8A03013
:10207000043380221A60019BD3F8A0308C334FF0D8
:1020800080721A6000BF00BF05B05DF804FB00BF9E
:10209000B00C0024A80C0024ED20000882B0EFF35F
:1020A00011830193019BDBB2184602B0704782B0E6
:1020B0000190019B83F3118800BF02B0704700B507
:1020C00083B0FFF7EBFF03468DF807308020FFF762
:1020D000EEFF9DF80730184603B05DF804FB08B525
:1020E0000020FFF7E4FF62B600BF08BD00B583B073
:1020F000164B1B680193019BD3F89C30009300BFE3
:10210000FFF7EDFF019BD3F8A43001989847FFF744
:10211000D6FF019BD3F88430002B06D0019B5B6C6B
:1021200003F04003002B00D1EAE7019B0022C3F833
:10213000A420019BD3F89C20019BC3F8A020012080
:1021400000DF00BF03B05DF804FB00BFA80C002453
:1021500088B0039002910192029B0793079B1B6F2B
:102160000693069B013B012B03D8044B1B68059388
:1021700000E000BF0023184608B07047A80C0024F8
:1021800000B585B00190009100230393019B0F2BB4
:1021900005DD019BA3F11002134B1A6020E0019BA7
:1021A0000F2B10D0019B0F2B11DC019B022B06D0B3
:1021B000019B0E2B0BD14FF08053039308E04FF09F
:1021C0000043039304E04FF08063039300E000BFFB
:1021D000039B002B04D0039A00210448FFF725F845
:1021E00000BF05B05DF804FB00EF00E004ED00E087
:1021F00082B0EFF311830193019BDBB2184602B06A
:10220000704782B00190019B83F3118800BF02B038
:10221000704700B583B0FFF7EBFF03468DF807303A
:102220008020FFF7EEFF9DF80730184603B05DF8F9
:1022300004FB000000B587B0039002910192084BA7
:102240001B680593FFF7E5FF029B064A002100206B
:1022500002F0A8FB0023184607B05DF804FB00BF9E
:1022600028ED00E04C87040800B583B0134B1B68D1
:102270001B0B1B0103F03002104B1B681B0903F002
:102280000F03134300930023019309E0019A0C4BC1
:1022900013449B001A4600231360019B01330193F2
:1022A000019A009B9A42F1D3032200210348FEF7D2
:1022B000BCFF00BF03B05DF804FB00BF002000E0DE
:1022C0000208003882B0144B1B681B0F03F00F0389
:1022D00000930023019317E0019A104B13441B0154
:1022E0001A4600231360019B1A010D4B13441A4632
:1022F00000231360019B1A010A4B13441A46002362
:102300001360019B01330193019A009B9A42E3D32E
:1023100000BF00BF02B07047001000E00201000ED5
:10232000241000E0281000E070B586B04E4B1B680A
:102330001B0F03F00F030293002305930023039365
:10234000002304932EE0049B1A01484B13441B689E
:102350000193019B03F08073002B20D0019B03F0BD
:102360000F030093049A424B13441B011B6805930F
:10237000009B072B0FD0009B072B0FD8009B052B32
:1023800003D0009B062B03D008E00123039306E053
:102390000223039303E00323039300E000BF049BA5
:1023A00001330493049A029B9A42CCD300230493F2
:1023B00053E03049049A13469B0013449B000B449E
:1023C00004331A68059B9A4244D12A49049A134659
:1023D0009B0013449B000B441B68039A9A4239D11B
:1023E0002449049A13469B0013449B000B440C336E
:1023F0001B68002B2ED01F49049A13469B001344E0
:102400009B000B440C331C681A49049A13469B002A
:1024100013449B000B4418681649049A13469B000A
:1024200013449B000B4404331968124D049A13465D
:102430009B0013449B002B4408331D680D4E049AE7
:1024400013469B0013449B00334410331B682A46F9
:10245000A04706E0049B01330493049B082BA8D9F2
:1024600000BF00BF06B070BD001000E0281000E003
:102470000201000EA808002470B584B0019000236A
:10248000039352E02C49039A13469B0013449B008C
:102490000B441B68042B45D12749039A13469B0024
:1024A00013449B000B4404331A68019B9A4239D1B0
:1024B0002149039A13469B0013449B000B440C33A1
:1024C0001B68002B2ED01C49039A13469B00134413
:1024D0009B000B440C331C681749039A13469B005E
:1024E00013449B000B4418681349039A13469B003E
:1024F00013449B000B44043319680F4D039A134691
:102500009B0013449B002B4408331D680A4E039A1A
:1025100013469B0013449B00334410331B682A4628
:10252000A04706E0039B01330393039B082BA9D923
:1025300000BF00BF04B070BDA808002470B582B011
:102540000023019346E02749019A13469B00134458
:102550009B000B441B68052B39D12249019A134675
:102560009B0013449B000B440C331B68002B2ED0A4
:102570001C49019A13469B0013449B000B440C33E7
:102580001C681849019A13469B0013449B000B4496
:1025900018681449019A13469B0013449B000B448E
:1025A000043319680F4D019A13469B0013449B0096
:1025B0002B4408331D680B4E019A13469B001344AD
:1025C0009B00334410331B682A46A04706E0019B5A
:1025D00001330193019B082BB5D900BF00BF02B0A6
:1025E00070BD00BFA808002408B50A4B1B6803F0A3
:1025F0000103002B01D0002309E0FFF735FEFFF7B0
:1026000061FE054A00210548FEF70FFE002318462B
:1026100008BD00BFF0ED00E000000101FCED00E0AE
:1026200000B587B0039002910192114B1B6805938E
:10263000029B0493059B03F00103002B01D0FFF7DD
:102640007DFF059B03F00203002B05D0049B88331C
:102650001B681846FFF710FF059B03F00403002BCF
:1026600001D0FFF761FE0023184607B05DF804FBB8
:1026700030ED00E008B5AFF3008000BF08BD08B53D
:1026800000F024FA00BF08BD00B583B00023019319
:102690000A4809F06FF80190019B002B05DA019AB6
:1026A000074903200FF0F8FE03E0064906200FF06B
:1026B000F3FE019B184603B05DF804FB5487040841
:1026C00064870408A087040800B585B0002303933D
:1026D0000023009300230F4A0F49002028F0DCFA62
:1026E0000290029B002B0ADA029A0C4903200FF099
:1026F000D3FE039B002B07D1029B039304E0064A01
:10270000074906200FF0C8FE039B184605B05DF888
:1027100004FB00BFDC870408E4870408EC87040896
:102720001088040882B000230193019B184602B070
:102730007047000000B583B00023019301F02EFB29
:102740000190019B002B05DA019A074903200FF045
:10275000A3FE03E0054906200FF09EFE019B1846EC
:1027600003B05DF804FB00BF2888040858880408FB
:1027700000B58BB000230993514906200FF08CFE61
:10278000002012F073FF0890089B002B0BDA089AC8
:102790004C4903200FF080FE099B002B40F08B80FA
:1027A000089B099387E0484906200FF075FE4749CA
:1027B00006200FF071FE4648FEF794FE4548FEF7EE
:1027C00091FE434A444906200FF066FE414A4349C0
:1027D00006200FF061FE424B1B680793414B1B68BC
:1027E0000693414B1B680593404B1B680493404B79
:1027F0001B6803933F4906200FF04EFE079B1B0A00
:1028000003F00103079A3C4906200FF045FE069BA2
:102810001B0F03F00303069A384906200FF03CFE15
:10282000059B1B0C03F00302059B9B0C03F00303A9
:1028300000931346059A324906200FF02DFE049BA3
:1028400003F00F02049B1B0903F00F0300931346D0
:10285000049A2C4906200FF01FFE039B1B0A03F06D
:102860000102039B5B0A03F0010300931346039AE2
:10287000254906200FF010FE059B1B0C03F00303F7
:10288000022B05D1059B9B0C03F00303022B03D005
:102890001E4903200FF000FE049B03F00F03092BD9
:1028A00005D1049B1B0903F00F03092B03D0184922
:1028B00003200FF0F1FD099B18460BB05DF804FBF7
:1028C000748804089C880408C8880408F4880408EC
:1028D000189008001990080020890408408904080D
:1028E000EC44025850440258000402582404025890
:1028F000040402586089040878890408A889040837
:10290000D88904081C8A04085C8A0408988A040888
:10291000C08A040800B583B00023019300F0C4FB13
:102920000090009B002B0ADA009A114903200FF057
:10293000B3FD019B002B06D1009B019303E00D49E1
:1029400006200FF0A9FD00F091FC0090009B002BE9
:1029500005DA009A084903200FF09EFD03E00749BD
:1029600006200FF099FD019B184603B05DF804FBAB
:10297000E88A0408108B0408288B0408588B040884
:1029800000B583B0002301930A4808F003F90190D1
:10299000019B002B05DA019A074903200FF07CFD0B
:1029A00003E0064906200FF077FD019B184603B0AF
:1029B0005DF804FB708B0408808B0408AC8B040862
:1029C00082B000230193019B184602B0704782B089
:1029D00000230193019B184602B0704700B583B0F5
:1029E000002301930D4800F0DDFC0090009B002BBC
:1029F0000ADA009A0A4903200FF04EFD019B002BD2
:102A000007D1009B019304E0044A064906200FF019
:102A100043FD019B184603B05DF804FBD88B040806
:102A2000E48B0408148C040800B583B000230193E0
:102A3000134906200FF030FD002000F0DDFE00906D
:102A4000009B002B0ADA009A0E4903200FF024FDA8
:102A5000019B002B0ED1009B01930BE00A4A0B490E
:102A600006200FF019FD012000F0C4FF08490620E0
:102A70000FF012FD019B184603B05DF804FB00BF88
:102A8000488C04086C8C0408988C0408A48C0408F6
:102A9000D88C040882B000230193019B184602B031
:102AA000704782B000230193019B184602B0704723
:102AB00082B000230193019B184602B0704782B098
:102AC00000230193019B184602B0704700B583B004
:102AD00000230193714906200FF0DEFC70490620A7
:102AE0000FF0DAFCFFF7D0FD0090009B002B04D024
:102AF000019B002B01D1009B0193FFF7E5FD0090A6
:102B0000009B002B04D0019B002B01D1009B019363
:102B1000FFF708FE0090009B002B04D0019B002BC8
:102B200001D1009B01935F4906200FF0B5FCFFF730
:102B300001FE0090009B002B04D0019B002B01D1D3
:102B4000009B0193FFF7E6FE0090009B002B04D052
:102B5000019B002B01D1009B0193FFF709FE009020
:102B6000009B002B04D0019B002B01D1009B019303
:102B70004D4906200FF090FCFFF702FF0090009BEC
:102B8000002B04D0019B002B01D1009B0193FFF788
:102B900017FF0090009B002B04D0019B002B01D15C
:102BA000009B0193414906200FF076FCFFF70FFFD1
:102BB0000090009B002B04D0019B002B01D1009BB7
:102BC00001933B4906200FF067FCFFF72DFF0090B3
:102BD000009B002B04D0019B002B01D1009B019393
:102BE000344906200FF058FCFFF7F8FE0090009BD8
:102BF000002B04D0019B002B01D1009B0193FFF718
:102C000049FF0090009B002B04D0019B002B01D1B9
:102C1000009B0193284906200FF03EFCFFF741FF7F
:102C20000090009B002B04D0019B002B01D1009B46
:102C30000193224906200FF02FFCFFF739FF009087
:102C4000009B002B04D0019B002B01D1009B019322
:102C50001B4906200FF020FCFFF731FF0090009B7E
:102C6000002B04D0019B002B01D1009B0193019B01
:102C7000002B04D1134906200FF00EFC08E0019A46
:102C8000114904200FF008FC104906200FF004FC45
:102C9000019B184603B05DF804FB00BFF48C0408E8
:102CA000288D0408708D0408C88D0408108E04084F
:102CB000508E0408888E0408D08E0408188F0408EB
:102CC000608F0408A48F0408F08F0408449004085F
:102CD00000B58BB001900091009B00221A60019B0F
:102CE000002B08D1009B6FF015021A600023E8E06A
:102CF000019B01330193019B1B78202BF8D0019B92
:102D00001B78092BF4D001980FF06FFB0790079BFD
:102D1000022B02D9079B042B05D9009B6FF01502EB
:102D20001A600023CDE0019B1B78502B05D0009B3F
:102D30006FF015021A600023C3E0019B01331B787A
:102D40008DF81B309DF81B30402B03D99DF81B30AC
:102D5000482B05D9009B6FF015021A600023B0E0E4
:102D6000019B0233059303AB0A22194605980DF027
:102D7000EDFD0490039B1B78002B05D1049B002BD9
:102D800002DB049B0F2B05DD009B6FF015021A6020
:102D9000002396E09DF81B30413B072B2AD801A267
:102DA00052F823F0C52D0008CB2D0008D12D0008C6
:102DB000D72D0008DD2D0008E32D0008E92D0008BF
:102DC000EF2D0008002309931AE01023099317E060
:102DD0002023099314E03023099311E04023099341
:102DE0000EE0502309930BE06023099308E0702361
:102DF000099305E0009B6FF015021A60002360E064
:102E0000049B0F2B52D801A252F823F04D2E00083C
:102E1000532E0008592E00085F2E0008652E00086A
:102E20006B2E0008712E0008772E00087D2E0008FA
:102E3000832E0008892E00088F2E0008952E00088A
:102E40009B2E0008A12E0008A72E0008002308933F
:102E500032E0012308932FE0022308932CE00323A0
:102E6000089329E00423089326E00523089323E030
:102E70000623089320E0072308931DE00823089306
:102E80001AE00923089317E00A23089314E00B23A0
:102E9000089311E00C2308930EE00D2308930BE038
:102EA0000E23089308E00F23089305E0009B6FF0C2
:102EB00015021A60002304E0099A089B1A43034B89
:102EC000134318460BB05DF804FB00BF0009040073
:102ED00082B00190019B012B03D0019B022B02D0F9
:102EE00003E0044B02E0044B00E00023184602B06C
:102EF000704700BF5C0900245C0A002482B0019086
:102F0000019B012B03D0019B022B02D003E0044B59
:102F100002E0044B00E00023184602B0704700BFF7
:102F2000DC090024DC0A002400B589B0039002917A
:102F300013468DF80730029B06930398FFF7C8FFEE
:102F40000590059B002B40D0029BB3F5803F03D337
:102F5000029B9BB2069308E0029B0F2B05D9059BB1
:102F60005B79002B33D000230693069BDB00059A88
:102F700013440493049B5B7983F00103DBB2002BC1
:102F800027D1049B1B79002B12D09DF80730002B12
:102F900014BF01230023DBB283F00103DBB28DF801
:102FA0001F309DF81F3003F001038DF81F3003E040
:102FB0009DF807308DF81F30049B1B689DF81F207B
:102FC00011461846FEF738FC04E000BF02E000BFDF
:102FD00000E000BF09B05DF804FB000000B58DB053
:102FE0000790069113468DF81730069B0B930798B0
:102FF000FFF784FF0A900A9B002B43D0069BB3F592
:10300000803F03D3069B9BB20B9302E0069B0F2BE2
:103010003AD80B9BDB000A9A13440993099B1B794E
:1030200083F00103DBB2002B30D1099B1A689DF8B5
:103030001730002B14BF01230023DBB283F0010300
:10304000DBB203F00103DBB219461046FEF7F4FBD6
:103050009DF81730002B01D00E4B00E00E4B9DF871
:103060001720002A01D00D4A00E00D4A099909688D
:103070000291019200930B9B079A0A4906200FF0D8
:103080000BFA04E000BF02E000BF00E000BF0DB09B
:103090005DF804FB9090040898900408A090040840
:1030A000A4900408AC90040808B5802200210A48C6
:1030B0000FF034F88022002108480FF02FF880220A
:1030C000002107480FF02AF88022002105480FF060
:1030D00025F80023184608BD5C090024DC090024FB
:1030E0005C0A0024DC0A002400B58BB00390029136
:1030F00001928DF803300398FFF7EAFE0990099BCF
:10310000002B02D16FF0150336E0029B0F2B02D982
:103110006FF0150330E0029BDB00099A134408931B
:10312000089B5B79002B02D06FF00F0324E005AB06
:1031300019460198FFF7CCFD0790059B002B01D0A5
:10314000059B19E00798FEF7CDF90690069B002B2A
:1031500001DA069B10E09DF8033019460798FEF748
:103160006BFB089B079A1A60089B9DF803201A7155
:10317000089B01225A71002318460BB05DF804FB2E
:1031800000B58BB00390029101920398FFF7B6FE51
:103190000990099B002B02D16FF0150330E0029BD0
:1031A0000F2B02D96FF015032AE0029BDB00099A6E
:1031B00013440893089B1B79002B02D06FF00F0378
:1031C0001EE005AB19460198FFF782FD0790059BAD
:1031D000002B01D0059B13E00798FEF783F90690BA
:1031E000069B002B01DA069B0AE001210798FEF7F7
:1031F00023FB089B079A1A60089B01221A7100237F
:1032000018460BB05DF804FB00B585B00190009145
:103210000198FFF75DFE0390039B002B02D16FF036
:1032200015031EE0009B0F2B02D96FF0150318E069
:10323000009BDB00039A13440293029B5B7983F0AB
:103240000103DBB2002B02D06FF0010309E0029B07
:1032500000221A60029B00221A71029B00225A71FE
:103260000023184605B05DF804FB000000B585B0EA
:1032700000230393012012F097FE0290029B002B83
:1032800011D00121029809F035FF0390039B002B18
:1032900005DA039A134903200FF0FEF803E0124900
:1032A00006200FF0F9F8022012F07EFE0190019B3B
:1032B000002B11D00221019809F01CFF0390039B01
:1032C000002B05DA039A094903200FF0E5F803E023
:1032D000074906200FF0E0F8039B184605B05DF89B
:1032E00004FB00BFD8900408FC9004081C9104085B
:1032F0004091040800B585B00390029113468DF803
:1033000007309DF807301A4602990120FFF70CFE9E
:1033100000BF05B05DF804FB82B00190009101236D
:10332000184602B0704700B585B00390029113466D
:103330008DF807309DF807301A4602990120FFF7F3
:103340004DFE0023184605B05DF804FB00B585B0BE
:103350000390029113468DF807309DF807301A4606
:1033600002990220FFF7E0FD00BF05B05DF804FB05
:1033700082B0019000910123184602B0704700B559
:1033800085B00390029113468DF807309DF8073001
:103390001A4602990220FFF721FE0023184605B0C5
:1033A0005DF804FB00B589B00390039B002B01D0AE
:1033B000039B00E02C4B0793079B00930023012203
:1033C0002A4906200FF068F80123294A002101202C
:1033D000FFF78AFE0690069B002B06DA069A25491F
:1033E00003200FF059F8069B3AE0234B0193204B42
:1033F000009300230122214906200FF04DF80120FF
:1034000012F0D2FD0590059B002B0BD101221C4927
:1034100003200FF041F800210120FFF7F5FE6FF0C7
:1034200012031DE00122174906200FF035F8059917
:1034300007980BF0BBFE0690069B002B0ADA069A53
:10344000114903200FF028F800210120FFF7DCFECE
:10345000069B05E0079A0D4906200FF01DF8002392
:10346000184609B05DF804FB609104086C910408EB
:10347000A4910408A89104081C920408E09104088F
:10348000289204084C92040870920408A092040840
:1034900000B58BB001900091009B00221A60019B47
:1034A000002B08D1009B6FF015021A600023E8E0A2
:1034B000019B01330193019B1B78202BF8D0019BCA
:1034C0001B78092BF4D001980EF08FFF0790079B13
:1034D000022B02D9079B042B05D9009B6FF0150224
:1034E0001A600023CDE0019B1B78502B05D0009B78
:1034F0006FF015021A600023C3E0019B01331B78B3
:103500008DF81B309DF81B30402B03D99DF81B30E4
:10351000482B05D9009B6FF015021A600023B0E01C
:10352000019B0233059303AB0A22194605980DF05F
:103530000DFA0490039B1B78002B05D1049B002BF4
:1035400002DB049B0F2B05DD009B6FF015021A6058
:10355000002396E09DF81B30413B072B2AD801A29F
:1035600052F823F0853500088B35000891350008A6
:10357000973500089D350008A3350008A9350008D7
:10358000AF350008002309931AE01023099317E0D0
:103590002023099314E03023099311E04023099379
:1035A0000EE0502309930BE06023099308E0702399
:1035B000099305E0009B6FF015021A60002360E09C
:1035C000049B0F2B52D801A252F823F00D360008AD
:1035D00013360008193600081F3600082536000883
:1035E0002B36000831360008373600083D36000813
:1035F00043360008493600084F36000855360008A3
:103600005B3600086136000867360008002308931F
:1036100032E0012308932FE0022308932CE00323D8
:10362000089329E00423089326E00523089323E068
:103630000623089320E0072308931DE0082308933E
:103640001AE00923089317E00A23089314E00B23D8
:10365000089311E00C2308930EE00D2308930BE070
:103660000E23089308E00F23089305E0009B6FF0FA
:1036700015021A60002304E0099A089B1A43034BC1
:10368000134318460BB05DF804FB00BF00090400AB
:1036900000B583B0344906200EF0FEFE6B46194695
:1036A0003248FFF7F5FE0346314A1360009B002BBA
:1036B00007D0009B2D4A2F4903200EF0EDFE009B02
:1036C0004DE02B4B1B681846FDF70CFF0190019B4A
:1036D000002B06DA019A284903200EF0DDFE019B3B
:1036E0003DE06B4619462548FFF7D2FE0346244AC3
:1036F0001360009B002B07D0009B204A2149032028
:103700000EF0CAFE009B2AE01D4B1B681846FDF711
:10371000E9FE0190019B002B06DA019A1A49032069
:103720000EF0BAFE019B1AE0114B1B6801211846EE
:10373000FEF782F8124B1B6801211846FEF77CF851
:10374000124906200EF0A8FE084A114906200EF084
:10375000A3FE0A4A0F4906200EF09EFE00231846DB
:1037600003B05DF804FB00BF3493040858930408C9
:103770005C0B00245C93040880930408AC93040859
:10378000600B0024B0930408D4930408FC9304084D
:103790001C9404082C94040808B5134906200EF064
:1037A0007BFE124B1B6801211846FEF745F842F2DA
:1037B000107001F0A5FE0D4B1B6800211846FEF7A6
:1037C0003BF842F2107001F09BFE084B1B68012190
:1037D0001846FEF731F8064801F092FE054906202A
:1037E0000EF05AFE00BF08BD389404085C0B00249C
:1037F000C0D401006094040800B587B0019064490A
:1038000006200EF049FE634906200EF045FE022216
:10381000614906200EF040FE0022604906200EF0AD
:103820003BFE5F4A5F4906200EF036FE5E4A5F4966
:1038300006200EF031FE564906200EF02DFEFFF751
:1038400027FF0590059B002B06DA059A58490320AF
:103850000EF022FE059B97E0FFF79EFF55490620DC
:103860000EF01AFE01234E4A00210220FFF73CFC15
:103870000590059B002B06DA059A4F4903200EF0B0
:103880000BFE059B80E04D4906200EF005FE4C49DD
:1038900006200EF001FE444A00210220FFF770FCD2
:1038A0000590059B002B0ADA059A464903200EF085
:1038B000F3FD00210220FFF7A7FC059B64E04249CD
:1038C00006200EF0E9FD0222404906200EF0E4FD3C
:1038D000022012F069FB0490049B002B0BD1022202
:1038E0003B4903200EF0D8FD00210220FFF78CFC9D
:1038F0006FF0120348E00222364906200EF0CCFD9C
:10390000354906200EF0C8FD049807F0C5FE039067
:10391000039B002B0AD1314903200EF0BDFD00218D
:103920000220FFF771FC6FF012032DE02C490620F6
:103930000EF0B2FD2B4906200EF0AEFD039A019960
:1039400000200AF02DFB0590059B002B0ADA059A52
:10395000254903200EF0A0FD00210220FFF754FCB2
:10396000059B11E00A4906200EF096FD1F4906202E
:103970000EF092FD019A1E4906200EF08DFD0449BD
:1039800006200EF089FD0023184607B05DF804FB01
:1039900078940408A4940408C8940408DC940408E7
:1039A000F0940408F49404080495040808950408A5
:1039B0001895040840950408649504089095040837
:1039C000B4950408D4950408FC95040824960408CA
:1039D000489604086C96040890960408BC9604085F
:1039E000E89604081C97040848970408749704088C
:1039F0009897040800B583B003468DF807300C4B48
:103A00001B689DF8072011461846FDF715FF9DF825
:103A10000730002B01D0074B00E0074B1A4607493F
:103A200006200EF039FD00BF03B05DF804FB00BFB7
:103A3000600B0024B0970408B4970408B8970408F2
:103A400000B587B0039002910192019B0593059BFD
:103A50001B6C0598059A92F83C2011469847002364
:103A6000184607B05DF804FB00B585B001900091E1
:103A7000019B0393064B1846FDF712FF03461A46B7
:103A8000009B1A700023184605B05DF804FB00BFC8
:103A90002D01020000B585B001900091019B0393B8
:103AA000039B93F83C301A46074B53F822301846D4
:103AB000FDF7F6FE03461A46009B1A7000231846CF
:103AC00005B05DF804FB00BF1499040800B585B08B
:103AD00001900B468DF80330019B0393039B93F8F1
:103AE0003C301A46064B53F822309DF8032011460D
:103AF0001846FDF7A1FE0023184605B05DF804FB4B
:103B00001499040800B585B001900091019B0393BE
:103B100045231846FDF7C4FE03461A46009B1A705B
:103B20000023184605B05DF804FB00B587B003908C
:103B30000291039B059345200023019300230093EA
:103B400000230022002110F07BFA059B029A1A64E0
:103B50000023184607B05DF804FB000000B587B0ED
:103B600003900B468DF80B30039B05939DF80B30AB
:103B7000002B1AD0059B1B6C002B02D16FF0150394
:103B80001EE04520059B93F83C301A4613461B0166
:103B900013449B000C4A134401930C4B00930023E5
:103BA0000022012110F04CFA09E045200023019386
:103BB0000023009300230022002110F041FA00238B
:103BC000184607B05DF804FB640C0024413A000875
:103BD00000B585B0019000230293002303932BE0EE
:103BE000194A039B9B01134400221A70164A039B37
:103BF0009B0113443433154A1A60039BD9B2124A0D
:103C0000039B9B0113443C330A461A70039B9B01A0
:103C10000D4A9818019B1B68591C019A116019469E
:103C200007F0CAFA0A4B1846FDF75CFC029B013309
:103C30000293039B01330393039B002BD0DD029B74
:103C4000184605B05DF804FB640B0024D8980408FE
:103C50002D01020000B585B00190002302930023DE
:103C6000039336E01F4A039B9B01134403221A70FF
:103C70001C4A039B9B01134434331B4A1A60039B69
:103C8000D9B2184A039B9B0113443C330A461A706D
:103C9000039B9B01134A9818019B1B68591C019AAE
:103CA0001160194607F088FA104A039B52F8233036
:103CB00000211846FDF7C0FD0C4A039B52F8233043
:103CC0001846FDF70FFC029B01330293039B01335F
:103CD0000393039B022BC5DD029B184605B05DF8DC
:103CE00004FB00BFA40B0024EC98040814990408FA
:103CF00000B585B00190002302930023039341E0B7
:103D00002449039A13461B0113449B000B440522CC
:103D10001A702049039A13461B0113449B000B445D
:103D200034331D4A1A60039BD8B21A49039A1346CA
:103D30001B0113449B000B443C3302461A70154987
:103D4000039A13461B0113449B000B44403300228B
:103D50001A60039A13461B0113449B000D4A9818DE
:103D6000019B1B68591C019A1160194607F024FA3F
:103D700045231846FDF7B6FB029B01330293039BD4
:103D800001330393039B002BBADD029B184605B059
:103D90005DF804FB640C00240099040800B583B0AE
:103DA00000230193002300936B461846FFF710FF92
:103DB0000246019B134401936B461846FFF74AFFE6
:103DC0000246019B134401936B461846FFF790FF90
:103DD0000246019B134401930023184603B05DF88B
:103DE00004FB000082B0254B0193019B00221A6066
:103DF000019B00221A71019B0833214A1A60019B22
:103E0000083301221A71019B10331E4A1A60019B6C
:103E1000103305221A71019B18331A4A1A60019B4C
:103E2000183305221A71019B2033174A1A60019B2F
:103E3000203300221A71019B283308221A60019B4B
:103E4000283309221A71019B3033104A1A60019BF2
:103E5000303300221A71019B383300221A60019B13
:103E6000383309221A71019B403308221A60019BE2
:103E7000403309221A7100BF02B07047D80C0024E9
:103E8000B40C0024A80C0024C40C0024BC0C002496
:103E900000B585B0AC2200217A480EF03FF900232E
:103EA0000393E5E0039BAC2202FB03F3754A134442
:103EB0000293029B039A1A63029B032283F8402019
:103EC000029B0122A3F84820029B6F4A9A63029B3F
:103ED0006D4ADA63029B02225A64029B0193019BA2
:103EE00000225A60029B93F84030684ADB0013447A
:103EF0001B7903F00803002B0AD0029B1B6F029A68
:103F000092F840201146614A52F83120134406E0ED
:103F1000029B93F840301A465C4B53F832301A68D3
:103F2000019B1A60029B93F84030584ADB0013440F
:103F30001B7903F00803002B0AD0029B1B6F029A27
:103F400092F840201146514A52F83120134406E0BD
:103F5000029B93F840301A464C4B53F832301B68A2
:103F6000002B3ED1029B93F84030484ADB001344BB
:103F70001B7903F00803002B0AD0029B1B6F029AE7
:103F800092F840201146414A52F83120134406E08D
:103F9000029B93F840301A463C4B53F83230019A5A
:103FA0001A60029B93F84030384ADB0013441B79B7
:103FB00003F00803002B0AD0029B1B6F029A92F8B1
:103FC00040201146314A52F83120134406E0029B4A
:103FD00093F840301A462D4B53F83230019A5A600C
:103FE0003EE0029B93F84030284ADB0013441B79E3
:103FF00003F00803002B0AD0029B1B6F029A92F871
:1040000040201146214A52F83120134406E0029B19
:1040100093F840301A461D4B53F832301B68019A12
:104020005A60029B93F84030184ADB0013441B7916
:1040300003F00803002B0AD0029B1B6F029A92F830
:1040400040201146114A52F83120134406E0029BE9
:1040500093F840301A460D4B53F83230019A1A60EB
:104060000B49039B029A41F82320039B01330393DE
:10407000039B002B7FF716AF00BF00BF05B05DF8B4
:1040800004FB00BF240D002421410008D80C0024AB
:10409000B00C002400B585B00023039331E0039BEE
:1040A000AC2202FB03F31B4A134402931A4B1B6816
:1040B000013B039A13400193184B1A68019B9B0024
:1040C0001344029A1A60029B5B6CDBB21946029899
:1040D00002F072FF029801F03BFF029B002283F87E
:1040E000A820029812F060F9029802F02DFA0298C6
:1040F00002F0B4FF029B9B6803221A72039B0133F8
:104100000393039B002BCADD00BF00BF05B05DF821
:1041100004FB00BF240D0024D40C0024D00C002488
:1041200000B585B03A4B01221A70FFF75BFEFFF72E
:10413000AFFE374B02221A7006F046FC01AA02AB12
:10414000114618460FF002FE029B019A11461846CE
:104150000EF014FC0EF086FC1023039302E0039B88
:104160005B000393039B012BF9DD039B9B00184627
:104170000EF05EFC0346274A1360274A039B136038
:10418000FFF788FF254B00221A60214B03221A708B
:1041900000F0B2F823F0E2FA00F0B0F802F016FCFA
:1041A00002F000F801F05EF900F00EFE1CF0C4F819
:1041B00029F032FF11F0B4FF06F008FC144B042282
:1041C0001A700023039313E0039B002B0BDD039B6A
:1041D000AC2202FB03F3124A1344012200211846C9
:1041E00003F0C0F801E003F09BF8039B0133039355
:1041F000039B002BE8DD064B05221A7000F06AF8DD
:10420000034B06221A7000F06BFF12F0C3F8FCE7B4
:10421000200D0024D00C0024D40C0024CC0C00244D
:10422000240D002408B502F0BDFB00BF08BD00004E
:1042300000B58BB000230893FEF721FA03AB1846B4
:104240000CF00CFB64238DF80D304FF400630693E3
:1042500003AA0023019308AB0093134600220649EA
:10426000064801F025FF099003AB18460CF02FFB20
:1042700000BF0BB05DF804FB7564010820990408C9
:1042800000B583B001900091FFF7D2FF00231846DC
:1042900003B05DF804FB000000B587B002F026FC17
:1042A0000346039300230293084B01934FF40063EA
:1042B00000930023F0220221054801F0ABF90346E8
:1042C000059300BF07B05DF804FB00BF8142000802
:1042D0002C99040808B501220549064802F012FD90
:1042E000FFF7A0FFFFF7D8FF0023184608BD00BF67
:1042F000389904083C99040800BF704700B583B0A2
:104300000023019307E0084A019B084942F8331053
:10431000019B01330193019BA52BF4DDFDF70CFC00
:1043200000BF03B05DF804FBD00D0024A5440008D5
:1043300082B0EFF311830193019BDBB2184602B008
:10434000704782B00190019B83F3118800BF02B0D7
:10435000704700B583B0FFF7EBFF03468DF80730D9
:104360008020FFF7EEFF9DF80730184603B05DF898
:1043700004FB00B583B003468DF807309DF8073085
:104380001846FFF7DEFF00BF03B05DF804FB000036
:1043900000B589B00390029101926FF01503079365
:1043A000039BA52B27D8039B0693069B002B01DAC2
:1043B000069B21E0FFF7CDFF03468DF81730029BE7
:1043C000002B06D10398FDF74DFC0D4B0293002303
:1043D00001930C49069B029A41F83320094A069B37
:1043E000DB001344019A5A609DF817301846FFF716
:1043F000C0FF00230793079B184609B05DF804FB34
:10440000A5440008D00D002400B587B001900091AC
:10441000114B059300230493019B0393019BA52B50
:1044200010D8039B0D4A52F83330002B0AD0039B5F
:104430000A4A52F833300593039B084ADB001344C1
:104440005B680493059B049A00990198984700BF04
:1044500007B05DF804FB00BFA5440008D00D0024A0
:1044600082B0EFF311830193019BDBB2184602B0D7
:10447000704782B00190019B83F3118800BF02B0A6
:10448000704700B583B0FFF7EBFF03468DF80730A8
:104490008020FFF7EEFF9DF80730184603B05DF867
:1044A00004FB000000B585B0039002910192FFF774
:1044B000E8FF039B044A054903200DF0EDFF044A81
:1044C000002100200BF0FBFC5C99040840990408D3
:1044D0005499040882B0EFF311830193019BDBB27E
:1044E000184602B0704782B00190019B83F3118897
:1044F00000BF02B0704700B583B0FFF7EBFF034683
:104500008DF807308020FFF7EEFF9DF80730184642
:1045100003B05DF804FB00B583B003468DF80730A7
:104520009DF807301846FFF7DEFF00BF03B05DF8C7
:1045300004FB82B0EFF305830193019B184602B0A0
:10454000704784B00190019B0393039B1B6818463E
:1045500004B0704708B5FFF7ECFF0346002B14BF0B
:1045600001230023DBB2184608BD0000F0B58FB070
:104570000B900A910B9B0D9362E00D9B0C930D9B8E
:1045800009930C9B0A9A9A4202D90C9B1B6800E083
:1045900000230C9A043211460A9A8A4202D90C9AD4
:1045A000526800E000220C99083108460A998142BD
:1045B00002D90C99896800E000210C980C3004465F
:1045C0000A98A04202D90C98C06800E000200C9C18
:1045D000103425460A9CAC4202D90C9C246900E0A8
:1045E00000240C9D14352E460A9DB54202D90C9D1F
:1045F0006D6900E000250C9E183637460A9EBE42C3
:1046000002D90C9EB66900E000260C9F1C37BC4600
:104610000A9F674502D90C9FFF6900E000270797B2
:104620000696059504940390029101920093099BCC
:10463000074A084901200DF02FFF0D9B20330D93F1
:104640000D9A0A9B9A4298D900BF00BF0FB0F0BDE7
:10465000B89B0408A899040800B587B0039002919C
:1046600001920093019A009B13440593039B194AFE
:10467000194901200DF010FF019B164A174901202E
:104680000DF00AFF009B134A154901200DF004FFAD
:10469000029B002B12D0029B0E4A124901200DF002
:1046A000FBFE029B203B019A9A4202D8029B203BD0
:1046B000029305990298FFF759FF06E0019A009BC3
:1046C000134419460198FFF751FF00BF07B05DF88A
:1046D00004FB00BFC49B0408DC990408EC9904089F
:1046E000FC990408109A040800B58BB0039002915D
:1046F00000230493039BDB6E0793039B5B6E06937F
:10470000079A069B134405930023099300238DF811
:104710002330029A079B9A4206D3029A059B9A423B
:1047200002D2029B099308E001238DF82330029BFB
:104730000B4A0C4901200DF0AFFE099B002B03D161
:104740009DF82330002B07D000230093069B079A87
:1047500009990548FFF780FF00BF0BB05DF804FB27
:10476000D49B0408209A0408549A0408F0B5ADB00C
:10477000119010911BAB4022002118460DF0CEFC89
:104780001BAB40221946119800F0E4FE13AB202227
:104790001946119800F048FD13AB2C2118460DF076
:1047A00084FD2B902B9B002B02D02B9B20221A7078
:1047B000119B1B6B0D93119B9B68002B03D0119BCE
:1047C0009B681B6801E04FF0FF33119A92F8342088
:1047D0000E92119A526CD20802F003021A4951F853
:1047E00022200F921199496C01F00301174850F8EB
:1047F00021101198406C00F48070002801D05020E6
:1048000000E02D20119CA46F119D6D6F119EF66E1E
:10481000119F7F6E1BAA0B920D4A0A920997089668
:104820000795069413AC0594049003910F9A029295
:104830000E9A019200930D9B064A074901200DF044
:104840002BFE00BF2DB0F0BD989B0408A89B040868
:10485000A49A0408E09B04085C9A040808B5054A79
:10486000054901200DF018FE0021044800F08AFBE4
:1048700000BF08BDEC9B0408B09A04086D4700080F
:1048800000B583B001900091009811F099FC009858
:10489000FFF757FE034619460198FFF725FF00BFB3
:1048A00003B05DF804FB000000B5B1B009900891B9
:1048B0000792069300232F93099B9B68002B0CD033
:1048C000099B5B6C03F00303022B06D0099B9B68DA
:1048D0001B68184600F0E8FA2F900AAB18460BF058
:1048E000E7FB0AAA0AAB7D3303930AAB4A33029370
:1048F0000AAB353301930AAB153300931346184ABC
:10490000184901200DF0C8FD069B002B01D0069A26
:1049100000E0154A089B002B01D0089B00E0124BD9
:104920002F99002901D0114900E011490998C06B65
:10493000049003910D490291079901910093134648
:10494000074A0C4901200DF0A7FD32990998FFF79D
:1049500097FF08F009FC00BF31B05DF804FB00BF11
:10496000F89B0408209B0408489B0408A49A0408A8
:104970004C9B0408549B040800B585B00390029139
:1049800001920093FFF76AFF08F0EEFB08F0ECFBE2
:1049900000BF05B05DF804FB08B5FA2002F08DF801
:1049A000FBE7000000B58FB00590049103920293DD
:1049B000464B1B78DBB2042B8CBF012300238DF800
:1049C0003630FFF7C7FD0346002B02D0404B1B6873
:1049D00001E0404B1B680C933C4B1B78DBB2072B70
:1049E00001D1FFF7D9FF00238DF837309DF836301D
:1049F000002B06D0FFF77FFD03468DF8373000F01F
:104A00000DFBFFF7A7FD0346002B05D10C9B5B6C4C
:104A100003F00303022B02D12C4B07221A70029BD6
:104A2000002B05D12C480FF06FF92B4B029304E0BB
:104A3000D822029928480DF0D6FB0C9B0793029BC5
:104A40000893059B0A93049B0B93039B09931F4BAD
:104A50001B78DBB2072B14BF01230023DBB21A46FD
:104A600007AB1946104600F069F808F07DFB029B81
:104A70000093039B049A05990C98FFF715FF134BBD
:104A80001B78DBB2072B12D1029B0093039B049A85
:104A900005990C98FFF770FF07AB1946022000F04C
:104AA0004DF80021022000F0F3F8FFF775FF9DF8A4
:104AB0003630002B06D09DF837301846FFF72BFD17
:104AC00000F00EFB00BF0FB05DF804FB200D0024CA
:104AD000B00C0024A80C00240013002482B0EFF3D3
:104AE00011830193019BDBB2184602B0704782B07C
:104AF0000190019B83F3118800BF02B0704700B59D
:104B000083B0FFF7EBFF03468DF807308020FFF7F7
:104B1000EEFF9DF80730184603B05DF804FB00B5C2
:104B200083B003468DF807309DF807301846FFF72D
:104B3000DEFF00BF03B05DF804FB000000B589B0E4
:104B4000019000911A4B0593FFF7D9FF03468DF8AA
:104B500013304FF0FF33069300230393059B1B682C
:104B6000079315E0079B5B680293079B1B68009AFD
:104B7000019907989847039B002B04D0039B1B685F
:104B80005A1C039B1A60029B0793069B013B0693EA
:104B9000079B002B02D0069B002BE3D19DF813301E
:104BA0001846FFF7BCFF00BF09B05DF804FB00BF6B
:104BB000D813002482B0EFF311830193019BDBB281
:104BC000184602B0704782B00190019B83F31188B0
:104BD00000BF02B0704700B583B0FFF7EBFF03469C
:104BE0008DF807308020FFF7EEFF9DF8073018465C
:104BF00003B05DF804FB00B583B003468DF80730C1
:104C00009DF807301846FFF7DEFF00BF03B05DF8E0
:104C100004FB000000B589B001901C4B0593FFF721
:104C2000DAFF03468DF81330059B0793019B03932E
:104C30000023069313E0079B1B68039A9A4203D153
:104C40006FF0100306930EE0039B9A68079B1B68A6
:104C50009B689A4207DC079B1B6804330793079BFA
:104C60001B68002BE7D1069B002B06D1079B1A6817
:104C7000039B5A60079B039A1A609DF813301846ED
:104C8000FFF7B9FF00BF09B05DF804FBDC13002497
:104C900000B589B0019000911A4B0593FFF79BFF77
:104CA00003468DF813304FF0FF3306930023039330
:104CB000059B1B68079315E0079B5B680293079BA6
:104CC0001B68009A019907989847039B002B04D012
:104CD000039B1B685A1C039B1A60029B0793069B4D
:104CE000013B0693079B002B02D0069B002BE3D1D0
:104CF0009DF813301846FFF77EFF00BF09B05DF83E
:104D000004FB00BFDC13002488B00390029111461D
:104D10001A460B46ADF8063013468DF805300023D1
:104D200007931DE0029B0693069B9DF805201A72CF
:104D3000039B0593069B0493059B1A68049B1A60CA
:104D4000049B059A5A60059B1B68049A5A60059B50
:104D5000049A1A60029B2C330293079B013307933A
:104D6000BDF80630079A9A42DCDB029B184608B071
:104D7000704788B0039002911346ADF806300023C7
:104D8000079317E0039B0693029B0593069B1A6803
:104D9000059B1A60059B069A5A60069B1B68059A3C
:104DA0005A60069B059A1A60029B30330293079B58
:104DB00001330793BDF80630079A9A42E2DB029B63
:104DC000184608B07047000000B585B01A4B039331
:104DD0001A4B0293029B029A5A60029B5A68029BEA
:104DE0001A600023082203991448FFF78DFF0390EF
:104DF000134B0193019B019A5A60019B5A68019BD6
:104E00001A600223082203990D48FFF77DFF0390E3
:104E10000C4B0093009B009A5A60009B5A68009BC1
:104E20001A60082203990748FFF7A3FF039000BF09
:104E300005B05DF804FB00BFF0130024E01300246C
:104E4000E81300243018002482B0EFF3118301939B
:104E5000019BDBB2184602B0704782B00190019B03
:104E600083F3118800BF02B0704700B583B0FFF72D
:104E7000EBFF03468DF807308020FFF7EEFF9DF82B
:104E80000730184603B05DF804FB00B583B0034655
:104E90008DF807309DF807301846FFF7DEFF00BF9A
:104EA00003B05DF804FB000000B587B0019000235B
:104EB0000593FFF7DAFF03468DF81330174B1B6895
:104EC000002B21D0019B002B1EDB154B1B68013BE7
:104ED000019A13400393114B1A68039B9B001344E0
:104EE0001B68002B10D00D4B1A68039B9B001344CA
:104EF0001B681B6B019A9A4206D1084B1A68039BE8
:104F00009B0013441B6805939DF813301846FFF768
:104F1000BCFF059B184607B05DF804FBD00C0024CD
:104F2000D40C002482B0EFF311830193019BDBB218
:104F3000184602B0704782B00190019B83F311883C
:104F400000BF02B0704700B583B0FFF7EBFF034628
:104F50008DF807308020FFF7EEFF9DF807301846E8
:104F600003B05DF804FB00B583B003468DF807304D
:104F70009DF807301846FFF7DEFF00BF03B05DF86D
:104F800004FB000000B585B001900091FFF7DBFF46
:104F900003468DF80B3000F041F80023039314E032
:104FA000124B1A68039B9B0013441B68002B09D00B
:104FB0000E4B1A68039B9B0013441A68019B0099CF
:104FC00010469847039B01330393094B1B68039AD0
:104FD0009A42E5DB00F084F89DF80B301846FFF7A5
:104FE000C2FF00BF05B05DF804FB00BFD00C002479
:104FF000D40C002482B0EFF305830193019B184683
:1050000002B0704708B5FFF7F5FF0346002B14BF49
:1050100001230023DBB2184608BD000000B583B0B1
:10502000FFF7F0FF034683F00103DBB2002B0FD044
:10503000094B1B680193019B002B09D0019BB3F91D
:1050400048309BB201339BB21AB2019BA3F84820AF
:1050500000BF03B05DF804FBA80C002482B0EFF39E
:1050600011830193019BDBB2184602B0704782B0F6
:105070000190019B83F3118800BF02B0704700B517
:1050800083B0FFF7EBFF03468DF807308020FFF772
:10509000EEFF9DF80730184603B05DF804FB00B53D
:1050A00083B003468DF807309DF807301846FFF7A8
:1050B000DEFF00BF03B05DF804FB82B0EFF30583B1
:1050C0000193019B184602B0704708B5FFF7F5FF42
:1050D0000346002B14BF01230023DBB2184608BD92
:1050E00000B585B0FFF7F1FF034683F00103DBB2A3
:1050F000002B4AD0274B1B680193019B002B3BD010
:10510000019BB3F94830012B36D1FFF7B8FF0346B6
:105110008DF80F30019B0022A3F848201E4B1B681E
:105120000293029B002B0ED000F0C6F80346002B22
:1051300009D0FFF7CAFF034683F00103DBB2002B5F
:1051400001D0022000DF019B5B6C03F01803082BE9
:105150000BD1019BDB6C002B07D10E4B1A68019B16
:105160009A4202D0019B1422DA649DF80F3018464F
:10517000FFF795FF00BF08E0019BB3F9482092B20A
:10518000013A92B212B2A3F8482000BF05B05DF810
:1051900004FB00BFA80C0024B40C002484B00190D0
:1051A000019B1B6823F000430393039A054B1340B4
:1051B000044A934201D0039B01E04FF0FF331846AD
:1051C00004B07047FEFFFF7F82B0EFF311830193BD
:1051D000019BDBB2184602B0704782B00190019B80
:1051E00083F3118800BF02B0704700B583B0FFF7AA
:1051F000EBFF03468DF807308020FFF7EEFF9DF8A8
:105200000730184603B05DF804FB00B583B00346D1
:105210008DF807309DF807301846FFF7DEFF00BF16
:1052200003B05DF804FB000000B587B00390029165
:105230000192FFF7DAFF03468DF81730039B93F8CE
:105240004030052B18D1039B1B6F1B7903F004031F
:10525000002B11D0039B1B6F1846FFF79FFF049094
:105260009DF817301846FFF7D0FF049B0D4A0199AF
:1052700002980BF032FB11E09DF817301846FFF74B
:10528000C4FF039B93F840301A46074B53F8223073
:10529000019A194602980CF057FF00BF00BF07B0F3
:1052A0005DF804FB889C04089C9C040882B0019073
:1052B000009100BF02B0704786B000238DF80F3018
:1052C0002E4B1B680493049BB3F94830002B50DC31
:1052D0002B4B1B68059343E0059B1B68029302E080
:1052E000049B1B680493049B002B07D0059B93F839
:1052F0003420049B93F834309A42F1D9049B5B68C4
:105300000193019B002B17D1059B049A1A60059B02
:1053100000225A60049B059A5A60184A059B136044
:10532000049B022283F84020059B032283F840203F
:1053300001238DF80F300FE0059B049A1A60059B3E
:10534000019A5A60019B059A1A60049B059A5A605B
:10535000059B022283F84020059B0493029B059342
:10536000059B002BB8D1064B00221A60044B00228B
:105370005A609DF80F30184606B07047A80C0024FC
:10538000B40C002486B00390029111461A460B46D5
:10539000ADF8063013468DF805300023059320E064
:1053A000029B9DF805201A77029B03F120020292CE
:1053B0000493049B00221A60039B1B68002B06D1F8
:1053C000039B049A1A60039B049A5A6006E0039BAD
:1053D0005B68049A1A60039B049A5A60059B013328
:1053E0000593BDF80630059A9A42D9DB029B184610
:1053F00006B0704786B00390029111461A460B46DC
:10540000ADF8063013468DF805300023059320E0F3
:10541000029B9DF805201A75029B03F11802029267
:105420000493049B00221A60039B1B68002B06D187
:10543000039B049A1A60039B049A5A6006E0039B3C
:105440005B68049A1A60039B049A5A60059B0133B7
:105450000593BDF80630059A9A42D9DB029B18469F
:1054600006B0704700B583B01F4B01931F4B00225D
:105470001A601E4B00225A601D4B00221A601C4B02
:1054800000225A601B4B00221A601A4B00225A60FD
:10549000194B00221A60184B00225A60174B002249
:1054A0001A60164B00225A6000230422019910480A
:1054B000FFF768FF01900223082201990D48FFF7CA
:1054C00061FF01900023042201990B48FFF792FF2E
:1054D00001900223082201990848FFF78BFF0190F1
:1054E00000BF03B05DF804FB6018002438180024E6
:1054F000401800244818002450180024581800248C
:1055000000B587B0019000230593019B002B18D0B4
:10551000019B0E4AA2FB03239B0C0493049B029362
:10552000049B0B4A02FB03F3019AD31A4FF47A72DD
:1055300002FB03F3039302AB0021184602F067FE5F
:105540000590059B184607B05DF804FB83DE1B43FE
:1055500040420F0000B58BB00590049103920023E8
:105560000993059B002B06D0039B002B03D0059BC2
:105570001B6B002B04DC049B00221A70002340E00C
:10558000059B5B6C03F00303012B13D1059B079371
:10559000079BDA6B079BD3F8B030009313461B4A86
:1055A000039904980BF099F903461A46099B134492
:1055B000099320E0059802F0C8FB034604330893E2
:1055C00011E0049A099BD018039A099BD11A089BF1
:1055D0001A1D08921B680E4A0BF07FF903461A4603
:1055E000099B13440993089B1B68002B03D0099A5D
:1055F000039B9A42E5D3039B5A1E099B934228BF03
:10560000134618460BB05DF804FB00BFC09C0408AD
:10561000C89C040800B58FB00990079206930B460A
:105620008DF823309DF82330022B01D1AC2301E00B
:105630004FF4567318460DF0FBF90D900D9B002B9F
:1056400002D16FF00B0326E09DF8233043F40043B2
:105650001A460D9B5A64109B00220492139A0392DF
:10566000129A0292119A01920093069B079A099945
:105670000D9800F087F80C900C9B002B04DA0D9825
:105680000DF090F90C9B06E00D9B1B6B0B930D9896
:1056900000F0A8FB0B9B18460FB05DF804FB00B5AB
:1056A00089B007900691059204930C9B002B03D1BF
:1056B00001F01CFA034600E00C9B03930B9B029342
:1056C0000A9B0193049B0093059B069A002107986F
:1056D000FFF7A0FF0346184609B05DF804FB00B5CC
:1056E0008BB00790069105920493002302930D9BC3
:1056F00001930C9B0093049B059A06990798FFF76A
:10570000CEFF0990099B002B08DA0AF0F3FB024652
:10571000099B5B4213604FF0FF330993099B1846C6
:105720000BB05DF804FB00B587B0059004910392BF
:105730000293089B0193029B0093039B0022049910
:105740000598FFF7CCFF0346184607B05DF804FB49
:1057500000B589B007900691059204930023039346
:105760000B9B02930A9B0193049B0093059B069A53
:1057700002210798FFF74EFF0346184609B05DF86F
:1057800004FB000000B589B00590049103920293D8
:10579000059B5B6CDBB203F003038DF81B30059BAC
:1057A0005B6CDBB21946059801F006FC0790079B7D
:1057B000002B01DA079B75E0059B184600F0C8FB3B
:1057C000059B002283F8A820059B9B680D9918462D
:1057D00001F0C9F90790079B002B41DB01220E99CC
:1057E000059801F0BFFD0790079B002B3ADB029B59
:1057F000002B07D0059B0A9A0299184610F099FDD4
:10580000079007E0059B9DF81B200A99184610F0A9
:1058100027FC0790079B002B26DB9DF81B3000938D
:105820000B9B224A0399059800F086FA0790079B84
:10583000002B1BDB059B184600F086FE0790079B9C
:10584000002B15DB0C9A0499059800F0D1F907900C
:10585000079B002B0EDB059801F000FC079B21E065
:1058600000BF08E000BF06E000BF04E000BF02E0A8
:1058700000BF00E000BF029B002B0AD1059B9B6E7E
:10588000002B06D0059B9DF81B201146184610F0F2
:1058900067FC059B184600F04FFB059B184601F07E
:1058A000C5FC079B184609B05DF804FB395E00088B
:1058B00000B587B00190019B0593059B5B6804933D
:1058C000059B1B680393049B002B03D1124A039B87
:1058D000136002E0049B039A1A60039B002B03D120
:1058E0000D4A049B536002E0039B049A5A60059B97
:1058F00000221A60059B00225A60019B5B6CDBB2A0
:1059000003F00303DBB21946019802F03BF900BF34
:1059100007B05DF804FB00BFC40C002482B0EFF3B5
:1059200011830193019BDBB2184602B0704782B02D
:105930000190019B83F3118800BF02B0704700B54E
:1059400083B0FFF7EBFF03468DF807308020FFF7A9
:10595000EEFF9DF80730184603B05DF804FB00B574
:1059600083B003468DF807309DF807301846FFF7DF
:10597000DEFF00BF03B05DF804FB000000B589B096
:105980000190FFF7DCFF03468DF81730534B1B687F
:1059900001330793002306932CE0079B002B01DCC7
:1059A000012307934E4B1B68013B079A1340029358
:1059B0004C4B1A68029B9B0013441B68002B13D1AD
:1059C000484B1A68029B9B001344019A1A60019B82
:1059D000079A1A63414A079B13609DF817301846CF
:1059E000FFF7BDFF002374E0079B01330793069B7D
:1059F000013306933A4B1B68069A9A42CDDB394B2A
:105A00001B6804939DF817301846FFF7A8FF344B26
:105A10001B68DB0018460DF00BF80390039B002B6E
:105A200002D16FF00B0354E0FFF789FF03468DF8B6
:105A300017302C4B1B68049A9A4208D09DF81730F7
:105A40001846FFF78CFF03980CF0ACFF99E7244B46
:105A50001B685B00224A13600023069323E0214B5E
:105A60001A68069B9B0013441B68002B17D01D4B24
:105A70001A68069B9B0013441B681A6B184B1B6823
:105A8000013B13400293174B1A68069B9B001A4474
:105A9000029B9B0003990B4412681A6000E000BF50
:105AA000069B013306930E4B1B68002B00DA013373
:105AB0005B101A46069B9342D1DB0A4A039B136094
:105AC0009DF817301846FFF74AFF04980CF06AFF5C
:105AD00057E7184609B05DF804FB00BFCC0C002462
:105AE000D40C0024D00C002400B589B0039002919E
:105AF000019200933C4B1B6807930398FFF73EFF0E
:105B00000690069B002B69D1029BDAB2039B83F8B7
:105B10003420029BDAB2039B83F83520039B019A61
:105B20009A63009A039BDA639DF8283003F003031D
:105B30008DF82830039B5B6C23F00302039B5A64AF
:105B4000039B5A6C9DF828301A43039B5A64039BAD
:105B50005B6C23F01802039B5A64039B5B6C43F05D
:105B60000802039B5A64039B1422DA64039B079A7E
:105B70007433743292E8030083E80300039B00222D
:105B800083F84020039810F00FFCFFF7D8FE03467F
:105B90008DF81730039B0493049B00225A60134B2B
:105BA0001A68049B1A60114B1B68002B06D10F4A20
:105BB000049B13600D4A049B536006E00B4B1B686B
:105BC000049A5A60094A049B1360039B042283F8D9
:105BD00040209DF817301846FFF7C1FE069B184677
:105BE00009B05DF804FB00BFA80C0024C40C00241D
:105BF00000B58DB0039002910192029B002B01D160
:105C00004C4B029302980CF0F0FB034601330A93CD
:105C100000230993019B002B26D01EE0099B9B00CB
:105C2000019A13441B6818460CF0DFFB02460A9BDE
:105C3000134401330A93039B5B6E0A9A9A4202D380
:105C40006FF0230372E0099B01330993099BB3F5BD
:105C5000807F02DD6FF0060368E0099B9B00019ADC
:105C600013441B68002BD9D1099B02339B00079377
:105C70000398079A0A9B1344194610F02DFB0690CF
:105C8000069B002B02D16FF00B034FE0069A079B97
:105C900013440B93069B0B9A1A6002980CF0A5FB19
:105CA0000346013305930A9A02990B980CF04CFABB
:105CB000059B0B9A13440B93059B0A9AD31A0A93DC
:105CC0000023089326E0089B01339B00069A1344A7
:105CD0000B9A1A60089B9B00019A13441B68184694
:105CE0000CF083FB034601330593089B9B00019A4C
