:020000040800F2
:10000000AC5E0024951300081114000811140008B8
:10001000111400081114000811140008111400082C
:10002000111400081114000811140008111400081C
:10003000111400081114000811140008D11D000843
:10004000D11D0008D11D0008D11D0008D11D0008D8
:10005000D11D0008D11D0008D11D0008D11D0008C8
:10006000D11D0008D11D0008D11D0008D11D0008B8
:10007000D11D0008D11D0008D11D0008D11D0008A8
:10029000D11D0008D11D000882B0BFF34F8FBFF3FE
:1002A0006F8F0B4B1B680193019B23F0010301939C
:1002B000074A019B136005230193064A019B1360C3
:1002C000BFF34F8FBFF36F8F00BF02B0704700BF07
:1002D00090EF00E094EF00E000B583B0224B009374
:1002E00004E0009B1A1D009200221A60009B1F4A26
:1002F0009342F6D31E4B01931E4B009307E0019AE5
:10030000131D0193009B191D009112681A60009B38
:10031000194A9342F3D300F099FA01F051F800F032
:10032000B5FA412000F09CFAFFF7B6FF02F0A6F9FB
:10033000422000F095FA00F0A9FF00F0C5FF43202D
:1003400000F08EFA00F0B2FE442000F089FA452059
:1003500000F086FA0D2000F083FA0A2000F080FAFF
:1003600004F07AF900BFFDE7A0070024AC5A00248E
:10037000DCDD0508000000249807002482B0184B3B
:100380001B680193019B43F001030193144A019BF5
:100390001360144B01221A60134B00221A60104B99
:1003A0001B680193019A114B13400193019B43F089
:1003B000100301930A4A019B13600D4B0D4A1A600A
:1003C000074B1B680193019B23F480230193044A8C
:1003D000019B1360084B00221A6000BF02B07047F7
:1003E00000440258088100511044025867EFFEEAA9
:1003F0002C4402580000FF016044025882B0044BB4
:100400001B680193024A019B136000BF02B0704752
:10041000D844025882B0044B1B680193024A019BE6
:10042000136000BF02B07047DC44025882B0044B36
:100430001B680193024A019B136000BF02B0704722
:10044000D444025882B0064B1B680193019B43F0D1
:10045000FF030193024A019B136000BF02B0704783
:10046000E044025882B00D4B1B680193019B43F49A
:1004700080430193019B43F480030193074A019B4E
:100480001360074B1B680193019B43F48073019336
:10049000034A019B136000BF02B07047E844025852
:1004A000EC44025882B0064B1B680193019B43F455
:1004B00080530193024A019B136000BF02B0704752
:1004C000F044025882B0044B1B680193024A019B1E
:1004D000136000BF02B07047E444025882B0064B7C
:1004E0001B680193019B43F002030193024A019BA5
:1004F000136000BF02B07047F444025808B5FFF71C
:100500007DFFFFF787FFFFF791FFFFF79BFFFFF7E7
:10051000A9FFFFF7C7FFFFF7D5FFFFF7DFFF00BF1A
:1005200008BD000082B00F4B1B680193019B23F4B0
:1005300080230193019B43F480330193094A019B7B
:100540001360094B009308E0064B1B6803F400336B
:10055000002B0BD1009B013B0093009B002BF3DC95
:1005600005E000BF004402581CC5410000BF009BCD
:10057000002B40F36681934B1B680193019A924BC9
:1005800013400193019B43F0080301938D4A019BA3
:1005900013608E4B1B680193019B23F4E06301936E
:1005A000019B43F040030193884A019B1360874BF2
:1005B0001B680193019B23F4E0630193019B43F4C7
:1005C00080630193814A019B13607E4B1B680193FA
:1005D000019B23F070030193019B43F040030193BF
:1005E000784A019B13607A4B1B680193019B23F0AF
:1005F00070030193019B43F040030193744A019BF4
:100600001360744B0193744A019B1360734B019305
:10061000734A019B1360734B0193734A019B1360F0
:10062000724B0193724A019B1360724B0193724AA1
:10063000019B1360714B1B680193019B43F0807316
:100640000193019B43F080630193019B43F080532E
:1006500001936A4A019B136000BF684B1B6803F05B
:100660000073002BF9D000BF644B1B6803F00063DC
:10067000002BF9D000BF614B1B6803F00053002B27
:10068000F9D05F4B1B680193019B43F00603019374
:100690005B4A019B13605B4B1B680193019B23F436
:1006A00040430193019B43F440430193554A019B0E
:1006B000136000BF534B1B6803F40053002BF9D0A9
:1006C00000BF514B1B6803F40053002BF9D02423C7
:1006D00001934E4A019B13604D4B1B680193019B94
:1006E00023F007030193019B43F003030193484A5E
:1006F000019B136000BF464B1B6803F03803182BA7
:10070000F9D1444B1B680193019B23F4803301937F
:10071000404A019B1360404B1B680193019B23F4EB
:1007200040530193019B43F4005301933A4A019BC8
:1007300013603A4B1B680193019B23F440730193B0
:10074000019B43F400730193344A019B1360344BC3
:100750001B680193019B23F4E0430193304A019B02
:1007600013602F4B1B680193019B23F4E02301933B
:10077000019B43F480330193294A019B1360274B6B
:100780001B680193019B23F0E0430193234A019BE3
:100790001360214B1B680193019B23F440130193C9
:1007A000019B43F4401301931B4A019B13601B4BB5
:1007B0001B680193019B23F440330193174A019B6B
:1007C00030E000BF18440258F0F0FFFF1C4402580C
:1007D00020440258121020002844025863020303E8
:1007E000304402584A0E17023844025863020F0977
:1007F000404402588804FF012C4402580044025827
:100800000C48025818480258044802580020005268
:10081000104402584C440258544402585844025858
:10082000504402581360084B1B680193019B23F04E
:1008300040530193019B43F000530193024A019BF3
:10084000136000BF02B070475044025808B5FFF76C
:1008500095FDFFF767FEFFF751FE00BF08BD0000E2
:1008600082B003468DF8073000BF064B1B6803F0CB
:100870008003002BF9D0044A9DF80730136000BFB5
:1008800002B070471C4800402848004000B583B0C3
:100890004FF4802200211D4800F0CBFC1C4800F0E2
:1008A00025FE1C4800F022FE1B4B1B680193019A99
:1008B00048F28F0313400193174A019B1360174BB3
:1008C0001B680193019A164B13400193134A019B35
:1008D0001360144B1B680193019A134B134001934F
:1008E000104A019B1360114B4FF459721A600B4B65
:1008F0001B680193019B43F00D030193074A019B81
:10090000136000BF03B05DF804FB00BFE844025869
:10091000387C0900397C0900044800400048004048
:1009200003000030084800400000F1FF0C48004080
:1009300082B0EFF311830193019BDBB2184602B042
:10094000704782B00190019B83F3118800BF02B011
:10095000704700B583B0FFF7EBFF03468DF8073013
:100960008020FFF7EEFF9DF80730184603B05DF8D2
:1009700004FB00B583B003468DF807309DF80730BF
:100980001846FFF7DEFF00BF03B05DF804FB82B03E
:1009900001900091019BD3F8A820009B13441B6891
:1009A000184602B0704784B0039002910192039BF5
:1009B000D3F8A820029B13441A46019B136000BF82
:1009C00004B0704700B585B001900B46ADF8023019
:1009D000019BBDF80220A3F8902000210198FFF7A9
:1009E000D6FF0390039B23F4D8730393BDF8023022
:1009F00003F4D873039A13430393039A00210198D5
:100A0000FFF7D1FF08210198FFF7C1FF0390039B77
:100A100023F001030393BDF8023003F00103039AAE
:100A200013430393039A08210198FFF7BCFF00BF0B
:100A300005B05DF804FB00B585B001900B46ADF83C
:100A40000230FFF786FF03468DF80F30BDF8023005
:100A500019460198FFF7B6FF9DF80F301846FFF7CB
:100A600088FF00BF05B05DF804FB00B587B00190BA
:100A70000091FFF76EFF03468DF81730009B002BA7
:100A800017D000210198FFF782FF049008210198F8
:100A9000FFF77DFF0390049B9BB203F4D8739AB2D7
:100AA000039B9BB203F001039BB213439AB2009BDA
:100AB0001A8000210198FFF785FF9DF8173018462E
:100AC000FFF757FF00BF07B05DF804FB00B58BB020
:100AD0000190019BDB6F0693FFF73BFF03468DF808
:100AE000173000210698FFF752FF0890089B03F08B
:100AF00001030493089B23F001030893089A002143
:100B00000698FFF750FF069BD3F8A4305A00069BC7
:100B1000D3F89C305B081A44069BD3F89C30B2FB98
:100B2000F3F30393039B642B08D9039B01335B0806
:100B30000793089B23F4004308930DE0039A4FF6B4
:100B4000F0731340039A520802F00702134307930D
:100B5000089B43F400430893089A00210698FFF786
:100B600022FF079A0C210698FFF71DFF089A394BC0
:100B700013400893069B93F89630012B04D1089BF1
:100B800043F4C063089308E0069B93F89630022B69
:100B900003D1089B43F480630893069B93F8973036
:100BA000092B09D0069B93F89730082B09D1069B97
:100BB00093F89630002B04D0089B43F4805308939D
:100BC0000DE0069B93F89730072B08D1069B93F80E
:100BD0009630002B03D1089B43F080530893089A6A
:100BE00000210698FFF7DFFE04210698FFF7CFFEED
:100BF0000990099B23F440530993069B93F898307E
:100C0000002B03D0099B43F400530993099A042154
:100C10000698FFF7C8FE08210698FFF7B8FE09906E
:100C2000099B23F440730993099A08210698FFF75A
:100C3000BAFE089A049B13431A4600210698FFF750
:100C4000B2FE9DF817301846FFF793FE00BF0BB0B9
:100C50005DF804FBFFE9FFEF00B587B001900B469C
:100C60008DF80330019BDB6F0593059BD3F8A8300B
:100C70000E4A934215D14FF4802304930C4B0393F7
:100C800000BF9DF80330002B05D0049A0021039883
:100C900000F0CFFA06E000220499039800F0C9FAA8
:100CA00000E000BF07B05DF804FB00BF0048004053
:100CB000E844025800B585B00190019BDB6F0293B8
:100CC000002200210298FFF76EFE01210198FFF734
:100CD000C3FF029BD3F8AC30184600F007FC029B20
:100CE000D3F8B030184600F001FC04210298FFF759
:100CF0004EFE0390039B23F47D530393029B93F8D2
:100D00009830002B03D0039B43F400530393039AC2
:100D100004210298FFF747FE00210298FFF737FEF3
:100D20000390039A1F4B13400393039A00210298E8
:100D3000FFF739FE08210298FFF729FE0390039A76
:100D4000194B13400393029B93F895305B06039A6B
:100D500013430393039A08210298FFF724FE019896
:100D6000FFF7B4FE00210298FFF711FE0390039BEA
:100D700043F00D030393039B43F000530393039A43
:100D800000210298FFF70FFE029B0022A3F890209B
:100D9000029B012283F894200023184605B05DF8D9
:100DA00004FB00BF03BEFF33FEF8FFFF00B585B0B4
:100DB0000190019BDB6F0393039B002283F8942037
:100DC00000210398FFF751FE00210198FFF744FF2F
:100DD00000210398FFF7DBFD0290029B23F00D0337
:100DE0000293029A00210398FFF7DDFD039BD3F8DD
:100DF000AC30184600F016FD039BD3F8B03018460F
:100E000000F010FD00BF05B05DF804FB00B585B033
:100E10000190019BDB6F0393039B93F8A030039A2F
:100E20000949184603F050FD0290029B002B05D1A2
:100E3000039B93F8A030184600F03CFF029B184635
:100E400005B05DF804FB00BF7D0E000800B585B05D
:100E50000190019BDB6F0393039B93F8A03018462E
:100E600000F004FF039B93F8A030002200211846F5
:100E700003F02AFD00BF05B05DF804FB00B587B0A4
:100E8000039002910192019B05931C210598FFF7A5
:100E90007EFD03469AB2059BA3F89220059BB3F80A
:100EA000923003F02003002B0BD0059BB3F8903059
:100EB00003F02003002B04D0059B18460DF0F8F931
:100EC0000BE0059BB3F8923003F00E03002B04D027
:100ED0000E2220210598FFF766FD059BB3F892309E
:100EE00003F08003002B0AD0059BB3F8903003F089
:100EF0008003002B03D0059B18460DF032F9002328
:100F0000184607B05DF804FB86B003900291019289
:100F1000002305936FF01803059300BF059B184647
:100F200006B0704700B585B001900091019BDB6F62
:100F3000039324210398FFF72AFD0290039BB3F843
:100F400092301A04029B1A43009B1A60039B0022F2
:100F5000A3F89220029BDBB2184605B05DF804FBB3
:100F600000B587B001900B468DF80330019BDB6F15
:100F70000493FFF7EEFC03468DF80F30049BB3F8A3
:100F80009030ADF816309DF80330002B06D0BDF838
:100F9000163043F02003ADF8163007E0BDF81630E8
:100FA00023F4907323F00103ADF81630BDF816302A
:100FB00019460498FFF73FFD9DF80F301846FFF7DC
:100FC000D8FC00BF07B05DF804FB00B585B0019008
:100FD000019BDB6F03931C210398FFF7D8FC0346AA
:100FE00003F02003002B14BF01230023DBB21846BB
:100FF00005B05DF804FB00B585B001900091019B40
:10100000DB6F0393009B1A4628210398FFF7CBFC64
:1010100000BF05B05DF804FB00B585B001900B463C
:101020008DF80330019BDB6F0393FFF792FC0346BF
:101030008DF80B309DF80330002B0DD0039BB3F8D7
:10104000903043F08003ADF80830BDF80830194601
:101050000398FFF7F0FC09E0039BB3F8903023F00E
:1010600080039BB219460398FFF7E5FC9DF80B300F
:101070001846FFF77EFC00BF05B05DF804FB00B525
:1010800085B00190019BDB6F03931C210398FFF750
:101090007EFC034603F08003002B14BF01230023D2
:1010A000DBB2184605B05DF804FB000000B583B064
:1010B0000023019310E00E4A019B52F82330002BCD
:1010C00007D00B4A019B52F8233000211846FFF746
:1010D000CCFC019B01330193019B072BEBD9054B02
:1010E0001846FFF7E7FD00BF03B05DF804FB00BF43
:1010F000B8F704080000002400B587B0002304936B
:10110000214B194621480CF0A5FF1F4B19462048DA
:101110000CF0A0FF012304936B4610221D491846D2
:1011200012F09AFA0023059325E01B4A059B52F81A
:101130002330002B19D0184A059B52F823309B7896
:10114000002B14D1049B5A1C0492DBB23033DBB267
:101150008DF80930104A059B52F823301A466B4629
:10116000114618460CF076FF02E000BF00E000BF19
:10117000059B01330593059B072BD6D900BF00BF04
:1011800007B05DF804FB00BF00000024D8F7040896
:10119000E8F70408F4F70408B8F7040800B585B0C8
:1011A00001900B4B03930DF10A0319460398FFF7C7
:1011B0005CFC019BDBB21846FFF752FBBDF80A301E
:1011C00019460398FFF737FC00BF05B05DF804FB34
:1011D0000000002482B0EFF311830193019BDBB286
:1011E000184602B0704782B00190019B83F31188CA
:1011F00000BF02B0704700B583B0FFF7EBFF0346B6
:101200008DF807308020FFF7EEFF9DF80730184675
:1012100003B05DF804FB00B583B003468DF80730DA
:101220009DF807301846FFF7DEFF00BF03B05DF8FA
:1012300004FB00B587B0039002910192FFF7DBFF3A
:1012400003468DF81730039B1B680493029BDB4316
:10125000049A13400493049A019B13430493039B41
:10126000049A1A609DF817301846FFF7D4FF00BFA4
:1012700007B05DF804FB84B00190019BB3FA83F3DF
:101280000393039B184604B07047000082B0BFF37D
:101290004F8FBFF36F8F0A4B00221A60094B1B68F8
:1012A0000193019B43F400330193064A019B1360B1
:1012B000BFF34F8FBFF36F8F00BF02B0704700BF07
:1012C00050EF00E014ED00E000B589B02D4B1B6835
:1012D0000593059B03F48033002B4FD12A4B1B68E9
:1012E0000493049B5B0BC3F30E030793049B03F06F
:1012F000070304330393049BDB08C3F3090302933E
:101300000298FFF7B8FF034603F01F030193BFF3F2
:101310004F8F029B0693069A019B02FA03F319462C
:10132000079A039B02FA03F30B430093174A009BAF
:101330001360069B5A1E0692002BECD1079B5A1E87
:101340000792002BE5D1BFF34F8F114B1B6805931C
:10135000059B43F0040305930D4A059B1360094B5D
:101360001B680593059B43F480330593054A059B51
:101370001360BFF34F8FBFF36F8F00E000BF09B062
:101380005DF804FB14ED00E080ED00E060EF00E0AC
:101390009CEF00E04FF0000EFEF79EBF00BF7047CD
:1013A00082B0EFF314830193019B184602B070479B
:1013B00082B00190019B83F3148800BF02B0704794
:1013C00000B583B0FFF7ECFF0190019B43F00403ED
:1013D00001930198FFF7ECFF0B4B1B680193019BF6
:1013E00023F040430193084A019B1360074B1B689D
:1013F0000193019B43F470030193044A019B136022
:1014000000BF03B05DF804FB34EF00E088ED00E0BE
:10141000EFF30580EFF3148C1EF0040F02D0EFF30E
:10142000098107E0EFF30881A1F1700282F30888D7
:10143000BFF36F8F0A4602F16802EFF311831EF0CB
:10144000100F0CBF21ED108A403921E9FC5F1EF01E
:10145000080F04D0A1F1D80222F0070295468B466E
:1014600000F0D6FCB0E8FC5F1EF0100F0CBFB0EC33
:10147000108A40301EF0040F0CBF80F3088880F300
:10148000098883F311888CF31488704782B0EFF3D6
:1014900011830193019BDBB2184602B0704782B002
:1014A0000190019B83F3118800BF02B0704700B523
:1014B00083B0FFF7EBFF03468DF807308020FFF77E
:1014C000EEFF9DF80730184603B05DF804FB00B549
:1014D00083B003468DF807309DF807301846FFF7B4
:1014E000DEFF00BF03B05DF804FB000000B58FB065
:1014F0000190019B1B0903F00F030793079B072B28
:1015000002D96FF0150386E18A4A079B52F823300F
:101510000693069B002B02D16FF015037BE1019B24
:1015200003F00F030593019B03F44023B3F5402F11
:101530001DD0B3F5402F05D8B3F5802F05D0B3F5F6
:10154000002F11D00023089314E0019B03F4807353
:10155000002B14BF01230023DBB21946019800F0D1
:101560006FF90123089305E00223089302E00323A7
:10157000089300BFFFF79BFF03468DF81330089BCD
:10158000022B05D1019B1B0B03F00F030C9301E011
:1015900000230C93089B022B05D1019B1B0B03F02E
:1015A0000F030B9301E000230B930B9B002B29D01F
:1015B000059B072B04D820230A93059B099304E07D
:1015C00024230A93059B083B0993069A0A9B13441C
:1015D0001B680D93099B9B000F2202FA03F3DB4368
:1015E0001A460D9B13400D93099B9B000B9A02FA20
:1015F00003F30D9A13430D93069A0A9B13441A465C
:101600000D9B1360069B1B680D93059B5B000322DB
:1016100002FA03F3DB431A460D9B13400D93059B1F
:101620005B00089A02FA03F30D9A13430D93069B8D
:101630000D9A1A6000230C93089B032B0FD0019B7B
:1016400003F44033B3F5803F03D0B3F5003F03D03C
:1016500005E001230C9302E002230C9300BF069BDC
:101660000C331B680D93059B5B00032202FA03F306
:10167000DB431A460D9B13400D93059B5B000C9AB0
:1016800002FA03F30D9A13430D93069B0C331A468B
:101690000D9B13600B9B002B29D1059B072B04D8B6
:1016A00020230A93059B099304E024230A93059BB6
:1016B000083B0993069A0A9B13441B680D93099BE8
:1016C0009B000F2202FA03F3DB431A460D9B1340E3
:1016D0000D93099B9B000B9A02FA03F30D9A134397
:1016E0000D93069A0A9B13441A460D9B1360089BA0
:1016F000012B02D0089B022B1ED1019B03F44063F7
:10170000B3F5406F11D0B3F5406F05D8B3F5806FD6
:1017100005D0B3F5006F05D000230C9308E001233A
:101720000C9305E002230C9302E003230C9300BF0B
:1017300004E000BF00F8040800230C93069B083364
:101740001B680D93059B5B00032202FA03F3DB4346
:101750001A460D9B13400D93059B5B000C9A02FAF1
:1017600003F30D9A13430D93069B08331A460D9B02
:101770001360069B04331B680D930122059B02FA3C
:1017800003F30C93089B012B02D0089B022B09D179
:10179000019B03F40073002B04D00D9A0C9B1343A0
:1017A0000D9304E00C9BDB430D9A13400D93069BB5
:1017B00004331A460D9B1360089B012B25D0019B17
:1017C00003F48073002B20D0059B03F00C02144B14
:1017D00013440393039B1B680D93059B9B0003F02D
:1017E0000C0302930F22029B02FA03F3DB431A4617
:1017F0000D9B13400D93079A029B02FA03F30D9A77
:1018000013430D93039B0D9A1A609DF813301846ED
:10181000FFF75DFE002318460FB05DF804FB00BF24
:101820000804005800B583B00190019BDBB201931E
:101830000198FFF75BFE0346184603B05DF804FB12
:1018400086B001900B468DF80330019B1B0903F015
:101850000F030493049B072B20D8124A049B52F8D1
:1018600023300393039B002B18D0019B03F00F033D
:1018700002939DF80330002B05D00122029B02FA4F
:1018800003F3059305E0029B1033012202FA03F3F0
:101890000593039B18331A46059B136000BF06B0DF
:1018A000704700BF00F8040886B00190019B1B0937
:1018B00003F00F030593059B072B19D80E4A059BD0
:1018C00052F823300493049B002B11D0019B03F0AA
:1018D0000F030393049B10331B680121039A01FA41
:1018E00002F21340002B14BF01230023DBB200E0FF
:1018F0000023184606B0704700F8040882B0EFF3E2
:1019000011830193019BDBB2184602B0704782B08D
:101910000190019B83F3118800BF02B0704700B5AE
:1019200083B0FFF7EBFF03468DF807308020FFF709
:10193000EEFF9DF80730184603B05DF804FB08B5CC
:101940000020FFF7E4FF62B600BF08BD00B585B018
:10195000039002910192FFF7E2FF054A0549032037
:1019600012F07AF8044A002100200FF02CFD00BF8D
:1019700088F8040820F804083CF8040800B585B08D
:10198000039002910192FFF7CAFF054A054903201F
:1019900012F062F8044A002100200FF014FD00BF8D
:1019A00094F8040844F804083CF8040800B585B02D
:1019B000039002910192FFF7B2FF054A0549032007
:1019C00012F04AF8044A002100200FF0FCFC00BF8E
:1019D000A4F8040864F804083CF8040884B00190F2
:1019E000084B1B680393039B23F07F430393019BE6
:1019F0001B06039A13430393024A039B136000BF21
:101A000004B070471CED00E086B003900291019293
:101A10000093039B103B0593039B0F2B56DD059B07
:101A20001F2B0CD8009A3F4B1344029A13600122DB
:101A3000059B02FA03F31A46019B1A606EE0059BB0
:101A40003F2B0DD8009A384B1344029A1360059B24
:101A5000203B012202FA03F31A46019B1A605DE063
:101A6000059B5F2B0DD8009A304B1344029A1360EC
:101A7000059B403B012202FA03F31A46019B1A60C0
:101A80004CE0059B7F2B0DD8009A294B1344029AFA
:101A90001360059B603B012202FA03F31A46019B87
:101AA0001A603BE0059B952B0DD8009A214B1344FF
:101AB000029A1360059B803B012202FA03F31A4647
:101AC000019B1A602AE04FF0FF3328E0029B1A4A7C
:101AD0001A60039B042B04D1019B4FF480321A60DF
:101AE0001CE0039B052B04D1019B4FF400321A60CC
:101AF00014E0039B062B04D1019B4FF480221A6053
:101B00000CE0039B0F2B06D1029B0C4A1A60019B31
:101B100001221A6002E04FF0FF3300E00023184674
:101B200006B0704700E100E004E100E008E100E0F9
:101B30000CE100E010E100E024ED00E010E000E046
:101B400000B585B0384B1B6803F00F0301330193D8
:101B5000019B0293354B039309E0039B4FF0FF3247
:101B60001A60029B013B0293039B04330393029B85
:101B7000002BF2DC2E4B2F4A1A602F4B4FF0803295
:101B80001A602E4B4FF080321A602D4B4FF080328E
:101B90001A60019BDB0002932A4B039309E0039B2D
:101BA0004FF080321A60029B013B0293039B043387
:101BB0000393029B002BF2DC002223490B2002F04E
:101BC00083FE00222149032002F07EFE7020FFF7F1
:101BD00005FF00221E49022002F076FE00221D4968
:101BE000042002F071FE00221B49052002F06CFE69
:101BF00000221A49062002F067FE002218490E2032
:101C000002F062FE00F0F4FC002216490C2002F003
:101C10005BFE00221449002002F056FEFFF78FFE03
:101C200000BF05B05DF804FB04E000E080E100E0E7
:101C300008ED00E00000000818ED00E01CED00E0F9
:101C400020ED00E000E400E059210008E51E000856
:101C50004D1900086D1F0008491D00083D220008AD
:101C60007D19000829260008AD19000800B587B0C5
:101C7000019003AA04A980230198FFF7C5FE03463B
:101C8000002B13D1019B0F2B04DD049B1A46039BF1
:101C900013600BE0049B1B680593039BDB43059AD1
:101CA00013400593049B1A46059B136000BF07B0C1
:101CB0005DF804FB00B587B0019003AA04A90023D6
:101CC0000198FFF7A1FE0346002B12D1019B0F2BB9
:101CD00004DD049B1A46039B13600AE0049B1B6807
:101CE0000593039B059A13430593049B1A46059B92
:101CF000136000BF07B05DF804FB82B0019000BF25
:101D000002B0704782B0EFF311830193019BDBB205
:101D1000184602B0704782B00190019B83F311888E
:101D200000BF02B0704700B583B0FFF7EBFF03467A
:101D30008DF807308020FFF7EEFF9DF8073018463A
:101D400003B05DF804FB000000B587B0039002917A
:101D50000192084B1B680593FFF7E5FF029B064ABB
:101D60000021002003F0BAF80023184607B05DF800
:101D700004FB00BF28ED00E0B4F8040882B0EFF3E4
:101D800011830193019BDBB2184602B0704782B009
:101D90000190019B83F3118800BF02B0704700B52A
:101DA00083B0FFF7EBFF03468DF807308020FFF785
:101DB000EEFF9DF80730184603B05DF804FB82B0D3
:101DC000EFF305830193019B184602B070470000B2
:101DD00000B583B0FFF7F3FF034601930198FFF7C7
:101DE0008CFF0021019802F0ABFD074B1A68074BEE
:101DF0001B689A4203D000210E2000F0C5F900BFF5
:101E000003B05DF804FB00BF780F0024700F0024BE
:101E100000B585B0019000911F4B0393039B1B6895
:101E20000293019B0B2B04D1009B70331B68012B89
:101E300003D0029B009AC3F8A4200198FFF75DFF2E
:101E4000019B0E2B0AD1029BD3F8A830002B02D0A5
:101E5000029800F0B9F8FFF7A2FF03E0009901989B
:101E600002F06EFD0D4B1B680293039B1B680299E9
:101E7000184603F0B1FC039B029A1A60029BD3F848
:101E8000A4300093039B1B680022C3F8A420009B8E
:101E9000184605B05DF804FB780F0024700F00248D
:101EA00082B0EFF311830193019BDBB2184602B0BD
:101EB000704782B00190019B83F3118800BF02B08C
:101EC000704700B583B0FFF7EBFF03468DF807308E
:101ED0008020FFF7EEFF9DF80730184603B05DF84D
:101EE00004FB000000B587B00390029101920B4BF8
:101EF0001B6805930A4B1B680493059B03F00203C0
:101F0000002BFFF7DEFF029B064A0021002002F0B3
:101F1000E5FF0023184607B05DF804FB2CED00E058
:101F200028ED00E0BCF8040882B0EFF311830193C0
:101F3000019BDBB2184602B0704782B00190019B52
:101F400083F3118800BF02B0704700B583B0FFF77C
:101F5000EBFF03468DF807308020FFF7EEFF9DF87A
:101F60000730184603B05DF804FB000000B587B0E9
:101F7000039002910192084B1B680593FFF7E5FF60
:101F8000029B064A0021002002F0A8FF0023184609
:101F900007B05DF804FB00BF28ED00E0C4F80408BA
:101FA00082B0EFF305830193019B184602B070479E
:101FB00008B5FFF7F5FF0346002B14BF01230023EC
:101FC000DBB2184608BD000000B585B00190FFF7F0
:101FD000EFFF0346002B02D02F4B1B6801E02F4B75
:101FE0001B680393FFF7DCFF0290019A039B9A4260
:101FF0000CD1029B002B09D1019BD3F8A83001988A
:102000009847019B0022C3F8A82040E0019A039B57
:102010009A4207D1029B0E2B04D000210E2000F023
:10202000B3F834E0019BD3F8A420019BC3F8A020AF
:10203000019BD3F8A430D83B1A46019BC3F8A420D7
:10204000019BD3F8A400019BD3F8A030D8221946F5
:1020500011F051FB019BD3F8A4301A46019BD3F831
:10206000A430D8321A60019BD3F8A43088330C4ACC
:102070001A60019BD3F8A430043380221A60019BBC
:10208000D3F8A4308C334FF080721A6000BF00BFC9
:1020900005B05DF804FB00BF780F0024700F00242A
:1020A000F520000882B0EFF311830193019BDBB2AE
:1020B000184602B0704782B00190019B83F31188EB
:1020C00000BF02B0704700B583B0FFF7EBFF0346D7
:1020D0008DF807308020FFF7EEFF9DF80730184697
:1020E00003B05DF804FB08B50020FFF7E4FF62B61B
:1020F00000BF08BD00B583B0164B1B680193019B60
:10210000D3F8A030009300BFFFF7EDFF019BD3F899
:10211000A83001989847FFF7D6FF019BD3F8843089
:10212000002B06D0019B5B6C03F04003002B00D119
:10213000EAE7019B0022C3F8A820019BD3F8A02066
:10214000019BC3F8A420012000DF00BF03B05DF8AD
:1021500004FB00BF700F002488B00390029101922D
:10216000029B0793079B1B6F0693069B013B012B6A
:1021700003D8044B1B68059300E000BF00231846FA
:1021800008B07047700F002400B585B00190009131
:1021900000230393019B0F2B05DD019BA3F110028C
:1021A000134B1A6020E0019B0F2B10D0019B0F2BCB
:1021B00011DC019B022B06D0019B0E2B0BD14FF0A3
:1021C0008053039308E04FF00043039304E04FF083
:1021D0008063039300E000BF039B002B04D0039AAD
:1021E00000210448FFF725F800BF05B05DF804FBA7
:1021F00000EF00E004ED00E082B0EFF31183019303
:10220000019BDBB2184602B0704782B00190019B7F
:1022100083F3118800BF02B0704700B583B0FFF7A9
:10222000EBFF03468DF807308020FFF7EEFF9DF8A7
:102230000730184603B05DF804FB000000B587B016
:10224000039002910192084B1B680593FFF7E5FF8D
:10225000029B064A0021002002F040FE002318469F
:1022600007B05DF804FB00BF28ED00E0CCF80408DF
:1022700000B583B0134B1B681B0B1B0103F030022E
:10228000104B1B681B0903F00F031343009300233B
:10229000019309E0019A0C4B13449B001A4600235A
:1022A0001360019B01330193019A009B9A42F1D381
:1022B000032200210348FEF7BCFF00BF03B05DF816
:1022C00004FB00BF002000E00208003882B0144B7D
:1022D0001B681B0F03F00F0300930023019317E00B
:1022E000019A104B13441B011A4600231360019BF3
:1022F0001A010D4B13441A4600231360019B1A0167
:102300000A4B13441A4600231360019B01330193C7
:10231000019A009B9A42E3D300BF00BF02B070470E
:10232000001000E00201000E241000E0281000E080
:1023300070B586B04E4B1B681B0F03F00F03029362
:102340000023059300230393002304932EE0049BB2
:102350001A01484B13441B680193019B03F08073DF
:10236000002B20D0019B03F00F030093049A424BF3
:1023700013441B011B680593009B072B0FD0009B88
:10238000072B0FD8009B052B03D0009B062B03D0F7
:1023900008E00123039306E00223039303E00323F1
:1023A000039300E000BF049B01330493049A029B53
:1023B0009A42CCD30023049353E03049049A134645
:1023C0009B0013449B000B4404331A68059B9A42FC
:1023D00044D12A49049A13469B0013449B000B44A2
:1023E0001B68039A9A4239D12449049A13469B00E8
:1023F00013449B000B440C331B68002B2ED01F4949
:10240000049A13469B0013449B000B440C331C6836
:102410001A49049A13469B0013449B000B44186806
:102420001649049A13469B0013449B000B44043343
:102430001968124D049A13469B0013449B002B44C9
:1024400008331D680D4E049A13469B0013449B00ED
:10245000334410331B682A46A04706E0049B01332F
:102460000493049B082BA8D900BF00BF06B070BD21
:10247000001000E0281000E00201000E980900247E
:1024800070B584B001900023039352E02C49039A65
:1024900013469B0013449B000B441B68042B45D13F
:1024A0002749039A13469B0013449B000B440433B3
:1024B0001A68019B9A4239D12149039A13469B001D
:1024C00013449B000B440C331B68002B2ED01C497B
:1024D000039A13469B0013449B000B440C331C6867
:1024E0001749039A13469B0013449B000B4418683A
:1024F0001349039A13469B0013449B000B44043377
:1025000019680F4D039A13469B0013449B002B44FC
:1025100008331D680A4E039A13469B0013449B0020
:10252000334410331B682A46A04706E0039B01335F
:102530000393039B082BA9D900BF00BF04B070BD53
:102540009809002470B582B00023019346E0274922
:10255000019A13469B0013449B000B441B68052BF8
:1025600039D12249019A13469B0013449B000B4426
:102570000C331B68002B2ED01C49019A13469B007C
:1025800013449B000B440C331C681849019A1346F2
:102590009B0013449B000B4418681449019A13468E
:1025A0009B0013449B000B44043319680F4D019AA0
:1025B00013469B0013449B002B4408331D680B4EAD
:1025C000019A13469B0013449B00334410331B684D
:1025D0002A46A04706E0019B01330193019B082B8B
:1025E000B5D900BF00BF02B070BD00BF980900247C
:1025F00008B50A4B1B6803F00103002B01D0002330
:1026000009E0FFF735FEFFF761FE054A00210548A6
:10261000FEF70FFE0023184608BD00BFF0ED00E0F6
:1026200000000101FCED00E000B587B003900291CD
:102630000192114B1B680593029B0493059B03F0C9
:102640000103002B01D0FFF77DFF059B03F0020380
:10265000002B05D0049B88331B681846FFF710FF3A
:10266000059B03F00403002B01D0FFF761FE00235C
:10267000184607B05DF804FB30ED00E008B5AFF395
:10268000008000BF08BD08B500F0F8F900BF08BD24
:1026900000B583B0002301930A480AF035FB01908E
:1026A000019B002B05DA019A0749032011F0D4F9A8
:1026B00003E00649062011F0CFF9019B184603B04C
:1026C0005DF804FBD4F80408E4F8040820F90408D1
:1026D00000B585B0002303930023009300230F4A25
:1026E0000F4900202CF0F4FB0290029B002B0ADA29
:1026F000029A0C49032011F0AFF9039B002B07D17C
:10270000029B039304E0064A0749062011F0A4F94E
:10271000039B184605B05DF804FB00BF5CF9040894
:1027200064F904086CF9040890F9040882B00023E5
:102730000193019B184602B07047000000B583B0BA
:102740000023019301F0C6FD0190019B002B05DAE7
:10275000019A0749032011F07FF903E0054906209B
:1027600011F07AF9019B184603B05DF804FB00BF35
:10277000A8F90408D8F9040800B589B00023079324
:10278000002014F031FB0690069B002B0ADA069A13
:102790002349032011F060F9079B002B3AD1069BD7
:1027A000079337E01F49062011F056F91E48FEF73F
:1027B0009DFE1E48FEF79AFE1D4B1B6805931D4BA0
:1027C0001B6804931C4B1B6803931C4B1B680293F0
:1027D0001B4B1B680193039B1B0C03F00303022B91
:1027E00005D1039B9B0C03F00303022B03D0154977
:1027F000032011F031F9029B03F00F03092B05D1DF
:10280000029B1B0903F00F03092B03D00E49032081
:1028100011F022F9079B184609B05DF804FB00BFD0
:10282000F4F9040820FA0408189008001990080028
:10283000EC44025850440258000402582404025840
:10284000040402584CFA040874FA040800B583B072
:102850000023019300F070FD03460093009B002BC2
:102860000BDA009B1A461E49032011F0F5F8019B74
:10287000002B06D1009B019303E01A49062011F0BA
:10288000EBF800F03BFE03460093009B002B06DABA
:10289000009B1A461449032011F0DEF803E01349A7
:1028A000062011F0D9F800F0FDF903460093009BD3
:1028B000002B0BDA009B1A460D49032011F0CCF8CF
:1028C000019B002B06D1009B019303E009490620E0
:1028D00011F0C2F8019B184603B05DF804FB00BF7D
:1028E0009CFA0408C4FA0408DCFA04080CFB040887
:1028F00030FB04085CFB040800B583B0002301939F
:102900000A4808F0CFFC0190019B002B05DA019AE0
:102910000749032011F0A0F803E00649062011F052
:102920009BF8019B184603B05DF804FB74FB040898
:1029300084FB0408B0FB040882B000230193019BD0
:10294000184602B0704782B000230193019B1846DD
:1029500002B0704700B583B0002301930D4800F02A
:1029600069FE0090009B002B0ADA009A0A490320B6
:1029700011F072F8019B002B07D1009B019304E03A
:10298000044A0649062011F067F8019B184603B077
:102990005DF804FBDCFB0408E8FB040818FC0408F1
:1029A00000B585B00023039300F086FF0390039BDE
:1029B000002B19D1002000F0B5FF0290029B002BE4
:1029C00012D0002009F048FA0390039B002B06DA8E
:1029D000039B00221749032011F03EF804E0002277
:1029E0001549062011F038F8002001F041FA019055
:1029F000019B002B0ADA019A1049032011F02CF8F0
:102A0000039B002B10D1019B03930DE001F06EFAA4
:102A10000190019B002B04DA019A0949032011F06F
:102A20001BF8012001F094FA039B184605B05DF8ED
:102A300004FB00BF4CFC040874FC04089CFC040864
:102A4000C8FC040882B000230193019B184602B021
:102A5000704782B000230193019B184602B0704773
:102A600082B000230193019B184602B0704782B0E8
:102A700000230193019B184602B0704700B583B054
:102A800000230193FFF704FE0090009B002B04D06D
:102A9000019B002B01D1009B0193FFF719FE0090D1
:102AA000009B002B04D0019B002B01D1009B0193C4
:102AB000FFF73CFE0090009B002B04D0019B002BF5
:102AC00001D1009B0193FFF739FE0090009B002B82
:102AD00004D0019B002B01D1009B0193FFF7B6FEB0
:102AE0000090009B002B04D0019B002B01D1009B88
:102AF0000193FFF741FE0090009B002B04D0019B47
:102B0000002B01D1009B0193FFF7F6FE0090009B84
:102B1000002B04D0019B002B01D1009B0193FFF7F8
:102B20000BFF0090009B002B04D0019B002B01D1D8
:102B3000009B0193FFF707FF0090009B002B04D040
:102B4000019B002B01D1009B0193FFF729FF00900F
:102B5000009B002B04D0019B002B01D1009B019313
:102B6000FFF7F8FE0090009B002B04D0019B002B88
:102B700001D1009B0193FFF765FF0090009B002BA4
:102B800004D0019B002B01D1009B0193FFF761FF53
:102B90000090009B002B04D0019B002B01D1009BD7
:102BA0000193FFF75DFF0090009B002B04D0019B79
:102BB000002B01D1009B0193FFF759FF0090009B70
:102BC000002B04D0019B002B01D1009B0193019BA2
:102BD000002B04D10949062010F03EFF08E0019ABD
:102BE0000749042010F038FF0649062010F034FF92
:102BF000019B184603B05DF804FB00BFF4FC040819
:102C000040FD040894FD040882B00190019B022B52
:102C100001D1034B00E00023184602B0704700BF0B
:102C20004C0A002482B00190019B022B01D1034B7E
:102C300000E00023184602B0704700BF500A00248D
:102C400082B003468DF807309DF80730072B03D973
:102C50009DF80730772B01D9002300E001231846A7
:102C600002B0704784B001900023039312E0039AEE
:102C70001346DB009B1A9B001A46019B13441B7EE4
:102C800083F00103DBB2002B01D0039B07E0039B21
:102C900001330393039B0F2BE9DD6FF00B03184601
:102CA00004B0704708B51349062010F0D5FE022085
:102CB00015F026F90346104A13600F4B1B68002BD2
:102CC00006D10E49032010F0C7FE6FF012030EE08C
:102CD0004FF4E07200210A4810F0A8FC09490620D0
:102CE00010F0BAFE0849062010F0B6FE0023184680
:102CF00008BD00BFE0FD04084C0A002400FE0408E3
:102D0000500A002424FE040844FE040800B58DB0D7
:102D10000790059204930B468DF81B300798FFF738
:102D200081FF0A900A9B002B07D1079A5149032083
:102D300010F092FE6FF0150398E09DF81B301846D6
:102D4000FFF77EFF034683F00103DBB2002B0DD0BB
:102D50009DF81B301A464849032010F07DFE474974
:102D6000032010F079FE6FF015037FE000230B9332
:102D700030E00B9A1346DB009B1A9B001A460A9B15
:102D800013441B7E002B22D00B9A1346DB009B1AA8
:102D90009B001A460A9B13441B789DF81B209A42FD
:102DA00015D19DF81B100B9A1346DB009B1A9B0054
:102DB0001A460A9B134408330093079B0A4630497E
:102DC000042010F049FE2F49042010F045FE0B9B13
:102DD00001330B930B9B0F2BCBDD0A98FFF742FFC0
:102DE0000990099B002B08DA1023079A2649032033
:102DF00010F032FE6FF00B0338E0099A1346DB0047
:102E00009B1A9B001A460A9B13440893089B9DF843
:102E10001B201A70089B059A5A60089B01221A769B
:102E2000049B002B0AD0089B08330F2204991846F4
:102E300010F09AFD089B0022DA7508E0089B03F168
:102E400008009DF81B30114A10210EF0CCFF089BA2
:102E500008339DF81B200599029101920093099B6C
:102E6000079A0B49062010F0F7FD002318460DB015
:102E70005DF804FB64FE040880FE0408C0FE04083C
:102E8000E0FE040820FF040858FF04089CFF040823
:102E9000A8FF040800B587B003900B468DF80B30EF
:102EA0000398FFF7BFFE0490049B002B02D16FF044
:102EB00015034BE0002305933CE0059A1346DB0025
:102EC0009B1A9B001A46049B13441B7E002B2ED09A
:102ED000059A1346DB009B1A9B001A46049B134479
:102EE0001B789DF80B209A4221D1059A1346DB00EE
:102EF0009B1A9B001A46049B134408339DF80B2031
:102F000001920093059B039A1249062010F0A4FD3C
:102F1000059A1346DB009B1A9B001A46049B134438
:102F20001C220021184610F081FB00230EE0059BB7
:102F300001330593059B0F2BBFDD9DF80B20039BF1
:102F40000549042010F088FD6FF00103184607B012
:102F50005DF804FBE0FF04081000050800B585B02B
:102F600001900198FFF750FE0390039B002B06D1C0
:102F7000019A0B49032010F06FFD00230CE0039B26
:102F80001B68002B06D1019A0649032010F064FD4E
:102F9000002301E0039B1B68184605B05DF804FBA5
:102FA00064FE04083C00050800B58BB00190009158
:102FB000009B00221A60019B002B08D1009B6FF040
:102FC00015021A600023E8E0019B01330193019B85
:102FD0001B78202BF8D0019B1B78092BF4D001988B
:102FE00010F08BFC0790079B022B02D9079B042B48
:102FF00005D9009B6FF015021A600023CDE0019BFC
:103000001B78502B05D0009B6FF015021A6000232F
:10301000C3E0019B01331B788DF81B309DF81B30FA
:10302000402B03D99DF81B30482B05D9009B6FF02E
:1030300015021A600023B0E0019B0233059303AB35
:103040000A22194605980EF007FF0490039B1B788F
:10305000002B05D1049B002B02DB049B0F2B05DD0D
:10306000009B6FF015021A60002396E09DF81B305C
:10307000413B072B2AD801A252F823F09D300008CB
:10308000A3300008A9300008AF300008B5300008B0
:10309000BB300008C1300008C73000080023099386
:1030A0001AE01023099317E02023099314E030233A
:1030B000099311E0402309930EE0502309930BE09C
:1030C0006023099308E07023099305E0009B6FF0EB
:1030D00015021A60002360E0049B0F2B52D801A256
:1030E00052F823F0253100082B3100083131000857
:1030F000373100083D3100084331000849310008EC
:103100004F310008553100085B310008613100087B
:10311000673100086D31000873310008793100080B
:103120007F3100080023089332E0012308932FE049
:10313000022308932CE00323089329E00423089337
:1031400026E00523089323E00623089320E00723C5
:1031500008931DE0082308931AE00923089317E059
:103160000A23089314E00B23089311E00C2308931F
:103170000EE00D2308930BE00E23089308E00F23C5
:10318000089305E0009B6FF015021A60002304E02D
:10319000099A089B1A43034B134318460BB05DF87A
:1031A00004FB00BF0009040082B00190019B012BC9
:1031B00003D0019B022B02D003E0044B02E0044B3E
:1031C00000E00023184602B0704700BF100C002436
:1031D000100D002482B00190019B012B03D0019BB4
:1031E000022B02D003E0044B02E0044B00E000237A
:1031F000184602B0704700BF900C0024900D0024C8
:1032000000B589B00390029113468DF80730029BF8
:1032100006930398FFF7C8FF0590059B002B40D04D
:10322000029BB3F5803F03D3029B9BB2069308E059
:10323000029B0F2B05D9059B5B79002B33D0002314
:103240000693069BDB00059A13440493049B5B7969
:1032500083F00103DBB2002B27D1049B1B79002BE9
:1032600012D09DF80730002B14BF01230023DBB2DE
:1032700083F00103DBB28DF81F309DF81F3003F09F
:1032800001038DF81F3003E09DF807308DF81F30E3
:10329000049B1B689DF81F2011461846FEF7D0FAC4
:1032A00004E000BF02E000BF00E000BF09B05DF82D
:1032B00004FB00B589B00390029113468DF80730E6
:1032C000029B07930398FFF785FF0690069B002B50
:1032D0002AD0029BB3F5803F03D3029B9BB2079396
:1032E00002E0029B0F2B21D8079BDB00069A1344B8
:1032F0000593059B1B7983F00103DBB2002B17D1EB
:10330000059B1A689DF80730002B14BF012300238A
:10331000DBB283F00103DBB203F00103DBB2194639
:103320001046FEF78DFA04E000BF02E000BF00E0A7
:1033300000BF09B05DF804FB08B5802200210A48EF
:1033400010F074F980220021084810F06FF98022F3
:103350000021074810F06AF980220021054810F08A
:1033600065F90023184608BD100C0024900C0024B9
:10337000100D0024900D002400B58BB00390029135
:1033800001928DF803300398FFF70EFF0990099B17
:10339000002B02D16FF0150336E0029B0F2B02D9F0
:1033A0006FF0150330E0029BDB00099A1344089389
:1033B000089B5B79002B02D06FF00F0324E005AB74
:1033C00019460198FFF7F0FD0790059B002B01D0EF
:1033D000059B19E00798FEF789F80690069B002BDD
:1033E00001DA069B10E09DF8033019460798FEF7B6
:1033F00027FA089B079A1A60089B9DF803201A7108
:10340000089B01225A71002318460BB05DF804FB9B
:1034100000B58BB00390029101920398FFF7DAFE9A
:103420000990099B002B02D16FF0150330E0029B3D
:103430000F2B02D96FF015032AE0029BDB00099ADB
:1034400013440893089B1B79002B02D06FF00F03E5
:103450001EE005AB19460198FFF7A6FD0790059BF6
:10346000002B01D0059B13E00798FEF73FF806906C
:10347000069B002B01DA069B0AE001210798FEF764
:10348000DFF9089B079A1A60089B01221A71002332
:1034900018460BB05DF804FB00B585B001900091B3
:1034A0000198FFF781FE0390039B002B02D16FF080
:1034B00015031EE0009B0F2B02D96FF0150318E0D7
:1034C000009BDB00039A13440293029B5B7983F019
:1034D0000103DBB2002B02D06FF0010309E0029B75
:1034E00000221A60029B00221A71029B00225A716C
:1034F0000023184605B05DF804FB000000B585B058
:1035000000230393012015F01FF90290029B002B6A
:1035100011D0012102980BF0B7F80390039B002B08
:1035200005DA039A1349032010F096FA03E01249D2
:10353000062010F091FA022015F006F90190019B87
:10354000002B11D0022101980BF09EF80390039BF1
:10355000002B05DA039A0949032010F07DFA03E0F5
:103560000749062010F078FA039B184605B05DF86D
:1035700004FB00BF4C010508700105089001050817
:10358000B401050800B585B00390029113468DF88B
:1035900007309DF807301A4602990120FFF730FEE8
:1035A00000BF05B05DF804FB82B0019000910123DB
:1035B000184602B0704700B585B0039002911346DB
:1035C0008DF807309DF807301A4602990120FFF761
:1035D00070FE0023184605B05DF804FB00B585B009
:1035E0000390029113468DF807309DF807301A4674
:1035F00002990220FFF704FE00BF05B05DF804FB4E
:1036000082B0019000910123184602B0704700B5C6
:1036100085B00390029113468DF807309DF807306E
:103620001A4602990220FFF744FE0023184605B00F
:103630005DF804FB00B589B00390039B002B01D01B
:10364000039B00E0254B0793079B00930023012277
:103650002349062010F000FA0123224A002101200C
:10366000FFF78AFE0690069B002B06DA069A1E4993
:10367000032010F0F1F9069B2BE0012015F064F80F
:103680000590059B002B0BD101221849032010F057
:10369000E3F900210120FFF7FFFE6FF0120318E0AD
:1036A000059907980DF04CF80690069B002B0ADA56
:1036B000069A0F49032010F0CFF900210120FFF7EF
:1036C000EBFE069B05E0079A0A49062010F0C4F9B4
:1036D0000023184609B05DF804FB00BFD4010508BB
:1036E000E0010508180205081C0205085402050837
:1036F00078020508A802050800B58BB003460A4603
:103700008DF80F3013468DF80E301D4B1B68002BC3
:1037100002D16FF012032FE000238DF810309DF8D6
:103720000F308DF811309DF80E308DF81230154B9A
:1037300005933C23ADF818300023ADF81A3004ABE4
:103740000793032308930E4B1B681B681B680C4AE6
:10375000106805A9012298470990099B002B0ADAF5
:103760009DF80F209DF80E10099B00930B4606490B
:10377000032010F071F9099B18460BB05DF804FBAB
:10378000100E0024801A06001003050800B589B049
:103790000390039B002B02DA0023039304E0039BB6
:1037A000642B01DD64230393039A13461B029B1AC7
:1037B000394A82FB03125211DB17D31A8DF81F30DE
:1037C000039A1346DB009B1A5B00334A82FB031209
:1037D0005211DB17D31ADBB201338DF81E30039A76
:1037E0001346DB009B1A5B002B4A82FB031252112B
:1037F000DB17D31ADBB201338DF81D309DF91D3074
:103800001B015AB29DF91E3013435BB28DF81C3078
:10381000039A13465B0013441B011F4A82FB0312E9
:103820005211DB17D31A8DF81B309DF81F109DF82D
:103830001C309DF81B20019200930B46039A1749F8
:10384000062010F009F99DF81F3019468120FFF776
:1038500053FF0590059B002B01DA059B18E09DF8AE
:103860001C301946D920FFF747FF0590059B002B18
:1038700001DA059B0CE09DF81B301946DB20FFF7B1
:103880003BFF0590059B002B01DA059B00E0002320
:10389000184609B05DF804FB1F85EB51400305088D
:1038A00082B00190019B002B01DC002300E001238A
:1038B000184602B07047000000B583B0144B154A9B
:1038C0003C210220FFF722FA0190019B002B04DA31
:1038D000019A1149042010F0BFF80220FFF73EFBC7
:1038E00003460E4A13600D4B1B68002B0BD10222BE
:1038F0000B49032010F0B0F83C210220FFF7CAFA70
:103900006FF0120300E00023184603B05DF804FBDB
:1039100080030508801A060088030508100E00249D
:10392000C003050800B585B001901E4B1B68002B35
:1039300005D11D49032010F08FF800232EE01B4B0A
:103940001B68002B02D0194B1B6827E0154B1B6826
:10395000019A0021184608F07DFE0346134A1360C1
:10396000124B1B68002B05D11149032010F074F88D
:10397000002313E00120FFF793FF0390039B002B2C
:103980000ADD0A4B1B68DB68084A12680399104677
:1039900098470120FFF7FAFE044B1B68184605B054
:1039A0005DF804FB100E0024F0030508140E00243B
:1039B0003C04050800B585B001900091019800F025
:1039C00001FA0390039B002B01DA039B10E000999E
:1039D000019800F03BFA0290029B002B02D16FF09D
:1039E000150305E0029A009901980BF0A3FD034628
:1039F000184605B05DF804FB00B58BB0019000914E
:103A0000009B00221A60019B002B08D1009B6FF0E5
:103A100015021A600023E8E0019B01330193019B2A
:103A20001B78202BF8D0019B1B78092BF4D0019830
:103A30000FF063FF0790079B022B02D9079B042B13
:103A400005D9009B6FF015021A600023CDE0019BA1
:103A50001B78502B05D0009B6FF015021A600023D5
:103A6000C3E0019B01331B788DF81B309DF81B30A0
:103A7000402B03D99DF81B30482B05D9009B6FF0D4
:103A800015021A600023B0E0019B0233059303ABDB
:103A90000A22194605980EF0DFF90490039B1B7863
:103AA000002B05D1049B002B02DB049B0F2B05DDB3
:103AB000009B6FF015021A60002396E09DF81B3002
:103AC000413B072B2AD801A252F823F0ED3A000817
:103AD000F33A0008F93A0008FF3A0008053B0008ED
:103AE0000B3B0008113B0008173B0008002309931B
:103AF0001AE01023099317E02023099314E03023E0
:103B0000099311E0402309930EE0502309930BE041
:103B10006023099308E07023099305E0009B6FF090
:103B200015021A60002360E0049B0F2B52D801A2FB
:103B300052F823F0753B00087B3B0008813B0008EE
:103B4000873B00088D3B0008933B0008993B000829
:103B50009F3B0008A53B0008AB3B0008B13B0008B9
:103B6000B73B0008BD3B0008C33B0008C93B000849
:103B7000CF3B00080023089332E0012308932FE095
:103B8000022308932CE00323089329E004230893DD
:103B900026E00523089323E00623089320E007236B
:103BA00008931DE0082308931AE00923089317E0FF
:103BB0000A23089314E00B23089311E00C230893C5
:103BC0000EE00D2308930BE00E23089308E00F236B
:103BD000089305E0009B6FF015021A60002304E0D3
:103BE000099A089B1A43034B134318460BB05DF820
:103BF00004FB00BF0009040000B583B06B46194602
:103C00002A48FFF7F9FE0346294A1360009B002B60
:103C100007D0009B254A274903200FF01DFF009B7A
:103C20003FE0234B1B681846FDF760FC0190019BA9
:103C3000002B06DA019A204903200FF00DFF019BAB
:103C40002FE06B4619461D48FFF7D6FE03461C4A77
:103C50001360009B002B07D0009B184A19490320D2
:103C60000FF0FAFE009B1CE0154B1B681846FDF791
:103C70003DFC0190019B002B06DA019A12490320BA
:103C80000FF0EAFE019B0CE0094B1B68012118466E
:103C9000FDF7D6FD0A4B1B6800211846FDF7D0FD45
:103CA0000023184603B05DF804FB00BF0C050508AF
:103CB000180E0024100505083405050860050508E0
:103CC0001C0E0024640505088805050808B50F4B7F
:103CD0001B6801211846FDF7B3FD42F2107001F098
:103CE000DDFE0A4B1B6800211846FDF7A9FD42F2D4
:103CF000107001F0D3FE054B1B6801211846FDF73B
:103D00009FFD034801F0CAFE00BF08BD180E002445
:103D1000C0D4010000B583B0FFF7D8FF0123214ACA
:103D200000210220FFF728FB0190019B002B06DAFF
:103D3000019A1D4903200FF08FFE019B2DE01B4AC5
:103D400000210220FFF764FB0190019B002B0ADA9F
:103D5000019A174903200FF07FFE00210220FFF790
:103D60009BFB019B19E0022014F0EEFC0346114A74
:103D70001360104B1B68002B0BD102220E4903204D
:103D80000FF06AFE00210220FFF786FB6FF012039E
:103D900003E00A4B01221A700023184603B05DF8B5
:103DA00004FB00BFB0050508B4050508D8050508E3
:103DB000DC050508240E002400060508200E00245A
:103DC00000BF704700B583B001901A4B1B7883F099
:103DD0000103DBB2002B03D1174B1B68002B06D16C
:103DE000164903200FF038FE6FF012031EE0019B0E
:103DF000002B07D0019A124903200FF02DFE6FF01F
:103E0000150313E00C4B1B68184608F0FBFE034635
:103E10000C4A13600B4B1B68002B06D10A49032088
:103E20000FF01AFE6FF0120300E00023184603B0F3
:103E30005DF804FB200E0024240E0024240605084F
:103E400044060508280E00246006050882B001908B
:103E50000091019B002B02D1009B002B01D000237D
:103E600001E0024B1B68184602B07047280E002480
:103E700000B585B00190FFF7BFFE0390039B002BB8
:103E800006DA039A164903200FF0E6FD039B22E0B1
:103E9000FFF740FF0390039B002B06DA039A1149BA
:103EA00003200FF0D9FD039B15E000210020FFF750
:103EB00081FD0390039B002B0ADA039A0A49032031
:103EC0000FF0CAFD00210220FFF7E6FA039B02E093
:103ED000FFF776FF0023184605B05DF804FB00BF2E
:103EE00088060508A8060508C406050800B583B0BD
:103EF000154B1B68002B04D0134B1B681B69002B50
:103F000006D1124903200FF0A7FD6FF0120316E04F
:103F10000023ADF800300023ADF802304FF4F07309
:103F2000ADF804304FF4A073ADF80630064B1B68B3
:103F30001B69054A126869461046984703461846A9
:103F400003B05DF804FB00BF280E0024E806050856
:103F500000B583B003468DF80730064B1B689DF80B
:103F6000072011461846FDF76BFC00BF03B05DF853
:103F700004FB00BF1C0E002400B587B00390029123
:103F80000192019B0593059B1B6C0598059A92F87D
:103F90003C20114698470023184607B05DF804FB03
:103FA00000B585B001900091019B0393064B184624
:103FB000FDF77AFC03461A46009B1A700023184648
:103FC00005B05DF804FB00BF2D01020000B585B00F
:103FD00001900091019B0393039B93F83C301A4698
:103FE000074B53F822301846FDF75EFC03461A468D
:103FF000009B1A700023184605B05DF804FB00BF53
:104000008807050800B585B001900B468DF8033090
:10401000019B0393039B93F83C301A46064B53F8DD
:1040200022309DF8032011461846FDF709FC0023B5
:10403000184605B05DF804FB8807050800B585B093
:1040400001900091019B039345231846FDF72CFC3A
:1040500003461A46009B1A700023184605B05DF807
:1040600004FB00B587B003900291039B05934520A4
:10407000002301930023009300230022002111F06C
:10408000BFFA059B029A1A640023184607B05DF830
:1040900004FB000000B587B003900B468DF80B3091
:1040A000039B05939DF80B30002B1AD0059B1B6CCE
:1040B000002B02D16FF015031EE04520059B93F8FD
:1040C0003C301A4613461B0113449B000C4A134410
:1040D00001930C4B009300230022012111F090FA70
:1040E00009E04520002301930023009300230022D0
:1040F000002111F085FA0023184607B05DF804FB93
:104100002C0F0024793F000800B585B001900023F2
:104110000293002303932BE0194A039B9B01134452
:1041200000221A70164A039B9B0113443433154A2C
:104130001A60039BD9B2124A039B9B0113443C3380
:104140000A461A70039B9B010D4A9818019B1B6835
:10415000591C019A1160194607F0D2FB0A4B184608
:10416000FDF7C4F9029B01330293039B01330393D0
:10417000039B002BD0DD029B184605B05DF804FBC5
:104180002C0E0024340705082D01020000B585B06F
:104190000190002302930023039336E01F4A039B00
:1041A0009B01134403221A701C4A039B9B01134476
:1041B00034331B4A1A60039BD9B2184A039B9B01F4
:1041C00013443C330A461A70039B9B01134A981808
:1041D000019B1B68591C019A1160194607F090FB5E
:1041E000104A039B52F8233000211846FDF728FBA4
:1041F0000C4A039B52F823301846FDF777F9029BCF
:1042000001330293039B01330393039B022BC5DD10
:10421000029B184605B05DF804FB00BF6C0E00243D
:10422000500705088807050800B585B001900023F0
:1042300002930023039341E02449039A13461B0190
:1042400013449B000B4405221A702049039A13461D
:104250001B0113449B000B4434331D4A1A60039B1B
:10426000D8B21A49039A13461B0113449B000B440E
:104270003C3302461A701549039A13461B01134436
:104280009B000B44403300221A60039A13461B0123
:1042900013449B000D4A9818019B1B68591C019AF6
:1042A0001160194607F02CFB45231846FDF71EF94F
:1042B000029B01330293039B01330393039B002B67
:1042C000BADD029B184605B05DF804FB2C0F0024F4
:1042D0006C07050800B583B0002301930023009309
:1042E0006B461846FFF710FF0246019B13440193EB
:1042F0006B461846FFF74AFF0246019B13440193A1
:104300006B461846FFF790FF0246019B134401934A
:104310000023184603B05DF804FB000082B0254B73
:104320000193019B00221A60019B00221A71019BDC
:104330000833214A1A60019B083301221A71019B3C
:1043400010331E4A1A60019B103305221A71019B1B
:1043500018331A4A1A60019B183305221A71019BFF
:104360002033174A1A60019B203300221A71019BE7
:10437000283308221A60019B283309221A71019BF5
:104380003033104A1A60019B303300221A71019BAE
:10439000383300221A60019B383309221A71019BBD
:1043A000403308221A60019B403309221A7100BF72
:1043B00002B07047A00F00247C0F0024700F00246F
:1043C0008C0F0024840F002400B585B0AC2200219E
:1043D0007A480FF02BF900230393E5E0039BAC220E
:1043E00002FB03F3754A13440293029B039A1A6378
:1043F000029B032283F84020029B0122A3F848205D
:10440000029B6F4A9A63029B6D4ADA63029B022207
:104410005A64029B0193019B00225A60029B93F80D
:104420004030684ADB0013441B7903F00803002B7B
:104430000AD0029B1B6F029A92F840201146614AF3
:1044400052F83120134406E0029B93F840301A469C
:104450005C4B53F832301A68019B1A60029B93F848
:104460004030584ADB0013441B7903F00803002B4B
:104470000AD0029B1B6F029A92F840201146514AC3
:1044800052F83120134406E0029B93F840301A465C
:104490004C4B53F832301B68002B3ED1029B93F8F3
:1044A0004030484ADB0013441B7903F00803002B1B
:1044B0000AD0029B1B6F029A92F840201146414A93
:1044C00052F83120134406E0029B93F840301A461C
:1044D0003C4B53F83230019A1A60029B93F84030FB
:1044E000384ADB0013441B7903F00803002B0AD081
:1044F000029B1B6F029A92F840201146314A52F8F3
:104500003120134406E0029B93F840301A462D4BAD
:1045100053F83230019A5A603EE0029B93F84030E3
:10452000284ADB0013441B7903F00803002B0AD050
:10453000029B1B6F029A92F840201146214A52F8C2
:104540003120134406E0029B93F840301A461D4B7D
:1045500053F832301B68019A5A60029B93F840303E
:10456000184ADB0013441B7903F00803002B0AD020
:10457000029B1B6F029A92F840201146114A52F892
:104580003120134406E0029B93F840301A460D4B4D
:1045900053F83230019A1A600B49039B029A41F892
:1045A0002320039B01330393039B002B7FF716AF5C
:1045B00000BF00BF05B05DF804FB00BFEC0F002496
:1045C00059460008A00F0024780F002400B585B0DC
:1045D0000023039331E0039BAC2202FB03F31B4A4D
:1045E000134402931A4B1B68013B039A1340019337
:1045F000184B1A68019B9B001344029A1A60029B95
:104600005B6CDBB21946029803F066F8029801F081
:104610005FFF029B002283F89C20029814F094FA1A
:10462000029802F04FFA029803F0B4F8029B9B68DC
:1046300003221A72039B01330393039B002BCADDF1
:1046400000BF00BF05B05DF804FB00BFEC0F002405
:104650009C0F0024980F002400B585B03A4B01222E
:104660001A70FFF75BFEFFF7AFFE374B02221A709E
:1046700006F088FC01AA02AB1146184610F046FE6F
:10468000029B019A114618460FF058FC0FF0CAFC25
:104690001023039302E0039B5B000393039B012B16
:1046A000F9DD039B9B0018460FF0A2FC0346274A46
:1046B0001360274A039B1360FFF788FF254B0022F6
:1046C0001A60214B03221A7000F0B2F827F010F99B
:1046D00000F0B0F802F0E4FC02F022F801F088F9F2
:1046E00000F00EFE1EF0A8FB2DF092FD14F0E8F88D
:1046F00006F04AFC144B04221A700023039313E0C3
:10470000039B002B0BDD039BAC2202FB03F3124A3D
:10471000134401220021184603F0AAF901E003F036
:1047200085F9039B01330393039B002BE8DD064BC4
:1047300005221A7000F06AF8034B06221A7000F086
:1047400069FF14F0F7F9FCE7E80F0024980F002444
:104750009C0F0024940F0024EC0F002408B502F0F5
:10476000FBFB00BF08BD000000B58BB00023089321
:10477000FDF789FF03AB18460DF0F6FA64238DF8B8
:104780000D304FF40063069303AA0023019308AB96
:104790000093134600220649064801F047FF09909E
:1047A00003AB18460DF019FB00BF0BB05DF804FB1E
:1047B000158C01089407050800B583B0019000919D
:1047C000FFF7D2FF0023184603B05DF804FB00009A
:1047D00000B587B002F01AFD03460393002302934D
:1047E000084B01934FF4006300930023F022022151
:1047F000054801F0DDF90346059300BF07B05DF8F9
:1048000004FB00BFB9470008A007050808B501224E
:104810000549064802F006FEFFF7A0FFFFF7D8FFA4
:104820000023184608BD00BFAC070508B0070508FF
:1048300000BF704700B583B00023019307E0084A2A
:10484000019B084942F83310019B01330193019BFE
:10485000A52BF4DDFDF774F900BF03B05DF804FB90
:1048600098100024DD49000882B0EFF31183019312
:10487000019BDBB2184602B0704782B00190019BE9
:1048800083F3118800BF02B0704700B583B0FFF713
:10489000EBFF03468DF807308020FFF7EEFF9DF811
:1048A0000730184603B05DF804FB00B583B003463B
:1048B0008DF807309DF807301846FFF7DEFF00BF80
:1048C00003B05DF804FB000000B589B003900291CD
:1048D00001926FF015030793039BA52B27D8039B29
:1048E0000693069B002B01DA069B21E0FFF7CDFF24
:1048F00003468DF81730029B002B06D10398FDF775
:10490000B5F90D4B0293002301930C49069B029AC3
:1049100041F83320094A069BDB001344019A5A6090
:104920009DF817301846FFF7C0FF00230793079B39
:10493000184609B05DF804FBDD4900089810002412
:1049400000B587B001900091114B059300230493AB
:10495000019B0393019BA52B10D8039B0D4A52F892
:104960003330002B0AD0039B0A4A52F833300593A8
:10497000039B084ADB0013445B680493059B049A7D
:1049800000990198984700BF07B05DF804FB00BF8D
:10499000DD4900089810002482B0EFF311830193E1
:1049A000019BDBB2184602B0704782B00190019BB8
:1049B00083F3118800BF02B0704700B583B0FFF7E2
:1049C000EBFF03468DF807308020FFF7EEFF9DF8E0
:1049D0000730184603B05DF804FB000000B585B051
:1049E000039002910192FFF7E8FF039B044A0549F7
:1049F00003200FF031F8044A002100200CF0E3FC02
:104A0000D0070508B4070508C807050882B0EFF30A
:104A100011830193019BDBB2184602B0704782B04C
:104A20000190019B83F3118800BF02B0704700B56D
:104A300083B0FFF7EBFF03468DF807308020FFF7C8
:104A4000EEFF9DF80730184603B05DF804FB00B593
:104A500083B003468DF807309DF807301846FFF7FE
:104A6000DEFF00BF03B05DF804FB82B0EFF3058307
:104A70000193019B184602B0704784B00190019BDE
:104A80000393039B1B68184604B0704708B5FFF7F3
:104A9000ECFF0346002B14BF01230023DBB21846B2
:104AA00008BD0000F0B58FB00B900A910B9B0D93E1
:104AB00062E00D9B0C930D9B09930C9B0A9A9A4202
:104AC00002D90C9B1B6800E000230C9A04321146AB
:104AD0000A9A8A4202D90C9A526800E000220C9984
:104AE000083108460A99814202D90C99896800E088
:104AF00000210C980C3004460A98A04202D90C9868
:104B0000C06800E000200C9C103425460A9CAC4292
:104B100002D90C9C246900E000240C9D14352E461B
:104B20000A9DB54202D90C9D6D6900E000250C9EDE
:104B3000183637460A9EBE4202D90C9EB66900E07E
:104B400000260C9F1C37BC460A9F674502D90C9F64
:104B5000FF6900E0002707970696059504940390E7
:104B6000029101920093099B074A084901200EF027
:104B700073FF0D9B20330D930D9A0A9B9A4298D98F
:104B800000BF00BF0FB0F0BD2C0A05081C080508C7
:104B900000B587B00390029101920093019A009BA7
:104BA00013440593039B194A194901200EF054FF41
:104BB000019B164A174901200EF04EFF009B134A35
:104BC000154901200EF048FF029B002B12D0029BDA
:104BD0000E4A124901200EF03FFF029B203B019A32
:104BE0009A4202D8029B203B029305990298FFF754
:104BF00059FF06E0019A009B134419460198FFF7FC
:104C000051FF00BF07B05DF804FB00BF380A05087C
:104C1000500805086008050870080508840805089C
:104C200000B58BB00390029100230493039BDB6ECD
:104C30000793039B5B6E0693079A069B13440593A9
:104C40000023099300238DF82330029A079B9A4290
:104C500006D3029A059B9A4202D2029B099308E06E
:104C600001238DF82330029B0B4A0C4901200EF0E2
:104C7000F3FE099B002B03D19DF82330002B07D0B6
:104C800000230093069B079A09990548FFF780FFC8
:104C900000BF0BB05DF804FB480A0508940805083E
:104CA000C8080508F0B5ADB0119010911BAB4022BB
:104CB000002118460EF0BAFC1BAB40221946119891
:104CC00000F016FF13AB20221946119800F042FDA8
:104CD00013AB2C2118460EF070FD2B902B9B002B54
:104CE00002D02B9B20221A70119B1B6B0D93119BE2
:104CF0009B68002B03D0119B9B681B6801E04FF061
:104D0000FF33119A92F834200E92119A526CD20805
:104D100002F003021A4951F822200F921199496CAE
:104D200001F00301174850F821101198406C00F46D
:104D30008070002801D0502000E02D20119CA46F2D
:104D4000119D6D6F119EF66E119F7F6E1BAA0B92C7
:104D50000D4A0A92099708960795069413AC059494
:104D6000049003910F9A02920E9A019200930D9B68
:104D7000064A074901200EF06FFE00BF2DB0F0BDBE
:104D80000C0A05081C0A050818090508540A050834
:104D9000D008050808B5054A054901200EF05CFE5B
:104DA0000021044800F08AFB00BF08BD600A050826
:104DB00024090508A54C000800B583B001900091B6
:104DC000009813F0CDFD0098FFF757FE03461946F3
:104DD0000198FFF725FF00BF03B05DF804FB00005A
:104DE00000B5B1B0099008910792069300232F9364
:104DF000099B9B68002B0CD0099B5B6C03F00303A1
:104E0000022B06D0099B9B681B68184600F0E8FA45
:104E10002F900AAB18460CF0CFFB0AAA0AAB7D33E1
:104E200003930AAB4A3302930AAB353301930AABBF
:104E3000153300931346184A184901200EF00CFE52
:104E4000069B002B01D0069A00E0154A089B002B18
:104E500001D0089B00E0124B2F99002901D0114985
:104E600000E011490998C06B049003910D4902912B
:104E70000799019100931346074A0C4901200EF04F
:104E8000EBFD32990998FFF797FF09F037FC00BF57
:104E900031B05DF804FB00BF6C0A050894090508F1
:104EA000BC09050818090508C0090508C80905084E
:104EB00000B585B00390029101920093FFF76AFF5D
:104EC00009F01CFC09F01AFC00BF05B05DF804FBFA
:104ED00008B5FA2002F081F9FBE7000000B58FB0B9
:104EE0000590049103920293464B1B78DBB2042B8E
:104EF0008CBF012300238DF83630FFF7C7FD034632
:104F0000002B02D0404B1B6801E0404B1B680C9308
:104F10003C4B1B78DBB2062B01D9FFF7D9FF0023EE
:104F20008DF837309DF83630002B06D0FFF77FFD27
:104F300003468DF8373000F00DFBFFF7A7FD034661
:104F4000002B05D10C9B5B6C03F00303022B02D1F9
:104F50002C4B07221A70029B002B05D12C4810F015
:104F6000B3F92B4B029304E0D822029928480EF0A3
:104F7000C2FB0C9B0793029B0893059B0A93049B1F
:104F80000B93039B09931F4B1B78DBB2062B94BF3B
:104F900001230023DBB21A4607AB1946104600F086
:104FA00069F809F0ABFB029B0093039B049A0599F7
:104FB0000C98FFF715FF134B1B78DBB2062B12D9A9
:104FC000029B0093039B049A05990C98FFF770FFCE
:104FD00007AB1946022000F04DF80021022000F036
:104FE000F3F8FFF775FF9DF83630002B06D09DF8DB
:104FF00037301846FFF72BFD00F00CFB00BF0FB059
:105000005DF804FBE80F0024780F0024700F0024E3
:10501000D015002482B0EFF311830193019BDBB222
:10502000184602B0704782B00190019B83F311884B
:1050300000BF02B0704700B583B0FFF7EBFF034637
:105040008DF807308020FFF7EEFF9DF807301846F7
:1050500003B05DF804FB00B583B003468DF807305C
:105060009DF807301846FFF7DEFF00BF03B05DF87C
:1050700004FB000000B589B0019000911A4B059324
:10508000FFF7D9FF03468DF813304FF0FF33069337
:1050900000230393059B1B68079315E0079B5B6840
:1050A0000293079B1B68009A019907989847039BF6
:1050B000002B04D0039B1B685A1C039B1A60029BA5
:1050C0000793069B013B0693079B002B02D0069B90
:1050D000002BE3D19DF813301846FFF7BCFF00BF4B
:1050E00009B05DF804FB00BFA816002482B0EFF3FE
:1050F00011830193019BDBB2184602B0704782B066
:105100000190019B83F3118800BF02B0704700B586
:1051100083B0FFF7EBFF03468DF807308020FFF7E1
:10512000EEFF9DF80730184603B05DF804FB00B5AC
:1051300083B003468DF807309DF807301846FFF717
:10514000DEFF00BF03B05DF804FB000000B589B0CE
:1051500001901C4B0593FFF7DAFF03468DF81330DF
:10516000059B0793019B03930023069313E0079B82
:105170001B68039A9A4203D16FF0100306930EE066
:10518000039B9A68079B1B689B689A4207DC079BF6
:105190001B6804330793079B1B68002BE7D1069B12
:1051A000002B06D1079B1A68039B5A60079B039A42
:1051B0001A609DF813301846FFF7B9FF00BF09B019
:1051C0005DF804FBAC16002400B589B00190009195
:1051D0001A4B0593FFF79BFF03468DF813304FF0F2
:1051E000FF33069300230393059B1B68079315E089
:1051F000079B5B680293079B1B68009A01990798BD
:105200009847039B002B04D0039B1B685A1C039BED
:105210001A60029B0793069B013B0693079B002B9A
:1052200002D0069B002BE3D19DF813301846FFF700
:105230007EFF00BF09B05DF804FB00BFAC16002480
:1052400088B00390029111461A460B46ADF806301D
:1052500013468DF80530002307931DE0029B06934B
:10526000069B9DF805201A72039B0593069B0493E9
:10527000059B1A68049B1A60049B059A5A60059B5B
:105280001B68049A5A60059B049A1A60029B2C338F
:105290000293079B01330793BDF80630079A9A42A1
:1052A000DCDB029B184608B0704788B0039002917F
:1052B0001346ADF806300023079317E0039B0693CF
:1052C000029B0593069B1A68059B1A60059B069A2C
:1052D0005A60069B1B68059A5A60069B059A1A60DD
:1052E000029B30330293079B01330793BDF80630CE
:1052F000079A9A42E2DB029B184608B0704700000A
:1053000000B585B01A4B03931A4B0293029B029A85
:105310005A60029B5A68029B1A6000230822039974
:105320001448FFF78DFF0390134B0193019B019AE3
:105330005A60019B5A68019B1A6002230822039954
:105340000D48FFF77DFF03900C4B0093009B009AE4
:105350005A60009B5A68009B1A600822039907480C
:10536000FFF7A3FF039000BF05B05DF804FB00BF8B
:10537000C0160024B0160024B8160024001B002418
:1053800082B0EFF311830193019BDBB2184602B0A8
:10539000704782B00190019B83F3118800BF02B077
:1053A000704700B583B0FFF7EBFF03468DF8073079
:1053B0008020FFF7EEFF9DF80730184603B05DF838
:1053C00004FB00B583B003468DF807309DF8073025
:1053D0001846FFF7DEFF00BF03B05DF804FB0000D6
:1053E00000B587B0019000230593FFF7DAFF03466D
:1053F0008DF81330174B1B68002B21D0019B002B1D
:105400001EDB154B1B68013B019A13400393114BA4
:105410001A68039B9B0013441B68002B10D00D4B94
:105420001A68039B9B0013441B681B6B019A9A42EA
:1054300006D1084B1A68039B9B0013441B68059315
:105440009DF813301846FFF7BCFF059B184607B0C0
:105450005DF804FB980F00249C0F002482B0EFF34A
:1054600011830193019BDBB2184602B0704782B0F2
:105470000190019B83F3118800BF02B0704700B513
:1054800083B0FFF7EBFF03468DF807308020FFF76E
:10549000EEFF9DF80730184603B05DF804FB00B539
:1054A00083B003468DF807309DF807301846FFF7A4
:1054B000DEFF00BF03B05DF804FB000000B585B05F
:1054C00001900091FFF7DBFF03468DF80B3000F0F1
:1054D00041F80023039314E0124B1A68039B9B00CE
:1054E00013441B68002B09D00E4B1A68039B9B00CA
:1054F00013441A68019B009910469847039B013397
:105500000393094B1B68039A9A42E5DB00F082F88B
:105510009DF80B301846FFF7C2FF00BF05B05DF8DD
:1055200004FB00BF980F00249C0F002482B0EFF30F
:1055300005830193019B184602B0704708B5FFF739
:10554000F5FF0346002B14BF01230023DBB21846EE
:1055500008BD000000B583B0FFF7F0FF034683F0FD
:105560000103DBB2002B0CD0084B1B680193019B9D
:10557000B3F948309BB201339BB21AB2019BA3F836
:10558000482000BF03B05DF804FB00BF700F00248B
:1055900082B0EFF311830193019BDBB2184602B096
:1055A000704782B00190019B83F3118800BF02B065
:1055B000704700B583B0FFF7EBFF03468DF8073067
:1055C0008020FFF7EEFF9DF80730184603B05DF826
:1055D00004FB00B583B003468DF807309DF8073013
:1055E0001846FFF7DEFF00BF03B05DF804FB82B092
:1055F000EFF305830193019B184602B0704708B58D
:10560000FFF7F5FF0346002B14BF01230023DBB295
:10561000184608BD00B585B0FFF7F1FF034683F0DB
:105620000103DBB2002B46D0254B1B680193019B85
:10563000B3F94830012B35D1FFF7BBFF03468DF896
:105640000F30019B0022A3F848201E4B1B680293D9
:10565000029B002B0ED000F0C5F80346002B09D0AA
:10566000FFF7CDFF034683F00103DBB2002B01D02F
:10567000022000DF019B5B6C03F01803082B0BD1A9
:10568000019BDB6C002B07D10D4B1A68019B9A42E2
:1056900002D0019B1422DA649DF80F301846FFF700
:1056A00098FF08E0019BB3F9482092B2013A92B208
:1056B00012B2A3F8482000BF05B05DF804FB00BF9C
:1056C000700F00247C0F002484B00190019B1B68A4
:1056D00023F000430393039A054B1340044A93427B
:1056E00001D0039B01E04FF0FF33184604B0704730
:1056F000FEFFFF7F82B0EFF311830193019BDBB2CA
:10570000184602B0704782B00190019B83F3118864
:1057100000BF02B0704700B583B0FFF7EBFF034650
:105720008DF807308020FFF7EEFF9DF80730184610
:1057300003B05DF804FB00B583B003468DF8073075
:105740009DF807301846FFF7DEFF00BF03B05DF895
:1057500004FB000000B587B0039002910192FFF7AF
:10576000DAFF03468DF81730039B93F84030052B82
:1057700018D1039B1B6F1B7903F00403002B11D07E
:10578000039B1B6F1846FFF79FFF04909DF817308F
:105790001846FFF7D0FF049B0D4A019902980CF0C0
:1057A00022FB11E09DF817301846FFF7C4FF039B5A
:1057B00093F840301A46074B53F82230019A1946A5
:1057C00002980DF049FF00BF00BF07B05DF804FB71
:1057D000FC0A0508100B050882B00190009100BF7B
:1057E00002B0704786B000238DF80F302E4B1B6837
:1057F0000493049BB3F94830002B50DC2B4B1B68FF
:10580000059343E0059B1B68029302E0049B1B6821
:105810000493049B002B07D0059B93F83420049B32
:1058200093F834309A42F1D9049B5B680193019B51
:10583000002B17D1059B049A1A60059B00225A6021
:10584000049B059A5A60184A059B1360049B022228
:1058500083F84020059B032283F8402001238DF824
:105860000F300FE0059B049A1A60059B019A5A605D
:10587000019B059A1A60049B059A5A60059B0222B7
:1058800083F84020059B0493029B0593059B002B06
:10589000B8D1064B00221A60044B00225A609DF8D2
:1058A0000F30184606B07047700F00247C0F00249C
:1058B00086B0039002911346ADF80630002305939D
:1058C0001CE0029B03F11C0202920493049B002241
:1058D0001A60039B1B68002B06D1039B049A1A6075
:1058E000039B049A5A6006E0039B5B68049A1A6063
:1058F000039B049A5A60059B01330593BDF806305B
:10590000059A9A42DDDB00BF00BF06B0704786B043
:105910000390029111461A460B46ADF80630134625
:105920008DF805300023059320E0029B9DF80520AB
:105930001A77029B03F1200202920493049B002237
:105940001A60039B1B68002B06D1039B049A1A6004
:10595000039B049A5A6006E0039B5B68049A1A60F2
:10596000039B049A5A60059B01330593BDF80630EA
:10597000059A9A42D9DB029B184606B0704786B05A
:105980000390029111461A460B46ADF806301346B5
:105990008DF805300023059320E0029B9DF805203B
:1059A0001A75029B03F1180202920493049B0022D1
:1059B0001A60039B1B68002B06D1039B049A1A6094
:1059C000039B049A5A6006E0039B5B68049A1A6082
:1059D000039B049A5A60059B01330593BDF806307A
:1059E000059A9A42D9DB029B184606B07047000020
:1059F00000B583B0224B0193224B00221A60214B49
:105A000000225A60204B00221A601F4B00225A606D
:105A10001E4B00221A601D4B00225A601C4B0022B4
:105A20001A601B4B00225A601A4B00221A60194B55
:105A300000225A60042218491248FFF739FF002358
:105A4000042201991048FFF762FF01900223082207
:105A500001990E48FFF75BFF019000230422019992
:105A60000B48FFF78CFF0190022308220199094897
:105A7000FFF785FF019000BF03B05DF804FB00BF96
:105A8000A01B0024781B0024801B0024881B0024FA
:105A9000901B0024981B0024081B002400B587B02D
:105AA000019000230593019B002B18D0019B0E4A07
:105AB000A2FB03239B0C0493049B0293049B0B4ABD
:105AC00002FB03F3019AD31A4FF47A7202FB03F339
:105AD000039302AB0021184602F003FF0590059BDB
:105AE000184607B05DF804FB83DE1B4340420F00FD
:105AF00000B58BB005900491039200230993059B98
:105B0000002B06D0039B002B03D0059B1B6B002BA7
:105B100004DC049B00221A70002340E0059B5B6CB0
:105B200003F00303012B13D1059BAC330793059BB3
:105B3000DA6B079B5B68009313461B4A0399049832
:105B40000CF051F903461A46099B1344099320E0CF
:105B5000059802F064FC03460433089311E0049AAC
:105B6000099BD018039A099BD11A089B1A1D089209
:105B70001B680E4A0CF037F903461A46099B13447A
:105B80000993089B1B68002B03D0099A039B9A4238
:105B9000E5D3039B5A1E099B934228BF1346184620
:105BA0000BB05DF804FB00BF340B05083C0B050887
:105BB00000B58FB00990079206930B468DF82330FD
:105BC000AC200EF015FA0D900D9B002B02D16FF05A
:105BD0000B0326E09DF8233043F400431A460D9B47
:105BE0005A64109B00220492139A0392129A029212
:105BF000119A01920093069B079A09990D9800F05B
:105C000087F80C900C9B002B04DA0D980EF0AAF983
:105C10000C9B06E00D9B1B6B0B930D9800F0A2FBF9
:105C20000B9B18460FB05DF804FB00B589B00790D8
:105C30000691059204930C9B002B03D101F0E6FA28
:105C4000034600E00C9B03930B9B02930A9B01937A
:105C5000049B0093059B069A00210798FFF7A8FF75
:105C60000346184609B05DF804FB00B58BB00790F9
:105C7000069105920493002302930D9B01930C9BC4
:105C80000093049B059A06990798FFF7CEFF0990A9
:105C9000099B002B08DA0BF0B1FB0246099B5B4223
:105CA00013604FF0FF330993099B18460BB05DF862
:105CB00004FB00B587B00590049103920293089B02
:105CC0000193029B0093039B002204990598FFF720
:105CD000CCFF0346184607B05DF804FB00B589B059
:105CE0000790069105920493002303930B9B029364
