:020000040800F2
:10000000181D00241513000879130008791300083F
:100010007913000879130008791300087913000890
:100020007913000879130008791300087913000880
:10003000791300087913000879130008F91A0008E9
:10004000F91A0008F91A0008F91A0008F91A000844
:10005000F91A0008F91A0008F91A0008F91A000834
:10006000F91A0008F91A0008F91A0008F91A000824
:10007000F91A0008F91A0008F91A0008F91A000814
:10029000F91A0008F91A000882B0BFF34F8FBFF3B4
:1002A0006F8F0B4B1B680193019B23F0010301939C
:1002B000074A019B136005230193064A019B1360C3
:1002C000BFF34F8FBFF36F8F00BF02B0704700BF07
:1002D00090EF00E094EF00E000B583B0184B00937E
:1002E00004E0009B1A1D009200221A60009B154A30
:1002F0009342F6D3144B0193144B009307E0019AF9
:10030000131D0193009B191D009112681A60009B38
:100310000F4A9342F3D300F045FA01F001F800F0E0
:1003200061FAFFF7B9FF01F08BFD00F06FFF00F0FD
:100330008BFF00F099FE01F0CDFF00BFFDE700BF8D
:1003400070030024181900247C1E020800000024F9
:100350006C03002482B0184B1B680193019B43F08F
:1003600001030193144A019B1360144B01221A608C
:10037000134B00221A60104B1B680193019A114B1A
:1003800013400193019B43F0100301930A4A019B20
:1003900013600D4B0D4A1A60074B1B680193019BBC
:1003A00023F480230193044A019B1360084B00222D
:1003B0001A6000BF02B07047004402580881005123
:1003C0001044025867EFFEEA2C4402580000FF0177
:1003D0006044025882B0044B1B680193024A019B9F
:1003E000136000BF02B07047D844025882B0044B7B
:1003F0001B680193024A019B136000BF02B0704763
:10040000DC44025882B0044B1B680193024A019BF2
:10041000136000BF02B07047D444025882B0064B4C
:100420001B680193019B43F0FF030193024A019B68
:10043000136000BF02B07047E044025882B0074B1F
:100440001B680193054A019B1360054B1B680193D0
:10045000034A019B136000BF02B07047E844025892
:10046000EC44025882B0044B1B680193024A019B82
:10047000136000BF02B07047F044025882B0044BD2
:100480001B680193024A019B136000BF02B07047D2
:10049000E444025882B0064B1B680193019B43F071
:1004A00002030193024A019B136000BF02B0704730
:1004B000F444025808B5FFF78DFFFFF797FFFFF7E9
:1004C000A1FFFFF7ABFFFFF7B9FFFFF7CBFFFFF788
:1004D000D5FFFFF7DFFF00BF08BD000082B00F4B64
:1004E0001B680193019B43F480230193019B43F418
:1004F00080330193094A019B1360094B009308E084
:10050000064B1B6803F40033002B0BD1009B013B0F
:100510000093009B002BF3DC05E000BF0044025871
:100520001CC5410000BF009B002B40F30F81894B8D
:100530001B680193019A884B13400193019B43F080
:1005400008030193834A019B1360844B1B6801934A
:10055000019B23F4E0630193019B43F0500301935B
:100560007E4A019B13607D4B1B680193019B23F422
:10057000E0630193019B43F4A0630193774A019BDD
:100580001360744B1B680193019B23F0700301936C
:10059000019B43F0500301936E4A019B1360704B23
:1005A0001B680193019B23F070030193019B43F0AF
:1005B000500301936A4A019B136042F222030193A4
:1005C000684A019B1360684B0193684A019B136062
:1005D00044F6C7630193664A019B136000230193AD
:1005E000644A019B1360644B0193644A019B13604E
:1005F000634B1B680193019B43F080730193019B44
:1006000043F0806301935E4A019B136000BF5C4B23
:100610001B6803F00073002BF9D000BF584B1B6818
:1006200003F00063002BF9D0564B1B680193019B2C
:1006300043F006030193534A019B1360524B1B681E
:100640000193019B23F440430193019B43F44043F6
:1006500001934D4A019B136000BF4B4B1B6803F491
:100660000053002BF9D000BF484B1B6803F4005324
:10067000002BF9D024230193454A019B1360454B7D
:100680001B680193019B23F007030193019B43F037
:10069000030301933F4A019B136000BF3D4B1B685E
:1006A00003F03803182BF9D13B4B1B680193019BD6
:1006B00023F440530193019B43F400530193364AC2
:1006C000019B1360354B1B680193019B23F440731E
:1006D0000193019B43F400730193304A019B136023
:1006E0002F4B1B680193019B23F4E04301932C4A99
:1006F000019B13602A4B1B680193019B23F4E023A9
:100700000193274A019B1360244B1B680193019BB3
:1007100023F0E0430193214A019B13601E4B1B68A9
:100720000193019B23F440130193019B43F4401375
:100730000193194A019B1360184B1B680193019B9D
:1007400023F440330193154A019B136000BF02B0AC
:10075000704700BF18440258F0F0FFFF1C440258D5
:100760002044025828440258C70203073044025864
:10077000384402584044025888000F002C44025864
:10078000004402580C4802581848025804480258BD
:100790000020005210440258544402585844025851
:1007A0005044025808B5FFF7D5FDFFF797FEFFF755
:1007B00081FE00BF08BD000082B003468DF80730FF
:1007C00000BF064B1B6803F08003002BF9D0044ADE
:1007D0009DF80730136000BF02B070471C4800400E
:1007E0002848004000B583B04FF4802200211D4806
:1007F00000F0CEFC1C4800F0FDFD1C4800F0FAFDA6
:100800001B4B1B680193019A48F28F03134001931D
:10081000174A019B1360174B1B680193019A164BF3
:1008200013400193134A019B1360144B1B680193FF
:10083000019A134B13400193104A019B1360114B13
:100840004FF4D9721A600B4B1B680193019B43F064
:100850000D030193074A019B136000BF03B05DF8CD
:1008600004FB00BFE8440258387C0900397C0900C9
:1008700004480040004800400300003008480040A1
:100880000000F1FF0C48004082B001900091019BF4
:10089000D3F8A820009B13441B68184602B0704789
:1008A00084B0039002910192039BD3F8A820029B8D
:1008B00013441A46019B136000BF04B0704700B593
:1008C00085B001900B46ADF80230019BBDF80220C7
:1008D000A3F8902000210198FFF7D6FF0390039B17
:1008E00023F4D8730393BDF8023003F4D873039A4A
:1008F00013430393039A00210198FFF7D1FF0821C6
:100900000198FFF7C1FF0390039B23F001030393BA
:10091000BDF8023003F00103039A13430393039AD3
:1009200008210198FFF7BCFF00BF05B05DF804FB8C
:1009300000B589B001900B46ADF80230EFF311839A
:100940000593059BDBB28DF8133080230393039B43
:1009500083F3118800BF9DF813308DF81F30BDF868
:10096000023019460198FFF7AAFF9DF81F308DF855
:100970001E309DF81E300693069B83F3118800BF3E
:1009800000BF00BF09B05DF804FB00B58BB001905B
:100990000091EFF311830693069BDBB28DF81730BD
:1009A00080230493049B83F3118800BF9DF81730C4
:1009B0008DF82730009B002B17D000210198FFF7FE
:1009C00063FF089008210198FFF75EFF0790089BDE
:1009D0009BB203F4D8739AB2079B9BB203F0010356
:1009E0009BB213439AB2009B1A8000210198FFF733
:1009F00066FF9DF827308DF80F309DF80F30029379
:100A0000029B83F3118800BF00BF00BF0BB05DF8ED
:100A100004FB000000B58FB00190019BDB6F0A93CF
:100A2000EFF311830693069BDBB28DF8173080231A
:100A30000493049B83F3118800BF9DF817308DF851
:100A4000273000210A98FFF71FFF0C900C9B03F042
:100A5000010308930C9B23F001030C930C9A0021D3
:100A60000A98FFF71DFF0A9BD3F8A4305A000A9B8F
:100A7000D3F89C305B081A440A9BD3F89C30B2FB35
:100A8000F3F30793079B642B08D9079B01335B089B
:100A90000B930C9B23F400430C930DE0079A4FF645
:100AA000F0731340079A520802F0070213430B93A6
:100AB0000C9B43F400430C930C9A00210A98FFF717
:100AC000EFFE0B9A0C210A98FFF7EAFE0C9A3D4BB9
:100AD00013400C930A9B93F89630012B04D10C9B86
:100AE00043F4C0630C9308E00A9B93F89630022B02
:100AF00003D10C9B43F480630C930A9B93F89730CB
:100B0000092B09D00A9B93F89730082B09D10A9B2F
:100B100093F89630002B04D00C9B43F480530C9335
:100B20000DE00A9B93F89730072B08D10A9B93F8A6
:100B30009630002B03D10C9B43F080530C930C9AFE
:100B400000210A98FFF7ACFE04210A98FFF79CFEEB
:100B50000D900D9B23F440530D930A9B93F898300E
:100B6000002B03D00D9B43F400530D930D9A0421E9
:100B70000A98FFF795FE08210A98FFF785FE0D9069
:100B80000D9B23F440730D930D9A08210A98FFF7EB
:100B900087FE0C9A089B13431A4600210A98FFF718
:100BA0007FFE9DF827308DF80F309DF80F300293AF
:100BB000029B83F3118800BF00BF00BF0FB05DF838
:100BC00004FB00BFFFE9FFEF00B587B001900B46C3
:100BD0008DF80330019BDB6F0593059BD3F8A8309C
:100BE0000E4A934215D14FF4802304930C4B039388
:100BF00000BF9DF80330002B05D0049A0021039814
:100C000000F0C6FA06E000220499039800F0C0FA4A
:100C100000E000BF07B05DF804FB00BF00480040E3
:100C2000E844025800B585B00190019BDB6F029348
:100C3000002200210298FFF733FE01210198FFF7FF
:100C4000C3FF029BD3F8AC30184600F0D3FB029BE5
:100C5000D3F8B030184600F0CDFB04210298FFF71E
:100C600013FE0390039B23F47D530393029B93F89D
:100C70009830002B03D0039B43F400530393039A53
:100C800004210298FFF70CFE00210298FFF7FCFDFB
:100C90000390039A1F4B13400393039A0021029879
:100CA000FFF7FEFD08210298FFF7EEFD0390039A7F
:100CB000194B13400393029B93F895305B06039AFC
:100CC00013430393039A08210298FFF7E9FD019863
:100CD000FFF7A0FE00210298FFF7D6FD0390039BCB
:100CE00043F00D030393039B43F000530393039AD4
:100CF00000210298FFF7D4FD029B0022A3F8902068
:100D0000029B012283F894200023184605B05DF869
:100D100004FB00BF03BEFF33FEF8FFFF00B585B044
:100D20000190019BDB6F0393039B002283F89420C7
:100D300000210398FFF729FE00210198FFF744FFE7
:100D400000210398FFF7A0FD0290029B23F00D0302
:100D50000293029A00210398FFF7A2FD039BD3F8A8
:100D6000AC30184600F0F4FC039BD3F8B0301846C2
:100D700000F0EEFC00BF05B05DF804FB00B585B0E7
:100D80000190019BDB6F0393039B93F8A030039AC0
:100D90000949184601F09AFB0290029B002B05D1ED
:100DA000039B93F8A030184600F07EFE029B184685
:100DB00005B05DF804FB00BFED0D000800B585B07F
:100DC0000190019BDB6F0393039B93F8A0301846BF
:100DD00000F046FE039B93F8A03000220021184645
:100DE00001F074FB00BF05B05DF804FB00B587B0EF
:100DF000039002910192019B05931C210598FFF736
:100E000043FD03469AB2059BA3F89220059BB3F8D5
:100E1000923003F02003002B0BD0059BB3F89030E9
:100E200003F02003002B04D0059B184607F096FF23
:100E30000BE0059BB3F8923003F00E03002B04D0B7
:100E40000E2220210598FFF72BFD059BB3F8923069
:100E500003F08003002B0AD0059BB3F8903003F019
:100E60008003002B03D0059B184607F0D0FE00231B
:100E7000184607B05DF804FB86B00390029101921A
:100E8000002305936FF01803059300BF059B1846D8
:100E900006B0704700B585B001900091019BDB6FF3
:100EA000039324210398FFF7EFFC0290039BB3F810
:100EB00092301A04029B1A43009B1A60039B002283
:100EC000A3F89220029BDBB2184605B05DF804FB44
:100ED00000B58BB001900B468DF80330019BDB6FA2
:100EE0000893EFF311830693069BDBB28DF817305E
:100EF00080230493049B83F3118800BF9DF817306F
:100F00008DF81F30089BB3F89030ADF826309DF86F
:100F10000330002B06D0BDF8263043F02003ADF897
:100F2000263007E0BDF8263023F4907323F0010348
:100F3000ADF82630BDF8263019460898FFF7F8FCC2
:100F40009DF81F308DF80F309DF80F300293029BF3
:100F500083F3118800BF00BF00BF0BB05DF804FB36
:100F600000B585B00190019BDB6F03931C210398B2
:100F7000FFF78AFC034603F02003002B14BF012374
:100F80000023DBB2184605B05DF804FB00B585B060
:100F900001900091019BDB6F0393009B1A4628216F
:100FA0000398FFF77DFC00BF05B05DF804FB00B5BA
:100FB0008BB001900B468DF80330019BDB6F0993DA
:100FC000EFF311830793079BDBB28DF81B3080236F
:100FD0000593059B83F3118800BF9DF81B308DF8A6
:100FE00023309DF80330002B0DD0099BB3F89030CF
:100FF00043F08003ADF82030BDF820301946099841
:10100000FFF796FC09E0099BB3F8903023F08003CA
:101010009BB219460998FFF78BFC9DF823308DF899
:1010200013309DF813300393039B83F3118800BFA3
:1010300000BF00BF0BB05DF804FB00B585B00190A8
:10104000019BDB6F03931C210398FFF71DFC0346F4
:1010500003F08003002B14BF01230023DBB21846EA
:1010600005B05DF804FB000000B583B000230193D8
:1010700010E00E4A019B52F82330002B07D00B4A98
:10108000019B52F8233000211846FFF77EFC019B9C
:1010900001330193019B072BEBD9054B1846FFF752
:1010A000C1FD00BF03B05DF804FB00BF1CF10108E7
:1010B0000000002400B587B000230493214B19469B
:1010C000214807F015FD1F4B1946204807F010FD79
:1010D000012304936B4610221D4918460AF0B4FA06
:1010E0000023059325E01B4A059B52F82330002B73
:1010F00019D0184A059B52F823309B78002B14D145
:10110000049B5A1C0492DBB23033DBB28DF80930F9
:10111000104A059B52F823301A466B461146184672
:1011200007F0E6FC02E000BF00E000BF059B0133D2
:101130000593059B072BD6D900BF00BF07B05DF80C
:1011400004FB00BF000000243CF101084CF1010841
:1011500058F101081CF1010800B585B001900B4B56
:1011600003930DF10A0319460398FFF70EFC019B48
:10117000DBB21846FFF720FBBDF80A30194603988A
:10118000FFF7D6FB00BF05B05DF804FB00000024AC
:101190008CB0039002910192EFF311830793079BA8
:1011A000DBB28DF81B3080230593059B83F31188F8
:1011B00000BF9DF81B308DF82F30039B1B680A93EE
:1011C000029BDB430A9A13400A930A9A019B13433A
:1011D0000A93039B0A9A1A609DF82F308DF82730E6
:1011E0009DF827300893089B83F3118800BF00BF48
:1011F00000BF0CB0704784B00190019BB3FA83F339
:101200000393039B184604B07047000082B0BFF3FD
:101210004F8FBFF36F8F0A4B00221A60094B1B6878
:101220000193019B43F400330193064A019B136031
:10123000BFF34F8FBFF36F8F00BF02B0704700BF87
:1012400050EF00E014ED00E000B589B02D4B1B68B5
:101250000593059B03F48033002B4FD12A4B1B6869
:101260000493049B5B0BC3F30E030793049B03F0EF
:10127000070304330393049BDB08C3F309030293BE
:101280000298FFF7B8FF034603F01F030193BFF373
:101290004F8F029B0693069A019B02FA03F31946AD
:1012A000079A039B02FA03F30B430093174A009B30
:1012B0001360069B5A1E0692002BECD1079B5A1E08
:1012C0000792002BE5D1BFF34F8F114B1B6805939D
:1012D000059B43F0040305930D4A059B1360094BDE
:1012E0001B680593059B43F480330593054A059BD2
:1012F0001360BFF34F8FBFF36F8F00E000BF09B0E3
:101300005DF804FB14ED00E080ED00E060EF00E02C
:101310009CEF00E04FF0000EFEF7DEBF00BF70470D
:1013200084B0EFF314830193019B0393039B43F079
:1013300004030393039B0293029B83F3148800BF6F
:101340000B4B1B680393039B23F040430393084A12
:10135000039B1360074B1B680393039B43F47003C9
:101360000393044A039B136000BF04B0704700BF9F
:1013700034EF00E088ED00E0EFF30580EFF3148C2C
:101380001EF0040F02D0EFF3098107E0EFF30881AC
:10139000A1F1700282F30888BFF36F8F0A4602F151
:1013A0006802EFF311831EF0100F0CBF21ED108ABD
:1013B000403921E9FC5F1EF0080F04D0A1F1D802EA
:1013C00022F0070295468B4600F0B6FBB0E8FC5FC2
:1013D0001EF0100F0CBFB0EC108A40301EF0040F4E
:1013E0000CBF80F3088880F3098883F311888CF39D
:1013F0001488704700B595B00190019B1B0903F05C
:101400000F030D930D9B072B02D96FF0150399E184
:10141000904A0D9B52F823300C930C9B002B02D169
:101420006FF015038EE1019B03F00F030B93019BFB
:1014300003F44023B3F5402F1DD0B3F5402F05D85A
:10144000B3F5802F05D0B3F5002F11D000230E93F4
:1014500014E0019B03F48073002B14BF01230023CD
:10146000DBB21946019800F081F901230E9305E0E3
:1014700002230E9302E003230E9300BFEFF31183C8
:101480000793079BDBB28DF81B3080230593059BE8
:1014900083F3118800BF9DF81B308DF82B300E9B15
:1014A000022B05D1019B1B0B03F00F03129301E0EC
:1014B000002312930E9B022B05D1019B1B0B03F003
:1014C0000F03119301E000231193119B002B29D0EE
:1014D0000B9B072B04D8202310930B9B0F9304E046
:1014E000242310930B9B083B0F930C9A109B1344DF
:1014F0001B6813930F9B9B000F2202FA03F3DB433D
:101500001A46139B134013930F9B9B00119A02FAE8
:1015100003F3139A134313930C9A109B13441A4624
:10152000139B13600C9B1B6813930B9B5B000322A4
:1015300002FA03F3DB431A46139B134013930B9BEE
:101540005B000E9A02FA03F3139A134313930C9B56
:10155000139A1A60002312930E9B032B0FD0019B4A
:1015600003F44033B3F5803F03D0B3F5003F03D01D
:1015700005E00123129302E00223129300BF0C9BAB
:101580000C331B6813930B9B5B00032202FA03F3DB
:10159000DB431A46139B134013930B9B5B00129A79
:1015A00002FA03F3139A134313930C9B0C331A465A
:1015B000139B1360119B002B29D10B9B072B04D885
:1015C000202310930B9B0F9304E0242310930B9B79
:1015D000083B0F930C9A109B13441B6813930F9BAB
:1015E0009B000F2202FA03F3DB431A46139B1340BE
:1015F00013930F9B9B00119A02FA03F3139A134360
:1016000013930C9A109B13441A46139B13600E9B62
:10161000012B02D00E9B022B1ED1019B03F44063D1
:10162000B3F5406F11D0B3F5406F05D8B3F5806FB7
:1016300005D0B3F5006F05D00023129308E0012315
:10164000129305E00223129302E00323129300BFDA
:1016500004E000BF64F10108002312930C9B0833DF
:101660001B6813930B9B5B00032202FA03F3DB431B
:101670001A46139B134013930B9B5B00129A02FABA
:1016800003F3139A134313930C9B08331A46139BCB
:1016900013600C9B04331B68139301220B9B02FA0B
:1016A00003F312930E9B012B02D00E9B022B09D148
:1016B000019B03F40073002B04D0139A129B134375
:1016C000139304E0129BDB43139A134013930C9B78
:1016D00004331A46139B13600E9B012B25D0019BEC
:1016E00003F48073002B20D00B9B03F00C02174BEC
:1016F00013440993099B1B6813930B9B9B0003F0F6
:101700000C0308930F22089B02FA03F3DB431A46EB
:10171000139B134013930D9A089B02FA03F3139A39
:1017200013431393099B139A1A609DF82B308DF87D
:1017300013309DF813300393039B83F3118800BF8C
:1017400000BF0023184615B05DF804FB08040058DC
:1017500000B583B00190019BDBB201930198FFF7C4
:1017600049FE0346184603B05DF804FB86B00190BD
:101770000B468DF80330019B1B0903F00F03049304
:10178000049B072B20D8124A049B52F82330039362
:10179000039B002B18D0019B03F00F0302939DF8CD
:1017A0000330002B05D00122029B02FA03F30593BC
:1017B00005E0029B1033012202FA03F30593039B19
:1017C00018331A46059B136000BF06B0704700BF70
:1017D00064F1010886B00190019B1B0903F00F031F
:1017E0000593059B072B19D80E4A059B52F8233009
:1017F0000493049B002B11D0019B03F00F03039370
:10180000049B10331B680121039A01FA02F2134072
:10181000002B14BF01230023DBB200E00023184695
:1018200006B0704764F1010884B00190084B1B6852
:101830000393039B23F07F430393019B1B06039AAF
:1018400013430393024A039B136000BF04B0704725
:101850001CED00E086B00390029101920093039B7F
:10186000103B0593039B0F2B56DD059B1F2B0CD8BC
:10187000009A3F4B1344029A13600122059B02FA1F
:1018800003F31A46019B1A606EE0059B3F2B0DD8AF
:10189000009A384B1344029A1360059B203B0122A7
:1018A00002FA03F31A46019B1A605DE0059B5F2B69
:1018B0000DD8009A304B1344029A1360059B403BAD
:1018C000012202FA03F31A46019B1A604CE0059BC1
:1018D0007F2B0DD8009A294B1344029A1360059B65
:1018E000603B012202FA03F31A46019B1A603BE0B7
:1018F000059B952B0DD8009A214B1344029A136037
:10190000059B803B012202FA03F31A46019B1A60F1
:101910002AE04FF0FF3328E0029B1A4A1A60039B2B
:10192000042B04D1019B4FF480321A601CE0039B0E
:10193000052B04D1019B4FF400321A6014E0039B85
:10194000062B04D1019B4FF480221A600CE0039B0C
:101950000F2B06D1029B0C4A1A60019B01221A60D0
:1019600002E04FF0FF3300E00023184606B0704756
:1019700000E100E004E100E008E100E00CE100E04B
:1019800010E100E024ED00E010E000E000B585B0DB
:10199000294B1B6803F00F0301330193019B029352
:1019A000264B039309E0039B4FF0FF321A60029B22
:1019B000013B0293039B04330393029B002BF2DC55
:1019C0001F4B204A1A60204B4FF080321A601F4B89
:1019D0004FF080321A601E4B4FF080321A60019B2C
:1019E000DB0002931B4B039309E0039B4FF0803213
:1019F0001A60029B013B0293039B04330393029BF7
:101A0000002BF2DC002214490B2000F05FFD0022C5
:101A10001249032000F05AFD7020FFF705FF002354
:101A20000093009B83F3118800BF62B600BF00BF24
:101A300005B05DF804FB00BF04E000E080E100E0D9
:101A400008ED00E00000000818ED00E01CED00E0EB
:101A500020ED00E000E400E0A11D0008D51B000817
:101A600000B587B0019003AA04A980230198FFF76D
:101A7000F1FE0346002B13D1019B0F2B04DD049BC9
:101A80001A46039B13600BE0049B1B680593039BA2
:101A9000DB43059A13400593049B1A46059B13608C
:101AA00000BF07B05DF804FB00B587B0019003AA42
:101AB00004A900230198FFF7CDFE0346002B12D1A5
:101AC000019B0F2B04DD049B1A46039B13600AE065
:101AD000049B1B680593039B059A13430593049B82
:101AE0001A46059B136000BF07B05DF804FB82B087
:101AF000019000BF02B0704700B583B0EFF30583DB
:101B00000093009B01930198FFF7F1FF00210198DA
:101B100000F02CFD064B1A68064B1B689A4203D056
:101B200000210E2000F054F900BF03B05DF804FB63
:101B3000700500246805002400B589B0019000916B
:101B4000224B0793079B1B680693019B0B2B04D129
:101B5000009B70331B68012B03D0069B009AC3F8CF
:101B6000A0200198FFF7C3FF019B0E2B15D1069B08
:101B7000D3F8A430002B02D0069800F059F8EFF308
:101B800011830593059BDBB28DF8133080230393FB
:101B9000039B83F3118800BF03E00099019800F0D4
:101BA000E5FC0B4B1B680693079B069A1A60069B85
:101BB000D3F8A0300093079B1B680022C3F8A02035
:101BC000009B184609B05DF804FB00BF70050024B7
:101BD0006805002400B58BB0039002910192114B6F
:101BE0001B680693104B1B680593069B03F00203CA
:101BF000002BEFF311830993099BDBB28DF823309F
:101C000080230793079B83F3118800BF029B074A39
:101C10000021002000F00EFF002318460BB05DF8F5
:101C200004FB00BF2CED00E028ED00E084F101088A
:101C300000B587B00190EFF305830393039B002B5E
:101C400014BF01230023DBB2002B02D0304B1B68F2
:101C500001E0304B1B680593EFF305830293029B71
:101C60000493019A059B9A420CD1049B002B09D145
:101C7000019BD3F8A43001989847019B0022C3F838
:101C8000A42040E0019A059B9A4207D1049B0E2BA9
:101C900004D000210E2000F09BF834E0019BD3F823
:101CA000A020019BC3F89C20019BD3F8A030D83B17
:101CB0001A46019BC3F8A020019BD3F8A000019B0A
:101CC000D3F89C30D822194609F00DFD019BD3F8BA
:101CD000A0301A46019BD3F8A030D8321A60019B7D
:101CE000D3F8A03088330C4A1A60019BD3F8A03097
:101CF000043380221A60019BD3F8A0308C334FF05C
:101D000080721A6000BF00BF07B05DF804FB00BF1F
:101D100070050024680500241D1D000800B587B06B
:101D20001E4B1B680593059BD3F89C30009300BFA6
:101D300000230493049B83F3118800BF62B600BFA5
:101D4000059BD3F8A43005989847EFF311830393CC
:101D5000039BDBB28DF80B3080230193019B83F34F
:101D6000118800BF059BD3F88430002B06D0059B5B
:101D70005B6C03F04003002B00D1D9E7059B0022E8
:101D8000C3F8A420059BD3F89C20059BC3F8A02092
:101D9000012000DF00BF07B05DF804FB68050024E8
:101DA00088B0039002910192029B0793079B1B6FDF
:101DB0000693069B013B012B03D8044B1B6805933C
:101DC00000E000BF0023184608B0704768050024F3
:101DD00000B585B00190009100230393019B0F2B68
:101DE00005DD019BA3F11002134B1A6020E0019B5B
:101DF0000F2B10D0019B0F2B11DC019B022B06D067
:101E0000019B0E2B0BD14FF08053039308E04FF052
:101E10000043039304E04FF08063039300E000BFAE
:101E2000039B002B04D0039A00210448FFF7B0F96C
:101E300000BF05B05DF804FB00EF00E004ED00E03A
:101E400000BF704708B500F089F800BF08BD00006A
:101E500000B583B0002301930A4805F0A9FB019067
:101E6000019B002B05DA019A0749032009F0A0FC29
:101E700003E00649062009F09BFC019B184603B0CD
:101E80005DF804FB8CF101089CF10108CCF101081C
:101E900082B000230193019B184602B0704782B0C4
:101EA00000230193019B184602B0704700B583B030
:101EB000002301930A4805F03BFB0190019B002B96
:101EC00005DA019A0749032009F072FC03E006498C
:101ED000062009F06DFC019B184603B05DF804FB79
:101EE000F4F1010804F2010830F2010882B0002385
:101EF0000193019B184602B0704782B00023019302
:101F0000019B184602B0704782B000230193019BE9
:101F1000184602B0704782B000230193019B184617
:101F200002B0704782B000230193019B184602B0B3
:101F3000704782B000230193019B184602B070479E
:101F400082B000230193019B184602B0704782B013
:101F500000230193019B184602B0704700B583B07F
:101F6000002301934E49062009F022FCFFF770FF81
:101F70000090009B002B04D0019B002B01D1009B03
:101F80000193FFF785FF0090009B002B04D0019B7D
:101F9000002B01D1009B0193FFF781FF0090009B74
:101FA000002B04D0019B002B01D1009B0193FFF774
:101FB0007DFF0090009B002B04D0019B002B01D1E2
:101FC000009B0193FFF792FF0090009B002B04D031
:101FD000019B002B01D1009B0193FFF7A3FF009011
:101FE000009B002B04D0019B002B01D1009B01938F
:101FF000FFF783FF0090009B002B04D0019B002B78
:1020000001D1009B0193FFF77FFF0090009B002B05
:1020100004D0019B002B01D1009B0193FFF77BFFB4
:102020000090009B002B04D0019B002B01D1009B52
:102030000193FFF77EFF0090009B002B04D0019BD3
:10204000002B01D1009B0193FFF77AFF0090009BCA
:10205000002B04D0019B002B01D1009B0193FFF7C3
:1020600076FF0090009B002B04D0019B002B01D138
:10207000009B0193019B002B04D10A49062009F023
:1020800097FB08E0019A0849042009F091FB0749F1
:10209000062009F08DFB0023184603B05DF804FB11
:1020A0005CF201088CF20108C8F2010808F301088B
:1020B00082B0254B0193019B00221A60019B0022F4
:1020C0001A71019B0833214A1A60019B08330122CF
:1020D0001A71019B10331E4A1A60019B10330522AE
:1020E0001A71019B18331A4A1A60019B1833052292
:1020F0001A71019B2033174A1A60019B203300227A
:102100001A71019B283308221A60019B2833092287
:102110001A71019B3033104A1A60019B3033002240
:102120001A71019B383300221A60019B383309224F
:102130001A71019B403308221A60019B4033092227
:102140001A7100BF02B0704798050024740500247E
:1021500068050024840500247C05002400B585B0B2
:10216000AC220021344809F059FA002303935BE0C4
:10217000039BAC2202FB03F32F4A13440293029BFE
:10218000039A1A63029B032283F84020029B0122D8
:10219000A3F84820029B294A9A63029B274ADA63E4
:1021A000029B02225A64029B93F84030244ADB00CF
:1021B00013441B7903F00803002B0AD0029B1B6F0A
:1021C000029A92F8402011461D4A52F831201344D9
:1021D00006E0029B93F840301A46194B53F8323010
:1021E0000193029B0093009B00225A60019B1A6896
:1021F000009B1A60019B1B68002B06D1019B009A73
:102200001A60019B009A5A6006E0019B1B68009AC5
:102210005A60019B009A1A600A49039B029A41F88E
:102220002320039B01330393039B002BA0DD00BFFE
:1022300000BF05B05DF804FBE4050024D5220008CA
:10224000980500247005002400B585B00023039391
:1022500031E0039BAC2202FB03F31B4A13440293BD
:102260001A4B1B68013B039A13400193184B1A68E1
:10227000019B9B001344029A1A60029B5B6CDBB2C9
:102280001946029802F0B4FA029801F02FFD029B61
:10229000002283F8A82002980AF0D4FE029801F0E8
:1022A000FFFF029802F0FAFA029B9B6803221A725F
:1022B000039B01330393039B002BCADD00BF00BFC8
:1022C00005B05DF804FB00BFE4050024940500247C
:1022D0009005002400B585B0384B01221A70FFF735
:1022E000E7FEFFF73BFF354B02221A7005F044F87A
:1022F00001AA02AB114618460AF06AFC029B019A39
:102300001146184609F04CFC1023039302E0039B8E
:102310005B000393039B012BF9DD039B9B00184695
:1023200009F098FC0346264A1360264A039B136073
:10233000FFF78AFF244B00221A60204B03221A70F9
:1023400000F0A8F811F016FE00F0A6F802F028F848
:1023500001F0A2FD00F0C4FF00F074FD14F011FFC5
:102360000AF028FD05F00AF8144B04221A70002325
:10237000039313E0039B002B0BDD039BAC2202FBBA
:1023800003F3124A134401220021184602F0D4FB41
:1023900001E002F0AFFB039B01330393039B002B8F
:1023A000E8DD064B05221A7000F064F8034B0622A4
:1023B0001A7000F045FE0AF043FEFCE7E005002439
:1023C00090050024940500248C050024E4050024D5
:1023D00000B58BB000230893FFF734FD03AB18461C
:1023E00007F0A1FE64238DF80D304FF400630693CF
:1023F00003AA0023019308AB009313460022064969
:10240000064801F023FD099003AB184607F0C4FE0F
:1024100000BF0BB05DF804FB15D1000844F30108C0
:1024200000B583B001900091FFF7D2FF002318465A
:1024300003B05DF804FB000000B587B001F0CCFFED
:102440000346039300230293084B01934FF4006368
:1024500000930023F0220221054800F0EFFF03461D
:10246000059300BF07B05DF804FB00BF21240008FE
:1024700050F3010808B501220449054802F06CF840
:10248000FFF7DAFF0023184608BD00BF5CF3010820
:1024900060F3010800BF704700B583B000230193CB
:1024A00007E0084A019B084942F83310019B0133B9
:1024B0000193019BA52BF4DDFFF768FA00BF03B081
:1024C0005DF804FB90060024C525000800B58DB01A
:1024D0000390029101926FF015030B93039BA52BC0
:1024E0003AD8039B0A930A9B002B01DA0A9B34E03B
:1024F000EFF311830893089BDBB28DF81F30802324
:102500000693069B83F3118800BF9DF81F308DF85A
:102510002730029B002B06D10398FFF7A1FA114B3D
:1025200002930023019310490A9B029A41F8332039
:102530000D4A0A9BDB001344019A5A609DF827302C
:102540008DF817309DF817300493049B83F311889E
:1025500000BF00BF00230B930B9B18460DB05DF826
:1025600004FB00BFC52500089006002400B587B015
:1025700001900091114B059300230493019B039359
:10258000019BA52B10D8039B0D4A52F83330002B2A
:102590000AD0039B0A4A52F833300593039B084A3A
:1025A000DB0013445B680493059B049A009901982F
:1025B000984700BF07B05DF804FB00BFC5250008C1
:1025C0009006002400B589B0039002910192EFF3C8
:1025D00011830793079BDBB28DF81B308023059393
:1025E000059B83F3118800BF024A0021002007F0F9
:1025F000A4FA00BF64F30108F0B58FB00B900A9104
:102600000B9B0D9362E00D9B0C930D9B09930C9B10
:102610000A9A9A4202D90C9B1B6800E000230C9A8C
:10262000043211460A9A8A4202D90C9A526800E092
:1026300000220C99083108460A99814202D90C9966
:10264000896800E000210C980C3004460A98A042EA
:1026500002D90C98C06800E000200C9C103425467C
:102660000A9CAC4202D90C9C246900E000240C9D19
:1026700014352E460A9DB54202D90C9D6D6900E0C5
:1026800000250C9E183637460A9EBE4202D90C9E83
:10269000B66900E000260C9F1C37BC460A9F6745C0
:1026A00002D90C9FFF6900E0002707970696059561
:1026B00004940390029101920093099B074A0849F0
:1026C000012009F075F80D9B20330D930D9A0A9B9C
:1026D0009A4298D900BF00BF0FB0F0BDB4F5010811
:1026E000A4F3010800B587B0039002910192009312
:1026F000019A009B13440593039B194A1949012031
:1027000009F056F8019B164A1749012009F050F8C4
:10271000009B134A1549012009F04AF8029B002B3F
:1027200012D0029B0E4A1249012009F041F8029B87
:10273000203B019A9A4202D8029B203B02930599C2
:102740000298FFF759FF06E0019A009B13441946CF
:102750000198FFF751FF00BF07B05DF804FB00BF11
:10276000C0F50108D8F30108E8F30108F8F30108FF
:102770000CF4010800B58BB0039002910023049380
:10278000039BDB6E0793039B5B6E0693079A069B86
:10279000134405930023099300238DF82330029AF4
:1027A000079B9A4206D3029A059B9A4202D2029B49
:1027B000099308E001238DF82330029B0B4A0C4952
:1027C000012008F0F5FF099B002B03D19DF8233071
:1027D000002B07D000230093069B079A0999054810
:1027E000FFF780FF00BF0BB05DF804FBD0F50108D8
:1027F0001CF4010850F40108F0B5ADB0119010912F
:102800001BAB40220021184608F008FF1BAB4022FA
:102810001946119800F0B2FD13AB20221946119809
:1028200000F082FC13AB2C21184608F076FF2B90A9
:102830002B9B002B02D02B9B20221A70119B1B6B11
:102840000D93119B9B68002B03D0119B9B681B6809
:1028500001E04FF0FF33119A92F834200E92119A52
:10286000526CD20802F003021A4951F822200F924A
:102870001199496C01F00301174850F82110119883
:10288000406C00F48070002801D0502000E02D2022
:10289000119CA46F119D6D6F119EF66E119F7F6E3E
:1028A0001BAA0B920D4A0A9209970896079506945F
:1028B00013AC0594049003910F9A02920E9A019220
:1028C00000930D9B064A0749012008F071FF00BFE5
:1028D0002DB0F0BD94F50108A4F50108A0F401089D
:1028E000DCF5010858F4010808B5054A054901203E
:1028F00008F05EFF0021044800F034FB00BF08BD73
:10290000E8F50108ACF40108F927000800B585B026
:102910000190009100980AF095FA009B0393039BA5
:102920000293029B1B6819460198FFF723FF00BF23
:1029300005B05DF804FB000000B5B1B00990089146
:102940000792069300232F93099B9B68002B0CD0C2
:10295000099B5B6C03F00303022B06D0099B9B6869
:102960001B68184600F0AEFA2F900AAB184607F025
:1029700011F90AAA0AAB7D3303930AAB4A330293D7
:102980000AAB353301930AAB153300931346184A4B
:102990001849012008F00CFF069B002B01D0069A75
:1029A00000E0154A089B002B01D0089B00E0124B69
:1029B0002F99002901D0114900E011490998C06BF5
:1029C000049003910D4902910799019100931346D8
:1029D000074A0C49012008F0EBFE32990998FFF7ED
:1029E00095FF06F0AFFA00BF31B05DF804FB00BF01
:1029F000F4F501081CF5010844F50108A0F40108EC
:102A000048F5010850F5010800B585B00390029122
:102A100001920093FFF768FF06F094FA06F092FA2D
:102A200000BF05B05DF804FB08B5FA200AF0EDFA26
:102A3000FBE7000000B595B0059004910392029366
:102A4000564B1B78DBB2042B8CBF012300238DF87F
:102A50004E30EFF305831193119B002B14BF01231C
:102A60000023DBB2002B02D04D4B1B6801E04D4B25
:102A70001B681293494B1B78DBB2072B01D1FFF780
:102A8000D3FF00238DF84F309DF84E30002B12D02D
:102A9000EFF311831093109BDBB28DF83F3080234E
:102AA0000E930E9B83F3118800BF9DF83F308DF885
:102AB0004F3000F0A1FAEFF305830D930D9B002B2F
:102AC00014BF01230023DBB2002B05D1129B5B6CEA
:102AD00003F00303022B02D1304B07221A70029B32
:102AE000002B05D130480AF050F82F4B029304E038
:102AF000D82202992C4808F0F6FD129B0693029BFF
:102B00000793059B0993049B0A93039B0893234B0C
:102B10001B78DBB2072B14BF01230023DBB21A465C
:102B200006AB1946104600F041F806F00BFA029B7E
:102B30000093039B049A05991298FFF7FDFE174B2B
:102B40001B78DBB2072B12D1029B0093039B049AE4
:102B500005991298FFF758FF06AB1946022000F0BE
:102B600025F80021022000F0BFF8FFF75DFF9DF877
:102B70004E30002B0DD09DF84F308DF833309DF83E
:102B800033300B930B9B83F3118800BF00BF00F021
:102B900057FA00BF15B05DF804FB00BFE005002444
:102BA0007005002468050024C00B002400B58FB018
:102BB00001900091234B0B93EFF311830793079B35
:102BC000DBB28DF81B3080230593059B83F31188BE
:102BD00000BF9DF81B308DF82B304FF0FF330C9366
:102BE000002309930B9B1B680D9315E00D9B5B68FD
:102BF00008930D9B1B68009A01990D989847099BB3
:102C0000002B04D0099B1B685A1C099B1A60089B67
:102C10000D930C9B013B0C930D9B002B02D00C9B46
:102C2000002BE3D19DF82B308DF813309DF8133035
:102C30000393039B83F3118800BF00BF00BF0FB055
:102C40005DF804FB980C00248CB00190254B09938F
:102C5000EFF311830693069BDBB28DF817308023C8
:102C60000493049B83F3118800BF9DF817308DF8FF
:102C70002330099B0B93019B079300230A9313E0D6
:102C80000B9B1B68079A9A4203D16FF010030A93BB
:102C90000EE0079B9A680B9B1B689B689A4207DCB7
:102CA0000B9B1B6804330B930B9B1B68002BE7D11A
:102CB0000A9B002B06D10B9B1A68079B5A600B9B43
:102CC000079A1A609DF823308DF80F309DF80F3069
:102CD0000293029B83F3118800BF00BF00BF0CB0BA
:102CE000704700BF9C0C002400B58FB0019000918C
:102CF000234B0B93EFF311830793079BDBB28DF804
:102D00001B3080230593059B83F3118800BF9DF83A
:102D10001B308DF82B304FF0FF330C9300230993B9
:102D20000B9B1B680D9315E00D9B5B6808930D9B37
:102D30001B68009A01990D989847099B002B04D0B5
:102D4000099B1B685A1C099B1A60089B0D930C9BDE
:102D5000013B0C930D9B002B02D00C9B002BE3D16D
:102D60009DF82B308DF813309DF813300393039B9F
:102D700083F3118800BF00BF00BF0FB05DF804FBF4
:102D80009C0C002488B00390029111461A460B4611
:102D9000ADF8063013468DF80530002307931DE08B
:102DA000029B0693069B9DF805201A72039B0593D0
:102DB000069B0493059B1A68049B1A60049B059A62
:102DC0005A60059B1B68049A5A60059B049A1A6016
:102DD000029B2C330293079B01330793BDF8063007
:102DE000079A9A42DCDB029B184608B0704788B00D
:102DF000039002911346ADF806300023079317E0C5
:102E0000039B0693029B0593069B1A68059B1A6019
:102E1000059B069A5A60069B1B68059A5A60069B9A
:102E2000059A1A60029B30330293079B0133079384
:102E3000BDF80630079A9A42E2DB029B184608B0BA
:102E40007047000000B585B01A4B03931A4B0293EC
:102E5000029B029A5A60029B5A68029B1A600023E6
:102E6000082203991448FFF78DFF0390134B019339
:102E7000019B019A5A60019B5A68019B1A600223C8
:102E8000082203990D48FFF77DFF03900C4B009338
:102E9000009B009A5A60009B5A68009B1A600822A7
:102EA00003990748FFF7A3FF039000BF05B05DF843
:102EB00004FB00BFB00C0024A00C0024A80C0024CC
:102EC000F01000248AB0019000230993EFF31183DE
:102ED0000693069BDBB28DF8173080230493049B86
:102EE00083F3118800BF9DF817308DF823301B4BFA
:102EF0001B68002B21D0019B002B1EDB184B1B688D
:102F0000013B019A13400793144B1A68079B9B00DF
:102F100013441B68002B10D0104B1A68079B9B00B2
:102F200013441B681B6B019A9A4206D10B4B1A681B
:102F3000079B9B0013441B6809939DF823308DF871
:102F40000F309DF80F300293029B83F3118800BF6E
:102F500000BF099B18460AB0704700BF90050024C7
:102F60009405002400B58BB001900091EFF311831C
:102F70000793079BDBB28DF81B3080230593059BDD
:102F800083F3118800BF9DF81B308DF8233000F0CB
:102F900033F80023099314E0154B1A68099B9B0032
:102FA00013441B68002B09D0114B1A68099B9B0026
:102FB00013441A68019B009910469847099B0133F6
:102FC00009930C4B1B68099A9A42E5DB00F038F82C
:102FD0009DF823308DF813309DF813300393039B35
:102FE00083F3118800BF00BF00BF0BB05DF804FB86
:102FF000900500249405002482B0EFF3058300932C
:10300000009B002B14BF01230023DBB283F00103DC
:10301000DBB2002B0FD0094B1B680193019B002BE7
:1030200009D0019BB3F948309BB201339BB21AB26D
:10303000019BA3F8482000BF02B070476805002438
:1030400000B58BB0EFF305830893089B002B14BFEA
:1030500001230023DBB283F00103DBB2002B5AD043
:103060002F4B1B680193019B002B54D0019BB3F99C
:10307000482092B2013A92B212B2A3F84820B3F9B2
:103080004830002B47D1EFF311830793079BDBB246
:103090008DF81B3080230593059B83F3118800BFB7
:1030A0009DF81B308DF827301E4B1B68002B14D069
:1030B00002F07EF80346002B0FD0EFF30583049354
:1030C000049B002B14BF01230023DBB283F0010318
:1030D000DBB2002B01D0022000DF019B5B6C03F010
:1030E0001803082B0BD1019BDB6C002B07D10C4B79
:1030F0001A68019B9A4202D0019B1422DA649DF85F
:1031000027308DF80F309DF80F300293029B83F328
:10311000118800BF00BF00BF0BB05DF804FB00BF0B
:10312000680500247405002400B591B00390029155
:103130000192EFF311830D930D9BDBB28DF83330C9
:1031400080230B930B9B83F3118800BF9DF83330D2
:103150008DF83F30039B93F84030052B2CD1039B17
:103160001B6F1B7903F00403002B25D0039B1B6FFF
:103170000893089B1B6823F000430793079A1D4B95
:1031800013401C4A934201D0079B01E04FF0FF33EC
:103190000E939DF83F308DF82B309DF82B3009931E
:1031A000099B83F3118800BF00BF0E9B124A01994F
:1031B000029806F0F7FF18E09DF83F308DF81B30BD
:1031C0009DF81B300593059B83F3118800BF00BF5A
:1031D000039B93F840301A46084B53F82230019A6B
:1031E0001946029808F030FA00BF00BF11B05DF830
:1031F00004FB00BFFEFFFF7F84F6010898F601087C
:1032000086B00390029111461A460B46ADF806307F
:1032100013468DF805300023059320E0029B9DF8AE
:1032200005201A77029B03F1200202920493049B6B
:1032300000221A60039B1B68002B06D1039B049A93
:103240001A60039B049A5A6006E0039B5B68049A29
:103250001A60039B049A5A60059B01330593BDF8DD
:103260000630059A9A42D9DB029B184606B0704791
:1032700086B00390029111461A460B46ADF806300F
:1032800013468DF805300023059320E0029B9DF83E
:1032900005201A75029B03F1180202920493049B05
:1032A00000221A60039B1B68002B06D1039B049A23
:1032B0001A60039B049A5A6006E0039B5B68049AB9
:1032C0001A60039B049A5A60059B01330593BDF86D
:1032D0000630059A9A42D9DB029B184606B0704721
:1032E00000B583B01F4B01931F4B00221A601E4B89
:1032F00000225A601D4B00221A601C4B00225A60AB
:103300001B4B00221A601A4B00225A60194B0022F4
:103310001A60184B00225A60174B00221A60164B95
:1033200000225A600023042201991048FFF768FF29
:1033300001900223082201990D48FFF761FF0190D7
:103340000023042201990B48FFF792FF019002230A
:10335000082201990848FFF78BFF019000BF03B0D6
:103360005DF804FB20110024F81000240011002453
:1033700008110024101100241811002400B58BB08E
:1033800005900491039200230993059B002B06D01E
:10339000039B002B03D0059B1B6B002B04DC049BC1
:1033A00000221A70002340E0059B5B6C03F00303CE
:1033B000012B13D1059B0793079BDA6B079BD3F86F
:1033C000B030009313461B4A0399049806F0EAFEB6
:1033D00003461A46099B1344099320E0059802F01E
:1033E000B6F803460433089311E0049A099BD018F9
:1033F000039A099BD11A089B1A1D08921B680E4A52
:1034000006F0D0FE03461A46099B13440993089B15
:103410001B68002B03D0099A039B9A42E5D3039BB8
:103420005A1E099B934228BF134618460BB05DF8FD
:1034300004FB00BFBCF60108C4F6010800B58FB05C
:103440000990079206930B468DF823309DF82330A0
:10345000022B01D1AC2301E04FF45673184608F05B
:10346000F9FB0D900D9B002B02D16FF00B0326E0B2
:103470009DF8233043F400431A460D9B5A64109B79
:1034800000220492139A0392129A0292119A0192C4
:103490000093069B079A09990D9800F06DF80C901F
:1034A0000C9B002B04DA0D9808F08EFB0C9B06E0B9
:1034B0000D9B1B6B0B930D9800F062FB0B9B18464A
:1034C0000FB05DF804FB00B589B007900691059236
:1034D00004930C9B002B03D100F07EFF034600E019
:1034E0000C9B03930B9B02930A9B0193049B0093F9
:1034F000059B069A00210798FFF7A0FF0346184690
:1035000009B05DF804FB00B58BB0079006910592F9
:103510000493002302930D9B01930C9B0093049B47
:10352000059A06990798FFF7CEFF0990099B002B93
:1035300008DA06F01DFB0246099B5B4213604FF060
:10354000FF330993099B18460BB05DF804FB00B5E7
:1035500087B00590049103920293089B0193029B0C
:103560000093039B002204990598FFF7CCFF0346C4
:10357000184607B05DF804FB00B589B005900491CA
:1035800003920293059B5B6CDBB203F003038DF89F
:103590001B30059B5B6CDBB21946059801F028F9DE
:1035A0000790079B002B01DA079B75E0059B1846E7
:1035B00000F09CFB059B002283F8A820059B9B68DC
:1035C0000D99184600F016FF0790079B002B41DB72
:1035D00001220E99059801F0AFFA0790079B002B86
:1035E0003ADB029B002B07D0059B0A9A02991846EA
:1035F00009F0E3FC079007E0059B9DF81B200A9962
:10360000184609F077FB0790079B002B26DB9DF8F7
:103610001B3000930B9B224A0399059800F09CFAFB
:103620000790079B002B1BDB059B184600F038FE1C
:103630000790079B002B15DB0C9A0499059800F066
:10364000E7F90790079B002B0EDB059801F026F9A0
:10365000079B21E000BF08E000BF06E000BF04E0D8
:1036600000BF02E000BF00E000BF029B002B0AD1B8
:10367000059B9B6E002B06D0059B9DF81B201146D9
:10368000184609F0B7FB059B184600F023FB059B85
:10369000184601F085F9079B184609B05DF804FB50
:1036A000053C000800B587B00190019B0593059B80
:1036B0005B680493059B1B680393049B002B03D159
:1036C000124A039B136002E0049B039A1A60039B57
:1036D000002B03D10D4A049B536002E0039B049A24
:1036E0005A60059B00221A60059B00225A60019BCC
:1036F0005B6CDBB203F00303DBB21946019801F007
:103700005FFE00BF07B05DF804FB00BF8405002426
:1037100000B597B00190EFF311830F930F9BDBB2CD
:103720008DF83B3080230D930D9B83F3118800BFF0
:103730009DF83B308DF84F30674B1B680133159374
:103740000023149333E0159B002B01DC0123159318
:10375000624B1B68013B159A13401093604B1A682B
:10376000109B9B0013441B68002B1AD15C4B1A68FA
:10377000109B9B001344019A1A60019B159A1A63CF
:10378000554A159B13609DF84F308DF833309DF8E6
:1037900033300B930B9B83F3118800BF00BF0023D2
:1037A00095E0159B01331593149B013314934B4BF8
:1037B0001B68149A9A42C6DB494B1B6812939DF80A
:1037C0004F308DF82B309DF82B300993099B83F3F4
:1037D000118800BF00BF414B1B68DB00184608F092
:1037E00039FA1190119B002B02D16FF00B036EE0A0
:1037F000EFF311830893089BDBB28DF81F30802311
:103800000693069B83F3118800BF9DF81F308DF847
:103810004F30334B1B68129A9A420FD09DF84F30AD
:103820008DF817309DF817300493049B83F31188AB
:1038300000BF00BF119808F0C7F96CE7274B1B6861
:103840005B00264A13600023149323E0244B1A687C
:10385000149B9B0013441B68002B17D0204B1A6845
:10386000149B9B0013441B681A6B1C4B1B68013B89
:10387000134010931A4B1A68149B9B001A44109B18
:103880009B0011990B4412681A6000E000BF149B62
:1038900001331493114B1B68002B00DA01335B10CA
:1038A0001A46149B9342D1DB0D4A119B13609DF87D
:1038B0004F308DF80F309DF80F300293029B83F349
:1038C000118800BF00BF129808F07EF923E7184660
:1038D00017B05DF804FB00BF8C050024940500249C
:1038E0009005002400B58FB00390029101920093DF
:1038F000454B1B680D930398FFF70AFF0C900C9B38
:10390000002B7CD1029BDAB2039B83F83420029B0C
:10391000DAB2039B83F83520039B019A9A63009ADD
:10392000039BDA639DF8403003F003038DF84030C9
:10393000039B5B6C23F00302039B5A64039B5A6C4A
:103940009DF840301A43039B5A64039B5B6C23F041
:103950001802039B5A64039B5B6C43F00802039BB1
:103960005A64039B1422DA64039B0D9A74337432F5
:1039700092E8030083E80300039B002283F84020C1
:10398000039809F05FFBEFF311830993099BDBB206
:103990008DF8233080230793079B83F3118800BFA2
:1039A0009DF823308DF82F30039B0A930A9B002249
:1039B0005A60164B1A680A9B1A60144B1B68002B3E
:1039C00006D1124A0A9B1360104A0A9B536006E014
:1039D0000E4B1B680A9A5A600C4A0A9B1360039BA1
:1039E000042283F840209DF82F308DF81B309DF87D
:1039F0001B300593059B83F3118800BF00BF0C9B10
:103A000018460FB05DF804FB680500248405002407
:103A100000B58DB0039002910192029B002B01D161
:103A20004C4B0293029807F090FE034601330A9331
:103A300000230993019B002B26D01EE0099B9B00CD
:103A4000019A13441B68184607F07FFE02460A9B42
:103A5000134401330A93039B5B6E0A9A9A4202D382
:103A60006FF0230372E0099B01330993099BB3F5BF
:103A7000807F02DD6FF0060368E0099B9B00019ADE
:103A800013441B68002BD9D1099B02339B00079379
:103A90000398079A0A9B1344194609F061FA0690A5
:103AA000069B002B02D16FF00B034FE0069A079B99
:103AB00013440B93069B0B9A1A60029807F045FE7D
:103AC0000346013305930A9A02990B9807F0BCFD4F
:103AD000059B0B9A13440B93059B0A9AD31A0A93DE
:103AE0000023089326E0089B01339B00069A1344A9
:103AF0000B9A1A60089B9B00019A13441B68184696
:103B000007F023FE034601330593089B9B00019AAF
:103B100013441B680A9A19460B9807F095FD059BFC
:103B20000B9A13440B93059B0A9AD31A0A93089B8A
:103B300001330893089A099B9A42D4DB099B01330D
:103B40009B00069A134400221A60002318460DB009
:103B50005DF804FBC8F6010800B587B00590049134
:103B6000039202939DF820300093029B039A0499DC
:103B70000598FFF7B7FE0346184607B05DF804FB4B
:103B800000B58BB00190EFF311830893089BDBB273
:103B90008DF81F3080230693069B83F3118800BFA6
:103BA0009DF81F308DF82730154B1B680293019844
:103BB00001F064FB019801F0F5F90346002B0FD0EA
:103BC000EFF305830593059B002B14BF012300230E
:103BD000DBB283F00103DBB2002B01D0022000DF57
:103BE0009DF827308DF813309DF813300393039B15
:103BF00083F3118800BF00BF00BF0BB05DF804FB6A
:103C00006805002400B587B01A4B1B680393039B1B
:103C10005B6CDBB203F003038DF80B3001230593DB
:103C2000039801F094FC01900023049302E0049BAC
:103C300001330493019B002B06D0049B9B00019A47
:103C400013441B68002BF2D19DF80B30022B06D1D8
:103C5000039BDB6B019904989847059006E0039B52
:103C6000DB6B019A0499184606F0ACF8059800F051
:103C700003F800BF6805002400B587B00190144B1D
:103C80001B680593019BDBB20193059B5B6C03F002
:103C90000303022B02D0059800F0B8FFEFF3118365
:103CA0000493049BDBB28DF80F3080230293029BB8
:103CB00083F3118800BF059B5B6C43F48072059B06
:103CC0005A640199059801F0CCFD019809F05CF85F
:103CD0006805002400B583B00190019B1C33184691
:103CE00001F044FC00BF03B05DF804FB00B583B0F5
:103CF0000190019B00221A61019B00225A61019BE5
:103D00001C3300220021184606F06BF800BF03B0F8
:103D10005DF804FB00B58FB00990089107920693F7
:103D20004FF4567007F096FF0D900D9B002B02D1BB
:103D30006FF00B0335E00D9B4FF400425A64069B75
:103D4000139A0492129A0392119A0292109A019273
:103D50000093079B089A09990D98FFF70DFC0C90AA
:103D60000C9B002B04DA0D9807F02EFF0C9B18E03B
:103D70000D9B1B6B0B93149B002B07D014990B9876
:103D800001F0FCFD0C900C9B002B05DB0D9B1846F5
:103D9000FFF7F6FE0B9B04E000BF0D98FFF782FCD7
:103DA0000C9B18460FB05DF804FB10B590B009905D
:103DB00008910792069300230F9300230C93129B04
:103DC000002B09D0129B5B780D93129BDB680E933E
:103DD000129B1B690F930FE00AAB1946002001F0FC
:103DE00041FB0C900C9B002B01DA0C9B2BE00A9BF7
:103DF0000D934FF400630E930E9C149B002B03D184
:103E000000F0EAFA034600E0149B129A0492069A24
:103E100003920293139B0193079B009323460F9AEF
:103E20000D990898FFF776FF0B900B9B002B03DA98
:103E30000B9B0C930C9B06E00B9B002B02D0099B69
:103E40000B9A1A600C9B184610B010BD00B58BB0D1
:103E500007900691059204934FF0FF330893059B5A
:103E6000002B02D0059B1B6800E0002308A80D9AD8
:103E700002920C9A0192049A0092069A0799FFF70F
:103E800094FF0990099B002B01DB089B00E0099B34
:103E900018460BB05DF804FB82B01F4B00221A607D
:103EA0001D4B00225A600023019329E01B49019A0F
:103EB00013461B019B1A9B000B44083301221A7006
:103EC000019A13461B019B1A9B00144A134400934A
:103ED000009B00221A60104B1B68002B06D10E4A73
:103EE000009B13600C4A009B536006E00A4B5B6822
:103EF000009A1A60084A009B5360019B01330193AA
:103F0000019B032BD2DD064B00221A60044B0022DA
:103F10005A6000BF02B07047B0140024C0130024E0
:103F2000B814002400B599B0019000230393002336
:103F30000493EFF311830F930F9BDBB28DF83B30AB
:103F400080230D930D9B83F3118800BF9DF83B30B8
:103F50008DF853306D4B1B6817936BE0179B1B68F4
:103F60001393179BDB68019A9A4261D1179B1193B7
:103F7000664B1B68002B49D0119B002B46D0634B2E
:103F80001B68119A9A4210D1604A119B1B681360FA
:103F90005E4B5B68119A9A4203D15C4B00225A60D7
:103FA00034E0119B00221A6030E0584B1B681693D6
:103FB00029E0169B1B68119A9A4221D1169B0C93FB
:103FC000524B0B930C9B1B680A930B9B1B68002B9B
:103FD00015D00A9B002B12D00B9B5B680A9A9A4261
:103FE00006D10B9B0C9A5A600C9B00221A6003E0CE
:103FF0000A9B1A680C9B1A600A9B00221A6000BF79
:10400000169B1B681693169B002BD2D1179B1093FF
:10401000109B00221A60039B002B04D1109B03937A
:10402000109B049304E0049B109A1A60109B049365
:10403000139B1793179B002B90D19DF853308DF84D
:1040400027309DF827300893089B83F3118800BF21
:1040500000BF039B179351E0179B1B681393179B9B
:104060001293039B002B44D0129B002B41D0039B47
:10407000129A9A420DD1129B1B680393049B129AC9
:104080009A4202D10023049333E0129B00221A606B
:104090002FE0039B159329E0159B1B68129A9A4207
:1040A00021D1159B079303AB0693079B1B680593D0
:1040B000069B1B68002B15D0059B002B12D0069B7E
:1040C0005B68059A9A4206D1069B079A5A60079B3D
:1040D00000221A6003E0059B1A68079B1A60059B83
:1040E00000221A6000BF159B1B681593159B002BBF
:1040F000D2D1179800F0B2F8139B1793179B002B9F
:10410000AAD100BF00BF19B05DF804FBB8140024A9
:1041100000B591B00190EFF311830B930B9BDBB2D1
:104120008DF82B3080230993099B83F3118800BFFE
:104130009DF82B308DF83B30019B0D93454B1B6850
:10414000002B49D00D9B002B46D0424B1B680D9A8B
:104150009A4210D13F4A0D9B1B6813603D4B5B6830
:104160000D9A9A4203D13B4B00225A6034E00D9BDA
:1041700000221A6030E0374B1B680F9329E00F9B39
:104180001B680D9A9A4221D10F9B0893314B0793DC
:10419000089B1B680693079B1B68002B15D0069B8A
:1041A000002B12D0079B5B68069A9A4206D1079BA8
:1041B000089A5A60089B00221A6003E0069B1A685E
:1041C000089B1A60069B00221A6000BF0F9B1B68A9
:1041D0000F930F9B002BD2D1019B1B7A03F001039D
:1041E000002B22D0019B0C930C9B00221A601A4BCF
:1041F0001B68002B06D1184A0C9B1360164A0C9BB7
:10420000536006E0144B5B680C9A1A60124A0C9BD0
:1042100053609DF83B308DF817309DF817300493AC
:10422000049B83F3118800BF0FE09DF83B308DF8AD
:104230000F309DF80F300293029B83F3118800BF6B
:1042400000BF019807F0C0FC00BF00BF11B05DF8CF
:1042500004FB00BFB8140024B014002400B583B0E0
:104260000190019B002B02D16FF0150314E0019B1C
:104270005B7A012B07D9019B5B7A013BDAB2019B88
:104280005A72012308E0019B1C33184600F02EF8F7
:104290000198FFF73DFF0023184603B05DF804FBCB
:1042A00000B585B001901021019808F059FE0390E7
:1042B000039B002B02D16FF00B0312E0019BDA6E1F
:1042C000019B9B6ED31A9AB2039BDA80019B9B6879
:1042D000D3F80422039B1A60019B1A6B039BDA60DC
:1042E0000023184605B05DF804FB00008CB0019077
:1042F000EFF311830993099BDBB28DF82330802300
:104300000793079B83F3118800BF9DF823308DF836
:104310002F30019B002B03D0019BDB68002B0ED1BB
:104320009DF82F308DF81B309DF81B300593059BB1
:1043300083F3118800BF00BF6FF015032BE0174B0C
:104340005A68019B9A420CBF012300238DF82E303E
:10435000019B0A930A9B5B680A9A12681A600A9B7F
:104360001B680A9A52685A600A9B00225A600A9B8C
:104370005A680A9B1A60019B0022DA609DF82F3070
:104380008DF813309DF813300393039B83F311884A
:1043900000BF00BF002318460CB07047B8000024CF
:1043A00008B508F07FFC00F015F800BF08BD00005C
:1043B000074BBFF35B8F53E8001F01F1010143E896
:1043C0000012002AF7D1BFF35B8F00BF704700BF18
:1043D000C014002400BF704782B0054B1B680193D6
:1043E000019B9B68D3F81832184602B0704700BF93
:1043F0006805002410B58CB00190009100230B9348
:1044000000230A9300230993009B002B00F0A08057
:10441000019BD3F81832002B40F09A80EFF3118300
:104420000693069BDBB28DF8173080230493049B20
:1044300083F3118800BF9DF817308DF8233002E018
:104440000A9B01330A930A9B9B00009A13441B6842
:10445000002BF5D10A9A019BC3F820220A9B053351
:104460001A46019BC3F81C220A9B002B60D0019BBB
:10447000D3F81C329B00184607F0B6FB03460B939B
:104480000B9B002B03D16FF00B03099350E00A9BA9
:104490009B000B9A134400221A6044E00A9B9B0085
:1044A000009A13441B68184607F04FF9034601337E
:1044B00007930A9B9B000B9AD418079807F094FB6C
:1044C000034623600A9B9B000B9A13441B68002B36
:1044D0001BD107E00A9B9B000B9A13441B681846EC
:1044E00007F072FB0A9B01330A930A9B9B000B9A0D
:1044F00013441B68002BEDD10B9807F065FB0023DC
:104500000B936FF00B03099312E00A9B9B000B9A2D
:10451000134418680A9B9B00009A13441B68079A6F
:10452000194607F091F80A9B5A1E0A92002BB5D142
:10453000019B0B9AC3F818229DF823308DF80F3099
:104540009DF80F300293029B83F3118800BF00BFD8
:10455000099B18460CB010BD10B598B00590049199
:10456000039200231793059B002B02D11623179368
:10457000DEE0049B002B03D0049B1B78002B09D1A9
:10458000039B002B04D0059800F0E0F80346D6E02A
:104590000023D4E0EFF311830E930E9BDBB28DF872
:1045A000373080230C930C9B83F3118800BF9DF858
:1045B00037308DF85B30634B1B681593159B9B68F8
:1045C0001493149BD3F81832002B1CD0059914981F
:1045D00001F051FD1790179B002B14DB039B002B60
:1045E0000DD19DF85B308DF82F309DF82F300A9358
:1045F0000A9B83F3118800BF00BF00239FE0179937
:10460000149801F069FD059807F09FF80446049896
:1046100007F09BF80346234402331393139B184679
:1046200007F0E2FA03461293129B002B02D10C23EF
:10463000179371E0149BD3F820321193149BD3F895
:104640001832002B17D106231093109B9B0018469D
:1046500007F0CAFA03460F930F9B002B02D10C23DD
:10466000179356E0149B0F9AC3F81822149B109AC4
:10467000C3F81C2221E0149BD3F81C32013B119A91
:104680009A421ADB119B06331093149BD3F818221D
:10469000109B9B001946104607F0C0FA0F900F9B25
:1046A000002B02D10C23179333E0149B0F9AC3F80D
:1046B0001822149B109AC3F81C22149BD3F81822BA
:1046C000119B591C11919B001344129A1A60149B60
:1046D000D3F81822119B9B00134400221A60149BEC
:1046E000119AC3F820221399049B0093059B164A44
:1046F000129805F057FD9DF85B308DF827309DF836
:1047000027300893089B83F3118800BF00BF002364
:1047100015E0129807F058FA9DF85B308DF81F30BD
:104720009DF81F300693069B83F3118800BF00BFDE
:1047300005F01EFA0246179B13604FF0FF33184630
:1047400018B010BD68050024D4F6010800B58DB07E
:104750000190264B1B680B930B9B9B680A93019B54
:10476000002B0AD0019B1B78002B06D03D2101981D
:1047700006F0D3FF0346002B07D005F0F9F90346F6
:1047800016221A604FF0FF332CE0EFF311830793EA
:10479000079BDBB28DF81B3080230593059B83F3C9
:1047A000118800BF9DF81B308DF827300A9B002B25
:1047B0000BD001990A9801F05EFC0890089B002B31
:1047C00003DB08990A9801F087FC9DF827308DF8E3
:1047D00013309DF813300393039B83F3118800BFBC
:1047E00000BF002318460DB05DF804FB68050024E7
:1047F00000B587B001900B468DF803309DF803306B
:1048000003F003038DF803309DF80330022B0BD126
:10481000214B0593019B059A9A60059BD3F80432BE
:10482000002B04D0002333E0019BAC330593059BA0
:104830000022DA60059B00221A61019B059A9A60AA
:10484000059B03F50A7318460FF0D2FD059801F099
:1048500002FB0490049B002B01DA049B18E0059BEB
:1048600003F526730393039B00221A61039B1846EA
:1048700005F0C8F9059B0022DA62059B00221A6345
:10488000059B183300220021184605F0AAFA0023E0
:10489000184607B05DF804FBCC14002400B585B0C1
:1048A0000190019B9B680393039B002283F8942251
:1048B000039B03F51D72019B5B6C03F00203002B4D
:1048C00014BF01230023DBB21946104607F0DCF9C0
:1048D000019B0C330293029B00221A60039BDB684E
:1048E000002B06D1039B029ADA60039B029A1A619D
:1048F00006E0039B1B69029A1A60039B029A1A61E5
:10490000039B054A934203D0019B1A6B039B1A60D9
:1049100000BF05B05DF804FBCC14002400B587B0DF
:1049200001900B468DF80330019B03F52673059328
:10493000059B0493049B184600F018FE034603935E
:10494000039B002B02DB059B00221A61019801F0FA
:1049500016FB019800F0B7FE019800F0FEFA019BEB
:1049600003F50A7318460FF058FD019801F02EFB6D
:10497000019B03F51D73184607F0A3F99DF803305A
:10498000012B09D1019B1B7A43F00403DAB2019B8E
:104990001A72019800F091F800BF07B05DF804FBAF
:1049A00000B58FB00190019B9B680C930C9B002B72
:1049B0007FD0019B00229A60EFF311830993099B3A
:1049C000DBB28DF8233080230793079B83F3118894
:1049D00000BF9DF823308DF82F30019B0C330A93D4
:1049E0000C9BDB68002B4AD00A9B002B47D00C9B0A
:1049F000DB680A9A9A4210D10A9B1A680C9BDA600B
:104A00000C9B1B690A9A9A4203D10C9B00221A61E3
:104A100035E00A9B00221A6031E00C9BDB680D93A5
:104A20002AE00D9B1B680A9A9A4222D10C9B0C33F8
:104A30000D9A06920593069B1B680493059B1B68C1
:104A4000002B15D0049B002B12D0059B5B68049AA9
:104A50009A4206D1059B069A5A60069B00221A606C
:104A600003E0049B1A68069B1A60049B00221A60EC
:104A700000BF0D9B1B680D930D9B002BD1D19DF8A2
:104A80002F308DF80F309DF80F300293029B83F387
:104A9000118800BF00BF0C9BDB68002B09D1019B74
:104AA0005B6CDBB203F00303DBB219460C98FFF733
:104AB00035FF00BF0FB05DF804FB00B585B0019075
:104AC000019B1B7D002B11D1019B1B7A03F004037A
:104AD000002B0BD0019BAC3B0393039B5B6C03F45B
:104AE0000043002B02D0039807F06EF800BF05B01A
:104AF0005DF804FB00B583B003210E4810F06EFD95
:104B00000190019B002B09D10121002010F088F9B0
:104B10000221002010F084F9002307E0019B002B04
:104B200002DD019810F050F96FF01603184603B03B
:104B30005DF804FBDCF6010800B589B00390029132
:104B400013468DF80730039B9B6806930023079359
:104B5000184B1B680593059B9B68069A9A4212D0D6
:104B6000039B5B6C03F00303022B0CD0059B9B683B
:104B700003F50A70069B03F50A719DF80730029A47
:104B80000FF094FD0790079B002B0EDB029B002B80
:104B90000BD0039B5B6C03F00303022B05D0039B3C
:104BA0000299184600F041FF0790079B184609B08C
:104BB0005DF804FB6805002400B585B00190009104
:104BC000009B019A9A421BD00198FEF77BF9039053
:104BD000039B002B14D0039B5B6C43F40052039B9C
:104BE0005A64039B5B6C03F00303012B04D101980F
:104BF00000F04EF8029003E0019800F0AFFD029043
:104C00000023184605B05DF804FB000000B58BB02A
:104C10000190019B9B681B7A03F00803002B01D0D5
:104C200000232FE0EFF311830593059BDBB28DF892
:104C3000133080230393039B83F3118800BF9DF8F7
:104C400013308DF82730019B9B681A7A019B9B6873
:104C500042F00802D2B21A72019B9868019B1B6B4A
:104C60001A460A4901F0ADFA08909DF827308DF8F0
:104C70001F309DF81F300693069B83F3118800BFF9
:104C800000BF089B18460BB05DF804FBB94B000849
:104C900000B585B00190019B002B01D103232AE0D0
:104CA0000198FEF70FF90390039B002B01D103231A
:104CB00021E0039B5B6C03F48073002B01D0032382
:104CC00019E0039800F035FF0346002B01D00023C4
:104CD00011E00B4B1B68039A9A4203D14FF0FF304F
:104CE00005F018F84FF0FF31019800F00BF801982B
:104CF00000F06DFF0346184605B05DF804FB00BFE9
:104D00006805002400B58FB0019000910198FEF76E
:104D1000D9F80990099B9B68089300230B93089B83
:104D200003F52673184604F0ABFF099B1B69002BA3
:104D300075D0099B1B690D930D9B002B02D00D9B19
:104D40001B6800E000230C9365E00D9B0793099B13
:104D50001B69002B4AD0079B002B47D0099B1B697E
:104D6000079A9A4210D1079B1A68099B1A61099BFE
:104D70005B69079A9A4203D1099B00225A6135E088
:104D8000079B00221A6031E0099B1B690A932AE005
:104D90000A9B1B68079A9A4222D1099B10330A9AF0
:104DA00005920493059B1B680393049B1B68002BCF
:104DB00015D0039B002B12D0049B5B68039A9A4288
:104DC00006D1049B059A5A60059B00221A6003E0F5
:104DD000039B1A68059B1A60039B00221A6000BFA0
:104DE0000A9B1B680A930A9B002BD1D10D9B183B91
:104DF0000693069B009ADA62069B1C33184605F060
:104E000009F90C9B0D930D9B002B02D00D9B1B6889
:104E100000E000230C930D9B002B96D11EE0099B14
:104E20009B68DB68002B05D0099B9B68DB681B68CF
:104E3000002B13D0099B5B6C03F48053002B0DD126
:104E4000099B986802AA0123019900F018F80B90B9
:104E50000B9B002B02D1029B009A9A60099B5B6C12
:104E600043F48042099B5A64089B03F52673184655
:104E700004F02DFF0B9B18460FB05DF804FB00B546
:104E800089B00390029101928DF80330039B03F5E2
:104E90002673184604F0F4FE039BDB6A0693069B18
:104EA000002B02D0069B1B6800E00023059310E056
:104EB000069B0793079B5B68029A9A423ED0059B2C
:104EC0000693069B002B02D0069B1B6800E0002384
:104ED0000593069B002BEBD1039B03F52673184625
:104EE00004F0F5FE9DF8033083F00103DBB2002BE4
:104EF00001D016232DE00C2006F0ACFE0790079B96
:104F0000002B01D10C2324E0079B029A5A60039BDB
:104F100003F52673184604F0B3FE079B0493039B26
:104F2000DA6A049B1A60039BDB6A002B02D1039BA5
:104F3000049A1A63039B049ADA6200E000BF039BA1
:104F400003F52673184604F0C2FE019B079A1A6007
:104F50000023184609B05DF804FB00B585B0019048
:104F6000019BDB6A0393039B002B02D0039B1B680E
:104F700000E0002302930CE0039806F025FE029B5C
:104F80000393039B002B02D0039B1B6800E00023CC
:104F90000293039B002BEFD100BF00BF05B05DF86B
:104FA00004FB00008EB001907F4B1B680C930C9BA0
:104FB000B3F94830002B74DD0C9B93F83420019B2F
:104FC00093F834309A426CD2019B0B93774B0A933F
:104FD0000B9B93F834308DF8273000238DF8263062
:104FE0000A9B1B68089302E0089B1B680893089BB8
:104FF000002B06D0089B93F834309DF827209A4266
:10500000F2D9089B002B22D10A9B5B680793079B70
:10501000002B0FD10B9B00221A600B9B00225A60C1
:105020000A9B0B9A1A600A9B0B9A5A6001238DF80F
:1050300026302EE00B9B00221A600B9B079A5A60C9
:10504000079B0B9A1A600A9B0B9A5A6021E0089BF7
:105050005B680793079B002B0FD10B9B089A1A6084
:105060000B9B00225A60089B0B9A5A600A9B0B9A72
:105070001A6001238DF826300BE00B9B089A1A600A
:105080000B9B079A5A60079B0B9A1A60089B0B9A16
:105090005A60019B012283F8402000238DF83730AD
:1050A0007CE0019B0693404B0593069B93F83430BC
:1050B0008DF8133000238DF81230059B1B68039385
:1050C00002E0039B1B680393039B002B06D0039B0A
:1050D00093F834309DF813209A42F2D9039B002BA9
:1050E00022D1059B5B680293029B002B0FD1069B8C
:1050F00000221A60069B00225A60059B069A1A60DD
:10510000059B069A5A6001238DF812302EE0069B0B
:1051100000221A60069B029A5A60029B069A1A6045
:10512000059B069A5A6021E0039B5B680293029BF1
:10513000002B0FD1069B039A1A60069B00225A602F
:10514000039B069A5A60059B069A1A6001238DF804
:1051500012300BE0069B039A1A60069B029A5A6073
:10516000029B069A1A60039B069A5A609DF81230B9
:10517000002B0CD0019B032283F84020019B1B686D
:10518000022283F8402001238DF8373006E0019B8E
:10519000022283F8402000238DF837309DF8373005
:1051A00018460EB0704700BF68050024740500243F
:1051B00086B000238DF80F302E4B1B680493049BA0
:1051C000B3F94830002B50DC2B4B1B68059343E0B0
:1051D000059B1B68029302E0049B1B680493049BDD
:1051E000002B07D0059B93F83420049B93F83430B0
:1051F0009A42F1D9049B5B680193019B002B17D164
:10520000059B049A1A60059B00225A60049B059A2C
:105210005A60184A059B1360049B022283F84020C1
:10522000059B032283F8402001238DF80F300FE007
:10523000059B049A1A60059B019A5A60019B059A86
:105240001A60049B059A5A60059B022283F840204D
:10525000059B0493029B0593059B002BB8D1064B3D
:1052600000221A60044B00225A609DF80F30184645
:1052700006B07047680500247405002486B00190CC
:10528000019B93F840308DF81730019B0493049BE9
:105290005B680393049B1B680293039B002B1FD145
:1052A000019B93F840302B4ADB0013441B7903F039
:1052B0000803002B0AD0019B1B6F019A92F8402033
:1052C0001146244A52F83120134406E0019B93F81A
:1052D00040301A461F4B53F83230029A1A6002E0EF
:1052E000039B029A1A60029B002B1FD1019B93F82B
:1052F0004030184ADB0013441B7903F00803002BED
:105300000AD0019B1B6F019A92F840201146114A66
:1053100052F83120134406E0019B93F840301A46BE
:105320000C4B53F83230039A5A6002E0029B039A06
:105330005A60049B00221A60049B00225A60019B61
:1053400000221A67019B002283F8402000BF06B0AC
:10535000704700BF980500248AB00190EFF31183D5
:105360000593059BDBB28DF8133080230393039BD9
:1053700083F3118800BF9DF813308DF827300E4B52
:105380001B68013B019A134008930C4B1A68089B59
:105390009B00134400221A609DF827308DF81F30BF
:1053A0009DF81F300693069B83F3118800BF00BF52
:1053B00000BF0AB0704700BF940500249005002488
:1053C00000B585B001900B468DF8033000230393A0
:1053D000019B002B41D0019B1B6B1846FEF7A2FDE1
:1053E000019B1B6B002B04D0019B1B6B1846FFF726
:1053F000B3FF019B9B6E002B05D09DF8033019462F
:10540000019807F0F7FC0198FFF7CAFA0198FEF738
:1054100061FC9DF80330002B16D1019B0293029B87
:10542000D3F8B830002B04D1029B93F8C030002B86
:105430000AD0029B93F8B43043F00403DAB2029B23
:1054400083F8B420039B09E0019B5B6C03F40043E9
:10545000002B02D0019806F0B7FB039B184605B05D
:105460005DF804FB00B58DB00190009100230B9313
:10547000009B002B02D16FF0150340E0224B1B680C
:105480000A93019B002B04D00A9B1B6B019A9A4242
:1054900006D10A9B93F834301A46009B1A602DE01F
:1054A000EFF311830793079BDBB28DF81B3080234A
:1054B0000593059B83F3118800BF9DF81B308DF881
:1054C00027300198FDF7FEFC0890089B002B03D1C4
:1054D0006FF002030B9305E0089B93F834301A46F3
:1054E000009B1A609DF827308DF813309DF813301B
:1054F0000393039B83F3118800BF00BF0B9B1846E7
:105500000DB05DF804FB00BF6805002400B585B050
:105510000190009100990198FFF7A4FF0390039B6D
:10552000002B08DA04F024FB0246039B5B42136065
:105530004FF0FF330393039B184605B05DF804FB5F
:1055400082B00190019B9B6E184602B0704710B567
:1055500082B00190019B9C6E0198FFF7F1FF03461A
:10556000DB882344184602B010BD000010B48BB095
:105570000190019B1B7903F00403002B14BF01234E
:1055800000238DF827309DF82730002B01D0019B98
:1055900000E0019B08939DF82730002B01D0204BA1
:1055A00000E001230793089B0693069B1B68039367
:1055B000039B04939DF82730002B02D0049B002B03
:1055C00028DB9DF8273083F00103DBB2002B02D0EB
:1055D000049B002B1EDB089B0593079B0293029BF9
:1055E0001C46059A04AB1868BFF35B8F52E8001F96
:1055F000814203D142E8004CBCF1000F0CBF0122F4
:105600000022002A00D11960134683F00103DBB2A7
:10561000002BCFD1002318460BB05DF8044B704728
:10562000FEFFFF7F00B589B0019002E0079801F00E
:105630009BFD019B84330693069B1B680593059B8A
:10564000002B0DD0059B1A68069B1A60069B1B68F1
:10565000002B02D1069B00225A60059B00221A6093
:10566000059B0793079B002BE0D102E0079801F010
:105670007BFD019B8C330493049B1B680393039B6A
:10568000002B0DD0039B1A68049B1A60049B1B68B7
:10569000002B02D1049B00225A60039B00221A6057
:1056A000039B0793079B002BE0D1019B74331846A3
:1056B00004F024FD019B7C33184604F00BFD00BF71
:1056C00009B05DF804FB00B589B0019002E00798CD
:1056D00001F0C2FC019B03F502730593059B1B6857
:1056E0000493049B002B0DD0049B1A68059B1A6041
:1056F000059B1B68002B02D1059B00225A60049B6E
:1057000000221A60049B0793079B002BDFD102E065
:10571000069801F0ADFD019B03F504730393039B11
:105720001B680293029B002B0DD0029B1A68039BFF
:105730001A60039B1B68002B02D1039B00225A6056
:10574000029B00221A60029B0693069B002BDFD16E
:1057500000BF00BF09B05DF804FB000000B585B0D4
:1057600001901D4B1B680393019B002B02D1039BEF
:105770001B6B01930198FDF7A5FB0290029B002B88
:1057800002D16FF0020322E0039B5B6C03F0030382
:10579000022B08D0029B5B6C03F00303022B02D1A7
:1057A0006FF00C0313E0039B1B6B019A9A4202D12A
:1057B0000020FEF761FA029800F0BBF90346002BC7
:1057C00001D0002303E0019800F001FA03461846D7
:1057D00005B05DF804FB00BF6805002400B585B086
:1057E00001900091019B9B680393039B002B34D095
:1057F000019B5B6C03F00303012B08D0039B9B6AA6
:10580000002B04D0039B9B6A009A12021A60039B30
:10581000DB68002B21D0039BDB681B68002B1CD1AD
:10582000039B00229A62039B00225A75039B183344
:1058300002AA1146184604F008FB0BE0039B18333C
:10584000184604F0E7FB039B183302AA11461846DA
:1058500004F0FBFA029B002BF0DB00BF05B05DF803
:1058600004FB00B583B001900091019800F012F89C
:10587000FDF7C2FB00990198FFF7B0FFFDF7E0FBD1
:105880000198FFF78DF80198FFF7CCFE00BF03B039
:105890005DF804FB00B583B00190019800F0EAFCCC
:1058A000019800F080FB019801F0AAF8019800F03F
:1058B000BCFC00BF03B05DF804FB00B583B00190F1
:1058C0000091019800F01AFD0246009B9B68194662
:1058D00010460EF0DAFF00BF03B05DF804FB00B520
:1058E00083B001900091019800F008FD009B996839
:1058F000009BDB681A460EF0A2FF0346184603B071
:105900005DF804FB00B587B001900091002305937A
:10591000019800F0F3FC0490009B9B6819460498E2
:105920000EF0B3FF009B03F11401009BDA68009BAB
:105930001B6904980FF03CFE0390039B002B02DAD6
:10594000039B059315E0009B9B68039A9A4210D035
:10595000009B9B681A46039904980EF070FF05900F
:10596000059B002B01DB00230593039904980EF09F
:105970008CFF059B184607B05DF804FB00B587B0A7
:1059800001900091009B1B7803F02003002B0ED0A8
:105990000198FDF797FA0590059B002B07D0059B12
:1059A000009A7433043292E8030083E80300009BFA
:1059B0001B7803F00403002B13D0009B5B78039348
:1059C000009B1B7803F00803002B1BD103AB194687
:1059D000019800F02BFD0490049B002B12DA049B2D
:1059E0001FE0009B1B7803F00803002B0AD003ABD9
:1059F00019460020FFF736FD0490049B002B01DAC6
:105A0000049B0EE0009B1B7803F00803002B07D0DB
:105A1000009B9B78194603AB1A46019800F046FF9D
:105A20000023184607B05DF804FB00B585B001906F
:105A3000009100230293009B039322E0039B1B79B8
:105A4000032B11D0032B15DC012B02D0022B05D028
:105A500010E003990198FFF730FF0FE003990198D8
:105A6000FFF73DFF029009E003990198FFF74AFF15
:105A7000029003E06FF01503029300BF039B1B68C5
:105A80000393039B002B02D0029B002BD6DA029BD0
:105A9000184605B05DF804FB88B0039002911346E8
:105AA0008DF80730039B079336E0079B1B79032B88
:105AB0001FD0032B26DC012B02D0022B09D021E0C2
:105AC000079B0493049B9B68029A9A421CD1002373
:105AD0002CE0079B0593059B9B68029A9A4201D193
:105AE000012323E0059BDB68029A9A420ED1002332
:105AF0001CE0079B0693069B9B68029A9A4207D17B
:105B0000002313E000BF04E000BF02E000BF00E09C
:105B100000BF079B1B680793079B002BC5D19DF80F
:105B20000730002B01D0002300E00123184608B005
:105B3000704700B58DB001900198FFF701FD0B9003
:105B400000238DF82B30EFF311830993099BDBB20F
:105B50008DF8233080230793079B83F3118800BFC0
:105B60009DF823308DF82A30019B5B6C03F40053C1
:105B7000002B1AD10B9B1B7903F00103002B14D0CF
:105B80000B9B1B7943F00403DAB20B9B1A719DF84F
:105B90002A308DF81B309DF81B300593059B83F34D
:105BA000118800BF00BF01230DE09DF82A308DF859
:105BB00013309DF813300393039B83F3118800BFC8
:105BC00000BF9DF82B3018460DB05DF804FB00B502
:105BD0008DB00190EFF311830893089BDBB28DF831
:105BE0001F3080230693069B83F3118800BF9DF826
:105BF0001F308DF82F300198FDF764F90A900A9B49
:105C0000002B05D00A9B5B6C03F48073002B0ED035
:105C10009DF82F308DF817309DF817300493049BB2
:105C200083F3118800BF00BF6FF002032DE00A9BD1
:105C30005B6C43F480720A9B5A640A9B93F8403071
:105C40008DF827300A9800F075FB0A9B9DF82720F5
:105C500083F8402000210A98FFF703FE9DF82F30BB
:105C60008DF80F309DF80F300293029B83F311885B
:105C700000BF00BF0A9B5B6CDBB203F00303DBB227
:105C800019460A98FFF79CFB034618460DB05DF8CD
:105C900004FB00B587B00190019B10330493019B76
:105CA000184603F0AFFF019B0022C3F89C21019B23
:105CB0000022C3F8A02100230593C3E0059A1346F0
:105CC0005B0113449B001A46049B13440433039363
:105CD000039B00221A61039B184603F093FF059A69
:105CE00013465B0113449B001A46049B9918059ABE
