:020000040800F2
:10000000545B002495130008111400081114000813
:10001000111400081114000811140008111400082C
:10002000111400081114000811140008111400081C
:10003000111400081114000811140008D11D000843
:10004000D11D0008D11D0008D11D0008D11D0008D8
:10005000D11D0008D11D0008D11D0008D11D0008C8
:10006000D11D0008D11D0008D11D0008D11D0008B8
:10007000D11D0008D11D0008D11D0008D11D0008A8
:10029000D11D0008D11D000882B0BFF34F8FBFF3FE
:1002A0006F8F0B4B1B680193019B23F0010301939C
:1002B000074A019B136005230193064A019B1360C3
:1002C000BFF34F8FBFF36F8F00BF02B0704700BF07
:1002D00090EF00E094EF00E000B583B0224B009374
:1002E00004E0009B1A1D009200221A60009B1F4A26
:1002F0009342F6D31E4B01931E4B009307E0019AE5
:10030000131D0193009B191D009112681A60009B38
:10031000194A9342F3D300F099FA01F051F800F032
:10032000B5FA412000F09CFAFFF7B6FF02F0A6F9FB
:10033000422000F095FA00F0A9FF00F0C5FF43202D
:1003400000F08EFA00F0B2FE442000F089FA452059
:1003500000F086FA0D2000F083FA0A2000F080FAFF
:1003600004F082FA00BFFDE7000700245457002480
:1003700060B6050800000024F806002482B0184B7F
:100380001B680193019B43F001030193144A019BF5
:100390001360144B01221A60134B00221A60104B99
:1003A0001B680193019A114B13400193019B43F089
:1003B000100301930A4A019B13600D4B0D4A1A600A
:1003C000074B1B680193019B23F480230193044A8C
:1003D000019B1360084B00221A6000BF02B07047F7
:1003E00000440258088100511044025867EFFEEAA9
:1003F0002C4402580000FF016044025882B0044BB4
:100400001B680193024A019B136000BF02B0704752
:10041000D844025882B0044B1B680193024A019BE6
:10042000136000BF02B07047DC44025882B0044B36
:100430001B680193024A019B136000BF02B0704722
:10044000D444025882B0064B1B680193019B43F0D1
:10045000FF030193024A019B136000BF02B0704783
:10046000E044025882B00D4B1B680193019B43F49A
:1004700080430193019B43F480030193074A019B4E
:100480001360074B1B680193019B43F48073019336
:10049000034A019B136000BF02B07047E844025852
:1004A000EC44025882B0064B1B680193019B43F455
:1004B00080530193024A019B136000BF02B0704752
:1004C000F044025882B0044B1B680193024A019B1E
:1004D000136000BF02B07047E444025882B0064B7C
:1004E0001B680193019B43F002030193024A019BA5
:1004F000136000BF02B07047F444025808B5FFF71C
:100500007DFFFFF787FFFFF791FFFFF79BFFFFF7E7
:10051000A9FFFFF7C7FFFFF7D5FFFFF7DFFF00BF1A
:1005200008BD000082B00F4B1B680193019B23F4B0
:1005300080230193019B43F480330193094A019B7B
:100540001360094B009308E0064B1B6803F400336B
:10055000002B0BD1009B013B0093009B002BF3DC95
:1005600005E000BF004402581CC5410000BF009BCD
:10057000002B40F36681934B1B680193019A924BC9
:1005800013400193019B43F0080301938D4A019BA3
:1005900013608E4B1B680193019B23F4E06301936E
:1005A000019B43F040030193884A019B1360874BF2
:1005B0001B680193019B23F4E0630193019B43F4C7
:1005C00080630193814A019B13607E4B1B680193FA
:1005D000019B23F070030193019B43F040030193BF
:1005E000784A019B13607A4B1B680193019B23F0AF
:1005F00070030193019B43F040030193744A019BF4
:100600001360744B0193744A019B1360734B019305
:10061000734A019B1360734B0193734A019B1360F0
:10062000724B0193724A019B1360724B0193724AA1
:10063000019B1360714B1B680193019B43F0807316
:100640000193019B43F080630193019B43F080532E
:1006500001936A4A019B136000BF684B1B6803F05B
:100660000073002BF9D000BF644B1B6803F00063DC
:10067000002BF9D000BF614B1B6803F00053002B27
:10068000F9D05F4B1B680193019B43F00603019374
:100690005B4A019B13605B4B1B680193019B23F436
:1006A00040430193019B43F440430193554A019B0E
:1006B000136000BF534B1B6803F40053002BF9D0A9
:1006C00000BF514B1B6803F40053002BF9D02423C7
:1006D00001934E4A019B13604D4B1B680193019B94
:1006E00023F007030193019B43F003030193484A5E
:1006F000019B136000BF464B1B6803F03803182BA7
:10070000F9D1444B1B680193019B23F4803301937F
:10071000404A019B1360404B1B680193019B23F4EB
:1007200040530193019B43F4005301933A4A019BC8
:1007300013603A4B1B680193019B23F440730193B0
:10074000019B43F400730193344A019B1360344BC3
:100750001B680193019B23F4E0430193304A019B02
:1007600013602F4B1B680193019B23F4E02301933B
:10077000019B43F480330193294A019B1360274B6B
:100780001B680193019B23F0E0430193234A019BE3
:100790001360214B1B680193019B23F440130193C9
:1007A000019B43F4401301931B4A019B13601B4BB5
:1007B0001B680193019B23F440330193174A019B6B
:1007C00030E000BF18440258F0F0FFFF1C4402580C
:1007D00020440258121020002844025863020303E8
:1007E000304402584A0E17023844025863020F0977
:1007F000404402588804FF012C4402580044025827
:100800000C48025818480258044802580020005268
:10081000104402584C440258544402585844025858
:10082000504402581360084B1B680193019B23F04E
:1008300040530193019B43F000530193024A019BF3
:10084000136000BF02B070475044025808B5FFF76C
:1008500095FDFFF767FEFFF751FE00BF08BD0000E2
:1008600082B003468DF8073000BF064B1B6803F0CB
:100870008003002BF9D0044A9DF80730136000BFB5
:1008800002B070471C4800402848004000B583B0C3
:100890004FF4802200211D4800F0CBFC1C4800F0E2
:1008A00025FE1C4800F022FE1B4B1B680193019A99
:1008B00048F28F0313400193174A019B1360174BB3
:1008C0001B680193019A164B13400193134A019B35
:1008D0001360144B1B680193019A134B134001934F
:1008E000104A019B1360114B4FF459721A600B4B65
:1008F0001B680193019B43F00D030193074A019B81
:10090000136000BF03B05DF804FB00BFE844025869
:10091000387C0900397C0900044800400048004048
:1009200003000030084800400000F1FF0C48004080
:1009300082B0EFF311830193019BDBB2184602B042
:10094000704782B00190019B83F3118800BF02B011
:10095000704700B583B0FFF7EBFF03468DF8073013
:100960008020FFF7EEFF9DF80730184603B05DF8D2
:1009700004FB00B583B003468DF807309DF80730BF
:100980001846FFF7DEFF00BF03B05DF804FB82B03E
:1009900001900091019BD3F8A820009B13441B6891
:1009A000184602B0704784B0039002910192039BF5
:1009B000D3F8A820029B13441A46019B136000BF82
:1009C00004B0704700B585B001900B46ADF8023019
:1009D000019BBDF80220A3F8902000210198FFF7A9
:1009E000D6FF0390039B23F4D8730393BDF8023022
:1009F00003F4D873039A13430393039A00210198D5
:100A0000FFF7D1FF08210198FFF7C1FF0390039B77
:100A100023F001030393BDF8023003F00103039AAE
:100A200013430393039A08210198FFF7BCFF00BF0B
:100A300005B05DF804FB00B585B001900B46ADF83C
:100A40000230FFF786FF03468DF80F30BDF8023005
:100A500019460198FFF7B6FF9DF80F301846FFF7CB
:100A600088FF00BF05B05DF804FB00B587B00190BA
:100A70000091FFF76EFF03468DF81730009B002BA7
:100A800017D000210198FFF782FF049008210198F8
:100A9000FFF77DFF0390049B9BB203F4D8739AB2D7
:100AA000039B9BB203F001039BB213439AB2009BDA
:100AB0001A8000210198FFF785FF9DF8173018462E
:100AC000FFF757FF00BF07B05DF804FB00B58BB020
:100AD0000190019BDB6F0693FFF73BFF03468DF808
:100AE000173000210698FFF752FF0890089B03F08B
:100AF00001030493089B23F001030893089A002143
:100B00000698FFF750FF069BD3F8A4305A00069BC7
:100B1000D3F89C305B081A44069BD3F89C30B2FB98
:100B2000F3F30393039B642B08D9039B01335B0806
:100B30000793089B23F4004308930DE0039A4FF6B4
:100B4000F0731340039A520802F00702134307930D
:100B5000089B43F400430893089A00210698FFF786
:100B600022FF079A0C210698FFF71DFF089A394BC0
:100B700013400893069B93F89630012B04D1089BF1
:100B800043F4C063089308E0069B93F89630022B69
:100B900003D1089B43F480630893069B93F8973036
:100BA000092B09D0069B93F89730082B09D1069B97
:100BB00093F89630002B04D0089B43F4805308939D
:100BC0000DE0069B93F89730072B08D1069B93F80E
:100BD0009630002B03D1089B43F080530893089A6A
:100BE00000210698FFF7DFFE04210698FFF7CFFEED
:100BF0000990099B23F440530993069B93F898307E
:100C0000002B03D0099B43F400530993099A042154
:100C10000698FFF7C8FE08210698FFF7B8FE09906E
:100C2000099B23F440730993099A08210698FFF75A
:100C3000BAFE089A049B13431A4600210698FFF750
:100C4000B2FE9DF817301846FFF793FE00BF0BB0B9
:100C50005DF804FBFFE9FFEF00B587B001900B469C
:100C60008DF80330019BDB6F0593059BD3F8A8300B
:100C70000E4A934215D14FF4802304930C4B0393F7
:100C800000BF9DF80330002B05D0049A0021039883
:100C900000F0CFFA06E000220499039800F0C9FAA8
:100CA00000E000BF07B05DF804FB00BF0048004053
:100CB000E844025800B585B00190019BDB6F0293B8
:100CC000002200210298FFF76EFE01210198FFF734
:100CD000C3FF029BD3F8AC30184600F007FC029B20
:100CE000D3F8B030184600F001FC04210298FFF759
:100CF0004EFE0390039B23F47D530393029B93F8D2
:100D00009830002B03D0039B43F400530393039AC2
:100D100004210298FFF747FE00210298FFF737FEF3
:100D20000390039A1F4B13400393039A00210298E8
:100D3000FFF739FE08210298FFF729FE0390039A76
:100D4000194B13400393029B93F895305B06039A6B
:100D500013430393039A08210298FFF724FE019896
:100D6000FFF7B4FE00210298FFF711FE0390039BEA
:100D700043F00D030393039B43F000530393039A43
:100D800000210298FFF70FFE029B0022A3F890209B
:100D9000029B012283F894200023184605B05DF8D9
:100DA00004FB00BF03BEFF33FEF8FFFF00B585B0B4
:100DB0000190019BDB6F0393039B002283F8942037
:100DC00000210398FFF751FE00210198FFF744FF2F
:100DD00000210398FFF7DBFD0290029B23F00D0337
:100DE0000293029A00210398FFF7DDFD039BD3F8DD
:100DF000AC30184600F016FD039BD3F8B03018460F
:100E000000F010FD00BF05B05DF804FB00B585B033
:100E10000190019BDB6F0393039B93F8A030039A2F
:100E20000949184603F058FE0290029B002B05D199
:100E3000039B93F8A030184600F03CFF029B184635
:100E400005B05DF804FB00BF7D0E000800B585B05D
:100E50000190019BDB6F0393039B93F8A03018462E
:100E600000F004FF039B93F8A030002200211846F5
:100E700003F032FE00BF05B05DF804FB00B587B09B
:100E8000039002910192019B05931C210598FFF7A5
:100E90007EFD03469AB2059BA3F89220059BB3F80A
:100EA000923003F02003002B0BD0059BB3F8903059
:100EB00003F02003002B04D0059B18460DF0F6F933
:100EC0000BE0059BB3F8923003F00E03002B04D027
:100ED0000E2220210598FFF766FD059BB3F892309E
:100EE00003F08003002B0AD0059BB3F8903003F089
:100EF0008003002B03D0059B18460DF030F900232A
:100F0000184607B05DF804FB86B003900291019289
:100F1000002305936FF01803059300BF059B184647
:100F200006B0704700B585B001900091019BDB6F62
:100F3000039324210398FFF72AFD0290039BB3F843
:100F400092301A04029B1A43009B1A60039B0022F2
:100F5000A3F89220029BDBB2184605B05DF804FBB3
:100F600000B587B001900B468DF80330019BDB6F15
:100F70000493FFF7EEFC03468DF80F30049BB3F8A3
:100F80009030ADF816309DF80330002B06D0BDF838
:100F9000163043F02003ADF8163007E0BDF81630E8
:100FA00023F4907323F00103ADF81630BDF816302A
:100FB00019460498FFF73FFD9DF80F301846FFF7DC
:100FC000D8FC00BF07B05DF804FB00B585B0019008
:100FD000019BDB6F03931C210398FFF7D8FC0346AA
:100FE00003F02003002B14BF01230023DBB21846BB
:100FF00005B05DF804FB00B585B001900091019B40
:10100000DB6F0393009B1A4628210398FFF7CBFC64
:1010100000BF05B05DF804FB00B585B001900B463C
:101020008DF80330019BDB6F0393FFF792FC0346BF
:101030008DF80B309DF80330002B0DD0039BB3F8D7
:10104000903043F08003ADF80830BDF80830194601
:101050000398FFF7F0FC09E0039BB3F8903023F00E
:1010600080039BB219460398FFF7E5FC9DF80B300F
:101070001846FFF77EFC00BF05B05DF804FB00B525
:1010800085B00190019BDB6F03931C210398FFF750
:101090007EFC034603F08003002B14BF01230023D2
:1010A000DBB2184605B05DF804FB000000B583B064
:1010B0000023019310E00E4A019B52F82330002BCD
:1010C00007D00B4A019B52F8233000211846FFF746
:1010D000CCFC019B01330193019B072BEBD9054B02
:1010E0001846FFF7E7FD00BF03B05DF804FB00BF43
:1010F00004CC04080000002400B587B0002304934A
:10110000214B194621480CF0A3FF1F4B19462048DC
:101110000CF09EFF012304936B4610221D491846D4
:1011200012F0DAFA0023059325E01B4A059B52F8DA
:101130002330002B19D0184A059B52F823309B7896
:10114000002B14D1049B5A1C0492DBB23033DBB267
:101150008DF80930104A059B52F823301A466B4629
:10116000114618460CF074FF02E000BF00E000BF1B
:10117000059B01330593059B072BD6D900BF00BF04
:1011800007B05DF804FB00BF0000002424CC040875
:1011900034CC040840CC040804CC040800B585B065
:1011A00001900B4B03930DF10A0319460398FFF7C7
:1011B0005CFC019BDBB21846FFF752FBBDF80A301E
:1011C00019460398FFF737FC00BF05B05DF804FB34
:1011D0000000002482B0EFF311830193019BDBB286
:1011E000184602B0704782B00190019B83F31188CA
:1011F00000BF02B0704700B583B0FFF7EBFF0346B6
:101200008DF807308020FFF7EEFF9DF80730184675
:1012100003B05DF804FB00B583B003468DF80730DA
:101220009DF807301846FFF7DEFF00BF03B05DF8FA
:1012300004FB00B587B0039002910192FFF7DBFF3A
:1012400003468DF81730039B1B680493029BDB4316
:10125000049A13400493049A019B13430493039B41
:10126000049A1A609DF817301846FFF7D4FF00BFA4
:1012700007B05DF804FB84B00190019BB3FA83F3DF
:101280000393039B184604B07047000082B0BFF37D
:101290004F8FBFF36F8F0A4B00221A60094B1B68F8
:1012A0000193019B43F400330193064A019B1360B1
:1012B000BFF34F8FBFF36F8F00BF02B0704700BF07
:1012C00050EF00E014ED00E000B589B02D4B1B6835
:1012D0000593059B03F48033002B4FD12A4B1B68E9
:1012E0000493049B5B0BC3F30E030793049B03F06F
:1012F000070304330393049BDB08C3F3090302933E
:101300000298FFF7B8FF034603F01F030193BFF3F2
:101310004F8F029B0693069A019B02FA03F319462C
:10132000079A039B02FA03F30B430093174A009BAF
:101330001360069B5A1E0692002BECD1079B5A1E87
:101340000792002BE5D1BFF34F8F114B1B6805931C
:10135000059B43F0040305930D4A059B1360094B5D
:101360001B680593059B43F480330593054A059B51
:101370001360BFF34F8FBFF36F8F00E000BF09B062
:101380005DF804FB14ED00E080ED00E060EF00E0AC
:101390009CEF00E04FF0000EFEF79EBF00BF7047CD
:1013A00082B0EFF314830193019B184602B070479B
:1013B00082B00190019B83F3148800BF02B0704794
:1013C00000B583B0FFF7ECFF0190019B43F00403ED
:1013D00001930198FFF7ECFF0B4B1B680193019BF6
:1013E00023F040430193084A019B1360074B1B689D
:1013F0000193019B43F470030193044A019B136022
:1014000000BF03B05DF804FB34EF00E088ED00E0BE
:10141000EFF30580EFF3148C1EF0040F02D0EFF30E
:10142000098107E0EFF30881A1F1700282F30888D7
:10143000BFF36F8F0A4602F16802EFF311831EF0CB
:10144000100F0CBF21ED108A403921E9FC5F1EF01E
:10145000080F04D0A1F1D80222F0070295468B466E
:1014600000F0D6FCB0E8FC5F1EF0100F0CBFB0EC33
:10147000108A40301EF0040F0CBF80F3088880F300
:10148000098883F311888CF31488704782B0EFF3D6
:1014900011830193019BDBB2184602B0704782B002
:1014A0000190019B83F3118800BF02B0704700B523
:1014B00083B0FFF7EBFF03468DF807308020FFF77E
:1014C000EEFF9DF80730184603B05DF804FB00B549
:1014D00083B003468DF807309DF807301846FFF7B4
:1014E000DEFF00BF03B05DF804FB000000B58FB065
:1014F0000190019B1B0903F00F030793079B072B28
:1015000002D96FF0150386E18A4A079B52F823300F
:101510000693069B002B02D16FF015037BE1019B24
:1015200003F00F030593019B03F44023B3F5402F11
:101530001DD0B3F5402F05D8B3F5802F05D0B3F5F6
:10154000002F11D00023089314E0019B03F4807353
:10155000002B14BF01230023DBB21946019800F0D1
:101560006FF90123089305E00223089302E00323A7
:10157000089300BFFFF79BFF03468DF81330089BCD
:10158000022B05D1019B1B0B03F00F030C9301E011
:1015900000230C93089B022B05D1019B1B0B03F02E
:1015A0000F030B9301E000230B930B9B002B29D01F
:1015B000059B072B04D820230A93059B099304E07D
:1015C00024230A93059B083B0993069A0A9B13441C
:1015D0001B680D93099B9B000F2202FA03F3DB4368
:1015E0001A460D9B13400D93099B9B000B9A02FA20
:1015F00003F30D9A13430D93069A0A9B13441A465C
:101600000D9B1360069B1B680D93059B5B000322DB
:1016100002FA03F3DB431A460D9B13400D93059B1F
:101620005B00089A02FA03F30D9A13430D93069B8D
:101630000D9A1A6000230C93089B032B0FD0019B7B
:1016400003F44033B3F5803F03D0B3F5003F03D03C
:1016500005E001230C9302E002230C9300BF069BDC
:101660000C331B680D93059B5B00032202FA03F306
:10167000DB431A460D9B13400D93059B5B000C9AB0
:1016800002FA03F30D9A13430D93069B0C331A468B
:101690000D9B13600B9B002B29D1059B072B04D8B6
:1016A00020230A93059B099304E024230A93059BB6
:1016B000083B0993069A0A9B13441B680D93099BE8
:1016C0009B000F2202FA03F3DB431A460D9B1340E3
:1016D0000D93099B9B000B9A02FA03F30D9A134397
:1016E0000D93069A0A9B13441A460D9B1360089BA0
:1016F000012B02D0089B022B1ED1019B03F44063F7
:10170000B3F5406F11D0B3F5406F05D8B3F5806FD6
:1017100005D0B3F5006F05D000230C9308E001233A
:101720000C9305E002230C9302E003230C9300BF0B
:1017300004E000BF4CCC040800230C93069B083344
:101740001B680D93059B5B00032202FA03F3DB4346
:101750001A460D9B13400D93059B5B000C9A02FAF1
:1017600003F30D9A13430D93069B08331A460D9B02
:101770001360069B04331B680D930122059B02FA3C
:1017800003F30C93089B012B02D0089B022B09D179
:10179000019B03F40073002B04D00D9A0C9B1343A0
:1017A0000D9304E00C9BDB430D9A13400D93069BB5
:1017B00004331A460D9B1360089B012B25D0019B17
:1017C00003F48073002B20D0059B03F00C02144B14
:1017D00013440393039B1B680D93059B9B0003F02D
:1017E0000C0302930F22029B02FA03F3DB431A4617
:1017F0000D9B13400D93079A029B02FA03F30D9A77
:1018000013430D93039B0D9A1A609DF813301846ED
:10181000FFF75DFE002318460FB05DF804FB00BF24
:101820000804005800B583B00190019BDBB201931E
:101830000198FFF75BFE0346184603B05DF804FB12
:1018400086B001900B468DF80330019B1B0903F015
:101850000F030493049B072B20D8124A049B52F8D1
:1018600023300393039B002B18D0019B03F00F033D
:1018700002939DF80330002B05D00122029B02FA4F
:1018800003F3059305E0029B1033012202FA03F3F0
:101890000593039B18331A46059B136000BF06B0DF
:1018A000704700BF4CCC040886B00190019B1B0917
:1018B00003F00F030593059B072B19D80E4A059BD0
:1018C00052F823300493049B002B11D0019B03F0AA
:1018D0000F030393049B10331B680121039A01FA41
:1018E00002F21340002B14BF01230023DBB200E0FF
:1018F0000023184606B070474CCC040882B0EFF3C2
:1019000011830193019BDBB2184602B0704782B08D
:101910000190019B83F3118800BF02B0704700B5AE
:1019200083B0FFF7EBFF03468DF807308020FFF709
:10193000EEFF9DF80730184603B05DF804FB08B5CC
:101940000020FFF7E4FF62B600BF08BD00B585B018
:10195000039002910192FFF7E2FF054A0549032037
:1019600012F0BAF8044A002100200FF070FD00BF09
:10197000D4CC04086CCC040888CC040800B585B02D
:10198000039002910192FFF7CAFF054A054903201F
:1019900012F0A2F8044A002100200FF058FD00BF09
:1019A000E0CC040890CC040888CC040800B585B0CD
:1019B000039002910192FFF7B2FF054A0549032007
:1019C00012F08AF8044A002100200FF040FD00BF09
:1019D000F0CC0408B0CC040888CC040884B0019092
:1019E000084B1B680393039B23F07F430393019BE6
:1019F0001B06039A13430393024A039B136000BF21
:101A000004B070471CED00E086B003900291019293
:101A10000093039B103B0593039B0F2B56DD059B07
:101A20001F2B0CD8009A3F4B1344029A13600122DB
:101A3000059B02FA03F31A46019B1A606EE0059BB0
:101A40003F2B0DD8009A384B1344029A1360059B24
:101A5000203B012202FA03F31A46019B1A605DE063
:101A6000059B5F2B0DD8009A304B1344029A1360EC
:101A7000059B403B012202FA03F31A46019B1A60C0
:101A80004CE0059B7F2B0DD8009A294B1344029AFA
:101A90001360059B603B012202FA03F31A46019B87
:101AA0001A603BE0059B952B0DD8009A214B1344FF
:101AB000029A1360059B803B012202FA03F31A4647
:101AC000019B1A602AE04FF0FF3328E0029B1A4A7C
:101AD0001A60039B042B04D1019B4FF480321A60DF
:101AE0001CE0039B052B04D1019B4FF400321A60CC
:101AF00014E0039B062B04D1019B4FF480221A6053
:101B00000CE0039B0F2B06D1029B0C4A1A60019B31
:101B100001221A6002E04FF0FF3300E00023184674
:101B200006B0704700E100E004E100E008E100E0F9
:101B30000CE100E010E100E024ED00E010E000E046
:101B400000B585B0384B1B6803F00F0301330193D8
:101B5000019B0293354B039309E0039B4FF0FF3247
:101B60001A60029B013B0293039B04330393029B85
:101B7000002BF2DC2E4B2F4A1A602F4B4FF0803295
:101B80001A602E4B4FF080321A602D4B4FF080328E
:101B90001A60019BDB0002932A4B039309E0039B2D
:101BA0004FF080321A60029B013B0293039B043387
:101BB0000393029B002BF2DC002223490B2002F04E
:101BC0008BFF00222149032002F086FF7020FFF7DF
:101BD00005FF00221E49022002F07EFF00221D495F
:101BE000042002F079FF00221B49052002F074FF57
:101BF00000221A49062002F06FFF002218490E2029
:101C000002F06AFF00F0F4FC002216490C2002F0FA
:101C100063FF00221449002002F05EFFFFF78FFEF1
:101C200000BF05B05DF804FB04E000E080E100E0E7
:101C300008ED00E00000000818ED00E01CED00E0F9
:101C400020ED00E000E400E059210008E51E000856
:101C50004D1900086D1F0008491D00083D220008AD
:101C60007D19000829260008AD19000800B587B0C5
:101C7000019003AA04A980230198FFF7C5FE03463B
:101C8000002B13D1019B0F2B04DD049B1A46039BF1
:101C900013600BE0049B1B680593039BDB43059AD1
:101CA00013400593049B1A46059B136000BF07B0C1
:101CB0005DF804FB00B587B0019003AA04A90023D6
:101CC0000198FFF7A1FE0346002B12D1019B0F2BB9
:101CD00004DD049B1A46039B13600AE0049B1B6807
:101CE0000593039B059A13430593049B1A46059B92
:101CF000136000BF07B05DF804FB82B0019000BF25
:101D000002B0704782B0EFF311830193019BDBB205
:101D1000184602B0704782B00190019B83F311888E
:101D200000BF02B0704700B583B0FFF7EBFF03467A
:101D30008DF807308020FFF7EEFF9DF8073018463A
:101D400003B05DF804FB000000B587B0039002917A
:101D50000192084B1B680593FFF7E5FF029B064ABB
:101D60000021002003F0C2F90023184607B05DF8F7
:101D700004FB00BF28ED00E000CD040882B0EFF3C3
:101D800011830193019BDBB2184602B0704782B009
:101D90000190019B83F3118800BF02B0704700B52A
:101DA00083B0FFF7EBFF03468DF807308020FFF785
:101DB000EEFF9DF80730184603B05DF804FB82B0D3
:101DC000EFF305830193019B184602B070470000B2
:101DD00000B583B0FFF7F3FF034601930198FFF7C7
:101DE0008CFF0021019802F0B3FE074B1A68074BE5
:101DF0001B689A4203D000210E2000F0C5F900BFF5
:101E000003B05DF804FB00BFD80E0024D00E002400
:101E100000B585B0019000911F4B0393039B1B6895
:101E20000293019B0B2B04D1009B70331B68012B89
:101E300003D0029B009AC3F8A0200198FFF75DFF32
:101E4000019B0E2B0AD1029BD3F8A430002B02D0A9
:101E5000029800F0B9F8FFF7A2FF03E0009901989B
:101E600002F076FE0D4B1B680293039B1B680299E0
:101E7000184603F0BFFD039B029A1A60029BD3F839
:101E8000A0300093039B1B680022C3F8A020009B96
:101E9000184605B05DF804FBD80E0024D00E0024CF
:101EA00082B0EFF311830193019BDBB2184602B0BD
:101EB000704782B00190019B83F3118800BF02B08C
:101EC000704700B583B0FFF7EBFF03468DF807308E
:101ED0008020FFF7EEFF9DF80730184603B05DF84D
:101EE00004FB000000B587B00390029101920B4BF8
:101EF0001B6805930A4B1B680493059B03F00203C0
:101F0000002BFFF7DEFF029B064A0021002003F0B2
:101F1000EDF80023184607B05DF804FB2CED00E057
:101F200028ED00E008CD040882B0EFF3118301939F
:101F3000019BDBB2184602B0704782B00190019B52
:101F400083F3118800BF02B0704700B583B0FFF77C
:101F5000EBFF03468DF807308020FFF7EEFF9DF87A
:101F60000730184603B05DF804FB000000B587B0E9
:101F7000039002910192084B1B680593FFF7E5FF60
:101F8000029B064A0021002003F0B0F80023184607
:101F900007B05DF804FB00BF28ED00E010CD040899
:101FA00082B0EFF305830193019B184602B070479E
:101FB00008B5FFF7F5FF0346002B14BF01230023EC
:101FC000DBB2184608BD000000B585B00190FFF7F0
:101FD000EFFF0346002B02D02F4B1B6801E02F4B75
:101FE0001B680393FFF7DCFF0290019A039B9A4260
:101FF0000CD1029B002B09D1019BD3F8A43001988E
:102000009847019B0022C3F8A42040E0019A039B5B
:102010009A4207D1029B0E2B04D000210E2000F023
:10202000B3F834E0019BD3F8A020019BC3F89C20B7
:10203000019BD3F8A030D83B1A46019BC3F8A020DF
:10204000019BD3F8A000019BD3F89C30D8221946FD
:1020500011F091FB019BD3F8A0301A46019BD3F8F5
:10206000A030D8321A60019BD3F8A03088330C4AD4
:102070001A60019BD3F8A030043380221A60019BC0
:10208000D3F8A0308C334FF080721A6000BF00BFCD
:1020900005B05DF804FB00BFD80E0024D00E00246C
:1020A000F520000882B0EFF311830193019BDBB2AE
:1020B000184602B0704782B00190019B83F31188EB
:1020C00000BF02B0704700B583B0FFF7EBFF0346D7
:1020D0008DF807308020FFF7EEFF9DF80730184697
:1020E00003B05DF804FB08B50020FFF7E4FF62B61B
:1020F00000BF08BD00B583B0164B1B680193019B60
:10210000D3F89C30009300BFFFF7EDFF019BD3F89D
:10211000A43001989847FFF7D6FF019BD3F884308D
:10212000002B06D0019B5B6C03F04003002B00D119
:10213000EAE7019B0022C3F8A420019BD3F89C206E
:10214000019BC3F8A020012000DF00BF03B05DF8B1
:1021500004FB00BFD00E002488B0039002910192CE
:10216000029B0793079B1B6F0693069B013B012B6A
:1021700003D8044B1B68059300E000BF00231846FA
:1021800008B07047D00E002400B585B001900091D2
:1021900000230393019B0F2B05DD019BA3F110028C
:1021A000134B1A6020E0019B0F2B10D0019B0F2BCB
:1021B00011DC019B022B06D0019B0E2B0BD14FF0A3
:1021C0008053039308E04FF00043039304E04FF083
:1021D0008063039300E000BF039B002B04D0039AAD
:1021E00000210448FFF725F800BF05B05DF804FBA7
:1021F00000EF00E004ED00E082B0EFF31183019303
:10220000019BDBB2184602B0704782B00190019B7F
:1022100083F3118800BF02B0704700B583B0FFF7A9
:10222000EBFF03468DF807308020FFF7EEFF9DF8A7
:102230000730184603B05DF804FB000000B587B016
:10224000039002910192084B1B680593FFF7E5FF8D
:10225000029B064A0021002002F048FF0023184696
:1022600007B05DF804FB00BF28ED00E018CD0408BE
:1022700000B583B0134B1B681B0B1B0103F030022E
:10228000104B1B681B0903F00F031343009300233B
:10229000019309E0019A0C4B13449B001A4600235A
:1022A0001360019B01330193019A009B9A42F1D381
:1022B000032200210348FEF7BCFF00BF03B05DF816
:1022C00004FB00BF002000E00208003882B0144B7D
:1022D0001B681B0F03F00F0300930023019317E00B
:1022E000019A104B13441B011A4600231360019BF3
:1022F0001A010D4B13441A4600231360019B1A0167
:102300000A4B13441A4600231360019B01330193C7
:10231000019A009B9A42E3D300BF00BF02B070470E
:10232000001000E00201000E241000E0281000E080
:1023300070B586B04E4B1B681B0F03F00F03029362
:102340000023059300230393002304932EE0049BB2
:102350001A01484B13441B680193019B03F08073DF
:10236000002B20D0019B03F00F030093049A424BF3
:1023700013441B011B680593009B072B0FD0009B88
:10238000072B0FD8009B052B03D0009B062B03D0F7
:1023900008E00123039306E00223039303E00323F1
:1023A000039300E000BF049B01330493049A029B53
:1023B0009A42CCD30023049353E03049049A134645
:1023C0009B0013449B000B4404331A68059B9A42FC
:1023D00044D12A49049A13469B0013449B000B44A2
:1023E0001B68039A9A4239D12449049A13469B00E8
:1023F00013449B000B440C331B68002B2ED01F4949
:10240000049A13469B0013449B000B440C331C6836
:102410001A49049A13469B0013449B000B44186806
:102420001649049A13469B0013449B000B44043343
:102430001968124D049A13469B0013449B002B44C9
:1024400008331D680D4E049A13469B0013449B00ED
:10245000334410331B682A46A04706E0049B01332F
:102460000493049B082BA8D900BF00BF06B070BD21
:10247000001000E0281000E00201000EF80800241F
:1024800070B584B001900023039352E02C49039A65
:1024900013469B0013449B000B441B68042B45D13F
:1024A0002749039A13469B0013449B000B440433B3
:1024B0001A68019B9A4239D12149039A13469B001D
:1024C00013449B000B440C331B68002B2ED01C497B
:1024D000039A13469B0013449B000B440C331C6867
:1024E0001749039A13469B0013449B000B4418683A
:1024F0001349039A13469B0013449B000B44043377
:1025000019680F4D039A13469B0013449B002B44FC
:1025100008331D680A4E039A13469B0013449B0020
:10252000334410331B682A46A04706E0039B01335F
:102530000393039B082BA9D900BF00BF04B070BD53
:10254000F808002470B582B00023019346E02749C3
:10255000019A13469B0013449B000B441B68052BF8
:1025600039D12249019A13469B0013449B000B4426
:102570000C331B68002B2ED01C49019A13469B007C
:1025800013449B000B440C331C681849019A1346F2
:102590009B0013449B000B4418681449019A13468E
:1025A0009B0013449B000B44043319680F4D019AA0
:1025B00013469B0013449B002B4408331D680B4EAD
:1025C000019A13469B0013449B00334410331B684D
:1025D0002A46A04706E0019B01330193019B082B8B
:1025E000B5D900BF00BF02B070BD00BFF80800241D
:1025F00008B50A4B1B6803F00103002B01D0002330
:1026000009E0FFF735FEFFF761FE054A00210548A6
:10261000FEF70FFE0023184608BD00BFF0ED00E0F6
:1026200000000101FCED00E000B587B003900291CD
:102630000192114B1B680593029B0493059B03F0C9
:102640000103002B01D0FFF77DFF059B03F0020380
:10265000002B05D0049B88331B681846FFF710FF3A
:10266000059B03F00403002B01D0FFF761FE00235C
:10267000184607B05DF804FB30ED00E008B5AFF395
:10268000008000BF08BD08B500F06AFA00BF08BDB1
:1026900000B583B0002301930A480AF033FB019090
:1026A000019B002B05DA019A0749032011F014FA67
:1026B00003E00649062011F00FFA019B184603B00B
:1026C0005DF804FB20CD040830CD04086CCD04086F
:1026D00000B585B0002303930023009300230F4A25
:1026E0000F4900202BF0ECFB0290029B002B0ADA32
:1026F000029A0C49032011F0EFF9039B002B07D13C
:10270000029B039304E0064A0749062011F0E4F90E
:10271000039B184605B05DF804FB00BFA8CD040874
:10272000B0CD0408B8CD0408DCCD040882B0002385
:102730000193019B184602B07047000000B583B0BA
:102740000023019301F0CEFE0190019B002B05DADE
:10275000019A0749032011F0BFF903E0054906205B
:1027600011F0BAF9019B184603B05DF804FB00BFF5
:10277000F4CD040824CE040800B58BB000230993DF
:102780005149062011F0A8F9002014F04FFB0890E1
:10279000089B002B0BDA089A4C49032011F09CF996
:1027A000099B002B40F08B80089B099387E04849E8
:1027B000062011F091F94749062011F08DF946489D
:1027C000FEF794FE4548FEF791FE434A4449062031
:1027D00011F082F9414A4349062011F07DF9424B3C
:1027E0001B680793414B1B680693414B1B6805937D
:1027F000404B1B680493404B1B6803933F490620E2
:1028000011F06AF9079B1B0A03F00103079A3C4980
:10281000062011F061F9069B1B0F03F00303069AD3
:102820003849062011F058F9059B1B0C03F00302F0
:10283000059B9B0C03F0030300931346059A324952
:10284000062011F049F9049B03F00F02049B1B09B9
:1028500003F00F0300931346049A2C49062011F04D
:102860003BF9039B1B0A03F00102039B5B0A03F085
:10287000010300931346039A2549062011F02CF911
:10288000059B1B0C03F00303022B05D1059B9B0C3E
:1028900003F00303022B03D01E49032011F01CF99F
:1028A000049B03F00F03092B05D1049B1B0903F0C4
:1028B0000F03092B03D01849032011F00DF9099BD0
:1028C00018460BB05DF804FB40CE040868CE04083F
:1028D00094CE0408C0CE040818900800199008008F
:1028E000ECCE04080CCF0408EC44025850440258C3
:1028F0000004025824040258040402582CCF04088F
:1029000044CF040874CF0408A4CF0408E8CF040817
:1029100028D0040864D004088CD0040800B583B023
:102920000023019300F040FD0090009B002B0ADA89
:10293000009A1749032011F0CFF8019B002B06D114
:10294000009B019303E01349062011F0C5F800F045
:102950000DFE0090009B002B05DA009A0E49032023
:1029600011F0BAF803E00D49062011F0B5F800F0B7
:1029700047FA0190019B002B04DA019A08490320D1
:1029800011F0AAF8019B184603B05DF804FB00BFE4
:10299000B4D00408DCD00408F4D0040824D104081E
:1029A0003CD1040800B583B0002301930A4808F025
:1029B00095FC0190019B002B05DA019A0749032041
:1029C00011F08AF803E00649062011F085F8019B12
:1029D000184603B05DF804FB64D1040874D1040800
:1029E000A0D1040882B000230193019B184602B0D5
:1029F000704782B000230193019B184602B07047D4
:102A000000B583B0002301930D4800F04BFE009009
:102A1000009B002B0ADA009A0A49032011F05CF8A7
:102A2000019B002B07D1009B019304E0044A064957
:102A3000062011F051F8019B184603B05DF804FB25
:102A4000CCD10408D8D1040808D2040800B585B058
:102A50000023039300F07CFF0390039B002B19D10C
:102A6000002000F0D3FF0290029B002B12D0002028
:102A700009F0F2F90390039B002B06DA039B002276
:102A80002049032011F028F804E000221E49062006
:102A900011F022F81D49062011F01EF8002001F067
:102AA000B7FA0190019B002B0ADA019A184903201A
:102AB00011F012F8039B002B1ED1019B03931BE026
:102AC000144A1549062011F007F801F0FBFA0190AD
:102AD000019B002B05DA019A1049032010F0FCFF3E
:102AE00003E00F49062010F0F7FF012001F026FB5C
:102AF0000C49062010F0F0FF039B184605B05DF866
:102B000004FB00BF3CD2040864D204088CD2040841
:102B1000B0D20408DCD20408E8D204081CD30408AC
:102B200048D3040874D3040882B000230193019BA6
:102B3000184602B0704782B000230193019B1846EB
:102B400002B0704782B000230193019B184602B087
:102B5000704782B000230193019B184602B0704772
:102B600000B583B0002301937149062010F0B4FF33
:102B70007049062010F0B0FFFFF78AFD0090009B1F
:102B8000002B04D0019B002B01D1009B0193FFF788
:102B90009FFD0090009B002B04D0019B002B01D1D6
:102BA000009B0193FFF7C2FD0090009B002B04D017
:102BB000019B002B01D1009B01935F49062010F07F
:102BC0008BFFFFF7BBFD0090009B002B04D0019B07
:102BD000002B01D1009B0193FFF7A0FE0090009B0A
:102BE000002B04D0019B002B01D1009B0193FFF728
:102BF000C3FD0090009B002B04D0019B002B01D152
:102C0000009B01934D49062010F066FFFFF7CAFEB6
:102C10000090009B002B04D0019B002B01D1009B56
:102C20000193FFF7DFFE0090009B002B04D0019B77
:102C3000002B01D1009B01934149062010F04CFF6D
:102C4000FFF7D7FE0090009B002B04D0019B002BC8
:102C500001D1009B01933B49062010F03DFFFFF797
:102C6000F5FE0090009B002B04D0019B002B01D1AE
:102C7000009B01933449062010F02EFFFFF7C0FEA1
:102C80000090009B002B04D0019B002B01D1009BE6
:102C90000193FFF749FF0090009B002B04D0019B9C
:102CA000002B01D1009B01932849062010F014FF4E
:102CB000FFF741FF0090009B002B04D0019B002BED
:102CC00001D1009B01932249062010F005FFFFF778
:102CD00039FF0090009B002B04D0019B002B01D1F9
:102CE000009B01931B49062010F0F6FEFFF731FF11
:102CF0000090009B002B04D0019B002B01D1009B76
:102D00000193019B002B04D11349062010F0E4FE2F
:102D100008E0019A1149042010F0DEFE1049062057
:102D200010F0DAFE019B184603B05DF804FB00BF0B
:102D300090D30408C4D304080CD4040864D4040851
:102D4000ACD40408ECD4040824D504086CD50408D9
:102D5000B4D50408FCD5040840D604088CD6040871
:102D6000E0D6040882B00190019B022B01D1034BF5
:102D700000E00023184602B0704700BFAC090024F1
:102D800082B00190019B022B01D1034B00E0002394
:102D9000184602B0704700BFB009002482B0034655
:102DA0008DF807309DF80730072B03D99DF80730C1
:102DB000772B01D9002300E00123184602B07047A9
:102DC00084B001900023039312E0039A1346DB00C2
:102DD0009B1A9B001A46019B13441B7E83F0010340
:102DE000DBB2002B01D0039B07E0039B013303936D
:102DF000039B0F2BE9DD6FF00B03184604B07047FF
:102E000008B5022015F09EF80346094A1360084BE6
:102E10001B68002B02D16FF0120306E04FF4E07242
:102E20000021044810F042FC0023184608BD00BFF2
:102E3000AC090024B009002400B589B003900192C8
:102E400000930B468DF80B300398FFF799FF07901E
:102E5000079B002B02D16FF0150355E09DF80B3056
:102E60001846FFF79BFF034683F00103DBB2002BFC
:102E700002D06FF0150347E0002306930CE0069A9A
:102E80001346DB009B1A9B001A46079B13441B7ECC
:102E9000002B069B01330693069B0F2BEFDD079853
:102EA000FFF78EFF0590059B002B02DA6FF00B03F6
:102EB0002AE0059A1346DB009B1A9B001A46079BE3
:102EC00013440493049B9DF80B201A70049B019AF1
:102ED0005A60049B01221A76009B002B0AD0049BA7
:102EE00008330F220099184610F07EFD049B002243
:102EF000DA7508E0049B03F108009DF80B30044AE2
:102F000010210EF0B2FF0023184609B05DF804FB53
:102F10002CD7040800B585B001900B468DF803301E
:102F20000198FFF72DFF0290029B002B02D16FF05A
:102F3000150331E00023039329E0039A1346DB00D5
:102F40009B1A9B001A46029B13441B7E002B1BD02E
:102F5000039A1346DB009B1A9B001A46029B1344FC
:102F60001B789DF803209A420ED1039A1346DB008A
:102F70009B1A9B001A46029B13441C2200211846F0
:102F800010F094FB002307E0039B01330393039BA2
:102F90000F2BD2DD6FF00103184605B05DF804FB7E
:102FA00000B585B001900198FFF7DCFE0390039B0C
:102FB000002B01D1002307E0039B1B68002B01D1EC
:102FC000002301E0039B1B68184605B05DF804FB75
:102FD00000B58BB001900091009B00221A60019B0C
:102FE000002B08D1009B6FF015021A600023E8E067
:102FF000019B01330193019B1B78202BF8D0019B8F
:103000001B78092BF4D0019810F0B7FC0790079BB0
:10301000022B02D9079B042B05D9009B6FF01502E8
:103020001A600023CDE0019B1B78502B05D0009B3C
:103030006FF015021A600023C3E0019B01331B7877
:103040008DF81B309DF81B30402B03D99DF81B30A9
:10305000482B05D9009B6FF015021A600023B0E0E1
:10306000019B0233059303AB0A22194605980EF023
:1030700035FF0490039B1B78002B05D1049B002B8C
:1030800002DB049B0F2B05DD009B6FF015021A601D
:10309000002396E09DF81B30413B072B2AD801A264
:1030A00052F823F0C5300008CB300008D1300008BA
:1030B000D7300008DD300008E3300008E9300008B0
:1030C000EF300008002309931AE01023099317E05A
:1030D0002023099314E03023099311E0402309933E
:1030E0000EE0502309930BE06023099308E070235E
:1030F000099305E0009B6FF015021A60002360E061
:10310000049B0F2B52D801A252F823F04D31000836
:1031100053310008593100085F310008653100085B
:103120006B31000871310008773100087D310008EB
:1031300083310008893100088F310008953100087B
:103140009B310008A1310008A73100080023089333
:1031500032E0012308932FE0022308932CE003239D
:10316000089329E00423089326E00523089323E02D
:103170000623089320E0072308931DE00823089303
:103180001AE00923089317E00A23089314E00B239D
:10319000089311E00C2308930EE00D2308930BE035
:1031A0000E23089308E00F23089305E0009B6FF0BF
:1031B00015021A60002304E0099A089B1A43034B86
:1031C000134318460BB05DF804FB00BF0009040070
:1031D00082B00190019B012B03D0019B022B02D0F6
:1031E00003E0044B02E0044B00E00023184602B069
:1031F000704700BF700B0024700C002482B0019057
:10320000019B012B03D0019B022B02D003E0044B56
:1032100002E0044B00E00023184602B0704700BFF4
:10322000F00B0024F00C002400B589B0039002914B
:1032300013468DF80730029B06930398FFF7C8FFEB
:103240000590059B002B40D0029BB3F5803F03D334
:10325000029B9BB2069308E0029B0F2B05D9059BAE
:103260005B79002B33D000230693069BDB00059A85
:1032700013440493049B5B7983F00103DBB2002BBE
:1032800027D1049B1B79002B12D09DF80730002B0F
:1032900014BF01230023DBB283F00103DBB28DF8FE
:1032A0001F309DF81F3003F001038DF81F3003E03D
:1032B0009DF807308DF81F30049B1B689DF81F2078
:1032C00011461846FEF7BCFA04E000BF02E000BF5A
:1032D00000E000BF09B05DF804FB000000B58DB050
:1032E0000790069113468DF81730069B0B930798AD
:1032F000FFF784FF0A900A9B002B43D0069BB3F58F
:10330000803F03D3069B9BB20B9302E0069B0F2BDF
:103310003AD80B9BDB000A9A13440993099B1B794B
:1033200083F00103DBB2002B30D1099B1A689DF8B2
:103330001730002B14BF01230023DBB283F00103FD
:10334000DBB203F00103DBB219461046FEF778FA50
:103350009DF81730002B01D00E4B00E00E4B9DF86E
:103360001720002A01D00D4A00E00D4A099909688A
:103370000291019200930B9B079A0A49062010F0D4
:10338000ABFB04E000BF02E000BF00E000BF0DB0F7
:103390005DF804FB28D8040830D8040838D804089D
:1033A0003CD8040844D8040808B5802200210A4803
:1033B00010F07CF980220021084810F077F9802273
:1033C0000021074810F072F980220021054810F012
:1033D0006DF90023184608BD700B0024F00B002483
:1033E000700C0024F00C002400B58BB00390029107
:1033F00001928DF803300398FFF7EAFE0990099BCC
:10340000002B02D16FF0150336E0029B0F2B02D97F
:103410006FF0150330E0029BDB00099A1344089318
:10342000089B5B79002B02D06FF00F0324E005AB03
:1034300019460198FFF7CCFD0790059B002B01D0A2
:10344000059B19E00798FEF751F80690069B002BA4
:1034500001DA069B10E09DF8033019460798FEF745
:10346000EFF9089B079A1A60089B9DF803201A71D0
:10347000089B01225A71002318460BB05DF804FB2B
:1034800000B58BB00390029101920398FFF7B6FE4E
:103490000990099B002B02D16FF0150330E0029BCD
:1034A0000F2B02D96FF015032AE0029BDB00099A6B
:1034B00013440893089B1B79002B02D06FF00F0375
:1034C0001EE005AB19460198FFF782FD0790059BAA
:1034D000002B01D0059B13E00798FEF707F8069034
:1034E000069B002B01DA069B0AE001210798FEF7F4
:1034F000A7F9089B079A1A60089B01221A710023FA
:1035000018460BB05DF804FB00B585B00190009142
:103510000198FFF75DFE0390039B002B02D16FF033
:1035200015031EE0009B0F2B02D96FF0150318E066
:10353000009BDB00039A13440293029B5B7983F0A8
:103540000103DBB2002B02D06FF0010309E0029B04
:1035500000221A60029B00221A71029B00225A71FB
:103560000023184605B05DF804FB000000B585B0E7
:1035700000230393012015F009F90290029B002B10
:1035800011D0012102980BF07DF80390039B002BD2
:1035900005DA039A1349032010F09EFA03E012495A
:1035A000062010F099FA022015F0F0F80190019B26
:1035B000002B11D0022101980BF064F80390039BBB
:1035C000002B05DA039A0949032010F085FA03E07D
:1035D0000749062010F080FA039B184605B05DF8F5
:1035E00004FB00BF70D8040894D80408B4D80408B9
:1035F000D8D8040800B585B00390029113468DF821
:1036000007309DF807301A4602990120FFF70CFE9B
:1036100000BF05B05DF804FB82B00190009101236A
:10362000184602B0704700B585B00390029113466A
:103630008DF807309DF807301A4602990120FFF7F0
:103640004DFE0023184605B05DF804FB00B585B0BB
:103650000390029113468DF807309DF807301A4603
:1036600002990220FFF7E0FD00BF05B05DF804FB02
:1036700082B0019000910123184602B0704700B556
:1036800085B00390029113468DF807309DF80730FE
:103690001A4602990220FFF721FE0023184605B0C2
:1036A0005DF804FB00B589B00390039B002B01D0AB
:1036B000039B00E02C4B0793079B00930023012200
:1036C0002A49062010F008FA0123294A0021012086
:1036D000FFF78AFE0690069B002B06DA069A25491C
:1036E000032010F0F9F9069B3AE0234B0193204B9D
:1036F0000093002301222149062010F0EDF901205A
:1037000015F044F80590059B002B0BD101221C49B4
:10371000032010F0E1F900210120FFF7F5FE6FF022
:1037200012031DE001221749062010F0D5F9059972
:1037300007980DF003F80690069B002B0ADA069A0C
:103740001149032010F0C8F900210120FFF7DCFE29
:10375000069B05E0079A0D49062010F0BDF90023ED
:10376000184609B05DF804FBF8D8040804D9040829
:103770003CD9040840D90408B4D9040878D904080D
:10378000C0D90408E4D9040808DA040838DA0408BF
:1037900000B58BB003460A468DF80F3013468DF8FE
:1037A0000E301D4B1B68002B02D16FF012032FE06F
:1037B00000238DF810309DF80F308DF811309DF8F2
:1037C0000E308DF81230154B05933C23ADF81830B0
:1037D0000023ADF81A3004AB0793032308930E4B74
:1037E0001B681B681B680C4A106805A901229847D2
:1037F0000990099B002B0ADA9DF80F209DF80E1006
:10380000099B00930B460649032010F065F9099BBC
:1038100018460BB05DF804FB700D0024801A0600FA
:10382000CCDA040800B589B00390039B002B02DAC0
:103830000023039304E0039B642B01DD64230393C3
:10384000039A13461B029B1A394A82FB0312521138
:10385000DB17D31A8DF81F30039A1346DB009B1A2F
:103860005B00334A82FB03125211DB17D31ADBB21F
:1038700001338DF81E30039A1346DB009B1A5B0060
:103880002B4A82FB03125211DB17D31ADBB201332E
:103890008DF81D309DF91D301B015AB29DF91E3067
:1038A00013435BB28DF81C30039A13465B0013443C
:1038B0001B011F4A82FB03125211DB17D31A8DF82A
:1038C0001B309DF81F109DF81C309DF81B200192A5
:1038D00000930B46039A1749062010F0FDF89DF857
:1038E0001F3019468120FFF753FF0590059B002BE1
:1038F00001DA059B18E09DF81C301946D920FFF726
:1039000047FF0590059B002B01DA059B0CE09DF815
:103910001B301946DB20FFF73BFF0590059B002B72
:1039200001DA059B00E00023184609B05DF804FBAE
:103930001F85EB51FCDA040882B00190019B002B3B
:1039400001DC002300E00123184602B070470000AC
:1039500000B583B02249062010F0BEF802222149AA
:10396000062010F0B9F83C221F49062010F0B4F8E8
:103970001E4A1F49062010F0AFF801221D490620FB
:1039800010F0AAF81C4B194A3C210220FFF754FA08
:103990000190019B002B04DA019A1849042010F0D1
:1039A0009BF80220FFF7FCFA0346154A1360144BFC
:1039B0001B68002B0BD102221249032010F08CF857
:1039C0003C210220FFF7A6FA6FF0120304E00E4933
:1039D000062010F081F80023184603B05DF804FBC0
:1039E0003CDB040860DB04087CDB0408801A06006A
:1039F00098DB0408B8DB0408D8DB0408E0DB040823
:103A0000700D002418DC040848DC040800B585B0FB
:103A10000190284B1B68002B05D12749032010F08B
:103A20005BF8002341E0254B1B68002B02D0234BA1
:103A30001B683AE0019B02222149062010F04CF855
:103A40001C4B1B68019A0021184608F003FE034630
:103A50001A4A1360194B1B68002B05D11949032022
:103A600010F03AF8002320E01749062010F034F84F
:103A70000120FFF761FF0390039B002B0FDD13492B
:103A8000062010F029F80D4B1B68DB680B4A126802
:103A90000399104698470120FFF7C4FE03E00C4944
:103AA000062010F019F8054B1B68184605B05DF8A4
:103AB00004FB00BF700D002468DC0408740D0024B2
:103AC000B4DC0408DCDC04080CDD040838DD040880
:103AD00058DD040800B585B001900091019800F010
:103AE00033FA0390039B002B01DA039B10E000994B
:103AF000019800F07BFA0290029B002B02D16FF03C
:103B0000150305E0029A009901980BF011FD034698
:103B1000184605B05DF804FB00B58BB0019000912C
:103B2000009B00221A60019B002B08D1009B6FF0C4
:103B300015021A600023E8E0019B01330193019B09
:103B40001B78202BF8D0019B1B78092BF4D001980F
:103B50000FF013FF0790079B022B02D9079B042B42
:103B600005D9009B6FF015021A600023CDE0019B80
:103B70001B78502B05D0009B6FF015021A600023B4
:103B8000C3E0019B01331B788DF81B309DF81B307F
:103B9000402B03D99DF81B30482B05D9009B6FF0B3
:103BA00015021A600023B0E0019B0233059303ABBA
:103BB0000A22194605980EF091F90490039B1B7890
:103BC000002B05D1049B002B02DB049B0F2B05DD92
:103BD000009B6FF015021A60002396E09DF81B30E1
:103BE000413B072B2AD801A252F823F00D3C0008D4
:103BF000133C0008193C00081F3C0008253C000845
:103C00002B3C0008313C0008373C00080023099396
:103C10001AE01023099317E02023099314E03023BE
:103C2000099311E0402309930EE0502309930BE020
:103C30006023099308E07023099305E0009B6FF06F
:103C400015021A60002360E0049B0F2B52D801A2DA
:103C500052F823F0953C00089B3C0008A13C00086A
:103C6000A73C0008AD3C0008B33C0008B93C000884
:103C7000BF3C0008C53C0008CB3C0008D13C000814
:103C8000D73C0008DD3C0008E33C0008E93C0008A4
:103C9000EF3C00080023089332E0012308932FE053
:103CA000022308932CE00323089329E004230893BC
:103CB00026E00523089323E00623089320E007234A
:103CC00008931DE0082308931AE00923089317E0DE
:103CD0000A23089314E00B23089311E00C230893A4
:103CE0000EE00D2308930BE00E23089308E00F234A
:103CF000089305E0009B6FF015021A60002304E0B2
:103D0000099A089B1A43034B134318460BB05DF8FE
:103D100004FB00BF0009040000B583B03049062051
:103D20000FF0DAFE6B4619462E48FFF7F5FE034604
:103D30002D4A1360009B002B07D0009B294A2B497A
:103D400003200FF0C9FE009B45E0274B1B68184677
:103D5000FDF7CCFB0190019B002B06DA019A244968
:103D600003200FF0B9FE019B35E06B461946214850
:103D7000FFF7D2FE0346204A1360009B002B07D0BA
:103D8000009B1C4A1D4903200FF0A6FE009B22E069
:103D9000194B1B681846FDF7A9FB0190019B002BEE
:103DA00006DA019A164903200FF096FE019B12E0F5
:103DB0000D4B1B6801211846FDF742FD0E4B1B6899
:103DC00000211846FDF73CFD0A4B064A0D49062026
:103DD0000FF082FE0023184603B05DF804FB00BF1D
:103DE0007CDE0408A0DE0408780D0024A4DE0408AC
:103DF000C8DE0408F4DE04087C0D0024F8DE0408A4
:103E00001CDF040844DF040808B5134906200FF03E
:103E100063FE124B1B6801211846FDF711FD42F2AB
:103E2000107001F011FF0D4B1B6800211846FDF7C3
:103E300007FD42F2107001F007FF084B1B680121DB
:103E40001846FDF7FDFC064801F0FEFE0549062078
:103E50000FF042FE00BF08BD70DF0408780D00249B
:103E6000C0D4010098DF040800B585B02C490620B5
:103E70000FF032FE2B4B00932B4B02222B490620D6
:103E80000FF02AFE264906200FF026FEFFF7BCFFA2
:103E90000123254A00210220FFF7A6FA0390039B85
:103EA000002B06DA039A224903200FF015FE039B2C
:103EB00031E01C4A00210220FFF7E2FA0390039B45
:103EC000002B0ADA039A1B4903200FF005FE00219C
:103ED0000220FFF719FB039B1DE0022014F056FCA3
:103EE0000346154A1360144B1B68002B0BD10222AA
:103EF000124903200FF0F0FD00210220FFF704FB20
:103F00006FF0120307E00E4906200FF0E5FD0D4BA0
:103F100001221A700023184605B05DF804FB00BFAB
:103F2000B0DF040804E00408DCDF0408E0DF040874
:103F300008E004082CE00408840D002450E0040884
:103F400074E00408800D002400B583B00190019A4C
:103F50001E4906200FF0C0FD1D4B1B7883F00103A6
:103F6000DBB2002B03D11B4B1B68002B06D11A4977
:103F700003200FF0B1FD6FF0120322E0019B002B34
:103F800007D0019A154903200FF0A6FD6FF0150325
:103F900017E0104B1B68184608F046FE0346104A0F
:103FA00013600F4B1B68002B06D10E4903200FF046
:103FB00093FD6FF0120304E00B4906200FF08CFD17
:103FC0000023184603B05DF804FB00BF90E004082E
:103FD000800D0024840D0024B0E00408D0E0040823
:103FE000880D0024ECE0040814E1040882B001907C
:103FF0000091019B002B02D1009B002B01D00023DC
:1040000001E0024B1B68184602B07047880D00247F
:1040100000B585B00190254906200FF05DFD2449CB
:1040200006200FF059FD214906200FF055FDFFF73E
:1040300073FE0390039B002B06DA039A1D490320AD
:104040000FF04AFD039B2DE0FFF70EFF0390039B4B
:10405000002B06DA039A184903200FF03DFD039B5D
:1040600020E000210020FFF735FD0390039B002B8B
:104070000ADA039A114903200FF02EFD00210220D5
:10408000FFF742FA039B0DE0084906200FF024FDDC
:10409000019A0B4906200FF01FFD044906200FF07E
:1040A0001BFD0023184605B05DF804FBB0DF0408D3
:1040B00058E104087CE104089CE10408B8E1040824
:1040C000DCE1040800B583B0194B1B68002B04D059
:1040D000174B1B681B69002B06D1164903200FF0F4
:1040E000FBFC6FF012031FE00023ADF8003000234B
:1040F000ADF802304FF4F073ADF804304FF4A07314
:10410000ADF80630BDF804301A46BDF806300A494D
:1041100006200FF0E1FC064B1B681B69044A12687D
:104120006946104698470346184603B05DF804FBFD
:10413000880D002400E2040828E2040800B583B0DA
:1041400003468DF807300C4B1B689DF8072011467D
:104150001846FDF775FB9DF80730002B01D0074B83
:1041600000E0074B1A46074906200FF0B5FC00BFD8
:1041700003B05DF804FB00BF7C0D00245CE2040882
:1041800060E2040864E2040800B587B0039002917D
:104190000192019B0593059B1B6C0598059A92F86B
:1041A0003C20114698470023184607B05DF804FBF1
:1041B00000B585B001900091019B0393064B184612
:1041C000FDF772FB03461A46009B1A70002318463F
:1041D00005B05DF804FB00BF2D01020000B585B0FD
:1041E00001900091019B0393039B93F83C301A4686
:1041F000074B53F822301846FDF756FB03461A4684
:10420000009B1A700023184605B05DF804FB00BF40
:104210004CE3040800B585B001900B468DF80330DF
:10422000019B0393039B93F83C301A46064B53F8CB
:1042300022309DF8032011461846FDF701FB0023AC
:10424000184605B05DF804FB4CE3040800B585B0E2
:1042500001900091019B039345231846FDF724FB31
:1042600003461A46009B1A700023184605B05DF8F5
:1042700004FB00B587B003900291039B0593452092
:10428000002301930023009300230022002111F05A
:10429000F7F9059B029A1A640023184607B05DF8E7
:1042A00004FB000000B587B003900B468DF80B307F
:1042B000039B05939DF80B30002B1AD0059B1B6CBC
:1042C000002B02D16FF015031EE04520059B93F8EB
:1042D0003C301A4613461B0113449B000C4A1344FE
:1042E00001930C4B009300230022012111F0C8F927
:1042F00009E04520002301930023009300230022BE
:10430000002111F0BDF90023184607B05DF804FB49
:104310008C0E00248941000800B585B0019000236F
:104320000293002303932BE0194A039B9B01134440
:1043300000221A70164A039B9B0113443433154A1A
:104340001A60039BD9B2124A039B9B0113443C336E
:104350000A461A70039B9B010D4A9818019B1B6823
:10436000591C019A1160194607F0CAFA0A4B1846FF
:10437000FDF7BCF8029B01330293039B01330393C7
:10438000039B002BD0DD029B184605B05DF804FBB3
:104390008C0D002410E304082D01020000B585B047
:1043A0000190002302930023039336E01F4A039BEE
:1043B0009B01134403221A701C4A039B9B01134464
:1043C00034331B4A1A60039BD9B2184A039B9B01E2
:1043D00013443C330A461A70039B9B01134A9818F6
:1043E000019B1B68591C019A1160194607F088FA55
:1043F000104A039B52F8233000211846FDF720FA9B
:104400000C4A039B52F823301846FDF76FF8029BC5
:1044100001330293039B01330393039B022BC5DDFE
:10442000029B184605B05DF804FB00BFCC0D0024CC
:1044300024E304084CE3040800B585B00190002390
:1044400002930023039341E02449039A13461B017E
:1044500013449B000B4405221A702049039A13460B
:104460001B0113449B000B4434331D4A1A60039B09
:10447000D8B21A49039A13461B0113449B000B44FC
:104480003C3302461A701549039A13461B01134424
:104490009B000B44403300221A60039A13461B0111
:1044A00013449B000D4A9818019B1B68591C019AE4
:1044B0001160194607F024FA45231846FDF716F84F
:1044C000029B01330293039B01330393039B002B55
:1044D000BADD029B184605B05DF804FB8C0E002483
:1044E00038E3040800B583B0002301930023009350
:1044F0006B461846FFF710FF0246019B13440193D9
:104500006B461846FFF74AFF0246019B134401938E
:104510006B461846FFF790FF0246019B1344019338
:104520000023184603B05DF804FB000082B0254B61
:104530000193019B00221A60019B00221A71019BCA
:104540000833214A1A60019B083301221A71019B2A
:1045500010331E4A1A60019B103305221A71019B09
:1045600018331A4A1A60019B183305221A71019BED
:104570002033174A1A60019B203300221A71019BD5
:10458000283308221A60019B283309221A71019BE3
:104590003033104A1A60019B303300221A71019B9C
:1045A000383300221A60019B383309221A71019BAB
:1045B000403308221A60019B403309221A7100BF60
:1045C00002B07047000F0024DC0E0024D00E00243F
:1045D000EC0E0024E40E002400B585B0AC220021CE
:1045E0007A480FF063F800230393E5E0039BAC22C5
:1045F00002FB03F3754A13440293029B039A1A6366
:10460000029B032283F84020029B0122A3F848204A
:10461000029B6F4A9A63029B6D4ADA63029B0222F5
:104620005A64029B0193019B00225A60029B93F8FB
:104630004030684ADB0013441B7903F00803002B69
:104640000AD0029B1B6F029A92F840201146614AE1
:1046500052F83120134406E0029B93F840301A468A
:104660005C4B53F832301A68019B1A60029B93F836
:104670004030584ADB0013441B7903F00803002B39
:104680000AD0029B1B6F029A92F840201146514AB1
:1046900052F83120134406E0029B93F840301A464A
:1046A0004C4B53F832301B68002B3ED1029B93F8E1
:1046B0004030484ADB0013441B7903F00803002B09
:1046C0000AD0029B1B6F029A92F840201146414A81
:1046D00052F83120134406E0029B93F840301A460A
:1046E0003C4B53F83230019A1A60029B93F84030E9
:1046F000384ADB0013441B7903F00803002B0AD06F
:10470000029B1B6F029A92F840201146314A52F8E0
:104710003120134406E0029B93F840301A462D4B9B
:1047200053F83230019A5A603EE0029B93F84030D1
:10473000284ADB0013441B7903F00803002B0AD03E
:10474000029B1B6F029A92F840201146214A52F8B0
:104750003120134406E0029B93F840301A461D4B6B
:1047600053F832301B68019A5A60029B93F840302C
:10477000184ADB0013441B7903F00803002B0AD00E
:10478000029B1B6F029A92F840201146114A52F880
:104790003120134406E0029B93F840301A460D4B3B
:1047A00053F83230019A1A600B49039B029A41F880
:1047B0002320039B01330393039B002B7FF716AF4A
:1047C00000BF00BF05B05DF804FB00BF4C0F002424
:1047D00069480008000F0024D80E002400B585B0F9
:1047E0000023039331E0039BAC2202FB03F31B4A3B
:1047F000134402931A4B1B68013B039A1340019325
:10480000184B1A68019B9B001344029A1A60029B82
:104810005B6CDBB21946029802F072FF029801F05D
:104820003BFF029B002283F8A820029814F0AEF907
:10483000029802F02DFA029802F0B4FF029B9B68E6
:1048400003221A72039B01330393039B002BCADDDF
:1048500000BF00BF05B05DF804FB00BF4C0F002493
:10486000FC0E0024F80E002400B585B03A4B01225E
:104870001A70FFF75BFEFFF7AFFE374B02221A708C
:1048800006F046FC01AA02AB1146184610F07EFD68
:10489000029B019A114618460FF090FB0FF002FCA4
:1048A0001023039302E0039B5B000393039B012B04
:1048B000F9DD039B9B0018460FF0DAFB0346274AFD
:1048C0001360274A039B1360FFF788FF254B0022E4
:1048D0001A60214B03221A7000F0B2F826F040F85B
:1048E00000F0B0F802F016FC02F000F801F05EF9FA
:1048F00000F00EFE1EF072F92CF0A2FC14F002F88B
:1049000006F008FC144B04221A700023039313E0F2
:10491000039B002B0BDD039BAC2202FB03F3124A2B
:10492000134401220021184603F0C0F801E003F00F
:104930009BF8039B01330393039B002BE8DD064B9D
:1049400005221A7000F06AF8034B06221A7000F074
:104950006BFF14F011F9FCE7480F0024F80E002457
:10496000FC0E0024F40E00244C0F002408B502F0C5
:10497000BDFB00BF08BD000000B58BB0002308934D
:10498000FDF781FE03AB18460DF030FA64238DF875
:104990000D304FF40063069303AA0023019308AB84
:1049A0000093134600220649064801F025FF0990AE
:1049B00003AB18460DF053FA00BF0BB05DF804FBD3
:1049C000598C010858E3040800B583B001900091A8
:1049D000FFF7D2FF0023184603B05DF804FB000088
:1049E00000B587B002F026FC034603930023029330
:1049F000084B01934FF4006300930023F02202213F
:104A0000054801F0ABF90346059300BF07B05DF818
:104A100004FB00BFC949000864E3040808B501228B
:104A20000549064802F012FDFFF7A0FFFFF7D8FF87
:104A30000023184608BD00BF70E3040874E30408AF
:104A400000BF704700B583B00023019307E0084A18
:104A5000019B084942F83310019B01330193019BEC
:104A6000A52BF4DDFDF76CF800BF03B05DF804FB87
:104A7000F80F0024ED4B000882B0EFF3118301938F
:104A8000019BDBB2184602B0704782B00190019BD7
:104A900083F3118800BF02B0704700B583B0FFF701
:104AA000EBFF03468DF807308020FFF7EEFF9DF8FF
:104AB0000730184603B05DF804FB00B583B0034629
:104AC0008DF807309DF807301846FFF7DEFF00BF6E
:104AD00003B05DF804FB000000B589B003900291BB
:104AE00001926FF015030793039BA52B27D8039B17
:104AF0000693069B002B01DA069B21E0FFF7CDFF12
:104B000003468DF81730029B002B06D10398FDF762
:104B1000ADF80D4B0293002301930C49069B029ABA
:104B200041F83320094A069BDB001344019A5A607E
:104B30009DF817301846FFF7C0FF00230793079B27
:104B4000184609B05DF804FBED4B0008F80F00248F
:104B500000B587B001900091114B05930023049399
:104B6000019B0393019BA52B10D8039B0D4A52F880
:104B70003330002B0AD0039B0A4A52F83330059396
:104B8000039B084ADB0013445B680493059B049A6B
:104B900000990198984700BF07B05DF804FB00BF7B
:104BA000ED4B0008F80F002482B0EFF3118301935E
:104BB000019BDBB2184602B0704782B00190019BA6
:104BC00083F3118800BF02B0704700B583B0FFF7D0
:104BD000EBFF03468DF807308020FFF7EEFF9DF8CE
:104BE0000730184603B05DF804FB000000B585B03F
:104BF000039002910192FFF7E8FF039B044A0549E5
:104C000003200EF069FF044A002100200CF01FFC75
:104C100094E3040878E304088CE3040882B0EFF31B
:104C200011830193019BDBB2184602B0704782B03A
:104C30000190019B83F3118800BF02B0704700B55B
:104C400083B0FFF7EBFF03468DF807308020FFF7B6
:104C5000EEFF9DF80730184603B05DF804FB00B581
:104C600083B003468DF807309DF807301846FFF7EC
:104C7000DEFF00BF03B05DF804FB82B0EFF30583F5
:104C80000193019B184602B0704784B00190019BCC
:104C90000393039B1B68184604B0704708B5FFF7E1
:104CA000ECFF0346002B14BF01230023DBB21846A0
:104CB00008BD0000F0B58FB00B900A910B9B0D93CF
:104CC00062E00D9B0C930D9B09930C9B0A9A9A42F0
:104CD00002D90C9B1B6800E000230C9A0432114699
:104CE0000A9A8A4202D90C9A526800E000220C9972
:104CF000083108460A99814202D90C99896800E076
:104D000000210C980C3004460A98A04202D90C9855
:104D1000C06800E000200C9C103425460A9CAC4280
:104D200002D90C9C246900E000240C9D14352E4609
:104D30000A9DB54202D90C9D6D6900E000250C9ECC
:104D4000183637460A9EBE4202D90C9EB66900E06C
:104D500000260C9F1C37BC460A9F674502D90C9F52
:104D6000FF6900E0002707970696059504940390D5
:104D7000029101920093099B074A084901200EF015
:104D8000ABFE0D9B20330D930D9A0A9B9A4298D946
:104D900000BF00BF0FB0F0BDF0E50408E0E3040879
:104DA00000B587B00390029101920093019A009B95
:104DB00013440593039B194A194901200EF08CFEF8
:104DC000019B164A174901200EF086FE009B134AEC
:104DD000154901200EF080FE029B002B12D0029B91
:104DE0000E4A124901200EF077FE029B203B019AE9
:104DF0009A4202D8029B203B029305990298FFF742
:104E000059FF06E0019A009B134419460198FFF7E9
:104E100051FF00BF07B05DF804FB00BFFCE50408CC
:104E200014E4040824E4040834E4040848E404080E
:104E300000B58BB00390029100230493039BDB6EBB
:104E40000793039B5B6E0693079A069B1344059397
:104E50000023099300238DF82330029A079B9A427E
:104E600006D3029A059B9A4202D2029B099308E05C
:104E700001238DF82330029B0B4A0C4901200EF0D0
:104E80002BFE099B002B03D19DF82330002B07D06C
:104E900000230093069B079A09990548FFF780FFB6
:104EA00000BF0BB05DF804FB0CE6040858E40408EE
:104EB0008CE40408F0B5ADB0119010911BAB40220A
:104EC000002118460EF0F2FB1BAB40221946119848
:104ED00000F0E4FE13AB20221946119800F048FDC3
:104EE00013AB2C2118460EF0A8FC2B902B9B002B0B
:104EF00002D02B9B20221A70119B1B6B0D93119BD0
:104F00009B68002B03D0119B9B681B6801E04FF04E
:104F1000FF33119A92F834200E92119A526CD208F3
:104F200002F003021A4951F822200F921199496C9C
:104F300001F00301174850F821101198406C00F45B
:104F40008070002801D0502000E02D20119CA46F1B
:104F5000119D6D6F119EF66E119F7F6E1BAA0B92B5
:104F60000D4A0A92099708960795069413AC059482
:104F7000049003910F9A02920E9A019200930D9B56
:104F8000064A074901200EF0A7FD00BF2DB0F0BD75
:104F9000D0E50408E0E50408DCE4040818E60408A9
:104FA00094E4040808B5054A054901200EF094FD73
:104FB0000021044800F08AFB00BF08BD24E6040875
:104FC000E8E40408B54E000800B583B001900091F4
:104FD000009813F0E7FC0098FFF757FE03461946C8
:104FE0000198FFF725FF00BF03B05DF804FB000048
:104FF00000B5B1B0099008910792069300232F9352
:10500000099B9B68002B0CD0099B5B6C03F003038E
:10501000022B06D0099B9B681B68184600F0E8FA33
:105020002F900AAB18460CF00BFB0AAA0AAB7D3393
:1050300003930AAB4A3302930AAB353301930AABAD
:10504000153300931346184A184901200EF044FD09
:10505000069B002B01D0069A00E0154A089B002B06
:1050600001D0089B00E0124B2F99002901D0114973
:1050700000E011490998C06B049003910D49029119
:105080000799019100931346074A0C4901200EF03D
:1050900023FD32990998FFF797FF09F02DFB00BF18
:1050A00031B05DF804FB00BF30E6040858E50408A1
:1050B00080E50408DCE4040884E504088CE50408C1
:1050C00000B585B00390029101920093FFF76AFF4B
:1050D00009F012FB09F010FB00BF05B05DF804FBFE
:1050E00008B5FA2002F08DF8FBE7000000B58FB09C
:1050F0000590049103920293464B1B78DBB2042B7C
:105100008CBF012300238DF83630FFF7C7FD03461F
:10511000002B02D0404B1B6801E0404B1B680C93F6
:105120003C4B1B78DBB2072B01D1FFF7D9FF0023E3
:105130008DF837309DF83630002B06D0FFF77FFD15
:1051400003468DF8373000F00DFBFFF7A7FD03464F
:10515000002B05D10C9B5B6C03F00303022B02D1E7
:105160002C4B07221A70029B002B05D12C4810F003
:10517000EBF82B4B029304E0D822029928480EF05A
:10518000FAFA0C9B0793029B0893059B0A93049BD6
:105190000B93039B09931F4B1B78DBB2072B14BFA8
:1051A00001230023DBB21A4607AB1946104600F074
:1051B00069F809F0A1FA029B0093039B049A0599F0
:1051C0000C98FFF715FF134B1B78DBB2072B12D19E
:1051D000029B0093039B049A05990C98FFF770FFBC
:1051E00007AB1946022000F04DF80021022000F024
:1051F000F3F8FFF775FF9DF83630002B06D09DF8C9
:1052000037301846FFF72BFD00F00EFB00BF0FB044
:105210005DF804FB480F0024D80E0024D00E0024B3
:105220003015002482B0EFF311830193019BDBB2B0
:10523000184602B0704782B00190019B83F3118839
:1052400000BF02B0704700B583B0FFF7EBFF034625
:105250008DF807308020FFF7EEFF9DF807301846E5
:1052600003B05DF804FB00B583B003468DF807304A
:105270009DF807301846FFF7DEFF00BF03B05DF86A
:1052800004FB000000B589B0019000911A4B059312
:10529000FFF7D9FF03468DF813304FF0FF33069325
:1052A00000230393059B1B68079315E0079B5B682E
:1052B0000293079B1B68009A019907989847039BE4
:1052C000002B04D0039B1B685A1C039B1A60029B93
:1052D0000793069B013B0693079B002B02D0069B7E
:1052E000002BE3D19DF813301846FFF7BCFF00BF39
:1052F00009B05DF804FB00BF0816002482B0EFF38C
:1053000011830193019BDBB2184602B0704782B053
:105310000190019B83F3118800BF02B0704700B574
:1053200083B0FFF7EBFF03468DF807308020FFF7CF
:10533000EEFF9DF80730184603B05DF804FB00B59A
:1053400083B003468DF807309DF807301846FFF705
:10535000DEFF00BF03B05DF804FB000000B589B0BC
:1053600001901C4B0593FFF7DAFF03468DF81330CD
:10537000059B0793019B03930023069313E0079B70
:105380001B68039A9A4203D16FF0100306930EE054
:10539000039B9A68079B1B689B689A4207DC079BE4
:1053A0001B6804330793079B1B68002BE7D1069B00
:1053B000002B06D1079B1A68039B5A60079B039A30
:1053C0001A609DF813301846FFF7B9FF00BF09B007
:1053D0005DF804FB0C16002400B589B00190009123
:1053E0001A4B0593FFF79BFF03468DF813304FF0E0
:1053F000FF33069300230393059B1B68079315E077
:10540000079B5B680293079B1B68009A01990798AA
:105410009847039B002B04D0039B1B685A1C039BDB
:105420001A60029B0793069B013B0693079B002B88
:1054300002D0069B002BE3D19DF813301846FFF7EE
:105440007EFF00BF09B05DF804FB00BF0C1600240E
:1054500088B00390029111461A460B46ADF806300B
:1054600013468DF80530002307931DE0029B069339
:10547000069B9DF805201A72039B0593069B0493D7
:10548000059B1A68049B1A60049B059A5A60059B49
:105490001B68049A5A60059B049A1A60029B2C337D
:1054A0000293079B01330793BDF80630079A9A428F
:1054B000DCDB029B184608B0704788B0039002916D
:1054C0001346ADF806300023079317E0039B0693BD
:1054D000029B0593069B1A68059B1A60059B069A1A
:1054E0005A60069B1B68059A5A60069B059A1A60CB
:1054F000029B30330293079B01330793BDF80630BC
:10550000079A9A42E2DB029B184608B070470000F7
:1055100000B585B01A4B03931A4B0293029B029A73
:105520005A60029B5A68029B1A6000230822039962
:105530001448FFF78DFF0390134B0193019B019AD1
:105540005A60019B5A68019B1A6002230822039942
:105550000D48FFF77DFF03900C4B0093009B009AD2
:105560005A60009B5A68009B1A60082203990748FA
:10557000FFF7A3FF039000BF05B05DF804FB00BF79
:10558000201600241016002418160024601A002487
:1055900082B0EFF311830193019BDBB2184602B096
:1055A000704782B00190019B83F3118800BF02B065
:1055B000704700B583B0FFF7EBFF03468DF8073067
:1055C0008020FFF7EEFF9DF80730184603B05DF826
:1055D00004FB00B583B003468DF807309DF8073013
:1055E0001846FFF7DEFF00BF03B05DF804FB0000C4
:1055F00000B587B0019000230593FFF7DAFF03465B
:105600008DF81330174B1B68002B21D0019B002B0A
:105610001EDB154B1B68013B019A13400393114B92
:105620001A68039B9B0013441B68002B10D00D4B82
:105630001A68039B9B0013441B681B6B019A9A42D8
:1056400006D1084B1A68039B9B0013441B68059303
:105650009DF813301846FFF7BCFF059B184607B0AE
:105660005DF804FBF80E0024FC0E002482B0EFF37A
:1056700011830193019BDBB2184602B0704782B0E0
:105680000190019B83F3118800BF02B0704700B501
:1056900083B0FFF7EBFF03468DF807308020FFF75C
:1056A000EEFF9DF80730184603B05DF804FB00B527
:1056B00083B003468DF807309DF807301846FFF792
:1056C000DEFF00BF03B05DF804FB000000B585B04D
:1056D00001900091FFF7DBFF03468DF80B3000F0DF
:1056E00041F80023039314E0124B1A68039B9B00BC
:1056F00013441B68002B09D00E4B1A68039B9B00B8
:1057000013441A68019B009910469847039B013384
:105710000393094B1B68039A9A42E5DB00F084F877
:105720009DF80B301846FFF7C2FF00BF05B05DF8CB
:1057300004FB00BFF80E0024FC0E002482B0EFF33F
:1057400005830193019B184602B0704708B5FFF727
:10575000F5FF0346002B14BF01230023DBB21846DC
:1057600008BD000000B583B0FFF7F0FF034683F0EB
:105770000103DBB2002B0FD0094B1B680193019B87
:10578000002B09D0019BB3F948309BB201339BB287
:105790001AB2019BA3F8482000BF03B05DF804FBD8
:1057A000D00E002482B0EFF311830193019BDBB292
:1057B000184602B0704782B00190019B83F31188B4
:1057C00000BF02B0704700B583B0FFF7EBFF0346A0
:1057D0008DF807308020FFF7EEFF9DF80730184660
:1057E00003B05DF804FB00B583B003468DF80730C5
:1057F0009DF807301846FFF7DEFF00BF03B05DF8E5
:1058000004FB82B0EFF305830193019B184602B0BD
:10581000704708B5FFF7F5FF0346002B14BF0123BF
:105820000023DBB2184608BD00B585B0FFF7F1FFD5
:10583000034683F00103DBB2002B4AD0274B1B68E1
:105840000193019B002B3BD0019BB3F94830012B06
:1058500036D1FFF7B8FF03468DF80F30019B0022C9
:10586000A3F848201E4B1B680293029B002B0ED00E
:1058700000F0C6F80346002B09D0FFF7CAFF034625
:1058800083F00103DBB2002B01D0022000DF019B7B
:105890005B6C03F01803082B0BD1019BDB6C002B16
:1058A00007D10E4B1A68019B9A4202D0019B142229
:1058B000DA649DF80F301846FFF795FF00BF08E047
:1058C000019BB3F9482092B2013A92B212B2A3F806
:1058D000482000BF05B05DF804FB00BFD00E0024D7
:1058E000DC0E002484B00190019B1B6823F0004370
:1058F0000393039A054B1340044A934201D0039B40
:1059000001E04FF0FF33184604B07047FEFFFF7F01
:1059100082B0EFF311830193019BDBB2184602B012
:10592000704782B00190019B83F3118800BF02B0E1
:10593000704700B583B0FFF7EBFF03468DF80730E3
:105940008020FFF7EEFF9DF80730184603B05DF8A2
:1059500004FB00B583B003468DF807309DF807308F
:105960001846FFF7DEFF00BF03B05DF804FB000040
:1059700000B587B0039002910192FFF7DAFF03466A
:105980008DF81730039B93F84030052B18D1039BFB
:105990001B6F1B7903F00403002B11D0039B1B6FBB
:1059A0001846FFF79FFF04909DF817301846FFF741
:1059B000D0FF049B0D4A019902980CF056FA11E0B1
:1059C0009DF817301846FFF7C4FF039B93F840304B
:1059D0001A46074B53F82230019A194602980DF0E7
:1059E0007BFE00BF00BF07B05DF804FBC0E6040803
:1059F000D4E6040882B00190009100BF02B0704765
:105A000086B000238DF80F302E4B1B680493049B47
:105A1000B3F94830002B50DC2B4B1B68059343E057
:105A2000059B1B68029302E0049B1B680493049B84
:105A3000002B07D0059B93F83420049B93F8343057
:105A40009A42F1D9049B5B680193019B002B17D10B
:105A5000059B049A1A60059B00225A60049B059AD4
:105A60005A60184A059B1360049B022283F8402069
:105A7000059B032283F8402001238DF80F300FE0AF
:105A8000059B049A1A60059B019A5A60019B059A2E
:105A90001A60049B059A5A60059B022283F84020F5
:105AA000059B0493029B0593059B002BB8D1064BE5
:105AB00000221A60044B00225A609DF80F301846ED
:105AC00006B07047D00E0024DC0E002486B0039090
:105AD000029111461A460B46ADF8063013468DF872
:105AE00005300023059320E0029B9DF805201A77DE
:105AF000029B03F1200202920493049B00221A608D
:105B0000039B1B68002B06D1039B049A1A60039B1E
:105B1000049A5A6006E0039B5B68049A1A60039B30
:105B2000049A5A60059B01330593BDF80630059A27
:105B30009A42D9DB029B184606B0704786B00390A4
:105B4000029111461A460B46ADF8063013468DF801
:105B500005300023059320E0029B9DF805201A756F
:105B6000029B03F1180202920493049B00221A6024
:105B7000039B1B68002B06D1039B049A1A60039BAE
:105B8000049A5A6006E0039B5B68049A1A60039BC0
:105B9000049A5A60059B01330593BDF80630059AB7
:105BA0009A42D9DB029B184606B0704700B583B015
:105BB0001F4B01931F4B00221A601E4B00225A609C
:105BC0001D4B00221A601C4B00225A601B4B002206
:105BD0001A601A4B00225A60194B00221A60184BA7
:105BE00000225A60174B00221A60164B00225A609E
:105BF0000023042201991048FFF768FF0190022357
:105C0000082201990D48FFF761FF0190002304224B
:105C100001990B48FFF792FF019002230822019996
:105C20000848FFF78BFF019000BF03B05DF804FB4D
:105C3000901A0024681A0024701A0024781A00248C
:105C4000801A0024881A002400B587B00190002330
:105C50000593019B002B18D0019B0E4AA2FB032346
:105C60009B0C0493049B0293049B0B4A02FB03F3DB
:105C7000019AD31A4FF47A7202FB03F3039302AB37
:105C80000021184602F067FE0590059B184607B0F4
:105C90005DF804FB83DE1B4340420F0000B58BB070
:105CA00005900491039200230993059B002B06D0D5
:105CB000039B002B03D0059B1B6B002B04DC049B78
:105CC00000221A70002340E0059B5B6C03F0030385
:105CD000012B13D1059B0793079BDA6B079BD3F826
:105CE000B030009313461B4A039904980CF0BDF89A
