:020000040800F2
:10000000E41F002445130008A9130008A9130008E1
:10001000A9130008A9130008A9130008A9130008D0
:10002000A9130008A9130008A9130008A9130008C0
:10003000A9130008A9130008A9130008A11C0008AF
:10004000A11C0008A11C0008A11C0008A11C00089C
:10005000A11C0008A11C0008A11C0008A11C00088C
:10006000A11C0008A11C0008A11C0008A11C00087C
:10007000A11C0008A11C0008A11C0008A11C00086C
:10029000A11C0008A11C000882B0BFF34F8FBFF360
:1002A0006F8F0B4B1B680193019B23F0010301939C
:1002B000074A019B136005230193064A019B1360C3
:1002C000BFF34F8FBFF36F8F00BF02B0704700BF07
:1002D00090EF00E094EF00E000B583B0224B009374
:1002E00004E0009B1A1D009200221A60009B1F4A26
:1002F0009342F6D31E4B01931E4B009307E0019AE5
:10030000131D0193009B191D009112681A60009B38
:10031000194A9342F3D300F05DFA01F019F800F0A6
:1003200079FA412000F060FAFFF7B6FF02F0AAF870
:10033000422000F059FA00F081FF00F09DFF4320B9
:1003400000F052FA00F0A8FE442000F04DFA4520DB
:1003500000F04AFA0D2000F047FA0A2000F044FAB3
:1003600003F066FA00BFFDE7A0030024E41B0024AD
:10037000B0610208000000249803002482B0184BEA
:100380001B680193019B43F001030193144A019BF5
:100390001360144B01221A60134B00221A60104B99
:1003A0001B680193019A114B13400193019B43F089
:1003B000100301930A4A019B13600D4B0D4A1A600A
:1003C000074B1B680193019B23F480230193044A8C
:1003D000019B1360084B00221A6000BF02B07047F7
:1003E00000440258088100511044025867EFFEEAA9
:1003F0002C4402580000FF016044025882B0044BB4
:100400001B680193024A019B136000BF02B0704752
:10041000D844025882B0044B1B680193024A019BE6
:10042000136000BF02B07047DC44025882B0044B36
:100430001B680193024A019B136000BF02B0704722
:10044000D444025882B0064B1B680193019B43F0D1
:10045000FF030193024A019B136000BF02B0704783
:10046000E044025882B0094B1B680193019B43F49E
:1004700080430193054A019B1360054B1B68019360
:10048000034A019B136000BF02B07047E844025862
:10049000EC44025882B0044B1B680193024A019B52
:1004A000136000BF02B07047F044025882B0044BA2
:1004B0001B680193024A019B136000BF02B07047A2
:1004C000E444025882B0064B1B680193019B43F041
:1004D00002030193024A019B136000BF02B0704700
:1004E000F444025808B5FFF789FFFFF793FFFFF7C1
:1004F0009DFFFFF7A7FFFFF7B5FFFFF7CBFFFFF764
:10050000D5FFFFF7DFFF00BF08BD000082B00F4B33
:100510001B680193019B43F480230193019B43F4E7
:1005200080330193094A019B1360094B009308E053
:10053000064B1B6803F40033002B0BD1009B013BDF
:100540000093009B002BF3DC05E000BF0044025841
:100550001CC5410000BF009B002B40F30F81894B5D
:100560001B680193019A884B13400193019B43F050
:1005700008030193834A019B1360844B1B6801931A
:10058000019B23F4E0630193019B43F0500301932B
:100590007E4A019B13607D4B1B680193019B23F4F2
:1005A000E0630193019B43F4A0630193774A019BAD
:1005B0001360744B1B680193019B23F0700301933C
:1005C000019B43F0500301936E4A019B1360704BF3
:1005D0001B680193019B23F070030193019B43F07F
:1005E000500301936A4A019B136042F22203019374
:1005F000684A019B1360684B0193684A019B136032
:1006000044F6C7630193664A019B1360002301937C
:10061000644A019B1360644B0193644A019B13601D
:10062000634B1B680193019B43F080730193019B13
:1006300043F0806301935E4A019B136000BF5C4BF3
:100640001B6803F00073002BF9D000BF584B1B68E8
:1006500003F00063002BF9D0564B1B680193019BFC
:1006600043F006030193534A019B1360524B1B68EE
:100670000193019B23F440430193019B43F44043C6
:1006800001934D4A019B136000BF4B4B1B6803F461
:100690000053002BF9D000BF484B1B6803F40053F4
:1006A000002BF9D024230193454A019B1360454B4D
:1006B0001B680193019B23F007030193019B43F007
:1006C000030301933F4A019B136000BF3D4B1B682E
:1006D00003F03803182BF9D13B4B1B680193019BA6
:1006E00023F440530193019B43F400530193364A92
:1006F000019B1360354B1B680193019B23F44073EE
:100700000193019B43F400730193304A019B1360F2
:100710002F4B1B680193019B23F4E04301932C4A68
:10072000019B13602A4B1B680193019B23F4E02378
:100730000193274A019B1360244B1B680193019B83
:1007400023F0E0430193214A019B13601E4B1B6879
:100750000193019B23F440130193019B43F4401345
:100760000193194A019B1360184B1B680193019B6D
:1007700023F440330193154A019B136000BF02B07C
:10078000704700BF18440258F0F0FFFF1C440258A5
:100790002044025828440258C70203073044025834
:1007A000384402584044025888000F002C44025834
:1007B000004402580C48025818480258044802588D
:1007C0000020005210440258544402585844025821
:1007D0005044025808B5FFF7D1FDFFF797FEFFF729
:1007E00081FE00BF08BD000082B003468DF80730CF
:1007F00000BF064B1B6803F08003002BF9D0044AAE
:100800009DF80730136000BF02B070471C480040DD
:100810002848004000B583B04FF4802200211D48D5
:1008200000F0CEFC1C4800F0FDFD1C4800F0FAFD75
:100830001B4B1B680193019A48F28F0313400193ED
:10084000174A019B1360174B1B680193019A164BC3
:1008500013400193134A019B1360144B1B680193CF
:10086000019A134B13400193104A019B1360114BE3
:100870004FF4D9721A600B4B1B680193019B43F034
:100880000D030193074A019B136000BF03B05DF89D
:1008900004FB00BFE8440258387C0900397C090099
:1008A0000448004000480040030000300848004071
:1008B0000000F1FF0C48004082B001900091019BC4
:1008C000D3F8A820009B13441B68184602B0704759
:1008D00084B0039002910192039BD3F8A820029B5D
:1008E00013441A46019B136000BF04B0704700B563
:1008F00085B001900B46ADF80230019BBDF8022097
:10090000A3F8902000210198FFF7D6FF0390039BE6
:1009100023F4D8730393BDF8023003F4D873039A19
:1009200013430393039A00210198FFF7D1FF082195
:100930000198FFF7C1FF0390039B23F0010303938A
:10094000BDF8023003F00103039A13430393039AA3
:1009500008210198FFF7BCFF00BF05B05DF804FB5C
:1009600000B589B001900B46ADF80230EFF311836A
:100970000593059BDBB28DF8133080230393039B13
:1009800083F3118800BF9DF813308DF81F30BDF838
:10099000023019460198FFF7AAFF9DF81F308DF825
:1009A0001E309DF81E300693069B83F3118800BF0E
:1009B00000BF00BF09B05DF804FB00B58BB001902B
:1009C0000091EFF311830693069BDBB28DF817308D
:1009D00080230493049B83F3118800BF9DF8173094
:1009E0008DF82730009B002B17D000210198FFF7CE
:1009F00063FF089008210198FFF75EFF0790089BAE
:100A00009BB203F4D8739AB2079B9BB203F0010325
:100A10009BB213439AB2009B1A8000210198FFF702
:100A200066FF9DF827308DF80F309DF80F30029348
:100A3000029B83F3118800BF00BF00BF0BB05DF8BD
:100A400004FB000000B58FB00190019BDB6F0A939F
:100A5000EFF311830693069BDBB28DF817308023EA
:100A60000493049B83F3118800BF9DF817308DF821
:100A7000273000210A98FFF71FFF0C900C9B03F012
:100A8000010308930C9B23F001030C930C9A0021A3
:100A90000A98FFF71DFF0A9BD3F8A4305A000A9B5F
:100AA000D3F89C305B081A440A9BD3F89C30B2FB05
:100AB000F3F30793079B642B08D9079B01335B086B
:100AC0000B930C9B23F400430C930DE0079A4FF615
:100AD000F0731340079A520802F0070213430B9376
:100AE0000C9B43F400430C930C9A00210A98FFF7E7
:100AF000EFFE0B9A0C210A98FFF7EAFE0C9A3D4B89
:100B000013400C930A9B93F89630012B04D10C9B55
:100B100043F4C0630C9308E00A9B93F89630022BD1
:100B200003D10C9B43F480630C930A9B93F897309A
:100B3000092B09D00A9B93F89730082B09D10A9BFF
:100B400093F89630002B04D00C9B43F480530C9305
:100B50000DE00A9B93F89730072B08D10A9B93F876
:100B60009630002B03D10C9B43F080530C930C9ACE
:100B700000210A98FFF7ACFE04210A98FFF79CFEBB
:100B80000D900D9B23F440530D930A9B93F89830DE
:100B9000002B03D00D9B43F400530D930D9A0421B9
:100BA0000A98FFF795FE08210A98FFF785FE0D9039
:100BB0000D9B23F440730D930D9A08210A98FFF7BB
:100BC00087FE0C9A089B13431A4600210A98FFF7E8
:100BD0007FFE9DF827308DF80F309DF80F3002937F
:100BE000029B83F3118800BF00BF00BF0FB05DF808
:100BF00004FB00BFFFE9FFEF00B587B001900B4693
:100C00008DF80330019BDB6F0593059BD3F8A8306B
:100C10000E4A934215D14FF4802304930C4B039357
:100C200000BF9DF80330002B05D0049A00210398E3
:100C300000F0C6FA06E000220499039800F0C0FA1A
:100C400000E000BF07B05DF804FB00BF00480040B3
:100C5000E844025800B585B00190019BDB6F029318
:100C6000002200210298FFF733FE01210198FFF7CF
:100C7000C3FF029BD3F8AC30184600F0D3FB029BB5
:100C8000D3F8B030184600F0CDFB04210298FFF7EE
:100C900013FE0390039B23F47D530393029B93F86D
:100CA0009830002B03D0039B43F400530393039A23
:100CB00004210298FFF70CFE00210298FFF7FCFDCB
:100CC0000390039A1F4B13400393039A0021029849
:100CD000FFF7FEFD08210298FFF7EEFD0390039A4F
:100CE000194B13400393029B93F895305B06039ACC
:100CF00013430393039A08210298FFF7E9FD019833
:100D0000FFF7A0FE00210298FFF7D6FD0390039B9A
:100D100043F00D030393039B43F000530393039AA3
:100D200000210298FFF7D4FD029B0022A3F8902037
:100D3000029B012283F894200023184605B05DF839
:100D400004FB00BF03BEFF33FEF8FFFF00B585B014
:100D50000190019BDB6F0393039B002283F8942097
:100D600000210398FFF729FE00210198FFF744FFB7
:100D700000210398FFF7A0FD0290029B23F00D03D2
:100D80000293029A00210398FFF7A2FD039BD3F878
:100D9000AC30184600F0F4FC039BD3F8B030184692
:100DA00000F0EEFC00BF05B05DF804FB00B585B0B7
:100DB0000190019BDB6F0393039B93F8A030039A90
:100DC0000949184602F030FE0290029B002B05D123
:100DD000039B93F8A030184600F016FF029B1846BC
:100DE00005B05DF804FB00BF1D0E000800B585B01E
:100DF0000190019BDB6F0393039B93F8A03018468F
:100E000000F0DEFE039B93F8A0300022002118467C
:100E100002F00AFE00BF05B05DF804FB00B587B024
:100E2000039002910192019B05931C210598FFF705
:100E300043FD03469AB2059BA3F89220059BB3F8A5
:100E4000923003F02003002B0BD0059BB3F89030B9
:100E500003F02003002B04D0059B18460AF02AFC5F
:100E60000BE0059BB3F8923003F00E03002B04D087
:100E70000E2220210598FFF72BFD059BB3F8923039
:100E800003F08003002B0AD0059BB3F8903003F0E9
:100E90008003002B03D0059B18460AF064FB002357
:100EA000184607B05DF804FB86B0039002910192EA
:100EB000002305936FF01803059300BF059B1846A8
:100EC00006B0704700B585B001900091019BDB6FC3
:100ED000039324210398FFF7EFFC0290039BB3F8E0
:100EE00092301A04029B1A43009B1A60039B002253
:100EF000A3F89220029BDBB2184605B05DF804FB14
:100F000000B58BB001900B468DF80330019BDB6F71
:100F10000893EFF311830693069BDBB28DF817302D
:100F200080230493049B83F3118800BF9DF817303E
:100F30008DF81F30089BB3F89030ADF826309DF83F
:100F40000330002B06D0BDF8263043F02003ADF867
:100F5000263007E0BDF8263023F4907323F0010318
:100F6000ADF82630BDF8263019460898FFF7F8FC92
:100F70009DF81F308DF80F309DF80F300293029BC3
:100F800083F3118800BF00BF00BF0BB05DF804FB06
:100F900000B585B00190019BDB6F03931C21039882
:100FA000FFF78AFC034603F02003002B14BF012344
:100FB0000023DBB2184605B05DF804FB00B585B030
:100FC00001900091019BDB6F0393009B1A4628213F
:100FD0000398FFF77DFC00BF05B05DF804FB00B58A
:100FE0008BB001900B468DF80330019BDB6F0993AA
:100FF000EFF311830793079BDBB28DF81B3080233F
:101000000593059B83F3118800BF9DF81B308DF875
:1010100023309DF80330002B0DD0099BB3F890309E
:1010200043F08003ADF82030BDF820301946099810
:10103000FFF796FC09E0099BB3F8903023F080039A
:101040009BB219460998FFF78BFC9DF823308DF869
:1010500013309DF813300393039B83F3118800BF73
:1010600000BF00BF0BB05DF804FB00B585B0019078
:10107000019BDB6F03931C210398FFF71DFC0346C4
:1010800003F08003002B14BF01230023DBB21846BA
:1010900005B05DF804FB000000B583B000230193A8
:1010A00010E00E4A019B52F82330002B07D00B4A68
:1010B000019B52F8233000211846FFF77EFC019B6C
:1010C00001330193019B072BEBD9054B1846FFF722
:1010D000C1FD00BF03B05DF804FB00BFA8290208F2
:1010E0000000002400B587B000230493214B19466B
:1010F00021480AF0A9F91F4B194620480AF0A4F923
:10110000012304936B4610221D4918460DF0C4FDBF
:101110000023059325E01B4A059B52F82330002B42
:1011200019D0184A059B52F823309B78002B14D114
:10113000049B5A1C0492DBB23033DBB28DF80930C9
:10114000104A059B52F823301A466B461146184642
:101150000AF07AF902E000BF00E000BF059B01330E
:101160000593059B072BD6D900BF00BF07B05DF8DC
:1011700004FB00BF00000024C8290208D829020887
:10118000E4290208A829020800B585B001900B4B9C
:1011900003930DF10A0319460398FFF70EFC019B18
:1011A000DBB21846FFF720FBBDF80A30194603985A
:1011B000FFF7D6FB00BF05B05DF804FB000000247C
:1011C0008CB0039002910192EFF311830793079B78
:1011D000DBB28DF81B3080230593059B83F31188C8
:1011E00000BF9DF81B308DF82F30039B1B680A93BE
:1011F000029BDB430A9A13400A930A9A019B13430A
:101200000A93039B0A9A1A609DF82F308DF82730B5
:101210009DF827300893089B83F3118800BF00BF17
:1012200000BF0CB0704784B00190019BB3FA83F308
:101230000393039B184604B07047000082B0BFF3CD
:101240004F8FBFF36F8F0A4B00221A60094B1B6848
:101250000193019B43F400330193064A019B136001
:10126000BFF34F8FBFF36F8F00BF02B0704700BF57
:1012700050EF00E014ED00E000B589B02D4B1B6885
:101280000593059B03F48033002B4FD12A4B1B6839
:101290000493049B5B0BC3F30E030793049B03F0BF
:1012A000070304330393049BDB08C3F3090302938E
:1012B0000298FFF7B8FF034603F01F030193BFF343
:1012C0004F8F029B0693069A019B02FA03F319467D
:1012D000079A039B02FA03F30B430093174A009B00
:1012E0001360069B5A1E0692002BECD1079B5A1ED8
:1012F0000792002BE5D1BFF34F8F114B1B6805936D
:10130000059B43F0040305930D4A059B1360094BAD
:101310001B680593059B43F480330593054A059BA1
:101320001360BFF34F8FBFF36F8F00E000BF09B0B2
:101330005DF804FB14ED00E080ED00E060EF00E0FC
:101340009CEF00E04FF0000EFEF7C6BF00BF7047F5
:1013500084B0EFF314830193019B0393039B43F049
:1013600004030393039B0293029B83F3148800BF3F
:101370000B4B1B680393039B23F040430393084AE2
:10138000039B1360074B1B680393039B43F4700399
:101390000393044A039B136000BF04B0704700BF6F
:1013A00034EF00E088ED00E0EFF30580EFF3148CFC
:1013B0001EF0040F02D0EFF3098107E0EFF308817C
:1013C000A1F1700282F30888BFF36F8F0A4602F121
:1013D0006802EFF311831EF0100F0CBF21ED108A8D
:1013E000403921E9FC5F1EF0080F04D0A1F1D802BA
:1013F00022F0070295468B4600F072FCB0E8FC5FD5
:101400001EF0100F0CBFB0EC108A40301EF0040F1D
:101410000CBF80F3088880F3098883F311888CF36C
:101420001488704700B595B00190019B1B0903F02B
:101430000F030D930D9B072B02D96FF0150399E154
:10144000904A0D9B52F823300C930C9B002B02D139
:101450006FF015038EE1019B03F00F030B93019BCB
:1014600003F44023B3F5402F1DD0B3F5402F05D82A
:10147000B3F5802F05D0B3F5002F11D000230E93C4
:1014800014E0019B03F48073002B14BF012300239D
:10149000DBB21946019800F081F901230E9305E0B3
:1014A00002230E9302E003230E9300BFEFF3118398
:1014B0000793079BDBB28DF81B3080230593059BB8
:1014C00083F3118800BF9DF81B308DF82B300E9BE5
:1014D000022B05D1019B1B0B03F00F03129301E0BC
:1014E000002312930E9B022B05D1019B1B0B03F0D3
:1014F0000F03119301E000231193119B002B29D0BE
:101500000B9B072B04D8202310930B9B0F9304E015
:10151000242310930B9B083B0F930C9A109B1344AE
:101520001B6813930F9B9B000F2202FA03F3DB430C
:101530001A46139B134013930F9B9B00119A02FAB8
:1015400003F3139A134313930C9A109B13441A46F4
:10155000139B13600C9B1B6813930B9B5B00032274
:1015600002FA03F3DB431A46139B134013930B9BBE
:101570005B000E9A02FA03F3139A134313930C9B26
:10158000139A1A60002312930E9B032B0FD0019B1A
:1015900003F44033B3F5803F03D0B3F5003F03D0ED
:1015A00005E00123129302E00223129300BF0C9B7B
:1015B0000C331B6813930B9B5B00032202FA03F3AB
:1015C000DB431A46139B134013930B9B5B00129A49
:1015D00002FA03F3139A134313930C9B0C331A462A
:1015E000139B1360119B002B29D10B9B072B04D855
:1015F000202310930B9B0F9304E0242310930B9B49
:10160000083B0F930C9A109B13441B6813930F9B7A
:101610009B000F2202FA03F3DB431A46139B13408D
:1016200013930F9B9B00119A02FA03F3139A13432F
:1016300013930C9A109B13441A46139B13600E9B32
:10164000012B02D00E9B022B1ED1019B03F44063A1
:10165000B3F5406F11D0B3F5406F05D8B3F5806F87
:1016600005D0B3F5006F05D00023129308E00123E5
:10167000129305E00223129302E00323129300BFAA
:1016800004E000BFF0290208002312930C9B0833EA
:101690001B6813930B9B5B00032202FA03F3DB43EB
:1016A0001A46139B134013930B9B5B00129A02FA8A
:1016B00003F3139A134313930C9B08331A46139B9B
:1016C00013600C9B04331B68139301220B9B02FADB
:1016D00003F312930E9B012B02D00E9B022B09D118
:1016E000019B03F40073002B04D0139A129B134345
:1016F000139304E0129BDB43139A134013930C9B48
:1017000004331A46139B13600E9B012B25D0019BBB
:1017100003F48073002B20D00B9B03F00C02174BBB
:1017200013440993099B1B6813930B9B9B0003F0C5
:101730000C0308930F22089B02FA03F3DB431A46BB
:10174000139B134013930D9A089B02FA03F3139A09
:1017500013431393099B139A1A609DF82B308DF84D
:1017600013309DF813300393039B83F3118800BF5C
:1017700000BF0023184615B05DF804FB08040058AC
:1017800000B583B00190019BDBB201930198FFF794
:1017900049FE0346184603B05DF804FB86B001908D
:1017A0000B468DF80330019B1B0903F00F030493D4
:1017B000049B072B20D8124A049B52F82330039332
:1017C000039B002B18D0019B03F00F0302939DF89D
:1017D0000330002B05D00122029B02FA03F305938C
:1017E00005E0029B1033012202FA03F30593039BE9
:1017F00018331A46059B136000BF06B0704700BF40
:10180000F029020886B00190019B1B0903F00F0329
:101810000593059B072B19D80E4A059B52F82330D8
:101820000493049B002B11D0019B03F00F0303933F
:10183000049B10331B680121039A01FA02F2134042
:10184000002B14BF01230023DBB200E00023184665
:1018500006B07047F029020800B589B003900291E4
:101860000192EFF311830793079BDBB28DF81B30D6
:1018700080230593059B83F3118800BF044A054923
:1018800003200DF0BDFA044A002100200BF04BF9B3
:10189000782A0208102A02082C2A020800B589B00A
:1018A000039002910192EFF311830793079BDBB240
:1018B0008DF81B3080230593059B83F3118800BFAF
:1018C000044A054903200DF09BFA044A0021002038
:1018D0000BF029F9842A0208342A02082C2A02086B
:1018E00000B589B0039002910192EFF31183079341
:1018F000079BDBB28DF81B3080230593059B83F398
:10190000118800BF044A054903200DF079FA044A02
:10191000002100200BF007F9942A0208542A02083B
:101920002C2A020884B00190084B1B680393039B88
:1019300023F07F430393019B1B06039A13430393F6
:10194000024A039B136000BF04B070471CED00E027
:1019500086B00390029101920093039B103B059384
:10196000039B0F2B56DD059B1F2B0CD8009A3F4B7A
:101970001344029A13600122059B02FA03F31A46EC
:10198000019B1A606EE0059B3F2B0DD8009A384BE7
:101990001344029A1360059B203B012202FA03F3D1
:1019A0001A46019B1A605DE0059B5F2B0DD8009ADB
:1019B000304B1344029A1360059B403B012202FA0C
:1019C00003F31A46019B1A604CE0059B7F2B0DD850
:1019D000009A294B1344029A1360059B603B012235
:1019E00002FA03F31A46019B1A603BE0059B952B14
:1019F0000DD8009A214B1344029A1360059B803B3B
:101A0000012202FA03F31A46019B1A602AE04FF002
:101A1000FF3328E0029B1A4A1A60039B042B04D16F
:101A2000019B4FF480321A601CE0039B052B04D10C
:101A3000019B4FF400321A6014E0039B062B04D183
:101A4000019B4FF480221A600CE0039B0F2B06D100
:101A5000029B0C4A1A60019B01221A6002E04FF0BF
:101A6000FF3300E00023184606B0704700E100E0B5
:101A700004E100E008E100E00CE100E010E100E03A
:101A800024ED00E010E000E000B585B03B4B1B68A2
:101A900003F00F0301330193019B0293384B03932F
:101AA00009E0039B4FF0FF321A60029B013B029357
:101AB000039B04330393029B002BF2DC314B324A2D
:101AC0001A60324B4FF080321A60314B4FF0803247
:101AD0001A60304B4FF080321A60019BDB0002939A
:101AE0002D4B039309E0039B4FF080321A60029B59
:101AF000013B0293039B04330393029B002BF2DC14
:101B0000002226490B2001F08FFF002224490320E8
:101B100001F08AFF7020FFF705FF00222149022013
:101B200001F082FF00222049042001F07DFF002205
:101B30001E49052001F078FF00221D49062001F012
:101B400073FF00221B490E2001F06EFF00F054FCD1
:101B5000002219490C2001F067FF002217490020DC
:101B600001F062FF00230093009B83F3118800BF04
:101B700062B600BF00BF05B05DF804FB04E000E002
:101B800080E100E008ED00E00000000818ED00E052
:101B90001CED00E020ED00E000E400E0911F0008F3
:101BA0007D1D000859180008D91D0008591C00089F
:101BB000312000089D18000831240008E1180008B1
:101BC00000B587B0019003AA04A980230198FFF70C
:101BD000BFFE0346002B13D1019B0F2B04DD049B9A
:101BE0001A46039B13600BE0049B1B680593039B41
:101BF000DB43059A13400593049B1A46059B13602B
:101C000000BF07B05DF804FB00B587B0019003AAE0
:101C100004A900230198FFF79BFE0346002B12D175
:101C2000019B0F2B04DD049B1A46039B13600AE003
:101C3000049B1B680593039B059A13430593049B20
:101C40001A46059B136000BF07B05DF804FB82B025
:101C5000019000BF02B0704700B589B003900291B7
:101C600001920D4B1B680793EFF311830693069BBC
:101C7000DBB28DF8173080230493049B83F3118823
:101C800000BF029B054A0021002002F08BF90023CF
:101C9000184609B05DF804FB28ED00E0A42A02080C
:101CA00000B583B0EFF305830093009B0193019887
:101CB000FFF7CDFF0021019801F006FF064B1A68DF
:101CC000064B1B689A4203D000210E2000F078F9E1
:101CD00000BF03B05DF804FB240800241C080024A6
:101CE00000B589B001900091224B0793079B1B68B8
:101CF0000693019B0B2B04D1009B70331B68012BB7
:101D000003D0069B009AC3F8A0200198FFF79FFF1D
:101D1000019B0E2B15D1069BD3F8A430002B02D0CB
:101D2000069800F07DF8EFF311830593059BDBB275
:101D30008DF8133080230393039B83F3118800BF36
:101D400003E00099019801F0BFFE0B4B1B6806935E
:101D5000079B069A1A60069BD3F8A0300093079B56
:101D60001B680022C3F8A020009B184609B05DF84C
:101D700004FB00BF240800241C08002400B58BB01D
:101D8000039002910192114B1B680693104B1B6844
:101D90000593069B03F00203002BEFF311830993D5
:101DA000099BDBB28DF8233080230793079B83F3D5
:101DB000118800BF029B074A0021002002F0F2F8C0
:101DC000002318460BB05DF804FB00BF2CED00E0CB
:101DD00028ED00E0AC2A020800B589B0039002911A
:101DE00001920D4B1B680793EFF311830693069B3B
:101DF000DBB28DF8173080230493049B83F31188A2
:101E000000BF029B054A0021002002F0CBF800230E
:101E1000184609B05DF804FB28ED00E0B42A02087A
:101E200000B587B00190EFF305830393039B002B6C
:101E300014BF01230023DBB2002B02D0304B1B6800
:101E400001E0304B1B680593EFF305830293029B7F
:101E50000493019A059B9A420CD1049B002B09D153
:101E6000019BD3F8A43001989847019B0022C3F846
:101E7000A42040E0019A059B9A4207D1049B0E2BB7
:101E800004D000210E2000F09BF834E0019BD3F831
:101E9000A020019BC3F89C20019BD3F8A030D83B25
:101EA0001A46019BC3F8A020019BD3F8A000019B18
:101EB000D3F89C30D82219460CF03DFF019BD3F893
:101EC000A0301A46019BD3F8A030D8321A60019B8B
:101ED000D3F8A03088330C4A1A60019BD3F8A030A5
:101EE000043380221A60019BD3F8A0308C334FF06A
:101EF00080721A6000BF00BF07B05DF804FB00BF2E
:101F0000240800241C0800240D1F000800B587B019
:101F10001E4B1B680593059BD3F89C30009300BFB4
:101F200000230493049B83F3118800BF62B600BFB3
:101F3000059BD3F8A43005989847EFF311830393DA
:101F4000039BDBB28DF80B3080230193019B83F35D
:101F5000118800BF059BD3F88430002B06D0059B69
:101F60005B6C03F04003002B00D1D9E7059B0022F6
:101F7000C3F8A420059BD3F89C20059BC3F8A020A0
:101F8000012000DF00BF07B05DF804FB1C0800243F
:101F900088B0039002910192029B0793079B1B6FED
:101FA0000693069B013B012B03D8044B1B6805934A
:101FB00000E000BF0023184608B070471C0800244A
:101FC00000B585B00190009100230393019B0F2B76
:101FD00005DD019BA3F11002134B1A6020E0019B69
:101FE0000F2B10D0019B0F2B11DC019B022B06D075
:101FF000019B0E2B0BD14FF08053039308E04FF061
:102000000043039304E04FF08063039300E000BFBC
:10201000039B002B04D0039A00210448FFF7D0F85B
:1020200000BF05B05DF804FB00EF00E004ED00E048
:1020300000B589B00390029101920D4B1B68079384
:10204000EFF311830693069BDBB28DF817308023E4
:102050000493049B83F3118800BF029B054A00216F
:10206000002001F09FFF0023184609B05DF804FB33
:1020700028ED00E0BC2A020800B583B0134B1B68B2
:102080001B0B1B0103F03002104B1B681B0903F0F4
:102090000F03134300930023019309E0019A0C4BB3
:1020A00013449B001A4600231360019B01330193E4
:1020B000019A009B9A42F1D3032200210348FFF7C3
:1020C0007FF800BF03B05DF804FB00BF002000E014
:1020D0000208003882B0144B1B681B0F03F00F037B
:1020E00000930023019317E0019A104B13441B0146
:1020F0001A4600231360019B1A010D4B13441A4624
:1021000000231360019B1A010A4B13441A46002353
:102110001360019B01330193019A009B9A42E3D320
:1021200000BF00BF02B07047001000E00201000EC7
:10213000241000E0281000E070B586B04E4B1B68FC
:102140001B0F03F00F030293002305930023039357
:10215000002304932EE0049B1A01484B13441B6890
:102160000193019B03F08073002B20D0019B03F0AF
:102170000F030093049A424B13441B011B68059301
:10218000009B072B0FD0009B072B0FD8009B052B24
:1021900003D0009B062B03D008E00123039306E045
:1021A0000223039303E00323039300E000BF049B97
:1021B00001330493049A029B9A42CCD300230493E4
:1021C00053E03049049A13469B0013449B000B4490
:1021D00004331A68059B9A4244D12A49049A13464B
:1021E0009B0013449B000B441B68039A9A4239D10D
:1021F0002449049A13469B0013449B000B440C3360
:102200001B68002B2ED01F49049A13469B001344D1
:102210009B000B440C331C681A49049A13469B001C
:1022200013449B000B4418681649049A13469B00FC
:1022300013449B000B4404331968124D049A13464F
:102240009B0013449B002B4408331D680D4E049AD9
:1022500013469B0013449B00334410331B682A46EB
:10226000A04706E0049B01330493049B082BA8D9E4
:1022700000BF00BF06B070BD001000E0281000E0F5
:102280000201000E9805002470B584B0019000236F
:10229000039352E02C49039A13469B0013449B007E
:1022A0000B441B68042B45D12749039A13469B0016
:1022B00013449B000B4404331A68019B9A4239D1A2
:1022C0002149039A13469B0013449B000B440C3393
:1022D0001B68002B2ED01C49039A13469B00134405
:1022E0009B000B440C331C681749039A13469B0050
:1022F00013449B000B4418681349039A13469B0030
:1023000013449B000B44043319680F4D039A134682
:102310009B0013449B002B4408331D680A4E039A0C
:1023200013469B0013449B00334410331B682A461A
:10233000A04706E0039B01330393039B082BA9D915
:1023400000BF00BF04B070BD9805002470B582B016
:102350000023019346E02749019A13469B0013444A
:102360009B000B441B68052B39D12249019A134667
:102370009B0013449B000B440C331B68002B2ED096
:102380001C49019A13469B0013449B000B440C33D9
:102390001C681849019A13469B0013449B000B4488
:1023A00018681449019A13469B0013449B000B4480
:1023B000043319680F4D019A13469B0013449B0088
:1023C0002B4408331D680B4E019A13469B0013449F
:1023D0009B00334410331B682A46A04706E0019B4C
:1023E00001330193019B082BB5D900BF00BF02B098
:1023F00070BD00BF9805002408B50A4B1B6803F0A8
:102400000103002B01D0002309E0FFF735FEFFF7A1
:1024100061FE054A00210548FEF7D2FE002318465A
:1024200008BD00BFF0ED00E000000101FCED00E0A0
:1024300000B587B0039002910192114B1B68059380
:10244000029B0493059B03F00103002B01D0FFF7CF
:102450007DFF059B03F00203002B05D0049B88330E
:102460001B681846FFF710FF059B03F00403002BC1
:1024700001D0FFF761FE0023184607B05DF804FBAA
:1024800030ED00E008B5AFF3008000BF08BD08B52F
:1024900000F0EAF800BF08BD00B583B00023019347
:1024A000044906200CF0ACFC019B184603B05DF813
:1024B00004FB00BFC42A020882B000230193019BE1
:1024C000184602B0704782B000230193019B184662
:1024D00002B0704700B583B00023019301F072F899
:1024E0000190019B002B05DA019A074903200CF0AB
:1024F00087FC03E0054906200CF082FC019B18468E
:1025000003B05DF804FB00BF082B0208382B02085B
:1025100082B000230193019B184602B0704700006F
:1025200000B583B00023019300F008FB0090009BEE
:10253000002B0ADA009A114903200CF061FC019B80
:10254000002B06D1009B019303E00D4906200CF0FF
:1025500057FC00F07DFB0090009B002B05DA009AF1
:10256000084903200CF04CFC03E0074906200CF05E
:1025700047FC019B184603B05DF804FB542B02088E
:102580007C2B0208942B0208C42B020882B0002383
:102590000193019B184602B0704782B0002301935B
:1025A000019B184602B0704782B000230193019B43
:1025B000184602B0704782B000230193019B184671
:1025C00002B0704700B583B0002301931349062081
:1025D0000CF016FC002000F04BFD0090009B002B3F
:1025E0000ADA009A0E4903200CF00AFC019B002B2A
:1025F0000ED1009B01930BE00A4A0B4906200CF018
:10260000FFFB012000F00CFE084906200CF0F8FB4F
:10261000019B184603B05DF804FB00BFDC2B0208E9
:10262000002C02082C2C0208382C02086C2C020802
:1026300082B000230193019B184602B0704782B01C
:1026400000230193019B184602B0704782B000231B
:102650000193019B184602B0704782B0002301939A
:10266000019B184602B0704700B583B00023019368
:10267000714906200CF0C4FB704906200CF0C0FB29
:10268000FFF70AFF0090009B002B04D0019B002B5A
:1026900001D1009B0193FFF70FFF0090009B002BDF
:1026A00004D0019B002B01D1009B0193FFF70BFF8E
:1026B0000090009B002B04D0019B002B01D1009BBC
:1026C00001935F4906200CF09BFBFFF703FF00908E
:1026D000009B002B04D0019B002B01D1009B019398
:1026E000FFF71EFF0090009B002B04D0019B002BE6
:1026F00001D1009B0193FFF70BFF0090009B002B83
:1027000004D0019B002B01D1009B01934D49062071
:102710000CF076FBFFF73AFF0090009B002B04D0F3
:10272000019B002B01D1009B0193FFF736FF009026
:10273000009B002B04D0019B002B01D1009B019337
:10274000414906200CF05CFBFFF72EFF0090009B38
:10275000002B04D0019B002B01D1009B01933B492E
:1027600006200CF04DFBFFF72DFF0090009B002B87
:1027700004D0019B002B01D1009B0193344906201A
:102780000CF03EFBFFF717FF0090009B002B04D0DE
:10279000019B002B01D1009B0193FFF749FF0090A3
:1027A000009B002B04D0019B002B01D1009B0193C7
:1027B000284906200CF024FBFFF741FF0090009B06
:1027C000002B04D0019B002B01D1009B01932249D7
:1027D00006200CF015FBFFF739FF0090009B002B43
:1027E00004D0019B002B01D1009B01931B490620C3
:1027F0000CF006FBFFF731FF0090009B002B04D08C
:10280000019B002B01D1009B0193019B002B04D164
:10281000134906200CF0F4FA08E0019A114904204B
:102820000CF0EEFA104906200CF0EAFA019B18466B
:1028300003B05DF804FB00BF882C0208BC2C020822
:10284000042D02085C2D0208A42D0208E42D0208C4
:102850001C2E0208642E0208AC2E0208F42E020878
:10286000382F0208842F0208D82F020800B58BB039
:1028700001900091009B00221A60019B002B08D15F
:10288000009B6FF015021A600023E8E0019B013302
:102890000193019B1B78202BF8D0019B1B78092BFF
:1028A000F4D001980CF079FA0790079B022B02D91B
:1028B000079B042B05D9009B6FF015021A600023BB
:1028C000CDE0019B1B78502B05D0009B6FF01502CB
:1028D0001A600023C3E0019B01331B788DF81B3085
:1028E0009DF81B30402B03D99DF81B30482B05D990
:1028F000009B6FF015021A600023B0E0019B0233C9
:10290000059303AB0A22194605980AF0C5FD049009
:10291000039B1B78002B05D1049B002B02DB049B3F
:102920000F2B05DD009B6FF015021A60002396E067
:102930009DF81B30413B072B2AD801A252F823F007
:1029400061290008672900086D290008732900081B
:10295000792900087F290008852900088B290008AB
:10296000002309931AE01023099317E02023099309
:1029700014E03023099311E0402309930EE0502323
:1029800009930BE06023099308E07023099305E0A5
:10299000009B6FF015021A60002360E0049B0F2B70
:1029A00052D801A252F823F0E9290008EF290008C3
:1029B000F5290008FB290008012A0008072A000859
:1029C0000D2A0008132A0008192A00081F2A0008E7
:1029D000252A00082B2A0008312A0008372A000877
:1029E0003D2A0008432A00080023089332E001230F
:1029F00008932FE0022308932CE00323089329E097
:102A00000423089326E00523089323E00623089374
:102A100020E0072308931DE0082308931AE0092308
:102A2000089317E00A23089314E00B23089311E09E
:102A30000C2308930EE00D2308930BE00E2308935C
:102A400008E00F23089305E0009B6FF015021A6061
:102A5000002304E0099A089B1A43034B13431846CA
:102A60000BB05DF804FB00BF0009040082B00190C8
:102A7000019B022B01D1034B00E00023184602B05A
:102A8000704700BF4C06002400B589B00390029146
:102A900013468DF80730029B06930398FFF7E6FF75
:102AA0000590059B002B40D0029BB3F5803F03D3DC
:102AB000029B9BB2069308E0029B0F2B05D9059B56
:102AC0005B79002B33D000230693069BDB00059A2D
:102AD00013440493049B5B7983F00103DBB2002B66
:102AE00027D1049B1B79002B12D09DF80730002BB7
:102AF00014BF01230023DBB283F00103DBB28DF8A6
:102B00001F309DF81F3003F001038DF81F3003E0E4
:102B10009DF807308DF81F30049B1B689DF81F201F
:102B200011461846FEF73AFE04E000BF02E000BF7F
:102B300000E000BF09B05DF804FB000008B580228A
:102B4000002103480CF092F80023184608BD00BF8E
:102B50004C06002400B58BB00390029101928DF8D1
:102B600003300398FFF782FF0990099B002B02D1E5
:102B70006FF0150336E0029B0F2B02D96FF015039F
:102B800030E0029BDB00099A13440893089B5B79B1
:102B9000002B02D06FF00F0324E005AB194601981B
:102BA000FFF764FE0790059B002B01D0059B19E001
:102BB0000798FEF737FC0690069B002B01DA069B70
:102BC00010E09DF8033019460798FEF7E7FD089BD3
:102BD000079A1A60089B9DF803201A71089B01222E
:102BE0005A71002318460BB05DF804FB00B585B0A0
:102BF000019000910198FFF739FF0390039B002B90
:102C000002D16FF015031EE0009B0F2B02D96FF06D
:102C1000150318E0009BDB00039A13440293029B08
:102C20005B7983F00103DBB2002B02D06FF001036C
:102C300009E0029B00221A60029B00221A71029B8B
:102C400000225A710023184605B05DF804FB00000D
:102C500000B583B00023019302200EF0C5FA009066
:102C6000009B002B11D00221009808F005FF019075
:102C7000019B002B05DA019A064903200CF0C0F8ED
:102C800003E0054906200CF0BBF8019B184603B091
:102C90005DF804FB243002084830020800B585B016
:102CA0000390029113468DF807309DF807301A46BD
:102CB00002990220FFF7E8FE00BF05B05DF804FBB3
:102CC00082B0019000910123184602B070470000C5
:102CD00000B58BB001900091009B00221A60019B0F
:102CE000002B08D1009B6FF015021A600023E8E06A
:102CF000019B01330193019B1B78202BF8D0019B92
:102D00001B78092BF4D001980CF047F80790079B2B
:102D1000022B02D9079B042B05D9009B6FF01502EB
:102D20001A600023CDE0019B1B78502B05D0009B3F
:102D30006FF015021A600023C3E0019B01331B787A
:102D40008DF81B309DF81B30402B03D99DF81B30AC
:102D5000482B05D9009B6FF015021A600023B0E0E4
:102D6000019B0233059303AB0A22194605980AF02A
:102D700093FB0490039B1B78002B05D1049B002B35
:102D800002DB049B0F2B05DD009B6FF015021A6020
:102D9000002396E09DF81B30413B072B2AD801A267
:102DA00052F823F0C52D0008CB2D0008D12D0008C6
:102DB000D72D0008DD2D0008E32D0008E92D0008BF
:102DC000EF2D0008002309931AE01023099317E060
:102DD0002023099314E03023099311E04023099341
:102DE0000EE0502309930BE06023099308E0702361
:102DF000099305E0009B6FF015021A60002360E064
:102E0000049B0F2B52D801A252F823F04D2E00083C
:102E1000532E0008592E00085F2E0008652E00086A
:102E20006B2E0008712E0008772E00087D2E0008FA
:102E3000832E0008892E00088F2E0008952E00088A
:102E40009B2E0008A12E0008A72E0008002308933F
:102E500032E0012308932FE0022308932CE00323A0
:102E6000089329E00423089326E00523089323E030
:102E70000623089320E0072308931DE00823089306
:102E80001AE00923089317E00A23089314E00B23A0
:102E9000089311E00C2308930EE00D2308930BE038
:102EA0000E23089308E00F23089305E0009B6FF0C2
:102EB00015021A60002304E0099A089B1A43034B89
:102EC000134318460BB05DF804FB00BF0009040073
:102ED00000B583B003468DF80730064B1B689DF89C
:102EE000072011461846FEF759FC00BF03B05DF8F5
:102EF00004FB00BFCC06002400B583B04B4906207C
:102F00000BF07EFF6B4619464948FFF7E1FE03468A
:102F1000484A1360009B002B07D0009B444A464957
:102F200003200BF06DFF009B7BE0424B1B681846B3
:102F3000FEF778FA0190019B002B06DA019A3F49CF
:102F400003200BF05DFF019B6BE06B4619463C488C
:102F5000FFF7BEFE03463B4A1360009B002B07D0E1
:102F6000009B374A384903200BF04AFF009B58E08A
:102F7000344B1B681846FEF755FA0190019B002B55
:102F800006DA019A314903200BF03AFF019B48E031
:102F90006B4619462E48FFF79BFE03462D4A1360E9
:102FA000009B002B07D0009B294A2B4903200BF0E4
:102FB00027FF009B35E0274B1B681846FEF732FAC7
:102FC0000190019B002B06DA019A244903200BF0A3
:102FD00017FF019B25E01B4B1B6801211846FEF7DC
:102FE000DDFB1C4B1B6801211846FEF7D7FB114B7C
:102FF0001B6800211846FEF7D1FB194906200BF08B
:10300000FFFE0B4A174906200BF0FAFE0C4A164940
:1030100006200BF0F5FE0E4A144906200BF0F0FED8
:103020000023184603B05DF804FB00BF68300208B7
:103030008C300208CC06002490300208B030020820
:10304000D8300208D0060024DC3002080031020823
:103050002C310208D4060024303102085431020811
:103060007C3102089C310208A8310208B8310208FC
:1030700000B589B0039000230222554906200BF0C9
:10308000BFFEFFF739FF0790079B002B06DA079A70
:10309000504903200BF0B4FE079B94E04E490620F4
:1030A0000BF0AEFE4D4B1B6801211846FEF776FB78
:1030B0004FF47A7001F01AFC494906200BF0A0FE8B
:1030C000464B1B6800211846FEF768FB42F2107061
:1030D00001F00CFC434906200BF092FE3F4B1B68AD
:1030E00001211846FEF75AFB3F4801F0FFFB3F491C
:1030F00006200BF085FE01233D4A00210220FFF748
:1031000029FD0790079B002B06DA079A394903200F
:103110000BF076FE079B56E0374B0193344B009340
:1031200000230222354906200BF06AFE02200EF031
:103130005BF80690069B002B0BD10222304903203E
:103140000BF05EFE00210220FFF750FD6FF012032E
:1031500039E002222B4906200BF052FE2A490620B4
:103160000BF04EFE2949069806F08EFB0590059B54
:10317000002B0AD1264903200BF042FE0021022039
:10318000FFF734FD6FF012031DE0224906200BF01B
:1031900037FE059A0021002009F0F8FA0790079BF6
:1031A000002B0ADA079A1C4903200BF029FE0021A4
:1031B0000220FFF71BFD079B05E0039A1749062035
:1031C0000BF01EFE0023184609B05DF804FB00BF9B
:1031D000C4310208F431020828320208D006002463
:1031E0006832020884320208C0D40100A03202080A
:1031F000D0320208D43202084033020808330208F1
:103200004C3302087033020894330208D12E0008B0
:10321000C0330208F83302082C3402086034020874
:1032200000B583B003468DF807300C4B1B689DF842
:10323000072011461846FEF7B1FA9DF80730002B1B
:1032400001D0074B00E0074B1A46074906200BF058
:10325000D7FD00BF03B05DF804FB00BFD406002417
:1032600080340208843402088834020800B587B02C
:10327000039002910192019B0593059B1B6C05989D
:10328000059A92F83C20114698470023184607B04B
:103290005DF804FB00B585B001900091019B03939C
:1032A00040F22D131846FEF7ADFA03461A46009B6E
:1032B0001A700023184605B05DF804FB00B585B010
:1032C00001900091019B0393039B93F83C301A46B5
:1032D000074B53F822301846FEF794FA03461A4675
:1032E000009B1A700023184605B05DF804FB00BF70
:1032F000B835020800B585B001900B468DF8033053
:10330000019B0393039B93F83C301A46064B53F8FA
:1033100022309DF8032011461846FEF73FFA00239D
:10332000184605B05DF804FBB835020800B585B055
:1033300001900091019B039345231846FEF762FA22
:1033400003461A46009B1A700023184605B05DF824
:1033500004FB00B587B003900291039B05934520C1
:1033600000230193002300930023002200210DF08D
:1033700063FA059B029A1A640023184607B05DF8A9
:1033800004FB000000B587B003900B468DF80B30AE
:10339000039B05939DF80B30002B1AD0059B1B6CEB
:1033A000002B02D16FF015031EE04520059B93F81A
:1033B0003C301A4613461B0113449B000C4A13442D
:1033C00001930C4B00930023002201210DF034FAED
:1033D00009E04520002301930023009300230022ED
:1033E00000210DF029FA0023184607B05DF804FB10
:1033F000D80700246D32000800B585B00190002385
:103400000293002303932CE01A4A039B9B0113446D
:1034100000221A70174A039B9B0113443433164A47
:103420001A60039BD9B2134A039B9B0113443C339C
:103430000A461A70039B9B010E4A9818019B1B6851
:10344000591C019A1160194605F06EFF40F22D13C8
:103450001846FDF7E7FF029B01330293039B0133FC
:103460000393039B002BCFDD029B184605B05DF84C
:1034700004FB00BFD80600247C35020800B585B0E7
:103480000190002302930023039336E01F4A039B1D
:103490009B01134403221A701C4A039B9B01134493
:1034A00034331B4A1A60039BD9B2184A039B9B0111
:1034B00013443C330A461A70039B9B01134A981825
:1034C000019B1B68591C019A1160194605F02CFFDD
:1034D000104A039B52F8233000211846FEF75EF98C
:1034E0000C4A039B52F823301846FDF79BFF029BC2
:1034F00001330293039B01330393039B022BC5DD2E
:10350000029B184605B05DF804FB00BF18070024B5
:1035100090350208B835020800B585B00190002347
:1035200002930023039341E02449039A13461B01AD
:1035300013449B000B4405221A702049039A13463A
:103540001B0113449B000B4434331D4A1A60039B38
:10355000D8B21A49039A13461B0113449B000B442B
:103560003C3302461A701549039A13461B01134453
:103570009B000B44403300221A60039A13461B0140
:1035800013449B000D4A9818019B1B68591C019A13
:103590001160194605F0C8FE45231846FDF742FFA5
:1035A000029B01330293039B01330393039B002B84
:1035B000BADD029B184605B05DF804FBD80700246D
:1035C000A435020800B583B00023019300230093C3
:1035D0006B461846FFF710FF0246019B1344019308
:1035E0006B461846FFF74AFF0246019B13440193BE
:1035F0006B461846FFF790FF0246019B1344019368
:103600000023184603B05DF804FB000082B0254B90
:103610000193019B00221A60019B00221A71019BF9
:103620000833214A1A60019B083301221A71019B59
:1036300010331E4A1A60019B103305221A71019B38
:1036400018331A4A1A60019B183305221A71019B1C
:103650002033174A1A60019B203300221A71019B04
:10366000283308221A60019B283309221A71019B12
:103670003033104A1A60019B303300221A71019BCB
:10368000383300221A60019B383309221A71019BDA
:10369000403308221A60019B403309221A7100BF8F
:1036A00002B070474C080024280800241C0800249D
:1036B000380800243008002400B585B0AC22002171
:1036C00034480BF0D3FA002303935BE0039BAC2256
:1036D00002FB03F32F4A13440293029B039A1A63DB
:1036E000029B032283F84020029B0122A3F848207A
:1036F000029B294A9A63029B274ADA63029B0222B1
:103700005A64029B93F84030244ADB0013441B792F
:1037100003F00803002B0AD0029B1B6F029A92F859
:10372000402011461D4A52F83120134406E0029B06
:1037300093F840301A46194B53F832300193029BEC
:103740000093009B00225A60019B1A68009B1A603C
:10375000019B1B68002B06D1019B009A1A60019BFC
:10376000009A5A6006E0019B1B68009A5A60019B10
:10377000009A1A600A49039B029A41F82320039B8E
:1037800001330393039B002BA0DD00BF00BF05B0F6
:103790005DF804FB98080024313800084C08002428
:1037A0002408002400B585B00023039331E0039B77
:1037B000AC2202FB03F31B4A134402931A4B1B680F
:1037C000013B039A13400193184B1A68019B9B001D
:1037D0001344029A1A60029B5B6CDBB21946029892
:1037E00002F090FA029801F00BFD029B002283F890
:1037F000A82002980DF038FF029801F0DBFF029834
:1038000002F0D6FA029B9B6803221A72039B0133D3
:103810000393039B002BCADD00BF00BF05B05DF81A
:1038200004FB00BF98080024480800244408002432
:1038300000B585B0384B01221A70FFF7E7FEFFF79D
:103840003BFF354B02221A7005F048FA01AA02AB81
:10385000114618460CF076FE029B019A1146184656
:103860000BF0E0FC1023039302E0039B5B00039347
:10387000039B012BF9DD039B9B0018460BF02CFDED
:103880000346264A1360264A039B1360FFF78AFF0C
:10389000244B00221A60204B03221A7000F0A8F873
:1038A00014F09CFE00F0A6F802F004F801F07EFD92
:1038B00000F0CEFF00F07EFD18F0DDF90DF03EFDCA
:1038C00005F00EFA144B04221A700023039313E040
:1038D000039B002B0BDD039BAC2202FB03F3124A7C
:1038E000134401220021184602F0B0FB01E002F06F
:1038F0008BFB039B01330393039B002BE8DD064BFB
:1039000005221A7000F064F8034B06221A7000F0CA
:103910004FFE0DF0A6FEFCE79408002444080024A6
:1039200048080024400800249808002400B58BB003
:1039300000230893FEF7ABFD03AB184609F034FDF6
:1039400064238DF80D304FF40063069303AA00231F
:10395000019308AB0093134600220649064801F084
:10396000FFFC099003AB184609F057FD00BF0BB0F0
:103970005DF804FB39170108C435020800B583B0AF
:1039800001900091FFF7D2FF0023184603B05DF8C5
:1039900004FB000000B587B001F0A8FF03460393C5
:1039A00000230293084B01934FF40063009300231C
:1039B000F0220221054801F023F80346059300BFD9
:1039C00007B05DF804FB00BF7D390008D035020860
:1039D00008B501220449054802F048F8FFF7DAFF6C
:1039E0000023184608BD00BFDC350208E035020898
:1039F00000BF704700B583B00023019307E0084A79
:103A0000019B084942F83310019B01330193019B4C
:103A1000A52BF4DDFEF738F800BF03B05DF804FB1A
:103A200044090024213B000800B58DB003900291A9
:103A300001926FF015030B93039BA52B3AD8039BC0
:103A40000A930A9B002B01DA0A9B34E0EFF31183FF
:103A50000893089BDBB28DF81F3080230693069BEA
:103A600083F3118800BF9DF81F308DF82730029B2B
:103A7000002B06D10398FEF7A3F8114B0293002305
:103A8000019310490A9B029A41F833200D4A0A9B80
:103A9000DB001344019A5A609DF827308DF81730E7
:103AA0009DF817300493049B83F3118800BF00BF77
:103AB00000230B930B9B18460DB05DF804FB00BF71
:103AC000213B00084409002400B587B00190009113
:103AD000114B059300230493019B0393019BA52B9A
:103AE00010D8039B0D4A52F83330002B0AD0039BA9
:103AF0000A4A52F833300593039B084ADB0013440B
:103B00005B680493059B049A00990198984700BF4D
:103B100007B05DF804FB00BF213B00084409002406
:103B200000B589B0039002910192EFF311830793DE
:103B3000079BDBB28DF81B3080230593059B83F335
:103B4000118800BF039B054A054903200BF058F973
:103B5000044A0021002008F0E6FF00BF00360208FA
:103B6000E4350208F8350208F0B58FB00B900A91E1
:103B70000B9B0D9362E00D9B0C930D9B09930C9B8B
:103B80000A9A9A4202D90C9B1B6800E000230C9A07
:103B9000043211460A9A8A4202D90C9A526800E00D
:103BA00000220C99083108460A99814202D90C99E1
:103BB000896800E000210C980C3004460A98A04265
:103BC00002D90C98C06800E000200C9C10342546F7
:103BD0000A9CAC4202D90C9C246900E000240C9D94
:103BE00014352E460A9DB54202D90C9D6D6900E040
:103BF00000250C9E183637460A9EBE4202D90C9EFE
:103C0000B66900E000260C9F1C37BC460A9F67453A
:103C100002D90C9FFF6900E00027079706960595DB
:103C200004940390029101920093099B074A08496A
:103C300001200BF0E5F80D9B20330D930D9A0A9BA4
:103C40009A4298D900BF00BF0FB0F0BD5C3802089F
:103C50004C36020800B587B00390029101920093A0
:103C6000019A009B13440593039B194A19490120AB
:103C70000BF0C6F8019B164A174901200BF0C0F85B
:103C8000009B134A154901200BF0BAF8029B002B48
:103C900012D0029B0E4A124901200BF0B1F8029B90
:103CA000203B019A9A4202D8029B203B029305993D
:103CB0000298FFF759FF06E0019A009B134419464A
:103CC0000198FFF751FF00BF07B05DF804FB00BF8C
:103CD000683802088036020890360208A0360208CA
:103CE000B436020800B58BB0039002910023049310
:103CF000039BDB6E0793039B5B6E0693079A069B01
:103D0000134405930023099300238DF82330029A6E
:103D1000079B9A4206D3029A059B9A4202D2029BC3
:103D2000099308E001238DF82330029B0B4A0C49CC
:103D300001200BF065F8099B002B03D19DF823307F
:103D4000002B07D000230093069B079A099905488A
:103D5000FFF780FF00BF0BB05DF804FB7838020866
:103D6000C4360208F8360208F0B5ADB011901091D3
:103D70001BAB4022002118460AF078FF1BAB402203
:103D80001946119800F0DCFD13AB2022194611985A
:103D900000F082FC13AB2C2118460AF0E6FF2B90B2
:103DA0002B9B002B02D02B9B20221A70119B1B6B8C
:103DB0000D93119B9B68002B03D0119B9B681B6884
:103DC00001E04FF0FF33119A92F834200E92119ACD
:103DD000526CD20802F003021A4951F822200F92C5
:103DE0001199496C01F00301174850F821101198FE
:103DF000406C00F48070002801D0502000E02D209D
:103E0000119CA46F119D6D6F119EF66E119F7F6EB8
:103E10001BAA0B920D4A0A920997089607950694D9
:103E200013AC0594049003910F9A02920E9A01929A
:103E300000930D9B064A074901200AF0E1FF00BFED
:103E40002DB0F0BD3C3802084C3802084837020853
:103E5000843802080037020808B5054A05490120E0
:103E60000AF0CEFF0021044800F034FB00BF08BD7B
:103E70009038020854370208693D000800B585B043
:103E80000190009100980DF0A1FA009B0393039B11
:103E90000293029B1B6819460198FFF723FF00BF9E
:103EA00005B05DF804FB000000B5B1B009900891C1
:103EB0000792069300232F93099B9B68002B0CD03D
:103EC000099B5B6C03F00303022B06D0099B9B68E4
:103ED0001B68184600F0AEFA2F900AAB184608F09F
:103EE0001BFF0AAA0AAB7D3303930AAB4A33029342
:103EF0000AAB353301930AAB153300931346184AC6
:103F0000184901200AF07CFF069B002B01D0069A7D
:103F100000E0154A089B002B01D0089B00E0124BE3
:103F20002F99002901D0114900E011490998C06B6F
:103F3000049003910D490291079901910093134652
:103F4000074A0C4901200AF05BFF32990998FFF7F4
:103F500095FF07F0CDFD00BF31B05DF804FB00BF59
:103F60009C380208C4370208EC37020848370208B8
:103F7000F0370208F837020800B585B003900291C7
:103F800001920093FFF768FF07F0B2FD07F0B0FD64
:103F900000BF05B05DF804FB08B5FA200DF0F9FA92
:103FA000FBE7000000B595B00590049103920293E1
:103FB000564B1B78DBB2042B8CBF012300238DF8FA
:103FC0004E30EFF305831193119B002B14BF012397
:103FD0000023DBB2002B02D04D4B1B6801E04D4BA0
:103FE0001B681293494B1B78DBB2072B01D1FFF7FB
:103FF000D3FF00238DF84F309DF84E30002B12D0A8
:10400000EFF311831093109BDBB28DF83F308023C8
:104010000E930E9B83F3118800BF9DF83F308DF8FF
:104020004F3000F0A1FAEFF305830D930D9B002BA9
:1040300014BF01230023DBB2002B05D1129B5B6C64
:1040400003F00303022B02D1304B07221A70029BAC
:10405000002B05D130480CF052FA2F4B029304E0AC
:10406000D82202992C480AF066FE129B0693029B06
:104070000793059B0993049B0A93039B0893234B87
:104080001B78DBB2072B14BF01230023DBB21A46D7
:1040900006AB1946104600F041F807F029FD029BD7
:1040A0000093039B049A05991298FFF7FDFE174BA6
:1040B0001B78DBB2072B12D1029B0093039B049A5F
:1040C00005991298FFF758FF06AB1946022000F039
:1040D00025F80021022000F0BFF8FFF75DFF9DF8F2
:1040E0004E30002B0DD09DF84F308DF833309DF8B9
:1040F00033300B930B9B83F3118800BF00BF00F09C
:1041000057FA00BF15B05DF804FB00BF9408002407
:10411000240800241C080024800E002400B58FB061
:1041200001900091234B0B93EFF311830793079BAF
:10413000DBB28DF81B3080230593059B83F3118838
:1041400000BF9DF81B308DF82B304FF0FF330C93E0
:10415000002309930B9B1B680D9315E00D9B5B6877
:1041600008930D9B1B68009A01990D989847099B2D
:10417000002B04D0099B1B685A1C099B1A60089BE2
:104180000D930C9B013B0C930D9B002B02D00C9BC1
:10419000002BE3D19DF82B308DF813309DF81330B0
:1041A0000393039B83F3118800BF00BF00BF0FB0D0
:1041B0005DF804FB580F00248CB00190254B099347
:1041C000EFF311830693069BDBB28DF81730802343
:1041D0000493049B83F3118800BF9DF817308DF87A
:1041E0002330099B0B93019B079300230A9313E051
:1041F0000B9B1B68079A9A4203D16FF010030A9336
:104200000EE0079B9A680B9B1B689B689A4207DC31
:104210000B9B1B6804330B930B9B1B68002BE7D194
:104220000A9B002B06D10B9B1A68079B5A600B9BBD
:10423000079A1A609DF823308DF80F309DF80F30E3
:104240000293029B83F3118800BF00BF00BF0CB034
:10425000704700BF5C0F002400B58FB00190009143
:10426000234B0B93EFF311830793079BDBB28DF87E
:104270001B3080230593059B83F3118800BF9DF8B5
:104280001B308DF82B304FF0FF330C930023099334
:104290000B9B1B680D9315E00D9B5B6808930D9BB2
:1042A0001B68009A01990D989847099B002B04D030
:1042B000099B1B685A1C099B1A60089B0D930C9B59
:1042C000013B0C930D9B002B02D00C9B002BE3D1E8
:1042D0009DF82B308DF813309DF813300393039B1A
:1042E00083F3118800BF00BF00BF0FB05DF804FB6F
:1042F0005C0F002488B00390029111461A460B46C9
:10430000ADF8063013468DF80530002307931DE005
:10431000029B0693069B9DF805201A72039B05934A
:10432000069B0493059B1A68049B1A60049B059ADC
:104330005A60059B1B68049A5A60059B049A1A6090
:10434000029B2C330293079B01330793BDF8063081
:10435000079A9A42DCDB029B184608B0704788B087
:10436000039002911346ADF806300023079317E03F
:10437000039B0693029B0593069B1A68059B1A6094
:10438000059B069A5A60069B1B68059A5A60069B15
:10439000059A1A60029B30330293079B01330793FF
:1043A000BDF80630079A9A42E2DB029B184608B035
:1043B0007047000000B585B01A4B03931A4B029367
:1043C000029B029A5A60029B5A68029B1A60002361
:1043D000082203991448FFF78DFF0390134B0193B4
:1043E000019B019A5A60019B5A68019B1A60022343
:1043F000082203990D48FFF77DFF03900C4B0093B3
:10440000009B009A5A60009B5A68009B1A60082221
:1044100003990748FFF7A3FF039000BF05B05DF8BD
:1044200004FB00BF700F0024600F0024680F0024FD
:10443000B01300248AB0019000230993EFF3118395
:104440000693069BDBB28DF8173080230493049B00
:1044500083F3118800BF9DF817308DF823301B4B74
:104460001B68002B21D0019B002B1EDB184B1B6807
:10447000013B019A13400793144B1A68079B9B005A
:1044800013441B68002B10D0104B1A68079B9B002D
:1044900013441B681B6B019A9A4206D10B4B1A6896
:1044A000079B9B0013441B6809939DF823308DF8EC
:1044B0000F309DF80F300293029B83F3118800BFE9
:1044C00000BF099B18460AB0704700BF440800248B
:1044D0004808002400B58BB001900091EFF31183E0
:1044E0000793079BDBB28DF81B3080230593059B58
:1044F00083F3118800BF9DF81B308DF8233000F046
:1045000033F80023099314E0154B1A68099B9B00AC
:1045100013441B68002B09D0114B1A68099B9B00A0
:1045200013441A68019B009910469847099B013370
:1045300009930C4B1B68099A9A42E5DB00F038F8A6
:104540009DF823308DF813309DF813300393039BAF
:1045500083F3118800BF00BF00BF0BB05DF804FB00
:10456000440800244808002482B0EFF30583009338
:10457000009B002B14BF01230023DBB283F0010357
:10458000DBB2002B0FD0094B1B680193019B002B62
:1045900009D0019BB3F948309BB201339BB21AB2E8
:1045A000019BA3F8482000BF02B070471C080024FC
:1045B00000B58BB0EFF305830893089B002B14BF65
:1045C00001230023DBB283F00103DBB2002B5AD0BE
:1045D0002F4B1B680193019B002B54D0019BB3F917
:1045E000482092B2013A92B212B2A3F84820B3F92D
:1045F0004830002B47D1EFF311830793079BDBB2C1
:104600008DF81B3080230593059B83F3118800BF31
:104610009DF81B308DF827301E4B1B68002B14D0E3
:1046200002F050F80346002B0FD0EFF305830493FC
:10463000049B002B14BF01230023DBB283F0010392
:10464000DBB2002B01D0022000DF019B5B6C03F08A
:104650001803082B0BD1019BDB6C002B07D10C4BF3
:104660001A68019B9A4202D0019B1422DA649DF8D9
:1046700027308DF80F309DF80F300293029B83F3A3
:10468000118800BF00BF00BF0BB05DF804FB00BF86
:104690001C0800242808002400B591B00390029162
:1046A0000192EFF311830D930D9BDBB28DF8333044
:1046B00080230B930B9B83F3118800BF9DF833304D
:1046C0008DF83F30039B93F84030052B2CD1039B92
:1046D0001B6F1B7903F00403002B25D0039B1B6F7A
:1046E0000893089B1B6823F000430793079A1D4B10
:1046F00013401C4A934201D0079B01E04FF0FF3367
:104700000E939DF83F308DF82B309DF82B30099398
:10471000099B83F3118800BF00BF0E9B124A0199C9
:10472000029808F080FE18E09DF83F308DF81B30AD
:104730009DF81B300593059B83F3118800BF00BFD4
:10474000039B93F840301A46084B53F82230019AE5
:10475000194602980AF0A0FA00BF00BF11B05DF838
:1047600004FB00BFFEFFFF7F2C390208403902081E
:1047700086B00390029111461A460B46ADF80630FA
:1047800013468DF805300023059320E0029B9DF829
:1047900005201A77029B03F1200202920493049BE6
:1047A00000221A60039B1B68002B06D1039B049A0E
:1047B0001A60039B049A5A6006E0039B5B68049AA4
:1047C0001A60039B049A5A60059B01330593BDF858
:1047D0000630059A9A42D9DB029B184606B070470C
:1047E00086B00390029111461A460B46ADF806308A
:1047F00013468DF805300023059320E0029B9DF8B9
:1048000005201A75029B03F1180202920493049B7F
:1048100000221A60039B1B68002B06D1039B049A9D
:104820001A60039B049A5A6006E0039B5B68049A33
:104830001A60039B049A5A60059B01330593BDF8E7
:104840000630059A9A42D9DB029B184606B070479B
:1048500000B583B01F4B01931F4B00221A601E4B03
:1048600000225A601D4B00221A601C4B00225A6025
:104870001B4B00221A601A4B00225A60194B00226F
:104880001A60184B00225A60174B00221A60164B10
:1048900000225A600023042201991048FFF768FFA4
:1048A00001900223082201990D48FFF761FF019052
:1048B0000023042201990B48FFF792FF0190022385
:1048C000082201990848FFF78BFF019000BF03B051
:1048D0005DF804FBE0130024B8130024C013002487
:1048E000C8130024D0130024D813002400B587B0C7
:1048F000019000230593019B002B18D0019B0E4AC9
:10490000A2FB03239B0C0493049B0293049B0B4A7E
:1049100002FB03F3019AD31A4FF47A7202FB03F3FA
:10492000039302AB0021184602F0A1F90590059B04
:10493000184607B05DF804FB83DE1B4340420F00BE
:1049400000B58BB005900491039200230993059B59
:10495000002B06D0039B002B03D0059B1B6B002B69
:1049600004DC049B00221A70002340E0059B5B6C72
:1049700003F00303012B13D1059B0793079BDA6B0D
:10498000079BD3F8B030009313461B4A0399049851
:1049900008F049FD03461A46099B1344099320E099
:1049A000059802F05EF803460433089311E0049A78
:1049B000099BD018039A099BD11A089B1A1D0892CB
:1049C0001B680E4A08F02FFD03461A46099B134444
:1049D0000993089B1B68002B03D0099A039B9A42FA
:1049E000E5D3039B5A1E099B934228BF13461846E2
:1049F0000BB05DF804FB00BF643902086C39020893
:104A000000B58FB00990079206930B468DF82330BE
:104A10009DF82330022B01D1AC2301E04FF45673F3
:104A200018460AF059FC0D900D9B002B02D16FF037
:104A30000B0326E09DF8233043F400431A460D9BF8
:104A40005A64109B00220492139A0392129A0292C3
:104A5000119A01920093069B079A09990D9800F00C
:104A600015F80C900C9B002B04DA0D980AF0EEFB65
:104A70000C9B06E00D9B1B6B0B930D9800F00AFB43
:104A80000B9B18460FB05DF804FB000000B589B021
:104A90000590049103920293059B5B6CDBB203F0DB
:104AA00003038DF81B30059B5B6CDBB21946059840
:104AB00001F028F90790079B002B01DA079B75E0AE
:104AC000059B184600F09CFB059B002283F8A8205C
:104AD000059B9B680D99184600F016FF0790079BF1
:104AE000002B41DB01220E99059801F0AFFA0790E7
:104AF000079B002B3ADB029B002B07D0059B0A9AF1
:104B0000029918460CF01DFD079007E0059B9DF8E3
:104B10001B200A9918460CF0B1FB0790079B002B4D
:104B200026DB9DF81B3000930B9B224A03990598C6
:104B300000F09CFA0790079B002B1BDB059B184697
:104B400000F038FE0790079B002B15DB0C9A0499A8
:104B5000059800F0E7F90790079B002B0EDB0598FE
:104B600001F026F9079B21E000BF08E000BF06E046
:104B700000BF04E000BF02E000BF00E000BF029BF6
:104B8000002B0AD1059B9B6E002B06D0059B9DF840
:104B90001B20114618460CF0F1FB059B184600F04F
:104BA00023FB059B184601F085F9079B184609B0C1
:104BB0005DF804FB1951000800B587B00190019B16
:104BC0000593059B5B680493059B1B680393049BFB
:104BD000002B03D1124A039B136002E0049B039A4B
:104BE0001A60039B002B03D10D4A049B536002E023
:104BF000039B049A5A60059B00221A60059B0022C1
:104C00005A60019B5B6CDBB203F00303DBB2194615
:104C1000019801F05FFE00BF07B05DF804FB00BF24
:104C20003808002400B597B00190EFF311830F937B
:104C30000F9BDBB28DF83B3080230D930D9B83F3EC
:104C4000118800BF9DF83B308DF84F30674B1B68D3
:104C5000013315930023149333E0159B002B01DCE3
:104C600001231593624B1B68013B159A1340109367
:104C7000604B1A68109B9B0013441B68002B1AD1D1
:104C80005C4B1A68109B9B001344019A1A60019BAD
:104C9000159A1A63554A159B13609DF84F308DF88D
:104CA00033309DF833300B930B9B83F3118800BF97
:104CB00000BF002395E0159B01331593149B01332E
:104CC00014934B4B1B68149A9A42C6DB494B1B68E2
:104CD00012939DF84F308DF82B309DF82B300993AF
:104CE000099B83F3118800BF00BF414B1B68DB00A9
:104CF00018460AF0F1FA1190119B002B02D16FF0C7
:104D00000B036EE0EFF311830893089BDBB28DF881
:104D10001F3080230693069B83F3118800BF9DF804
:104D20001F308DF84F30334B1B68129A9A420FD0C8
:104D30009DF84F308DF817309DF817300493049B81
:104D400083F3118800BF00BF11980AF07FFA6CE767
:104D5000274B1B685B00264A13600023149323E053
:104D6000244B1A68149B9B0013441B68002B17D01C
:104D7000204B1A68149B9B0013441B681A6B1C4B36
:104D80001B68013B134010931A4B1A68149B9B003D
:104D90001A44109B9B0011990B4412681A6000E0A2
:104DA00000BF149B01331493114B1B68002B00DAD6
:104DB00001335B101A46149B9342D1DB0D4A119BC1
:104DC00013609DF84F308DF80F309DF80F3002932F
:104DD000029B83F3118800BF00BF12980AF036FAD5
:104DE00023E7184617B05DF804FB00BF4008002415
:104DF000480800244408002400B58FB003900291B5
:104E000001920093454B1B680D930398FFF70AFF2F
:104E10000C900C9B002B7CD1029BDAB2039B83F895
:104E20003420029BDAB2039B83F83520039B019A5E
:104E30009A63009A039BDA639DF8403003F0030302
:104E40008DF84030039B5B6C23F00302039B5A6494
:104E5000039B5A6C9DF840301A43039B5A64039B92
:104E60005B6C23F01802039B5A64039B5B6C43F05A
:104E70000802039B5A64039B1422DA64039B0D9A75
:104E80007433743292E8030083E80300039B00222A
:104E900083F8402003980CF0E7FBEFF311830993AC
:104EA000099BDBB28DF8233080230793079B83F3A4
:104EB000118800BF9DF823308DF82F30039B0A9393
:104EC0000A9B00225A60164B1A680A9B1A60144B00
:104ED0001B68002B06D1124A0A9B1360104A0A9BDA
:104EE000536006E00E4B1B680A9A5A600C4A0A9BF4
:104EF0001360039B042283F840209DF82F308DF827
:104F00001B309DF81B300593059B83F3118800BF70
:104F100000BF0C9B18460FB05DF804FB1C08002472
:104F20003808002400B58DB0039002910192029BD5
:104F3000002B01D14C4B0293029809F02EFF03463F
:104F400001330A9300230993019B002B26D01EE016
:104F5000099B9B00019A13441B68184609F01DFF2A
:104F600002460A9B134401330A93039B5B6E0A9A21
:104F70009A4202D36FF0230372E0099B0133099335
:104F8000099BB3F5807F02DD6FF0060368E0099BA3
:104F90009B00019A13441B68002BD9D1099B023353
:104FA0009B0007930398079A0A9B134419460CF039
:104FB0009BFA0690069B002B02D16FF00B034FE08B
:104FC000069A079B13440B93069B0B9A1A60029850
:104FD00009F0E3FE0346013305930A9A02990B9800
:104FE00009F05AFE059B0B9A13440B93059B0A9AF2
:104FF000D31A0A930023089326E0089B01339B00F1
:10500000069A13440B9A1A60089B9B00019A13445A
:105010001B68184609F0C1FE034601330593089B3F
:105020009B00019A13441B680A9A19460B9809F0D1
:1050300033FE059B0B9A13440B93059B0A9AD31AD4
:105040000A93089B01330893089A099B9A42D4DB80
:10505000099B01339B00069A134400221A60002327
:1050600018460DB05DF804FB7039020800B587B032
:1050700005900491039202939DF820300093029BC7
:10508000039A04990598FFF7B7FE0346184607B040
:105090005DF804FB00B58BB00190EFF3118308932A
:1050A000089BDBB28DF81F3080230693069B83F3A9
:1050B000118800BF9DF81F308DF82730154B1B68F5
:1050C0000293019801F064FB019801F0F5F90346A1
:1050D000002B0FD0EFF305830593059B002B14BF26
:1050E00001230023DBB283F00103DBB2002B01D0EC
:1050F000022000DF9DF827308DF813309DF8133023
:105100000393039B83F3118800BF00BF00BF0BB064
:105110005DF804FB1C08002400B587B01A4B1B681F
:105120000393039B5B6CDBB203F003038DF80B303E
:1051300001230593039801F094FC0190002304934C
:1051400002E0049B01330493019B002B06D0049BD7
:105150009B00019A13441B68002BF2D19DF80B3081
:10516000022B06D1039BDB6B0199049898470590AD
:1051700006E0039BDB6B019A0499184607F0E4FEF6
:10518000059800F003F800BF1C08002400B587B0A4
:105190000190144B1B680593019BDBB20193059BA7
:1051A0005B6C03F00303022B02D0059800F0B8FFFC
:1051B000EFF311830493049BDBB28DF80F3080234F
:1051C0000293029B83F3118800BF059B5B6C43F441
:1051D0008072059B5A640199059801F008FE0198B8
:1051E0000CF096F81C08002400B583B00190019BD8
:1051F0001C33184601F044FC00BF03B05DF804FB0B
:1052000000B583B00190019B00221A61019B00222E
:105210005A61019B1C3300220021184607F0A3FEAF
:1052200000BF03B05DF804FB00B58FB00990089192
:10523000079206934FF456700AF04EF80D900D9BAE
:10524000002B02D16FF00B0335E00D9B4FF40042B1
:105250005A64069B139A0492129A0392119A02922C
:10526000109A01920093079B089A09990D98FFF7ED
:105270000DFC0C900C9B002B04DA0D9809F0E6FF56
:105280000C9B18E00D9B1B6B0B93149B002B07D002
:1052900014990B9801F038FE0C900C9B002B05DB49
:1052A0000D9B1846FFF7F6FE0B9B04E000BF0D9820
:1052B000FFF782FC0C9B18460FB05DF804FB10B59D
:1052C00090B0099008910792069300230F93002352
:1052D0000C93129B002B09D0129B5B780D93129BB1
:1052E000DB680E93129B1B690F930FE00AAB194604
:1052F000002001F041FB0C900C9B002B01DA0C9B71
:105300002BE00A9B0D934FF400630E930E9C149BAD
:10531000002B03D100F0EAFA034600E0149B129A36
:105320000492069A03920293139B0193079B0093A6
:1053300023460F9A0D990898FFF776FF0B900B9B69
:10534000002B03DA0B9B0C930C9B06E00B9B002BB2
:1053500002D0099B0B9A1A600C9B184610B010BD26
:1053600000B58BB007900691059204934FF0FF3380
:105370000893059B002B02D0059B1B6800E00023CF
:1053800008A80D9A02920C9A0192049A0092069A29
:105390000799FFF794FF0990099B002B01DB089BFD
:1053A00000E0099B18460BB05DF804FB82B01F4B70
:1053B00000221A601D4B00225A600023019329E04D
:1053C0001B49019A13461B019B1A9B000B4408338F
:1053D00001221A70019A13461B019B1A9B00144A62
:1053E00013440093009B00221A60104B1B68002B93
:1053F00006D10E4A009B13600C4A009B536006E0E6
:105400000A4B5B68009A1A60084A009B5360019B34
:1054100001330193019B032BD2DD064B00221A605E
:10542000044B00225A6000BF02B07047701700247E
:10543000801600247817002400B599B0019000234D
:10544000039300230493EFF311830F930F9BDBB2BD
:105450008DF83B3080230D930D9B83F3118800BFA3
:105460009DF83B308DF853306D4B1B6817936BE004
:10547000179B1B681393179BDB68019A9A4261D1B3
:10548000179B1193664B1B68002B49D0119B002B77
:1054900046D0634B1B68119A9A4210D1604A119B07
:1054A0001B6813605E4B5B68119A9A4203D15C4B98
:1054B00000225A6034E0119B00221A6030E0584B01
:1054C0001B68169329E0169B1B68119A9A4221D1FA
:1054D000169B0C93524B0B930C9B1B680A930B9BD4
:1054E0001B68002B15D00A9B002B12D00B9B5B680E
:1054F0000A9A9A4206D10B9B0C9A5A600C9B002286
:105500001A6003E00A9B1A680C9B1A600A9B00222F
:105510001A6000BF169B1B681693169B002BD2D1F6
:10552000179B1093109B00221A60039B002B04D141
:10553000109B0393109B049304E0049B109A1A6041
:10554000109B0493139B1793179B002B90D19DF8EE
:1055500053308DF827309DF827300893089B83F34C
:10556000118800BF00BF039B179351E0179B1B6876
:105570001393179B1293039B002B44D0129B002B79
:1055800041D0039B129A9A420DD1129B1B68039340
:10559000049B129A9A4202D10023049333E0129B97
:1055A00000221A602FE0039B159329E0159B1B68CE
:1055B000129A9A4221D1159B079303AB0693079B3E
:1055C0001B680593069B1B68002B15D0059B002BC1
:1055D00012D0069B5B68059A9A4206D1069B079AF1
:1055E0005A60079B00221A6003E0059B1A68079B1C
:1055F0001A60059B00221A6000BF159B1B6815935B
:10560000159B002BD2D1179800F0B2F8139B17937B
:10561000179B002BAAD100BF00BF19B05DF804FB97
:105620007817002400B591B00190EFF311830B932C
:105630000B9BDBB28DF82B3080230993099B83F3FE
:10564000118800BF9DF82B308DF83B30019B0D93E6
:10565000454B1B68002B49D00D9B002B46D0424B7D
:105660001B680D9A9A4210D13F4A0D9B1B6813602C
:105670003D4B5B680D9A9A4203D13B4B00225A6026
:1056800034E00D9B00221A6030E0374B1B680F930B
:1056900029E00F9B1B680D9A9A4221D10F9B08931A
:1056A000314B0793089B1B680693079B1B68002BD5
:1056B00015D0069B002B12D0079B5B68069A9A4276
:1056C00006D1079B089A5A60089B00221A6003E0E3
:1056D000069B1A68089B1A60069B00221A6000BF8E
:1056E0000F9B1B680F930F9B002BD2D1019B1B7A42
:1056F00003F00103002B22D0019B0C930C9B002292
:105700001A601A4B1B68002B06D1184A0C9B1360B9
:10571000164A0C9B536006E0144B5B680C9A1A60A7
:10572000124A0C9B53609DF83B308DF817309DF862
:1057300017300493049B83F3118800BF0FE09DF89A
:105740003B308DF80F309DF80F300293029B83F3AE
:10575000118800BF00BF019809F078FD00BF00BFAD
:1057600011B05DF804FB00BF781700247017002407
:1057700000B583B00190019B002B02D16FF015039F
:1057800014E0019B5B7A012B07D9019B5B7A013BFB
:10579000DAB2019B5A72012308E0019B1C331846C0
:1057A00000F02EF80198FFF73DFF0023184603B0E4
:1057B0005DF804FB00B585B00190102101980BF055
:1057C00093FE0390039B002B02D16FF00B0312E0BA
:1057D000019BDA6E019B9B6ED31A9AB2039BDA800F
:1057E000019B9B68D3F80422039B1A60019B1A6BF0
:1057F000039BDA600023184605B05DF804FB000047
:105800008CB00190EFF311830993099BDBB28DF803
:10581000233080230793079B83F3118800BF9DF8F3
:1058200023308DF82F30019B002B03D0019BDB68C8
:10583000002B0ED19DF82F308DF81B309DF81B30BA
:105840000593059B83F3118800BF00BF6FF015031C
:105850002BE0174B5A68019B9A420CBF012300238F
:105860008DF82E30019B0A930A9B5B680A9A126896
:105870001A600A9B1B680A9A52685A600A9B0022A7
:105880005A600A9B5A680A9B1A60019B0022DA60E0
:105890009DF82F308DF813309DF813300393039B40
:1058A00083F3118800BF00BF002318460CB0704777
:1058B000B800002408B50BF0C9F800F015F800BFD7
:1058C00008BD0000074BBFF35B8F53E8001F01F1D9
:1058D000010143E80012002AF7D1BFF35B8F00BF3C
:1058E000704700BF8017002400BF704782B0054B8F
:1058F0001B680193019B9B68D3F81832184602B0CD
:10590000704700BF1C08002410B58CB001900091B6
:1059100000230B9300230A9300230993009B002B81
:1059200000F0A080019BD3F81832002B40F09A8041
:10593000EFF311830693069BDBB28DF817308023BB
:105940000493049B83F3118800BF9DF817308DF8F2
:10595000233002E00A9B01330A930A9B9B00009AC2
:1059600013441B68002BF5D10A9A019BC3F820222F
:105970000A9B05331A46019BC3F81C220A9B002B85
:1059800060D0019BD3F81C329B00184609F06EFCD6
:1059900003460B930B9B002B03D16FF00B03099372
:1059A00050E00A9B9B000B9A134400221A6044E0CB
:1059B0000A9B9B00009A13441B68184609F0EDF9F6
:1059C0000346013307930A9B9B000B9AD418079850
:1059D00009F04CFC034623600A9B9B000B9A13447E
:1059E0001B68002B1BD107E00A9B9B000B9A1344FA
:1059F0001B68184609F02AFC0A9B01330A930A9B8C
:105A00009B000B9A13441B68002BEDD10B9809F0F7
:105A10001DFC00230B936FF00B03099312E00A9B0C
:105A20009B000B9A134418680A9B9B00009A13442E
:105A30001B68079A194609F02FF90A9B5A1E0A9209
:105A4000002BB5D1019B0B9AC3F818229DF8233087
:105A50008DF80F309DF80F300293029B83F311886D
:105A600000BF00BF099B18460CB010BD10B598B020
:105A700005900491039200231793059B002B02D1FC
:105A800016231793DEE0049B002B03D0049B1B78A6
:105A9000002B09D1039B002B04D0059800F0E0F8FF
:105AA0000346D6E00023D4E0EFF311830E930E9B60
:105AB000DBB28DF8373080230C930C9B83F3118875
:105AC00000BF9DF837308DF85B30634B1B68159332
:105AD000159B9B681493149BD3F81832002B1CD091
:105AE0000599149801F08DFD1790179B002B14DB7E
:105AF000039B002B0DD19DF85B308DF82F309DF866
:105B00002F300A930A9B83F3118800BF00BF002344
:105B10009FE01799149801F0A5FD059809F03DF94B
:105B20000446049809F039F90346234402331393D9
:105B3000139B184609F09AFB03461293129B002B05
:105B400002D10C23179371E0149BD3F820321193E8
:105B5000149BD3F81832002B17D106231093109BF7
:105B60009B00184609F082FB03460F930F9B002B06
:105B700002D10C23179356E0149B0F9AC3F81822F6
:105B8000149B109AC3F81C2221E0149BD3F81C32FA
:105B9000013B119A9A421ADB119B06331093149B16
:105BA000D3F81822109B9B001946104609F078FB89
:105BB0000F900F9B002B02D10C23179333E0149B03
:105BC0000F9AC3F81822149B109AC3F81C22149B36
:105BD000D3F81822119B591C11919B001344129A5F
:105BE0001A60149BD3F81822119B9B0013440022C7
:105BF0001A60149B119AC3F820221399049B0093F6
:105C0000059B164A129807F00EFC9DF85B308DF844
:105C100027309DF827300893089B83F3118800BF35
:105C200000BF002315E0129809F010FB9DF85B30CF
:105C30008DF81F309DF81F300693069B83F3118863
:105C400000BF00BF06F08AFF0246179B13604FF0AB
:105C5000FF33184618B010BD1C0800247C39020818
:105C600000B58DB00190264B1B680B930B9B9B6876
:105C70000A93019B002B0AD0019B1B78002B06D0B6
:105C80003D21019809F071F80346002B07D006F07A
:105C900065FF034616221A604FF0FF332CE0EFF346
:105CA00011830793079BDBB28DF81B30802305938C
:105CB000059B83F3118800BF9DF81B308DF82730BA
:105CC0000A9B002B0BD001990A9801F09AFC0890CE
:105CD000089B002B03DB08990A9801F0C3FC9DF890
:105CE00027308DF813309DF813300393039B83F313
