:020000040800F2
:10000000585B00249513000811140008111400080F
:10001000111400081114000811140008111400082C
:10002000111400081114000811140008111400081C
:10003000111400081114000811140008D11D000843
:10004000D11D0008D11D0008D11D0008D11D0008D8
:10005000D11D0008D11D0008D11D0008D11D0008C8
:10006000D11D0008D11D0008D11D0008D11D0008B8
:10007000D11D0008D11D0008D11D0008D11D0008A8
:10029000D11D0008D11D000882B0BFF34F8FBFF3FE
:1002A0006F8F0B4B1B680193019B23F0010301939C
:1002B000074A019B136005230193064A019B1360C3
:1002C000BFF34F8FBFF36F8F00BF02B0704700BF07
:1002D00090EF00E094EF00E000B583B0224B009374
:1002E00004E0009B1A1D009200221A60009B1F4A26
:1002F0009342F6D31E4B01931E4B009307E0019AE5
:10030000131D0193009B191D009112681A60009B38
:10031000194A9342F3D300F099FA01F051F800F032
:10032000B5FA412000F09CFAFFF7B6FF02F0A6F9FB
:10033000422000F095FA00F0A9FF00F0C5FF43202D
:1003400000F08EFA00F0B2FE442000F089FA452059
:1003500000F086FA0D2000F083FA0A2000F080FAFF
:1003600004F01CFB00BFFDE70007002458570024E1
:10037000F8B7050800000024F806002482B0184BE6
:100380001B680193019B43F001030193144A019BF5
:100390001360144B01221A60134B00221A60104B99
:1003A0001B680193019A114B13400193019B43F089
:1003B000100301930A4A019B13600D4B0D4A1A600A
:1003C000074B1B680193019B23F480230193044A8C
:1003D000019B1360084B00221A6000BF02B07047F7
:1003E00000440258088100511044025867EFFEEAA9
:1003F0002C4402580000FF016044025882B0044BB4
:100400001B680193024A019B136000BF02B0704752
:10041000D844025882B0044B1B680193024A019BE6
:10042000136000BF02B07047DC44025882B0044B36
:100430001B680193024A019B136000BF02B0704722
:10044000D444025882B0064B1B680193019B43F0D1
:10045000FF030193024A019B136000BF02B0704783
:10046000E044025882B00D4B1B680193019B43F49A
:1004700080430193019B43F480030193074A019B4E
:100480001360074B1B680193019B43F48073019336
:10049000034A019B136000BF02B07047E844025852
:1004A000EC44025882B0064B1B680193019B43F455
:1004B00080530193024A019B136000BF02B0704752
:1004C000F044025882B0044B1B680193024A019B1E
:1004D000136000BF02B07047E444025882B0064B7C
:1004E0001B680193019B43F002030193024A019BA5
:1004F000136000BF02B07047F444025808B5FFF71C
:100500007DFFFFF787FFFFF791FFFFF79BFFFFF7E7
:10051000A9FFFFF7C7FFFFF7D5FFFFF7DFFF00BF1A
:1005200008BD000082B00F4B1B680193019B23F4B0
:1005300080230193019B43F480330193094A019B7B
:100540001360094B009308E0064B1B6803F400336B
:10055000002B0BD1009B013B0093009B002BF3DC95
:1005600005E000BF004402581CC5410000BF009BCD
:10057000002B40F36681934B1B680193019A924BC9
:1005800013400193019B43F0080301938D4A019BA3
:1005900013608E4B1B680193019B23F4E06301936E
:1005A000019B43F040030193884A019B1360874BF2
:1005B0001B680193019B23F4E0630193019B43F4C7
:1005C00080630193814A019B13607E4B1B680193FA
:1005D000019B23F070030193019B43F040030193BF
:1005E000784A019B13607A4B1B680193019B23F0AF
:1005F00070030193019B43F040030193744A019BF4
:100600001360744B0193744A019B1360734B019305
:10061000734A019B1360734B0193734A019B1360F0
:10062000724B0193724A019B1360724B0193724AA1
:10063000019B1360714B1B680193019B43F0807316
:100640000193019B43F080630193019B43F080532E
:1006500001936A4A019B136000BF684B1B6803F05B
:100660000073002BF9D000BF644B1B6803F00063DC
:10067000002BF9D000BF614B1B6803F00053002B27
:10068000F9D05F4B1B680193019B43F00603019374
:100690005B4A019B13605B4B1B680193019B23F436
:1006A00040430193019B43F440430193554A019B0E
:1006B000136000BF534B1B6803F40053002BF9D0A9
:1006C00000BF514B1B6803F40053002BF9D02423C7
:1006D00001934E4A019B13604D4B1B680193019B94
:1006E00023F007030193019B43F003030193484A5E
:1006F000019B136000BF464B1B6803F03803182BA7
:10070000F9D1444B1B680193019B23F4803301937F
:10071000404A019B1360404B1B680193019B23F4EB
:1007200040530193019B43F4005301933A4A019BC8
:1007300013603A4B1B680193019B23F440730193B0
:10074000019B43F400730193344A019B1360344BC3
:100750001B680193019B23F4E0430193304A019B02
:1007600013602F4B1B680193019B23F4E02301933B
:10077000019B43F480330193294A019B1360274B6B
:100780001B680193019B23F0E0430193234A019BE3
:100790001360214B1B680193019B23F440130193C9
:1007A000019B43F4401301931B4A019B13601B4BB5
:1007B0001B680193019B23F440330193174A019B6B
:1007C00030E000BF18440258F0F0FFFF1C4402580C
:1007D00020440258121020002844025863020303E8
:1007E000304402584A0E17023844025863020F0977
:1007F000404402588804FF012C4402580044025827
:100800000C48025818480258044802580020005268
:10081000104402584C440258544402585844025858
:10082000504402581360084B1B680193019B23F04E
:1008300040530193019B43F000530193024A019BF3
:10084000136000BF02B070475044025808B5FFF76C
:1008500095FDFFF767FEFFF751FE00BF08BD0000E2
:1008600082B003468DF8073000BF064B1B6803F0CB
:100870008003002BF9D0044A9DF80730136000BFB5
:1008800002B070471C4800402848004000B583B0C3
:100890004FF4802200211D4800F0CBFC1C4800F0E2
:1008A00025FE1C4800F022FE1B4B1B680193019A99
:1008B00048F28F0313400193174A019B1360174BB3
:1008C0001B680193019A164B13400193134A019B35
:1008D0001360144B1B680193019A134B134001934F
:1008E000104A019B1360114B4FF459721A600B4B65
:1008F0001B680193019B43F00D030193074A019B81
:10090000136000BF03B05DF804FB00BFE844025869
:10091000387C0900397C0900044800400048004048
:1009200003000030084800400000F1FF0C48004080
:1009300082B0EFF311830193019BDBB2184602B042
:10094000704782B00190019B83F3118800BF02B011
:10095000704700B583B0FFF7EBFF03468DF8073013
:100960008020FFF7EEFF9DF80730184603B05DF8D2
:1009700004FB00B583B003468DF807309DF80730BF
:100980001846FFF7DEFF00BF03B05DF804FB82B03E
:1009900001900091019BD3F8A820009B13441B6891
:1009A000184602B0704784B0039002910192039BF5
:1009B000D3F8A820029B13441A46019B136000BF82
:1009C00004B0704700B585B001900B46ADF8023019
:1009D000019BBDF80220A3F8902000210198FFF7A9
:1009E000D6FF0390039B23F4D8730393BDF8023022
:1009F00003F4D873039A13430393039A00210198D5
:100A0000FFF7D1FF08210198FFF7C1FF0390039B77
:100A100023F001030393BDF8023003F00103039AAE
:100A200013430393039A08210198FFF7BCFF00BF0B
:100A300005B05DF804FB00B585B001900B46ADF83C
:100A40000230FFF786FF03468DF80F30BDF8023005
:100A500019460198FFF7B6FF9DF80F301846FFF7CB
:100A600088FF00BF05B05DF804FB00B587B00190BA
:100A70000091FFF76EFF03468DF81730009B002BA7
:100A800017D000210198FFF782FF049008210198F8
:100A9000FFF77DFF0390049B9BB203F4D8739AB2D7
:100AA000039B9BB203F001039BB213439AB2009BDA
:100AB0001A8000210198FFF785FF9DF8173018462E
:100AC000FFF757FF00BF07B05DF804FB00B58BB020
:100AD0000190019BDB6F0693FFF73BFF03468DF808
:100AE000173000210698FFF752FF0890089B03F08B
:100AF00001030493089B23F001030893089A002143
:100B00000698FFF750FF069BD3F8A4305A00069BC7
:100B1000D3F89C305B081A44069BD3F89C30B2FB98
:100B2000F3F30393039B642B08D9039B01335B0806
:100B30000793089B23F4004308930DE0039A4FF6B4
:100B4000F0731340039A520802F00702134307930D
:100B5000089B43F400430893089A00210698FFF786
:100B600022FF079A0C210698FFF71DFF089A394BC0
:100B700013400893069B93F89630012B04D1089BF1
:100B800043F4C063089308E0069B93F89630022B69
:100B900003D1089B43F480630893069B93F8973036
:100BA000092B09D0069B93F89730082B09D1069B97
:100BB00093F89630002B04D0089B43F4805308939D
:100BC0000DE0069B93F89730072B08D1069B93F80E
:100BD0009630002B03D1089B43F080530893089A6A
:100BE00000210698FFF7DFFE04210698FFF7CFFEED
:100BF0000990099B23F440530993069B93F898307E
:100C0000002B03D0099B43F400530993099A042154
:100C10000698FFF7C8FE08210698FFF7B8FE09906E
:100C2000099B23F440730993099A08210698FFF75A
:100C3000BAFE089A049B13431A4600210698FFF750
:100C4000B2FE9DF817301846FFF793FE00BF0BB0B9
:100C50005DF804FBFFE9FFEF00B587B001900B469C
:100C60008DF80330019BDB6F0593059BD3F8A8300B
:100C70000E4A934215D14FF4802304930C4B0393F7
:100C800000BF9DF80330002B05D0049A0021039883
:100C900000F0CFFA06E000220499039800F0C9FAA8
:100CA00000E000BF07B05DF804FB00BF0048004053
:100CB000E844025800B585B00190019BDB6F0293B8
:100CC000002200210298FFF76EFE01210198FFF734
:100CD000C3FF029BD3F8AC30184600F007FC029B20
:100CE000D3F8B030184600F001FC04210298FFF759
:100CF0004EFE0390039B23F47D530393029B93F8D2
:100D00009830002B03D0039B43F400530393039AC2
:100D100004210298FFF747FE00210298FFF737FEF3
:100D20000390039A1F4B13400393039A00210298E8
:100D3000FFF739FE08210298FFF729FE0390039A76
:100D4000194B13400393029B93F895305B06039A6B
:100D500013430393039A08210298FFF724FE019896
:100D6000FFF7B4FE00210298FFF711FE0390039BEA
:100D700043F00D030393039B43F000530393039A43
:100D800000210298FFF70FFE029B0022A3F890209B
:100D9000029B012283F894200023184605B05DF8D9
:100DA00004FB00BF03BEFF33FEF8FFFF00B585B0B4
:100DB0000190019BDB6F0393039B002283F8942037
:100DC00000210398FFF751FE00210198FFF744FF2F
:100DD00000210398FFF7DBFD0290029B23F00D0337
:100DE0000293029A00210398FFF7DDFD039BD3F8DD
:100DF000AC30184600F016FD039BD3F8B03018460F
:100E000000F010FD00BF05B05DF804FB00B585B033
:100E10000190019BDB6F0393039B93F8A030039A2F
:100E20000949184603F0F2FE0290029B002B05D1FF
:100E3000039B93F8A030184600F03CFF029B184635
:100E400005B05DF804FB00BF7D0E000800B585B05D
:100E50000190019BDB6F0393039B93F8A03018462E
:100E600000F004FF039B93F8A030002200211846F5
:100E700003F0CCFE00BF05B05DF804FB00B587B001
:100E8000039002910192019B05931C210598FFF7A5
:100E90007EFD03469AB2059BA3F89220059BB3F80A
:100EA000923003F02003002B0BD0059BB3F8903059
:100EB00003F02003002B04D0059B18460DF092FA96
:100EC0000BE0059BB3F8923003F00E03002B04D027
:100ED0000E2220210598FFF766FD059BB3F892309E
:100EE00003F08003002B0AD0059BB3F8903003F089
:100EF0008003002B03D0059B18460DF0CCF900238E
:100F0000184607B05DF804FB86B003900291019289
:100F1000002305936FF01803059300BF059B184647
:100F200006B0704700B585B001900091019BDB6F62
:100F3000039324210398FFF72AFD0290039BB3F843
:100F400092301A04029B1A43009B1A60039B0022F2
:100F5000A3F89220029BDBB2184605B05DF804FBB3
:100F600000B587B001900B468DF80330019BDB6F15
:100F70000493FFF7EEFC03468DF80F30049BB3F8A3
:100F80009030ADF816309DF80330002B06D0BDF838
:100F9000163043F02003ADF8163007E0BDF81630E8
:100FA00023F4907323F00103ADF81630BDF816302A
:100FB00019460498FFF73FFD9DF80F301846FFF7DC
:100FC000D8FC00BF07B05DF804FB00B585B0019008
:100FD000019BDB6F03931C210398FFF7D8FC0346AA
:100FE00003F02003002B14BF01230023DBB21846BB
:100FF00005B05DF804FB00B585B001900091019B40
:10100000DB6F0393009B1A4628210398FFF7CBFC64
:1010100000BF05B05DF804FB00B585B001900B463C
:101020008DF80330019BDB6F0393FFF792FC0346BF
:101030008DF80B309DF80330002B0DD0039BB3F8D7
:10104000903043F08003ADF80830BDF80830194601
:101050000398FFF7F0FC09E0039BB3F8903023F00E
:1010600080039BB219460398FFF7E5FC9DF80B300F
:101070001846FFF77EFC00BF05B05DF804FB00B525
:1010800085B00190019BDB6F03931C210398FFF750
:101090007EFC034603F08003002B14BF01230023D2
:1010A000DBB2184605B05DF804FB000000B583B064
:1010B0000023019310E00E4A019B52F82330002BCD
:1010C00007D00B4A019B52F8233000211846FFF746
:1010D000CCFC019B01330193019B072BEBD9054B02
:1010E0001846FFF7E7FD00BF03B05DF804FB00BF43
:1010F0003CCD04080000002400B587B00023049311
:10110000214B194621480DF03FF81F4B1946204846
:101110000DF03AF8012304936B4610221D4918463E
:1011200012F076FB0023059325E01B4A059B52F83D
:101130002330002B19D0184A059B52F823309B7896
:10114000002B14D1049B5A1C0492DBB23033DBB267
:101150008DF80930104A059B52F823301A466B4629
:10116000114618460DF010F802E000BF00E000BF85
:10117000059B01330593059B072BD6D900BF00BF04
:1011800007B05DF804FB00BF000000245CCD04083C
:101190006CCD040878CD04083CCD040800B585B0BA
:1011A00001900B4B03930DF10A0319460398FFF7C7
:1011B0005CFC019BDBB21846FFF752FBBDF80A301E
:1011C00019460398FFF737FC00BF05B05DF804FB34
:1011D0000000002482B0EFF311830193019BDBB286
:1011E000184602B0704782B00190019B83F31188CA
:1011F00000BF02B0704700B583B0FFF7EBFF0346B6
:101200008DF807308020FFF7EEFF9DF80730184675
:1012100003B05DF804FB00B583B003468DF80730DA
:101220009DF807301846FFF7DEFF00BF03B05DF8FA
:1012300004FB00B587B0039002910192FFF7DBFF3A
:1012400003468DF81730039B1B680493029BDB4316
:10125000049A13400493049A019B13430493039B41
:10126000049A1A609DF817301846FFF7D4FF00BFA4
:1012700007B05DF804FB84B00190019BB3FA83F3DF
:101280000393039B184604B07047000082B0BFF37D
:101290004F8FBFF36F8F0A4B00221A60094B1B68F8
:1012A0000193019B43F400330193064A019B1360B1
:1012B000BFF34F8FBFF36F8F00BF02B0704700BF07
:1012C00050EF00E014ED00E000B589B02D4B1B6835
:1012D0000593059B03F48033002B4FD12A4B1B68E9
:1012E0000493049B5B0BC3F30E030793049B03F06F
:1012F000070304330393049BDB08C3F3090302933E
:101300000298FFF7B8FF034603F01F030193BFF3F2
:101310004F8F029B0693069A019B02FA03F319462C
:10132000079A039B02FA03F30B430093174A009BAF
:101330001360069B5A1E0692002BECD1079B5A1E87
:101340000792002BE5D1BFF34F8F114B1B6805931C
:10135000059B43F0040305930D4A059B1360094B5D
:101360001B680593059B43F480330593054A059B51
:101370001360BFF34F8FBFF36F8F00E000BF09B062
:101380005DF804FB14ED00E080ED00E060EF00E0AC
:101390009CEF00E04FF0000EFEF79EBF00BF7047CD
:1013A00082B0EFF314830193019B184602B070479B
:1013B00082B00190019B83F3148800BF02B0704794
:1013C00000B583B0FFF7ECFF0190019B43F00403ED
:1013D00001930198FFF7ECFF0B4B1B680193019BF6
:1013E00023F040430193084A019B1360074B1B689D
:1013F0000193019B43F470030193044A019B136022
:1014000000BF03B05DF804FB34EF00E088ED00E0BE
:10141000EFF30580EFF3148C1EF0040F02D0EFF30E
:10142000098107E0EFF30881A1F1700282F30888D7
:10143000BFF36F8F0A4602F16802EFF311831EF0CB
:10144000100F0CBF21ED108A403921E9FC5F1EF01E
:10145000080F04D0A1F1D80222F0070295468B466E
:1014600000F0D6FCB0E8FC5F1EF0100F0CBFB0EC33
:10147000108A40301EF0040F0CBF80F3088880F300
:10148000098883F311888CF31488704782B0EFF3D6
:1014900011830193019BDBB2184602B0704782B002
:1014A0000190019B83F3118800BF02B0704700B523
:1014B00083B0FFF7EBFF03468DF807308020FFF77E
:1014C000EEFF9DF80730184603B05DF804FB00B549
:1014D00083B003468DF807309DF807301846FFF7B4
:1014E000DEFF00BF03B05DF804FB000000B58FB065
:1014F0000190019B1B0903F00F030793079B072B28
:1015000002D96FF0150386E18A4A079B52F823300F
:101510000693069B002B02D16FF015037BE1019B24
:1015200003F00F030593019B03F44023B3F5402F11
:101530001DD0B3F5402F05D8B3F5802F05D0B3F5F6
:10154000002F11D00023089314E0019B03F4807353
:10155000002B14BF01230023DBB21946019800F0D1
:101560006FF90123089305E00223089302E00323A7
:10157000089300BFFFF79BFF03468DF81330089BCD
:10158000022B05D1019B1B0B03F00F030C9301E011
:1015900000230C93089B022B05D1019B1B0B03F02E
:1015A0000F030B9301E000230B930B9B002B29D01F
:1015B000059B072B04D820230A93059B099304E07D
:1015C00024230A93059B083B0993069A0A9B13441C
:1015D0001B680D93099B9B000F2202FA03F3DB4368
:1015E0001A460D9B13400D93099B9B000B9A02FA20
:1015F00003F30D9A13430D93069A0A9B13441A465C
:101600000D9B1360069B1B680D93059B5B000322DB
:1016100002FA03F3DB431A460D9B13400D93059B1F
:101620005B00089A02FA03F30D9A13430D93069B8D
:101630000D9A1A6000230C93089B032B0FD0019B7B
:1016400003F44033B3F5803F03D0B3F5003F03D03C
:1016500005E001230C9302E002230C9300BF069BDC
:101660000C331B680D93059B5B00032202FA03F306
:10167000DB431A460D9B13400D93059B5B000C9AB0
:1016800002FA03F30D9A13430D93069B0C331A468B
:101690000D9B13600B9B002B29D1059B072B04D8B6
:1016A00020230A93059B099304E024230A93059BB6
:1016B000083B0993069A0A9B13441B680D93099BE8
:1016C0009B000F2202FA03F3DB431A460D9B1340E3
:1016D0000D93099B9B000B9A02FA03F30D9A134397
:1016E0000D93069A0A9B13441A460D9B1360089BA0
:1016F000012B02D0089B022B1ED1019B03F44063F7
:10170000B3F5406F11D0B3F5406F05D8B3F5806FD6
:1017100005D0B3F5006F05D000230C9308E001233A
:101720000C9305E002230C9302E003230C9300BF0B
:1017300004E000BF84CD040800230C93069B08330B
:101740001B680D93059B5B00032202FA03F3DB4346
:101750001A460D9B13400D93059B5B000C9A02FAF1
:1017600003F30D9A13430D93069B08331A460D9B02
:101770001360069B04331B680D930122059B02FA3C
:1017800003F30C93089B012B02D0089B022B09D179
:10179000019B03F40073002B04D00D9A0C9B1343A0
:1017A0000D9304E00C9BDB430D9A13400D93069BB5
:1017B00004331A460D9B1360089B012B25D0019B17
:1017C00003F48073002B20D0059B03F00C02144B14
:1017D00013440393039B1B680D93059B9B0003F02D
:1017E0000C0302930F22029B02FA03F3DB431A4617
:1017F0000D9B13400D93079A029B02FA03F30D9A77
:1018000013430D93039B0D9A1A609DF813301846ED
:10181000FFF75DFE002318460FB05DF804FB00BF24
:101820000804005800B583B00190019BDBB201931E
:101830000198FFF75BFE0346184603B05DF804FB12
:1018400086B001900B468DF80330019B1B0903F015
:101850000F030493049B072B20D8124A049B52F8D1
:1018600023300393039B002B18D0019B03F00F033D
:1018700002939DF80330002B05D00122029B02FA4F
:1018800003F3059305E0029B1033012202FA03F3F0
:101890000593039B18331A46059B136000BF06B0DF
:1018A000704700BF84CD040886B00190019B1B09DE
:1018B00003F00F030593059B072B19D80E4A059BD0
:1018C00052F823300493049B002B11D0019B03F0AA
:1018D0000F030393049B10331B680121039A01FA41
:1018E00002F21340002B14BF01230023DBB200E0FF
:1018F0000023184606B0704784CD040882B0EFF389
:1019000011830193019BDBB2184602B0704782B08D
:101910000190019B83F3118800BF02B0704700B5AE
:1019200083B0FFF7EBFF03468DF807308020FFF709
:10193000EEFF9DF80730184603B05DF804FB08B5CC
:101940000020FFF7E4FF62B600BF08BD00B585B018
:10195000039002910192FFF7E2FF054A0549032037
:1019600012F056F9044A002100200FF00CFE00BFCF
:101970000CCE0408A4CD0408C0CD040800B585B081
:10198000039002910192FFF7CAFF054A054903201F
:1019900012F03EF9044A002100200FF0F4FD00BFD0
:1019A00018CE0408C8CD0408C0CD040800B585B021
:1019B000039002910192FFF7B2FF054A0549032007
:1019C00012F026F9044A002100200FF0DCFD00BFD0
:1019D00028CE0408E8CD0408C0CD040884B00190E6
:1019E000084B1B680393039B23F07F430393019BE6
:1019F0001B06039A13430393024A039B136000BF21
:101A000004B070471CED00E086B003900291019293
:101A10000093039B103B0593039B0F2B56DD059B07
:101A20001F2B0CD8009A3F4B1344029A13600122DB
:101A3000059B02FA03F31A46019B1A606EE0059BB0
:101A40003F2B0DD8009A384B1344029A1360059B24
:101A5000203B012202FA03F31A46019B1A605DE063
:101A6000059B5F2B0DD8009A304B1344029A1360EC
:101A7000059B403B012202FA03F31A46019B1A60C0
:101A80004CE0059B7F2B0DD8009A294B1344029AFA
:101A90001360059B603B012202FA03F31A46019B87
:101AA0001A603BE0059B952B0DD8009A214B1344FF
:101AB000029A1360059B803B012202FA03F31A4647
:101AC000019B1A602AE04FF0FF3328E0029B1A4A7C
:101AD0001A60039B042B04D1019B4FF480321A60DF
:101AE0001CE0039B052B04D1019B4FF400321A60CC
:101AF00014E0039B062B04D1019B4FF480221A6053
:101B00000CE0039B0F2B06D1029B0C4A1A60019B31
:101B100001221A6002E04FF0FF3300E00023184674
:101B200006B0704700E100E004E100E008E100E0F9
:101B30000CE100E010E100E024ED00E010E000E046
:101B400000B585B0384B1B6803F00F0301330193D8
:101B5000019B0293354B039309E0039B4FF0FF3247
:101B60001A60029B013B0293039B04330393029B85
:101B7000002BF2DC2E4B2F4A1A602F4B4FF0803295
:101B80001A602E4B4FF080321A602D4B4FF080328E
:101B90001A60019BDB0002932A4B039309E0039B2D
:101BA0004FF080321A60029B013B0293039B043387
:101BB0000393029B002BF2DC002223490B2003F04D
:101BC00025F800222149032003F020F87020FFF7B8
:101BD00005FF00221E49022003F018F800221D49CB
:101BE000042003F013F800221B49052003F00EF82F
:101BF00000221A49062003F009F8002218490E2095
:101C000003F004F800F0F4FC002216490C2002F066
:101C1000FDFF00221449002002F0F8FFFFF78FFEBD
:101C200000BF05B05DF804FB04E000E080E100E0E7
:101C300008ED00E00000000818ED00E01CED00E0F9
:101C400020ED00E000E400E059210008E51E000856
:101C50004D1900086D1F0008491D00083D220008AD
:101C60007D19000829260008AD19000800B587B0C5
:101C7000019003AA04A980230198FFF7C5FE03463B
:101C8000002B13D1019B0F2B04DD049B1A46039BF1
:101C900013600BE0049B1B680593039BDB43059AD1
:101CA00013400593049B1A46059B136000BF07B0C1
:101CB0005DF804FB00B587B0019003AA04A90023D6
:101CC0000198FFF7A1FE0346002B12D1019B0F2BB9
:101CD00004DD049B1A46039B13600AE0049B1B6807
:101CE0000593039B059A13430593049B1A46059B92
:101CF000136000BF07B05DF804FB82B0019000BF25
:101D000002B0704782B0EFF311830193019BDBB205
:101D1000184602B0704782B00190019B83F311888E
:101D200000BF02B0704700B583B0FFF7EBFF03467A
:101D30008DF807308020FFF7EEFF9DF8073018463A
:101D400003B05DF804FB000000B587B0039002917A
:101D50000192084B1B680593FFF7E5FF029B064ABB
:101D60000021002003F05CFA0023184607B05DF85C
:101D700004FB00BF28ED00E038CE040882B0EFF38A
:101D800011830193019BDBB2184602B0704782B009
:101D90000190019B83F3118800BF02B0704700B52A
:101DA00083B0FFF7EBFF03468DF807308020FFF785
:101DB000EEFF9DF80730184603B05DF804FB82B0D3
:101DC000EFF305830193019B184602B070470000B2
:101DD00000B583B0FFF7F3FF034601930198FFF7C7
:101DE0008CFF0021019802F04DFF074B1A68074B4A
:101DF0001B689A4203D000210E2000F0C5F900BFF5
:101E000003B05DF804FB00BFD80E0024D00E002400
:101E100000B585B0019000911F4B0393039B1B6895
:101E20000293019B0B2B04D1009B70331B68012B89
:101E300003D0029B009AC3F8A0200198FFF75DFF32
:101E4000019B0E2B0AD1029BD3F8A430002B02D0A9
:101E5000029800F0B9F8FFF7A2FF03E0009901989B
:101E600002F010FF0D4B1B680293039B1B68029945
:101E7000184603F059FE039B029A1A60029BD3F89E
:101E8000A0300093039B1B680022C3F8A020009B96
:101E9000184605B05DF804FBD80E0024D00E0024CF
:101EA00082B0EFF311830193019BDBB2184602B0BD
:101EB000704782B00190019B83F3118800BF02B08C
:101EC000704700B583B0FFF7EBFF03468DF807308E
:101ED0008020FFF7EEFF9DF80730184603B05DF84D
:101EE00004FB000000B587B00390029101920B4BF8
:101EF0001B6805930A4B1B680493059B03F00203C0
:101F0000002BFFF7DEFF029B064A0021002003F0B2
:101F100087F90023184607B05DF804FB2CED00E0BC
:101F200028ED00E040CE040882B0EFF31183019366
:101F3000019BDBB2184602B0704782B00190019B52
:101F400083F3118800BF02B0704700B583B0FFF77C
:101F5000EBFF03468DF807308020FFF7EEFF9DF87A
:101F60000730184603B05DF804FB000000B587B0E9
:101F7000039002910192084B1B680593FFF7E5FF60
:101F8000029B064A0021002003F04AF9002318466C
:101F900007B05DF804FB00BF28ED00E048CE040860
:101FA00082B0EFF305830193019B184602B070479E
:101FB00008B5FFF7F5FF0346002B14BF01230023EC
:101FC000DBB2184608BD000000B585B00190FFF7F0
:101FD000EFFF0346002B02D02F4B1B6801E02F4B75
:101FE0001B680393FFF7DCFF0290019A039B9A4260
:101FF0000CD1029B002B09D1019BD3F8A43001988E
:102000009847019B0022C3F8A42040E0019A039B5B
:102010009A4207D1029B0E2B04D000210E2000F023
:10202000B3F834E0019BD3F8A020019BC3F89C20B7
:10203000019BD3F8A030D83B1A46019BC3F8A020DF
:10204000019BD3F8A000019BD3F89C30D8221946FD
:1020500011F02DFC019BD3F8A0301A46019BD3F858
:10206000A030D8321A60019BD3F8A03088330C4AD4
:102070001A60019BD3F8A030043380221A60019BC0
:10208000D3F8A0308C334FF080721A6000BF00BFCD
:1020900005B05DF804FB00BFD80E0024D00E00246C
:1020A000F520000882B0EFF311830193019BDBB2AE
:1020B000184602B0704782B00190019B83F31188EB
:1020C00000BF02B0704700B583B0FFF7EBFF0346D7
:1020D0008DF807308020FFF7EEFF9DF80730184697
:1020E00003B05DF804FB08B50020FFF7E4FF62B61B
:1020F00000BF08BD00B583B0164B1B680193019B60
:10210000D3F89C30009300BFFFF7EDFF019BD3F89D
:10211000A43001989847FFF7D6FF019BD3F884308D
:10212000002B06D0019B5B6C03F04003002B00D119
:10213000EAE7019B0022C3F8A420019BD3F89C206E
:10214000019BC3F8A020012000DF00BF03B05DF8B1
:1021500004FB00BFD00E002488B0039002910192CE
:10216000029B0793079B1B6F0693069B013B012B6A
:1021700003D8044B1B68059300E000BF00231846FA
:1021800008B07047D00E002400B585B001900091D2
:1021900000230393019B0F2B05DD019BA3F110028C
:1021A000134B1A6020E0019B0F2B10D0019B0F2BCB
:1021B00011DC019B022B06D0019B0E2B0BD14FF0A3
:1021C0008053039308E04FF00043039304E04FF083
:1021D0008063039300E000BF039B002B04D0039AAD
:1021E00000210448FFF725F800BF05B05DF804FBA7
:1021F00000EF00E004ED00E082B0EFF31183019303
:10220000019BDBB2184602B0704782B00190019B7F
:1022100083F3118800BF02B0704700B583B0FFF7A9
:10222000EBFF03468DF807308020FFF7EEFF9DF8A7
:102230000730184603B05DF804FB000000B587B016
:10224000039002910192084B1B680593FFF7E5FF8D
:10225000029B064A0021002002F0E2FF00231846FC
:1022600007B05DF804FB00BF28ED00E050CE040885
:1022700000B583B0134B1B681B0B1B0103F030022E
:10228000104B1B681B0903F00F031343009300233B
:10229000019309E0019A0C4B13449B001A4600235A
:1022A0001360019B01330193019A009B9A42F1D381
:1022B000032200210348FEF7BCFF00BF03B05DF816
:1022C00004FB00BF002000E00208003882B0144B7D
:1022D0001B681B0F03F00F0300930023019317E00B
:1022E000019A104B13441B011A4600231360019BF3
:1022F0001A010D4B13441A4600231360019B1A0167
:102300000A4B13441A4600231360019B01330193C7
:10231000019A009B9A42E3D300BF00BF02B070470E
:10232000001000E00201000E241000E0281000E080
:1023300070B586B04E4B1B681B0F03F00F03029362
:102340000023059300230393002304932EE0049BB2
:102350001A01484B13441B680193019B03F08073DF
:10236000002B20D0019B03F00F030093049A424BF3
:1023700013441B011B680593009B072B0FD0009B88
:10238000072B0FD8009B052B03D0009B062B03D0F7
:1023900008E00123039306E00223039303E00323F1
:1023A000039300E000BF049B01330493049A029B53
:1023B0009A42CCD30023049353E03049049A134645
:1023C0009B0013449B000B4404331A68059B9A42FC
:1023D00044D12A49049A13469B0013449B000B44A2
:1023E0001B68039A9A4239D12449049A13469B00E8
:1023F00013449B000B440C331B68002B2ED01F4949
:10240000049A13469B0013449B000B440C331C6836
:102410001A49049A13469B0013449B000B44186806
:102420001649049A13469B0013449B000B44043343
:102430001968124D049A13469B0013449B002B44C9
:1024400008331D680D4E049A13469B0013449B00ED
:10245000334410331B682A46A04706E0049B01332F
:102460000493049B082BA8D900BF00BF06B070BD21
:10247000001000E0281000E00201000EF80800241F
:1024800070B584B001900023039352E02C49039A65
:1024900013469B0013449B000B441B68042B45D13F
:1024A0002749039A13469B0013449B000B440433B3
:1024B0001A68019B9A4239D12149039A13469B001D
:1024C00013449B000B440C331B68002B2ED01C497B
:1024D000039A13469B0013449B000B440C331C6867
:1024E0001749039A13469B0013449B000B4418683A
:1024F0001349039A13469B0013449B000B44043377
:1025000019680F4D039A13469B0013449B002B44FC
:1025100008331D680A4E039A13469B0013449B0020
:10252000334410331B682A46A04706E0039B01335F
:102530000393039B082BA9D900BF00BF04B070BD53
:10254000F808002470B582B00023019346E02749C3
:10255000019A13469B0013449B000B441B68052BF8
:1025600039D12249019A13469B0013449B000B4426
:102570000C331B68002B2ED01C49019A13469B007C
:1025800013449B000B440C331C681849019A1346F2
:102590009B0013449B000B4418681449019A13468E
:1025A0009B0013449B000B44043319680F4D019AA0
:1025B00013469B0013449B002B4408331D680B4EAD
:1025C000019A13469B0013449B00334410331B684D
:1025D0002A46A04706E0019B01330193019B082B8B
:1025E000B5D900BF00BF02B070BD00BFF80800241D
:1025F00008B50A4B1B6803F00103002B01D0002330
:1026000009E0FFF735FEFFF761FE054A00210548A6
:10261000FEF70FFE0023184608BD00BFF0ED00E0F6
:1026200000000101FCED00E000B587B003900291CD
:102630000192114B1B680593029B0493059B03F0C9
:102640000103002B01D0FFF77DFF059B03F0020380
:10265000002B05D0049B88331B681846FFF710FF3A
:10266000059B03F00403002B01D0FFF761FE00235C
:10267000184607B05DF804FB30ED00E008B5AFF395
:10268000008000BF08BD08B500F06AFA00BF08BDB1
:1026900000B583B0002301930A480AF0CFFB0190F4
:1026A000019B002B05DA019A0749032011F0B0FACB
:1026B00003E00649062011F0ABFA019B184603B06F
:1026C0005DF804FB58CE040868CE0408A4CE0408C4
:1026D00000B585B0002303930023009300230F4A25
:1026E0000F4900202BF088FC0290029B002B0ADA95
:1026F000029A0C49032011F08BFA039B002B07D19F
:10270000029B039304E0064A0749062011F080FA71
:10271000039B184605B05DF804FB00BFE0CE04083B
:10272000E8CE0408F0CE040814CF040882B00023D9
:102730000193019B184602B07047000000B583B0BA
:102740000023019301F068FF0190019B002B05DA43
:10275000019A0749032011F05BFA03E005490620BE
:1027600011F056FA019B184603B05DF804FB00BF58
:102770002CCF04085CCF040800B58BB0002309936C
:102780005149062011F044FA002014F0EBFB0890A8
:10279000089B002B0BDA089A4C49032011F038FAF9
:1027A000099B002B40F08B80089B099387E04849E8
:1027B000062011F02DFA4749062011F029FA464863
:1027C000FEF794FE4548FEF791FE434A4449062031
:1027D00011F01EFA414A4349062011F019FA424B02
:1027E0001B680793414B1B680693414B1B6805937D
:1027F000404B1B680493404B1B6803933F490620E2
:1028000011F006FA079B1B0A03F00103079A3C49E3
:10281000062011F0FDF9069B1B0F03F00303069A37
:102820003849062011F0F4F9059B1B0C03F0030254
:10283000059B9B0C03F0030300931346059A324952
:10284000062011F0E5F9049B03F00F02049B1B091D
:1028500003F00F0300931346049A2C49062011F04D
:10286000D7F9039B1B0A03F00102039B5B0A03F0E9
:10287000010300931346039A2549062011F0C8F975
:10288000059B1B0C03F00303022B05D1059B9B0C3E
:1028900003F00303022B03D01E49032011F0B8F903
:1028A000049B03F00F03092B05D1049B1B0903F0C4
:1028B0000F03092B03D01849032011F0A9F9099B34
:1028C00018460BB05DF804FB78CF0408A0CF0408CD
:1028D000CCCF0408F8CF040818900800199008001D
:1028E00024D0040844D00408EC4402585044025850
:1028F00000040258240402580404025864D0040856
:102900007CD00408ACD00408DCD0040820D1040832
:1029100060D104089CD10408C4D1040800B583B078
:102920000023019300F040FD0090009B002B0ADA89
:10293000009A1749032011F06BF9019B002B06D177
:10294000009B019303E01349062011F061F900F0A8
:102950000DFE0090009B002B05DA009A0E49032023
:1029600011F056F903E00D49062011F051F900F07D
:1029700047FA0190019B002B04DA019A08490320D1
:1029800011F046F9019B184603B05DF804FB00BF47
:10299000ECD1040814D204082CD204085CD2040838
:1029A00074D2040800B583B0002301930A4808F0EC
:1029B0002FFD0190019B002B05DA019A07490320A6
:1029C00011F026F903E00649062011F021F9019BD8
:1029D000184603B05DF804FB9CD20408ACD204088E
:1029E000D8D2040882B000230193019B184602B09C
:1029F000704782B000230193019B184602B07047D4
:102A000000B583B0002301930D4800F04BFE009009
:102A1000009B002B0ADA009A0A49032011F0F8F80B
:102A2000019B002B07D1009B019304E0044A064957
:102A3000062011F0EDF8019B184603B05DF804FB89
:102A400004D3040810D3040840D3040800B585B0AB
:102A50000023039300F07CFF0390039B002B19D10C
:102A6000002000F0D3FF0290029B002B12D0002028
:102A700009F08CFA0390039B002B06DA039B0022DB
:102A80002049032011F0C4F804E000221E4906206A
:102A900011F0BEF81D49062011F0BAF8002001F02F
:102AA0004FFB0190019B002B0ADA019A1849032081
:102AB00011F0AEF8039B002B1ED1019B03931BE08A
:102AC000144A1549062011F0A3F801F095FB019076
:102AD000019B002B05DA019A1049032011F098F8A8
:102AE00003E00F49062011F093F8012001F0C0FB2C
:102AF0000C49062011F08CF8039B184605B05DF8D0
:102B000004FB00BF74D304089CD30408C4D3040896
:102B1000E8D3040814D4040820D4040854D40408C6
:102B200080D40408ACD4040882B000230193019B34
:102B3000184602B0704782B000230193019B1846EB
:102B400002B0704782B000230193019B184602B087
:102B5000704782B000230193019B184602B0704772
:102B600000B583B0002301937149062011F050F89D
:102B70007049062011F04CF8FFF78AFD0090009B89
:102B8000002B04D0019B002B01D1009B0193FFF788
:102B90009FFD0090009B002B04D0019B002B01D1D6
:102BA000009B0193FFF7C2FD0090009B002B04D017
:102BB000019B002B01D1009B01935F49062011F07E
:102BC00027F8FFF7BBFD0090009B002B04D0019B72
:102BD000002B01D1009B0193FFF7A0FE0090009B0A
:102BE000002B04D0019B002B01D1009B0193FFF728
:102BF000C3FD0090009B002B04D0019B002B01D152
:102C0000009B01934D49062011F002F8FFF7CAFE20
:102C10000090009B002B04D0019B002B01D1009B56
:102C20000193FFF7DFFE0090009B002B04D0019B77
:102C3000002B01D1009B01934149062010F0E8FFD1
:102C4000FFF7D7FE0090009B002B04D0019B002BC8
:102C500001D1009B01933B49062010F0D9FFFFF7FB
:102C6000F5FE0090009B002B04D0019B002B01D1AE
:102C7000009B01933449062010F0CAFFFFF7C0FE05
:102C80000090009B002B04D0019B002B01D1009BE6
:102C90000193FFF749FF0090009B002B04D0019B9C
:102CA000002B01D1009B01932849062010F0B0FFB2
:102CB000FFF741FF0090009B002B04D0019B002BED
:102CC00001D1009B01932249062010F0A1FFFFF7DC
:102CD00039FF0090009B002B04D0019B002B01D1F9
:102CE000009B01931B49062010F092FFFFF731FF74
:102CF0000090009B002B04D0019B002B01D1009B76
:102D00000193019B002B04D11349062010F080FF92
:102D100008E0019A1149042010F07AFF10490620BA
:102D200010F076FF019B184603B05DF804FB00BF6E
:102D3000C8D40408FCD4040844D504089CD504086D
:102D4000E4D5040824D604085CD60408A4D60408F4
:102D5000ECD6040834D7040878D70408C4D704088C
:102D600018D8040882B00190019B022B01D1034BBB
:102D700000E00023184602B0704700BFAC090024F1
:102D800082B00190019B022B01D1034B00E0002394
:102D9000184602B0704700BFB009002482B0034655
:102DA0008DF807309DF80730072B03D99DF80730C1
:102DB000772B01D9002300E00123184602B07047A9
:102DC00084B001900023039312E0039A1346DB00C2
:102DD0009B1A9B001A46019B13441B7E83F0010340
:102DE000DBB2002B01D0039B07E0039B013303936D
:102DF000039B0F2BE9DD6FF00B03184604B07047FF
:102E000008B5022015F03AF90346094A1360084B49
:102E10001B68002B02D16FF0120306E04FF4E07242
:102E20000021044810F0DEFC0023184608BD00BF56
:102E3000AC090024B009002400B589B003900192C8
:102E400000930B468DF80B300398FFF799FF07901E
:102E5000079B002B02D16FF0150355E09DF80B3056
:102E60001846FFF79BFF034683F00103DBB2002BFC
:102E700002D06FF0150347E0002306930CE0069A9A
:102E80001346DB009B1A9B001A46079B13441B7ECC
:102E9000002B069B01330693069B0F2BEFDD079853
:102EA000FFF78EFF0590059B002B02DA6FF00B03F6
:102EB0002AE0059A1346DB009B1A9B001A46079BE3
:102EC00013440493049B9DF80B201A70049B019AF1
:102ED0005A60049B01221A76009B002B0AD0049BA7
:102EE00008330F220099184610F01AFE049B0022A6
:102EF000DA7508E0049B03F108009DF80B30044AE2
:102F000010210FF04EF80023184609B05DF804FBBD
:102F100064D8040800B585B001900B468DF80330E5
:102F20000198FFF72DFF0290029B002B02D16FF05A
:102F3000150331E00023039329E0039A1346DB00D5
:102F40009B1A9B001A46029B13441B7E002B1BD02E
:102F5000039A1346DB009B1A9B001A46029B1344FC
:102F60001B789DF803209A420ED1039A1346DB008A
:102F70009B1A9B001A46029B13441C2200211846F0
:102F800010F030FC002307E0039B01330393039B05
:102F90000F2BD2DD6FF00103184605B05DF804FB7E
:102FA00000B585B001900198FFF7DCFE0390039B0C
:102FB000002B01D1002307E0039B1B68002B01D1EC
:102FC000002301E0039B1B68184605B05DF804FB75
:102FD00000B58BB001900091009B00221A60019B0C
:102FE000002B08D1009B6FF015021A600023E8E067
:102FF000019B01330193019B1B78202BF8D0019B8F
:103000001B78092BF4D0019810F053FD0790079B13
:10301000022B02D9079B042B05D9009B6FF01502E8
:103020001A600023CDE0019B1B78502B05D0009B3C
:103030006FF015021A600023C3E0019B01331B7877
:103040008DF81B309DF81B30402B03D99DF81B30A9
:10305000482B05D9009B6FF015021A600023B0E0E1
:10306000019B0233059303AB0A22194605980EF023
:10307000D1FF0490039B1B78002B05D1049B002BF0
:1030800002DB049B0F2B05DD009B6FF015021A601D
:10309000002396E09DF81B30413B072B2AD801A264
:1030A00052F823F0C5300008CB300008D1300008BA
:1030B000D7300008DD300008E3300008E9300008B0
:1030C000EF300008002309931AE01023099317E05A
:1030D0002023099314E03023099311E0402309933E
:1030E0000EE0502309930BE06023099308E070235E
:1030F000099305E0009B6FF015021A60002360E061
:10310000049B0F2B52D801A252F823F04D31000836
:1031100053310008593100085F310008653100085B
:103120006B31000871310008773100087D310008EB
:1031300083310008893100088F310008953100087B
:103140009B310008A1310008A73100080023089333
:1031500032E0012308932FE0022308932CE003239D
:10316000089329E00423089326E00523089323E02D
:103170000623089320E0072308931DE00823089303
:103180001AE00923089317E00A23089314E00B239D
:10319000089311E00C2308930EE00D2308930BE035
:1031A0000E23089308E00F23089305E0009B6FF0BF
:1031B00015021A60002304E0099A089B1A43034B86
:1031C000134318460BB05DF804FB00BF0009040070
:1031D00082B00190019B012B03D0019B022B02D0F6
:1031E00003E0044B02E0044B00E00023184602B069
:1031F000704700BF700B0024700C002482B0019057
:10320000019B012B03D0019B022B02D003E0044B56
:1032100002E0044B00E00023184602B0704700BFF4
:10322000F00B0024F00C002400B589B0039002914B
:1032300013468DF80730029B06930398FFF7C8FFEB
:103240000590059B002B40D0029BB3F5803F03D334
:10325000029B9BB2069308E0029B0F2B05D9059BAE
:103260005B79002B33D000230693069BDB00059A85
:1032700013440493049B5B7983F00103DBB2002BBE
:1032800027D1049B1B79002B12D09DF80730002B0F
:1032900014BF01230023DBB283F00103DBB28DF8FE
:1032A0001F309DF81F3003F001038DF81F3003E03D
:1032B0009DF807308DF81F30049B1B689DF81F2078
:1032C00011461846FEF7BCFA04E000BF02E000BF5A
:1032D00000E000BF09B05DF804FB000000B58DB050
:1032E0000790069113468DF81730069B0B930798AD
:1032F000FFF784FF0A900A9B002B43D0069BB3F58F
:10330000803F03D3069B9BB20B9302E0069B0F2BDF
:103310003AD80B9BDB000A9A13440993099B1B794B
:1033200083F00103DBB2002B30D1099B1A689DF8B2
:103330001730002B14BF01230023DBB283F00103FD
:10334000DBB203F00103DBB219461046FEF778FA50
:103350009DF81730002B01D00E4B00E00E4B9DF86E
:103360001720002A01D00D4A00E00D4A099909688A
:103370000291019200930B9B079A0A49062010F0D4
:1033800047FC04E000BF02E000BF00E000BF0DB05A
:103390005DF804FB60D9040868D9040870D90408F2
:1033A00074D904087CD9040808B5802200210A4891
:1033B00010F018FA80220021084810F013FA802239
:1033C0000021074810F00EFA80220021054810F075
:1033D00009FA0023184608BD700B0024F00B0024E6
:1033E000700C0024F00C002400B58BB00390029107
:1033F00001928DF803300398FFF7EAFE0990099BCC
:10340000002B02D16FF0150336E0029B0F2B02D97F
:103410006FF0150330E0029BDB00099A1344089318
:10342000089B5B79002B02D06FF00F0324E005AB03
:1034300019460198FFF7CCFD0790059B002B01D0A2
:10344000059B19E00798FEF751F80690069B002BA4
:1034500001DA069B10E09DF8033019460798FEF745
:10346000EFF9089B079A1A60089B9DF803201A71D0
:10347000089B01225A71002318460BB05DF804FB2B
:1034800000B58BB00390029101920398FFF7B6FE4E
:103490000990099B002B02D16FF0150330E0029BCD
:1034A0000F2B02D96FF015032AE0029BDB00099A6B
:1034B00013440893089B1B79002B02D06FF00F0375
:1034C0001EE005AB19460198FFF782FD0790059BAA
:1034D000002B01D0059B13E00798FEF707F8069034
:1034E000069B002B01DA069B0AE001210798FEF7F4
:1034F000A7F9089B079A1A60089B01221A710023FA
:1035000018460BB05DF804FB00B585B00190009142
:103510000198FFF75DFE0390039B002B02D16FF033
:1035200015031EE0009B0F2B02D96FF0150318E066
:10353000009BDB00039A13440293029B5B7983F0A8
:103540000103DBB2002B02D06FF0010309E0029B04
:1035500000221A60029B00221A71029B00225A71FB
:103560000023184605B05DF804FB000000B585B0E7
:1035700000230393012015F0A5F90290029B002B74
:1035800011D0012102980BF019F90390039B002B35
:1035900005DA039A1349032010F03AFB03E01249BD
:1035A000062010F035FB022015F08CF90190019BEC
:1035B000002B11D0022101980BF000F90390039B1E
:1035C000002B05DA039A0949032010F021FB03E0E0
:1035D0000749062010F01CFB039B184605B05DF858
:1035E00004FB00BFA8D90408CCD90408ECD904080E
:1035F00010DA040800B585B00390029113468DF8E7
:1036000007309DF807301A4602990120FFF70CFE9B
:1036100000BF05B05DF804FB82B00190009101236A
:10362000184602B0704700B585B00390029113466A
:103630008DF807309DF807301A4602990120FFF7F0
:103640004DFE0023184605B05DF804FB00B585B0BB
:103650000390029113468DF807309DF807301A4603
:1036600002990220FFF7E0FD00BF05B05DF804FB02
:1036700082B0019000910123184602B0704700B556
:1036800085B00390029113468DF807309DF80730FE
:103690001A4602990220FFF721FE0023184605B0C2
:1036A0005DF804FB00B589B00390039B002B01D0AB
:1036B000039B00E02C4B0793079B00930023012200
:1036C0002A49062010F0A4FA0123294A00210120EA
:1036D000FFF78AFE0690069B002B06DA069A25491C
:1036E000032010F095FA069B3AE0234B0193204B00
:1036F0000093002301222149062010F089FA0120BD
:1037000015F0E0F80590059B002B0BD101221C4918
:10371000032010F07DFA00210120FFF7F5FE6FF085
:1037200012031DE001221749062010F071FA0599D5
:1037300007980DF09FF80690069B002B0ADA069A70
:103740001149032010F064FA00210120FFF7DCFE8C
:10375000069B05E0079A0D49062010F059FA002350
:10376000184609B05DF804FB30DA04083CDA0408B6
:1037700074DA040878DA0408ECDA0408B0DA040829
:10378000F8DA04081CDB040840DB040870DB0408DA
:1037900000B58BB003460A468DF80F3013468DF8FE
:1037A0000E301D4B1B68002B02D16FF012032FE06F
:1037B00000238DF810309DF80F308DF811309DF8F2
:1037C0000E308DF81230154B05933C23ADF81830B0
:1037D0000023ADF81A3004AB0793032308930E4B74
:1037E0001B681B681B680C4A106805A901229847D2
:1037F0000990099B002B0ADA9DF80F209DF80E1006
:10380000099B00930B460649032010F001FA099B1F
:1038100018460BB05DF804FB700D0024801A0600FA
:1038200004DC040800B589B00390039B002B02DA86
:103830000023039304E0039B642B01DD64230393C3
:10384000039A13461B029B1A394A82FB0312521138
:10385000DB17D31A8DF81F30039A1346DB009B1A2F
:103860005B00334A82FB03125211DB17D31ADBB21F
:1038700001338DF81E30039A1346DB009B1A5B0060
:103880002B4A82FB03125211DB17D31ADBB201332E
:103890008DF81D309DF91D301B015AB29DF91E3067
:1038A00013435BB28DF81C30039A13465B0013443C
:1038B0001B011F4A82FB03125211DB17D31A8DF82A
:1038C0001B309DF81F109DF81C309DF81B200192A5
:1038D00000930B46039A1749062010F099F99DF8BA
:1038E0001F3019468120FFF753FF0590059B002BE1
:1038F00001DA059B18E09DF81C301946D920FFF726
:1039000047FF0590059B002B01DA059B0CE09DF815
:103910001B301946DB20FFF73BFF0590059B002B72
:1039200001DA059B00E00023184609B05DF804FBAE
:103930001F85EB5134DC040882B00190019B002B01
:1039400001DC002300E00123184602B070470000AC
:1039500000B583B02249062010F05AF9022221490D
:10396000062010F055F93C221F49062010F050F9AE
:103970001E4A1F49062010F04BF901221D4906205E
:1039800010F046F91C4B194A3C210220FFF754FA6B
:103990000190019B002B04DA019A1849042010F0D1
:1039A00037F90220FFF7FCFA0346154A1360144B5F
:1039B0001B68002B0BD102221249032010F028F9BA
:1039C0003C210220FFF7A6FA6FF0120304E00E4933
:1039D000062010F01DF90023184603B05DF804FB23
:1039E00074DC040898DC0408B4DC0408801A0600BF
:1039F000D0DC0408F0DC040810DD040818DD04083D
:103A0000700D002450DD040880DD040800B585B089
:103A10000190284B1B68002B05D12749032010F08B
:103A2000F7F8002341E0254B1B68002B02D0234B05
:103A30001B683AE0019B02222149062010F0E8F8B9
:103A40001C4B1B68019A0021184608F09DFE034696
:103A50001A4A1360194B1B68002B05D11949032022
:103A600010F0D6F8002320E01749062010F0D0F817
:103A70000120FFF761FF0390039B002B0FDD13492B
:103A8000062010F0C5F80D4B1B68DB680B4A126866
:103A90000399104698470120FFF7C4FE03E00C4944
:103AA000062010F0B5F8054B1B68184605B05DF808
:103AB00004FB00BF700D0024A0DD0408740D002479
:103AC000ECDD040814DE040844DE040870DE04089B
:103AD00090DE040800B585B001900091019800F0D7
:103AE000CBFA0390039B002B01DA039B10E00099B3
:103AF000019800F013FB0290029B002B02D16FF0A3
:103B0000150305E0029A009901980BF0ADFD0346FC
:103B1000184605B05DF804FB00B58BB0019000912C
:103B2000009B00221A60019B002B08D1009B6FF0C4
:103B300015021A600023E8E0019B01330193019B09
:103B40001B78202BF8D0019B1B78092BF4D001980F
:103B50000FF0AFFF0790079B022B02D9079B042BA6
:103B600005D9009B6FF015021A600023CDE0019B80
:103B70001B78502B05D0009B6FF015021A600023B4
:103B8000C3E0019B01331B788DF81B309DF81B307F
:103B9000402B03D99DF81B30482B05D9009B6FF0B3
:103BA00015021A600023B0E0019B0233059303ABBA
:103BB0000A22194605980EF02DFA0490039B1B78F3
:103BC000002B05D1049B002B02DB049B0F2B05DD92
:103BD000009B6FF015021A60002396E09DF81B30E1
:103BE000413B072B2AD801A252F823F00D3C0008D4
:103BF000133C0008193C00081F3C0008253C000845
:103C00002B3C0008313C0008373C00080023099396
:103C10001AE01023099317E02023099314E03023BE
:103C2000099311E0402309930EE0502309930BE020
:103C30006023099308E07023099305E0009B6FF06F
:103C400015021A60002360E0049B0F2B52D801A2DA
:103C500052F823F0953C00089B3C0008A13C00086A
:103C6000A73C0008AD3C0008B33C0008B93C000884
:103C7000BF3C0008C53C0008CB3C0008D13C000814
:103C8000D73C0008DD3C0008E33C0008E93C0008A4
:103C9000EF3C00080023089332E0012308932FE053
:103CA000022308932CE00323089329E004230893BC
:103CB00026E00523089323E00623089320E007234A
:103CC00008931DE0082308931AE00923089317E0DE
:103CD0000A23089314E00B23089311E00C230893A4
:103CE0000EE00D2308930BE00E23089308E00F234A
:103CF000089305E0009B6FF015021A60002304E0B2
:103D0000099A089B1A43034B134318460BB05DF8FE
:103D100004FB00BF0009040000B583B03049062051
:103D20000FF076FF6B4619462E48FFF7F5FE034667
:103D30002D4A1360009B002B07D0009B294A2B497A
:103D400003200FF065FF009B45E0274B1B681846DA
:103D5000FDF7CCFB0190019B002B06DA019A244968
:103D600003200FF055FF019B35E06B4619462148B3
:103D7000FFF7D2FE0346204A1360009B002B07D0BA
:103D8000009B1C4A1D4903200FF042FF009B22E0CC
:103D9000194B1B681846FDF7A9FB0190019B002BEE
:103DA00006DA019A164903200FF032FF019B12E058
:103DB0000D4B1B6801211846FDF742FD0E4B1B6899
:103DC00000211846FDF73CFD0A4B064A0D49062026
:103DD0000FF01EFF0023184603B05DF804FB00BF80
:103DE000B4DF0408D8DF0408780D0024DCDF040801
:103DF00000E004082CE004087C0D002430E00408F6
:103E000054E004087CE0040808B5134906200FF0CC
:103E1000FFFE124B1B6801211846FDF711FD42F20F
:103E2000107001F0ABFF0D4B1B6800211846FDF729
:103E300007FD42F2107001F0A1FF084B1B68012141
:103E40001846FDF7FDFC064801F098FF05490620DD
:103E50000FF0DEFE00BF08BDA8E00408780D0024C6
:103E6000C0D40100D0E0040800B585B02C4906207C
:103E70000FF0CEFE2B4B00932B4B02222B4906203A
:103E80000FF0C6FE264906200FF0C2FEFFF7BCFF6A
:103E90000123254A00210220FFF7A6FA0390039B85
:103EA000002B06DA039A224903200FF0B1FE039B90
:103EB00031E01C4A00210220FFF7E2FA0390039B45
:103EC000002B0ADA039A1B4903200FF0A1FE002100
:103ED0000220FFF719FB039B1DE0022014F0F2FC07
:103EE0000346154A1360144B1B68002B0BD10222AA
:103EF000124903200FF08CFE00210220FFF704FB83
:103F00006FF0120307E00E4906200FF081FE0D4B03
:103F100001221A700023184605B05DF804FB00BFAB
:103F2000E8E004083CE1040814E1040818E104088E
:103F300040E1040864E10408840D002488E10408D9
:103F4000ACE10408800D002400B583B0464906208A
:103F50000FF05EFE28238DF807309DF8073083F0C0
:103F60003F03DB438DF80630404B1B681B681B6822
:103F70003E4A12680121104698473C4B1B681B685B
:103F8000DB68002B08D0394B1B681B68DB68374A9D
:103F90001268002110469847344B1B681B681B6948
:103FA000002B08D0314B1B681B681B692F4A126815
:103FB0000821104698472D4B1B681B689B682B4AAD
:103FC00012682B4910469847284B1B681B685B6892
:103FD000264A106801224FF480219847234B1B6822
:103FE0001B689B69214A106801224FF48021984781
:103FF0001E4B1B681B68DB691C4A12683621104681
:1040000098471A4B1B681B689B69184A1068002266
:104010004FF480219847154B1B681B68DB69134AD6
:1040200012689DF8061010469847104B1B681B68D5
:104030005B680E4A106800224FF4802198470B4BB2
:104040001B681B681B68094A1268002110469847C4
:104050009DF807209DF80630064906200FF0D8FD90
:1040600003B05DF804FB00BFC8E10408840D002420
:10407000005A6202ECE1040800B583B00190019A95
:104080001E4906200FF0C4FD1D4B1B7883F0010371
:10409000DBB2002B03D11B4B1B68002B06D11A4946
:1040A00003200FF0B5FD6FF0120322E0019B002BFF
:1040B00007D0019A154903200FF0AAFD6FF01503F0
:1040C00017E0104B1B68184608F036FE0346104AEE
:1040D00013600F4B1B68002B06D10E4903200FF015
:1040E00097FD6FF0120304E00B4906200FF090FDDE
:1040F0000023184603B05DF804FB00BF28E2040863
:10410000800D0024840D002448E2040868E20408BD
:10411000880D002484E20408ACE2040882B0019017
:104120000091019B002B02D1009B002B01D00023AA
:1041300001E0024B1B68184602B07047880D00244E
:1041400000B585B00190264906200FF061FD254994
:1041500006200FF05DFD224906200FF059FDFFF704
:10416000DBFD0390039B002B06DA039A1E49032014
:104170000FF04EFD039B2FE0FFF776FE0390039BAD
:10418000002B06DA039A194903200FF041FD039B27
:1041900022E000210020FFF79DFC0390039B002BF1
:1041A0000ADA039A124903200FF032FD002102209F
:1041B000FFF7AAF9039B0FE0FFF7C6FE08490620A8
:1041C0000FF026FD019A0B4906200FF021FD04494E
:1041D00006200FF01DFD0023184605B05DF804FB16
:1041E000E8E00408F0E2040814E3040834E30408F7
:1041F00050E3040874E3040800B583B0194B1B684E
:10420000002B04D0174B1B681B69002B06D11649E5
:1042100003200FF0FDFC6FF012031FE00023ADF848
:1042200000300023ADF802304FF4F073ADF80430E5
:104230004FF4A073ADF80630BDF804301A46BDF84F
:1042400006300A4906200FF0E3FC064B1B681B6989
:10425000044A12686946104698470346184603B058
:104260005DF804FB880D002498E30408C0E304080B
:1042700000B583B003468DF807300C4B1B689DF8E2
:10428000072011461846FDF7DBFA9DF80730002B92
:1042900001D0074B00E0074B1A46074906200FF0F4
:1042A000B7FC00BF03B05DF804FB00BF7C0D002429
:1042B000F4E30408F8E30408FCE3040800B587B05D
:1042C000039002910192019B0593059B1B6C05983D
:1042D000059A92F83C20114698470023184607B0EB
:1042E0005DF804FB00B585B001900091019B03933C
:1042F000064B1846FDF7D8FA03461A46009B1A707B
:104300000023184605B05DF804FB00BF2D01020034
:1043100000B585B001900091019B0393039B93F836
:104320003C301A46074B53F822301846FDF7BCFACA
:1043300003461A46009B1A700023184605B05DF824
:1043400004FB00BFE4E4040800B585B001900B460F
:104350008DF80330019B0393039B93F83C301A467E
:10436000064B53F822309DF8032011461846FDF7FE
:1043700067FA0023184605B05DF804FBE4E404087E
:1043800000B585B001900091019B03934523184629
:10439000FDF78AFA03461A46009B1A700023184656
:1043A00005B05DF804FB00B587B003900291039B54
:1043B000059345200023019300230093002300224E
:1043C000002111F0F9F9059B029A1A64002318469E
:1043D00007B05DF804FB000000B587B003900B4602
:1043E0008DF80B30039B05939DF80B30002B1AD0F2
:1043F000059B1B6C002B02D16FF015031EE04520BE
:10440000059B93F83C301A4613461B0113449B004E
:104410000C4A134401930C4B00930023002201210A
:1044200011F0CAF909E0452000230193002300930D
:1044300000230022002111F0BFF90023184607B025
:104440005DF804FB8C0E0024BD42000800B585B069
:10445000019000230293002303932BE0194A039B4E
:104460009B01134400221A70164A039B9B011344BC
:104470003433154A1A60039BD9B2124A039B9B013D
:1044800013443C330A461A70039B9B010D4A98184B
:10449000019B1B68591C019A1160194607F0CAFA62
:1044A0000A4B1846FDF722F8029B01330293039B47
:1044B00001330393039B002BD0DD029B184605B00C
:1044C0005DF804FB8C0D0024A8E404082D01020013
:1044D00000B585B00190002302930023039336E0DA
:1044E0001F4A039B9B01134403221A701C4A039B1F
:1044F0009B01134434331B4A1A60039BD9B2184AF8
:10450000039B9B0113443C330A461A70039B9B0197
:10451000134A9818019B1B68591C019A116019468F
:1045200007F088FA104A039B52F8233000211846FE
:10453000FDF786F90C4A039B52F823301846FCF726
:10454000D5FF029B01330293039B01330393039B2B
:10455000022BC5DD029B184605B05DF804FB00BFC9
:10456000CC0D0024BCE40408E4E4040800B585B0E4
:104570000190002302930023039341E02449039A0E
:1045800013461B0113449B000B4405221A7020495B
:10459000039A13461B0113449B000B4434331D4AFA
:1045A0001A60039BD8B21A49039A13461B0113449D
:1045B0009B000B443C3302461A701549039A13467C
:1045C0001B0113449B000B44403300221A60039AE2
:1045D00013461B0113449B000D4A9818019B1B684E
:1045E000591C019A1160194607F024FA4523184610
:1045F000FCF77CFF029B01330293039B013303937F
:10460000039B002BBADD029B184605B05DF804FB46
:104610008C0E0024D0E4040800B583B0002301937D
:10462000002300936B461846FFF710FF0246019BDC
:10463000134401936B461846FFF74AFF0246019B5D
:10464000134401936B461846FFF790FF0246019B07
:10465000134401930023184603B05DF804FB0000E7
:1046600082B0254B0193019B00221A60019B00221E
:104670001A71019B0833214A1A60019B08330122F9
:104680001A71019B10331E4A1A60019B10330522D8
:104690001A71019B18331A4A1A60019B18330522BC
:1046A0001A71019B2033174A1A60019B20330022A4
:1046B0001A71019B283308221A60019B28330922B2
:1046C0001A71019B3033104A1A60019B303300226B
:1046D0001A71019B383300221A60019B383309227A
:1046E0001A71019B403308221A60019B4033092252
:1046F0001A7100BF02B07047000F0024DC0E0024C6
:10470000D00E0024EC0E0024E40E002400B585B089
:10471000AC2200217A480FF065F800230393E5E00E
:10472000039BAC2202FB03F3754A13440293029BE2
:10473000039A1A63029B032283F84020029B012202
:10474000A3F84820029B6F4A9A63029B6D4ADA6382
:10475000029B02225A64029B0193019B00225A6031
:10476000029B93F84030684ADB0013441B7903F046
:104770000803002B0AD0029B1B6F029A92F840207C
:104780001146614A52F83120134406E0029B93F827
:1047900040301A465C4B53F832301A68019B1A605D
:1047A000029B93F84030584ADB0013441B7903F016
:1047B0000803002B0AD0029B1B6F029A92F840203C
:1047C0001146514A52F83120134406E0029B93F8F7
:1047D00040301A464C4B53F832301B68002B3ED108
:1047E000029B93F84030484ADB0013441B7903F0E6
:1047F0000803002B0AD0029B1B6F029A92F84020FC
:104800001146414A52F83120134406E0029B93F8C6
:1048100040301A463C4B53F83230019A1A60029BE2
:1048200093F84030384ADB0013441B7903F0080347
:10483000002B0AD0029B1B6F029A92F8402011466F
:10484000314A52F83120134406E0029B93F840307D
:104850001A462D4B53F83230019A5A603EE0029BC3
:1048600093F84030284ADB0013441B7903F0080317
:10487000002B0AD0029B1B6F029A92F8402011462F
:10488000214A52F83120134406E0029B93F840304D
:104890001A461D4B53F832301B68019A5A60029B2E
:1048A00093F84030184ADB0013441B7903F00803E7
:1048B000002B0AD0029B1B6F029A92F840201146EF
:1048C000114A52F83120134406E0029B93F840301D
:1048D0001A460D4B53F83230019A1A600B49039B6C
:1048E000029A41F82320039B01330393039B002B7F
:1048F0007FF716AF00BF00BF05B05DF804FB00BF37
:104900004C0F00249D490008000F0024D80E0024FD
:1049100000B585B00023039331E0039BAC2202FB7A
:1049200003F31B4A134402931A4B1B68013B039A7F
:1049300013400193184B1A68019B9B001344029A81
:104940001A60029B5B6CDBB21946029802F072FFA0
:10495000029801F03BFF029B002283F8A8200298F6
:1049600014F0B0F9029802F02DFA029802F0B4FFA8
:10497000029B9B6803221A72039B01330393039BE0
:10498000002BCADD00BF00BF05B05DF804FB00BF0F
:104990004C0F0024FC0E0024F80E002400B585B056
:1049A0003A4B01221A70FFF75BFEFFF7AFFE374B61
:1049B00002221A7006F046FC01AA02AB1146184604
:1049C00010F080FD029B019A114618460FF092FBF1
:1049D0000FF004FC1023039302E0039B5B0003939E
:1049E000039B012BF9DD039B9B0018460FF0DCFBBA
:1049F0000346274A1360274A039B1360FFF788FF8B
:104A0000254B00221A60214B03221A7000F0B2F8E5
:104A100026F042F800F0B0F802F016FC02F000F8C0
:104A200001F05EF900F00EFE1EF074F92CF0A4FC0B
:104A300014F004F806F008FC144B04221A7000234A
:104A4000039313E0039B002B0BDD039BAC2202FBC3
:104A500003F3124A134401220021184603F0C0F860
:104A600001E003F09BF8039B01330393039B002BAE
:104A7000E8DD064B05221A7000F06AF8034B0622A7
:104A80001A7000F06BFF14F013F9FCE7480F0024D4
:104A9000F80E0024FC0E0024F40E00244C0F002419
:104AA00008B502F0BDFB00BF08BD000000B58BB02B
:104AB00000230893FDF7E7FD03AB18460DF032FA2B
:104AC00064238DF80D304FF40063069303AA00238E
:104AD000019308AB0093134600220649064801F0F3
:104AE00025FF099003AB18460DF055FA00BF0BB037
:104AF0005DF804FB918D0108F0E4040800B583B073
:104B000001900091FFF7D2FF0023184603B05DF833
:104B100004FB000000B587B002F026FC03460393B7
:104B200000230293084B01934FF40063009300238A
:104B3000F0220221054801F0ABF90346059300BFBE
:104B400007B05DF804FB00BFFD4A0008FCE4040860
:104B500008B501220549064802F012FDFFF7A0FF43
:104B6000FFF7D8FF0023184608BD00BF08E504087A
:104B70000CE5040800BF704700B583B00023019323
:104B800007E0084A019B084942F83310019B0133B2
:104B90000193019BA52BF4DDFCF7D2FF00BF03B00E
:104BA0005DF804FBF80F0024214D000882B0EFF3FC
:104BB00011830193019BDBB2184602B0704782B0AB
:104BC0000190019B83F3118800BF02B0704700B5CC
:104BD00083B0FFF7EBFF03468DF807308020FFF727
:104BE000EEFF9DF80730184603B05DF804FB00B5F2
:104BF00083B003468DF807309DF807301846FFF75D
:104C0000DEFF00BF03B05DF804FB000000B589B013
:104C10000390029101926FF015030793039BA52B5C
:104C200027D8039B0693069B002B01DA069B21E005
:104C3000FFF7CDFF03468DF81730029B002B06D1FE
:104C40000398FDF713F80D4B0293002301930C49D1
:104C5000069B029A41F83320094A069BDB00134465
:104C6000019A5A609DF817301846FFF7C0FF0023DD
:104C70000793079B184609B05DF804FB214D000817
:104C8000F80F002400B587B001900091114B0593F7
:104C900000230493019B0393019BA52B10D8039B36
:104CA0000D4A52F83330002B0AD0039B0A4A52F8BF
:104CB00033300593039B084ADB0013445B6804937D
:104CC000059B049A00990198984700BF07B05DF8CA
:104CD00004FB00BF214D0008F80F002482B0EFF361
:104CE00011830193019BDBB2184602B0704782B07A
:104CF0000190019B83F3118800BF02B0704700B59B
:104D000083B0FFF7EBFF03468DF807308020FFF7F5
:104D1000EEFF9DF80730184603B05DF804FB000075
:104D200000B585B0039002910192FFF7E8FF039B65
:104D3000044A054903200EF06BFF044A00210020BD
:104D40000CF021FC2CE5040810E5040824E5040817
:104D500082B0EFF311830193019BDBB2184602B0DE
:104D6000704782B00190019B83F3118800BF02B0AD
:104D7000704700B583B0FFF7EBFF03468DF80730AF
:104D80008020FFF7EEFF9DF80730184603B05DF86E
:104D900004FB00B583B003468DF807309DF807305B
:104DA0001846FFF7DEFF00BF03B05DF804FB82B0DA
:104DB000EFF305830193019B184602B0704784B05E
:104DC0000190019B0393039B1B68184604B0704736
:104DD00008B5FFF7ECFF0346002B14BF01230023A7
:104DE000DBB2184608BD0000F0B58FB00B900A91F9
:104DF0000B9B0D9362E00D9B0C930D9B09930C9BF9
:104E00000A9A9A4202D90C9B1B6800E000230C9A74
:104E1000043211460A9A8A4202D90C9A526800E07A
:104E200000220C99083108460A99814202D90C994E
:104E3000896800E000210C980C3004460A98A042D2
:104E400002D90C98C06800E000200C9C1034254664
:104E50000A9CAC4202D90C9C246900E000240C9D01
:104E600014352E460A9DB54202D90C9D6D6900E0AD
:104E700000250C9E183637460A9EBE4202D90C9E6B
:104E8000B66900E000260C9F1C37BC460A9F6745A8
:104E900002D90C9FFF6900E0002707970696059549
:104EA00004940390029101920093099B074A0849D8
:104EB00001200EF0ADFE0D9B20330D930D9A0A9B41
:104EC0009A4298D900BF00BF0FB0F0BD88E7040830
:104ED00078E5040800B587B0039002910192009331
:104EE000019A009B13440593039B194A1949012019
:104EF0000EF08EFE019B164A174901200EF088FE27
:104F0000009B134A154901200EF082FE029B002BE4
:104F100012D0029B0E4A124901200EF079FE029B2C
:104F2000203B019A9A4202D8029B203B02930599AA
:104F30000298FFF759FF06E0019A009B13441946B7
:104F40000198FFF751FF00BF07B05DF804FB00BFF9
:104F500094E70408ACE50408BCE50408CCE50408C3
:104F6000E0E5040800B58BB00390029100230493A0
:104F7000039BDB6E0793039B5B6E0693079A069B6E
:104F8000134405930023099300238DF82330029ADC
:104F9000079B9A4206D3029A059B9A4202D2029B31
:104FA000099308E001238DF82330029B0B4A0C493A
:104FB00001200EF02DFE099B002B03D19DF823301C
:104FC000002B07D000230093069B079A09990548F8
:104FD000FFF780FF00BF0BB05DF804FBA4E70408F7
:104FE000F0E5040824E60408F0B5ADB01190109186
:104FF0001BAB4022002118460EF0F4FB1BAB4022F5
:105000001946119800F0E4FE13AB202219461198BE
:1050100000F048FD13AB2C2118460EF0AAFC2B9093
:105020002B9B002B02D02B9B20221A70119B1B6BF9
:105030000D93119B9B68002B03D0119B9B681B68F1
:1050400001E04FF0FF33119A92F834200E92119A3A
:10505000526CD20802F003021A4951F822200F9232
:105060001199496C01F00301174850F8211011986B
:10507000406C00F48070002801D0502000E02D200A
:10508000119CA46F119D6D6F119EF66E119F7F6E26
:105090001BAA0B920D4A0A92099708960795069447
:1050A00013AC0594049003910F9A02920E9A019208
:1050B00000930D9B064A074901200EF0A9FD00BF91
:1050C0002DB0F0BD68E7040878E7040874E604082A
:1050D000B0E704082CE6040808B5054A0549012094
:1050E0000EF096FD0021044800F08AFB00BF08BDC9
:1050F000BCE7040880E60408E94F000800B583B067
:1051000001900091009813F0E9FC0098FFF757FE1A
:10511000034619460198FFF725FF00BF03B05DF86D
:1051200004FB000000B5B1B0099008910792069306
:1051300000232F93099B9B68002B0CD0099B5B6C71
:1051400003F00303022B06D0099B9B681B681846DB
:1051500000F0E8FA2F900AAB18460CF00DFB0AAAF3
:105160000AAB7D3303930AAB4A3302930AAB353360
:1051700001930AAB153300931346184A18490120CE
:105180000EF046FD069B002B01D0069A00E0154A62
:10519000089B002B01D0089B00E0124B2F9900299F
:1051A00001D0114900E011490998C06B04900391A6
:1051B0000D4902910799019100931346074A0C4942
:1051C00001200EF025FD32990998FFF797FF09F0AD
:1051D0002FFB00BF31B05DF804FB00BFC8E7040837
:1051E000F0E6040818E7040874E604081CE704085D
:1051F00024E7040800B585B0039002910192009362
:10520000FFF76AFF09F014FB09F012FB00BF05B0BD
:105210005DF804FB08B5FA2002F08DF8FBE700000A
:1052200000B58FB00590049103920293464B1B7812
:10523000DBB2042B8CBF012300238DF83630FFF73F
:10524000C7FD0346002B02D0404B1B6801E0404BDA
:105250001B680C933C4B1B78DBB2072B01D1FFF78B
:10526000D9FF00238DF837309DF83630002B06D05B
:10527000FFF77FFD03468DF8373000F00DFBFFF799
:10528000A7FD0346002B05D10C9B5B6C03F00303C9
:10529000022B02D12C4B07221A70029B002B05D146
:1052A0002C4810F0EDF82B4B029304E0D822029921
:1052B00028480EF0FCFA0C9B0793029B0893059B71
:1052C0000A93049B0B93039B09931F4B1B78DBB240
:1052D000072B14BF01230023DBB21A4607AB194684
:1052E000104600F069F809F0A3FA029B0093039BB3
:1052F000049A05990C98FFF715FF134B1B78DBB246
:10530000072B12D1029B0093039B049A05990C98DA
:10531000FFF770FF07AB1946022000F04DF800219F
:10532000022000F0F3F8FFF775FF9DF83630002BF0
:1053300006D09DF837301846FFF72BFD00F00EFB26
:1053400000BF0FB05DF804FB480F0024D80E002406
:10535000D00E00243015002482B0EFF311830193A6
:10536000019BDBB2184602B0704782B00190019BEE
:1053700083F3118800BF02B0704700B583B0FFF718
:10538000EBFF03468DF807308020FFF7EEFF9DF816
:105390000730184603B05DF804FB00B583B0034640
:1053A0008DF807309DF807301846FFF7DEFF00BF85
:1053B00003B05DF804FB000000B589B001900091D6
:1053C0001A4B0593FFF7D9FF03468DF813304FF0C2
:1053D000FF33069300230393059B1B68079315E097
:1053E000079B5B680293079B1B68009A01990798CB
:1053F0009847039B002B04D0039B1B685A1C039BFC
:105400001A60029B0793069B013B0693079B002BA8
:1054100002D0069B002BE3D19DF813301846FFF70E
:10542000BCFF00BF09B05DF804FB00BF08160024F4
:1054300082B0EFF311830193019BDBB2184602B0F7
:10544000704782B00190019B83F3118800BF02B0C6
:10545000704700B583B0FFF7EBFF03468DF80730C8
:105460008020FFF7EEFF9DF80730184603B05DF887
:1054700004FB00B583B003468DF807309DF8073074
:105480001846FFF7DEFF00BF03B05DF804FB000025
:1054900000B589B001901C4B0593FFF7DAFF034676
:1054A0008DF81330059B0793019B0393002306930C
:1054B00013E0079B1B68039A9A4203D16FF0100315
:1054C00006930EE0039B9A68079B1B689B689A42B1
:1054D00007DC079B1B6804330793079B1B68002BA3
:1054E000E7D1069B002B06D1079B1A68039B5A60E5
:1054F000079B039A1A609DF813301846FFF7B9FF0F
:1055000000BF09B05DF804FB0C16002400B589B09B
:10551000019000911A4B0593FFF79BFF03468DF80E
:1055200013304FF0FF33069300230393059B1B6852
:10553000079315E0079B5B680293079B1B68009A23
:10554000019907989847039B002B04D0039B1B6885
:105550005A1C039B1A60029B0793069B013B069310
:10556000079B002B02D0069B002BE3D19DF8133044
:105570001846FFF77EFF00BF09B05DF804FB00BFCF
:105580000C16002488B00390029111461A460B466F
:10559000ADF8063013468DF80530002307931DE063
:1055A000029B0693069B9DF805201A72039B0593A8
:1055B000069B0493059B1A68049B1A60049B059A3A
:1055C0005A60059B1B68049A5A60059B049A1A60EE
:1055D000029B2C330293079B01330793BDF80630DF
:1055E000079A9A42DCDB029B184608B0704788B0E5
:1055F000039002911346ADF806300023079317E09D
:10560000039B0693029B0593069B1A68059B1A60F1
:10561000059B069A5A60069B1B68059A5A60069B72
:10562000059A1A60029B30330293079B013307935C
:10563000BDF80630079A9A42E2DB029B184608B092
:105640007047000000B585B01A4B03931A4B0293C4
:10565000029B029A5A60029B5A68029B1A600023BE
:10566000082203991448FFF78DFF0390134B019311
:10567000019B019A5A60019B5A68019B1A600223A0
:10568000082203990D48FFF77DFF03900C4B009310
:10569000009B009A5A60009B5A68009B1A6008227F
:1056A00003990748FFF7A3FF039000BF05B05DF81B
:1056B00004FB00BF20160024101600241816002436
:1056C000601A002482B0EFF311830193019BDBB2D7
:1056D000184602B0704782B00190019B83F3118895
:1056E00000BF02B0704700B583B0FFF7EBFF034681
:1056F0008DF807308020FFF7EEFF9DF80730184641
:1057000003B05DF804FB00B583B003468DF80730A5
:105710009DF807301846FFF7DEFF00BF03B05DF8C5
:1057200004FB000000B587B0019000230593FFF74C
:10573000DAFF03468DF81330174B1B68002B21D07E
:10574000019B002B1EDB154B1B68013B019A13408C
:105750000393114B1A68039B9B0013441B68002B97
:1057600010D00D4B1A68039B9B0013441B681B6BE6
:10577000019A9A4206D1084B1A68039B9B00134476
:105780001B6805939DF813301846FFF7BCFF059B77
:10579000184607B05DF804FBF80E0024FC0E002448
:1057A00082B0EFF311830193019BDBB2184602B084
:1057B000704782B00190019B83F3118800BF02B053
:1057C000704700B583B0FFF7EBFF03468DF8073055
:1057D0008020FFF7EEFF9DF80730184603B05DF814
:1057E00004FB00B583B003468DF807309DF8073001
:1057F0001846FFF7DEFF00BF03B05DF804FB0000B2
:1058000000B585B001900091FFF7DBFF03468DF8EE
:105810000B3000F041F80023039314E0124B1A6898
:10582000039B9B0013441B68002B09D00E4B1A6886
:10583000039B9B0013441A68019B009910469847EC
:10584000039B01330393094B1B68039A9A42E5DBE0
:1058500000F084F89DF80B301846FFF7C2FF00BF38
:1058600005B05DF804FB00BFF80E0024FC0E002418
:1058700082B0EFF305830193019B184602B0704795
:1058800008B5FFF7F5FF0346002B14BF01230023E3
:10589000DBB2184608BD000000B583B0FFF7F0FF8B
:1058A000034683F00103DBB2002B0FD0094B1B68CA
:1058B0000193019B002B09D0019BB3F948309BB2A7
:1058C00001339BB21AB2019BA3F8482000BF03B07A
:1058D0005DF804FBD00E002482B0EFF31183019336
:1058E000019BDBB2184602B0704782B00190019B69
:1058F00083F3118800BF02B0704700B583B0FFF793
:10590000EBFF03468DF807308020FFF7EEFF9DF890
:105910000730184603B05DF804FB00B583B00346BA
:105920008DF807309DF807301846FFF7DEFF00BFFF
:1059300003B05DF804FB82B0EFF305830193019B94
:10594000184602B0704708B5FFF7F5FF0346002B75
:1059500014BF01230023DBB2184608BD00B585B093
:10596000FFF7F1FF034683F00103DBB2002B4AD0BF
:10597000274B1B680193019B002B3BD0019BB3F984
:105980004830012B36D1FFF7B8FF03468DF80F30B2
:10599000019B0022A3F848201E4B1B680293029B28
:1059A000002B0ED000F0C6F80346002B09D0FFF7FD
:1059B000CAFF034683F00103DBB2002B01D00220B3
:1059C00000DF019B5B6C03F01803082B0BD1019BDC
:1059D000DB6C002B07D10E4B1A68019B9A4202D058
:1059E000019B1422DA649DF80F301846FFF795FFEB
:1059F00000BF08E0019BB3F9482092B2013A92B28D
:105A000012B2A3F8482000BF05B05DF804FB00BF48
:105A1000D00E0024DC0E002484B00190019B1B6892
:105A200023F000430393039A054B1340044A934227
:105A300001D0039B01E04FF0FF33184604B07047DC
:105A4000FEFFFF7F82B0EFF311830193019BDBB276
:105A5000184602B0704782B00190019B83F3118811
:105A600000BF02B0704700B583B0FFF7EBFF0346FD
:105A70008DF807308020FFF7EEFF9DF807301846BD
:105A800003B05DF804FB00B583B003468DF8073022
:105A90009DF807301846FFF7DEFF00BF03B05DF842
:105AA00004FB000000B587B0039002910192FFF75C
:105AB000DAFF03468DF81730039B93F84030052B2F
:105AC00018D1039B1B6F1B7903F00403002B11D02B
:105AD000039B1B6F1846FFF79FFF04909DF817303C
:105AE0001846FFF7D0FF049B0D4A019902980CF06D
:105AF00058FA11E09DF817301846FFF7C4FF039BD2
:105B000093F840301A46074B53F82230019A194651
:105B100002980DF07DFE00BF00BF07B05DF804FBEA
:105B200058E804086CE8040882B00190009100BFB6
:105B300002B0704786B000238DF80F302E4B1B68E3
:105B40000493049BB3F94830002B50DC2B4B1B68AB
:105B5000059343E0059B1B68029302E0049B1B68CE
:105B60000493049B002B07D0059B93F83420049BDF
:105B700093F834309A42F1D9049B5B680193019BFE
:105B8000002B17D1059B049A1A60059B00225A60CE
:105B9000049B059A5A60184A059B1360049B0222D5
:105BA00083F84020059B032283F8402001238DF8D1
:105BB0000F300FE0059B049A1A60059B019A5A600A
:105BC000019B059A1A60049B059A5A60059B022264
:105BD00083F84020059B0493029B0593059B002BB3
:105BE000B8D1064B00221A60044B00225A609DF87F
:105BF0000F30184606B07047D00E0024DC0E00248B
:105C000086B00390029111461A460B46ADF8063055
:105C100013468DF805300023059320E0029B9DF884
:105C200005201A77029B03F1200202920493049B41
:105C300000221A60039B1B68002B06D1039B049A69
:105C40001A60039B049A5A6006E0039B5B68049AFF
:105C50001A60039B049A5A60059B01330593BDF8B3
:105C60000630059A9A42D9DB029B184606B0704767
:105C700086B00390029111461A460B46ADF80630E5
:105C800013468DF805300023059320E0029B9DF814
:105C900005201A75029B03F1180202920493049BDB
:105CA00000221A60039B1B68002B06D1039B049AF9
:105CB0001A60039B049A5A6006E0039B5B68049A8F
:105CC0001A60039B049A5A60059B01330593BDF843
:105CD0000630059A9A42D9DB029B184606B07047F7
:105CE00000B583B01F4B01931F4B00221A601E4B5F
